:020000040800F2
:1000000078160020FD6E00088102000883020008B7
:10001000870200088B0200088F0200080000000021
:100020000000000000000000000000009302000833
:1000300095020008000000009702000899020008DD
:10004000176F0008176F0008176F0008176F000878
:10005000176F0008176F0008176F0008176F000868
:10006000176F0008176F0008176F0008176F000858
:10007000176F0008176F00087B5E0008176F0008F5
:10008000176F00084F5F0008176F0008176F000810
:10009000176F0008176F0008176F0008176F000828
:1000A000176F0008176F0008176F0008176F000818
:1000B00083530008176F00082D540008176F0008BD
:1000C000176F0008176F0008176F0008176F0008F8
:1000D000176F0008835B00081F5D0008176F00089A
:1000E000035A0008176F0008176F0008DFF80CD0DC
:1000F0000AF0BAFA0048004701010008781600200B
:1001000000BF00BF00BF002400F05DF94FF4A06005
:1001100007F08AFC4FF4E13005F0D2FC4FF4E130F7
:1001200005F09DFD642000F017F930A004F05CFF9D
:1001300006F022FD30A004F057FF00F0AFF835A024
:1001400004F052FF05F02CFF39A004F04DFF05F03C
:1001500030F83EA004F048FF4FF4FA7000F0FCF8CD
:100160004FF4FA7000F0F8F804F08BFC00F0CAF9D4
:1001700004F01DF93C4A3D493D4802F04FFF3C4820
:10018000807810B901203A4908703948C07810B910
:100190000120374948703448407810B9012032496D
:1001A000087001203349087448748874C87400F0DA
:1001B000DCFC00F04EFD012807D101032E4806F0BB
:1001C000BEFF05F0E5FB00F093FD03F012F82B49AC
:1001D000087003F043FF05F0A2F805F06FF803E0A4
:1001E000C82000F0B9F8641CFAE70000506F77658A
:1001F00072204F6E210A00004472697665723A4996
:10020000494320696E69742066696E697368656424
:100210007E0A00004472697665723A4C4544206952
:100220006E69742066696E69736865647E0A000091
:100230004472697665723A41444320696E6974205C
:1002400066696E69736865647E0A00004472697647
:1002500065723A50574D20696E69742066696E69FF
:10026000736865647E0A00008C030020B8060020D5
:10027000F80600205804002000080140E502002094
:10028000704700BFFEE700BFFEE700BFFEE700BF0C
:10029000FEE77047704770477047000008B509F0E7
:1002A000F2FB0121042007F057F90121084607F06D
:1002B00053F90121264806F064FF10208DF8030051
:1002C0004FF41040ADF8000003208DF8020069469D
:1002D000204806F085FE4FF410411E4806F02DFF21
:1002E00008BD10B54FF4FA7000F036F84FF4FA700C
:1002F00000F032F84FF4FA7000F02EF84FF4FA7074
:1003000000F02AF84FF40041124806F018FF4FF4AD
:100310008051104806F013FF4FF4FA7000F01CF8FB
:100320004FF4FA7000F018F84FF4FA7000F014F877
:100330004FF4FA7000F010F84FF40041054806F051
:10034000FCFE4FF40041034806F0F7FE10BD00002C
:100350000002300000080140014601224FF0E02376
:100360001A6142F228324A435A6100229A6100BF60
:100370004FF0E022106900F001021AB100F480325F
:10038000002AF5D000224FF0E0239A611A617047ED
:10039000014601224FF0E0231A6101EBC1025A61CC
:1003A00000229A6100BF4FF0E022106900F00102C4
:1003B0001AB100F48032002AF5D000224FF0E02379
:1003C0009A611A61704710B506F058FF4FF48030FB
:1003D00006F074FF00BF06F0B0FF0128FBD1022039
:1003E00007F090FB102007F0A1FB4FF4E0114FF451
:1003F000803006F0CBFF012006F0D4FF00BF39208B
:1004000006F07FFF0028FAD0002006F0DCFF002075
:1004100006F0EBFF4FF4806006F0DEFF4FF4004083
:1004200006F0FEFF022007F06DFB002007F073FBD3
:10043000102007F07BFB022006F0B7FF10BD000084
:1004400010B55821EE2006F0D3FC10BD70B5014662
:1004500000230126887B00F00F05C88900F47F4047
:10046000C881002204E031F8120000B10026521CBD
:10047000082AF8DB0EB1012070BD002218E002F05E
:10048000010020B1501011F81000434004E050105A
:1004900031F8100083EA2023082406E003F400402A
:1004A00008B183F4C0535B00641E002CF6DC521CC0
:1004B000102AE4DBC8892843C881C3F3033085428E
:1004C00001D10020D8E70120D6E738B50446002046
:1004D0000090A02000EB4400C1B26B460222EE2047
:1004E00006F0CBFC9DF801009DF8001040EA0120C9
:1004F00038BD10B51E21EE2006F07AFC0A20FFF769
:100500002BFF10BD38B50A20FFF726FF6B460122EE
:10051000A021EE2006F0B1FC0020E7494870012040
:100520000870FFF7E6FF6420FFF716FF002408E0DD
:1005300060B2FFF7CAFFE0490C3121F81400601CDB
:10054000C4B2082CF4DBDC480C30FFF77FFF08B1A5
:10055000002038BDFFF774FF0120FAE708B56B46AD
:1005600003220021EE2006F088FC9DF80000000424
:100570009DF8011040EA01209DF80210084308BDD3
:1005800010B54821EE2006F033FC10BD2DE9F04FE8
:1005900085B00446E18A4FF48072A1FB02126068C4
:1005A000B0EB0109218A4FF000004FEA004040EA19
:1005B00011404FEA0142A18A4FF000034FEAE97C63
:1005C000A1FB09AB03FB09B301FB0C334FEADA11C2
:1005D00041EA4361511840EBE310CDE90210E18993
:1005E0004FF000004FEAC03040EA51404FEAC132BC
:1005F000618A4FF000034FEAE97CA1FB09AB03FBE2
:1006000009B301FB0C334FEA1A2141EA0361511887
:1006100040EB2320CDE90010208B4FF000024FEA81
:10062000E973A0FB091C02FB09C200FB03224FEA8D
:10063000D15040EA42214FEAE2504FF4FA63CD181C
:1006400040F100061946691A76F100005FDA194692
:100650006F1A66F1000805210022A7FB010308FBC1
:10066000013107FB021201463846A1FB003A02FBAA
:1006700007A008FB01081F465FEA68024FEA37033C
:10068000DDE90201C01A61EB0201CDE90201B808FF
:1006900040EA8870DDE90012081A62EBA802CDE991
:1006A00000028649691A76F1FF3030DA40F2DC51F7
:1006B0006F1846F100083846A0FB002308FB003302
:1006C00008FB0738174607210020A7FB012308FB7A
:1006D000013107FB0013DDE90210891A60EB03000A
:1006E000CDE902100B2200213B46A3FB02CA08FB06
:1006F00002A007FB010160465FEA610C4FEA30038C
:10070000DDE90020D11A60EB0C00CDE900100023D8
:10071000A068DDE90012A0FB01CA03FB01A100FBF8
:1007200002104FEA5C5141EAC0234115DDE90202A3
:10073000181A61EB0201C00B40EA41400490049892
:1007400009F0B1FC2062E56105B0BDE8F08F38B575
:100750000446207801287AD159480088502190FB1E
:10076000F1F201FB120020B94FF40041554806F0A8
:10077000E6FC53480088502190FBF1F201FB120087
:10078000282804D14FF400414E4806F0D6FC4C48CE
:100790000088C82805DA4A480088401C4849088073
:1007A00038BD49480078092844DD4748007809F0F9
:1007B0007AFC054629464548006809F0A5FA6062BA
:1007C0000120607000202070606A20620020A0621A
:1007D0000021204603F04AFBE06A606300202063AA
:1007E0003B4908603B4908603B490860394908605B
:1007F000334908803449087034490860012037497A
:10080000C874206A09F072FC4FF6FF7101EA2040BB
:10081000ADF80000206A09F069FC80B2ADF8020072
:1008200001212F4802F094FB022269462C4802F075
:10083000AEFB0CE024480078401C23490870234894
:10084000216A006809F0D6F920490860A8E700BFCE
:10085000A6E710B52349088800EBD0714910A0EB3A
:10086000410131B9FFF77AFE13494860FFF788FE6E
:100870001CE01C49088800EBD0714910A0EB410135
:10088000012913D1FFF76AFE0B4988600846FFF77C
:100890007DFE0121084803F0E9FA074800780128A5
:1008A00002D10548FFF753FFFFF7CAFD0D48008846
:1008B000401C0C49088010BD8C03002024FAFFFF67
:1008C0000000002000080140020000200400002079
:1008D0003C01002044010020240100205804002095
:1008E00000A001080800002070B58C48007818B1FD
:1008F0008A480078012827D18948807801281BD1AF
:100900008748C078012817D186484078012813D13C
:100910008548407801280FD18448007802280BD1FF
:10092000834890F85600012806D17C48007830B9F9
:1009300001207A49087002E00020784908700021FF
:100940007C4804F06BFB70BD74480078022831D1FC
:100950000221784804F062FB04F04BFF7649886B73
:1009600009F029FC21F0004104460022734B09F0F4
:1009700035FC1BD87049C86B09F01DFC21F0004103
:10098000044600226D4B09F029FC0FD86C48008802
:10099000401C6B49088008460088B0F5487F08D99C
:1009A0000020088003205D49087002E000206449AF
:1009B0000880C8E759480078052806D104F019FFD7
:1009C00005215C4804F02AFBBDE754480078032861
:1009D0007ED15949886B09F0EEFB21F000410446B5
:1009E0000022584B09F012FC0BD35349C86B09F095
:1009F000E2FB21F0004104460022524B09F006FCC4
:100A00000ED251480088401C4F4908800846008893
:100A1000C82808D90020088005204049087002E055
:100A200000204949088049480088494908804948C8
:100A3000C069494908604948C06948604848C06978
:100A400088604348008809F02EFB04464548C16988
:100A5000204609F0CFF84049C8600A461168D068BE
:100A600009F0C8F806463C484168304609F0C2F82B
:100A7000054639488168284609F00EF9044609F010
:100A80004EFB2C490880344A1168D06809F004F9FB
:100A9000064631484168304609F0ACF805462E4814
:100AA0008168284609F0A6F8044609F038FB214978
:100AB0004880294A1168D06809F0EEF806462648B1
:100AC0004168304609F0E8F805462348816800E0AF
:100AD00021E0284609F0E0F8044609F020FB15491A
:100AE00088801D4A1168D06809F084F806461A48C3
:100AF0004168304609F0D0F8054617488168284615
:100B000009F078F8044609F00AFB0A49C880032175
:100B1000084804F083FA00BF15E770470C00002076
:100B2000F8060020B80600208C030020E502002013
:100B300072050020D60200204C0000200000244056
:100B40001A0000200000394010000020300400206E
:100B5000180000207C0800201C0900209C080020B0
:100B6000BC080020FC080020704708B501210420C3
:100B700006F0F2FC4FF40060ADF8000010208DF894
:100B8000030003208DF802006946C84806F028FAE1
:100B90004FF40061C54806F0D2FA4FF48070ADF80A
:100BA000000010208DF8030003208DF80200694634
:100BB000BE4806F015FA4FF48071BC4806F0BDFA45
:100BC00004F068FE4FF48071B84806F0B6FA08BD2C
:100BD0002DE9F04107460C4615464FF48071B348A5
:100BE00006F0ADFA384604F096FE8046002606E090
:100BF000002004F090FE2070641C701CC6B2AE424F
:100C0000F6DB4FF48071A94806F097FA4046BDE83C
:100C1000F0812DE9F04107460C4615464FF48071EE
:100C2000A24806F08CFA384604F075FE804600268D
:100C300005E0207804F06FFE641C701CC6B2AE4262
:100C4000F7DB4FF48071994806F077FA4046BDE82B
:100C5000F0811FB596A103C9CDE90201052202A9C1
:100C60003020FFF7D6FF052269461020FFF7B0FFBE
:100C7000002408E01DF8040002A9095D884200D0A4
:100C800003E0601CC4B2052CF4DB00BF052C02D0CD
:100C9000002004B010BD0120FBE770B505460C46EE
:100CA0004FF48071814806F04AFA284604F033FE7A
:100CB0000646204604F02FFE4FF480717B4806F074
:100CC0003CFA304670BD70B504464FF480717748E9
:100CD00006F035FA204604F01EFE002004F01BFE4C
:100CE00005464FF48071714806F027FA284670BD1A
:100CF00010B54FF400616D4806F021FA0A20FFF7A5
:100D00002BFB01212120FFF7C8FF01212220FFF743
:100D1000C4FF03212320FFF7C0FF052266492A20D4
:100D2000FFF777FF01212520FFF7B7FF26210846AF
:100D3000FFF7B3FF01213C20FFF7AFFF06213D2065
:100D4000FFF7ABFF0F212020FFF7A7FF4FF4006153
:100D5000564806F0F2F910BD10B54FF40061534843
:100D600006F0EDF901212220FFF797FF0321232050
:100D7000FFF793FF052251493020FFF74AFF052274
:100D80004D492A20FFF745FF5A212420FFF785FF10
:100D900001212520FFF781FF26210846FFF77DFF6F
:100DA00001213C20FFF779FF06213D20FFF775FF69
:100DB0000E212020FFF771FF10BD10B54FF4006128
:100DC0003A4806F0BCF90021E120FFF766FF10BDAC
:100DD00010B54FF40061354806F0B1F91720FFF760
:100DE00072FF0446204610BD70B504460D464FF410
:100DF00000612E4806F0A3F9FFF7EAFF064606F069
:100E0000200008B1FFF7D9FF2A462146A020FFF7AE
:100E100000FF4FF40061254806F08FF9002070BDF7
:100E200010B54FF40061214806F089F90021E22055
:100E3000FFF733FF10BD10B54FF400611B4806F0FB
:100E40007EF90720FFF73FFF04464FF40061174883
:100E500006F073F9204610BD70B505460C461646DF
:100E6000052C01DDFF2070BD04F1A801C8B2324697
:100E70002946FFF7CEFE0120F5E710B56020FFF709
:100E800022FF10BD10B50446FFF7F7FFA070A07851
:100E9000202803DDFFF7C4FF002010BDA27804F175
:100EA00024016120FFF794FE0120F6E700080140CD
:100EB000AABBCCDDFF00000081CD00087CCD00087E
:100EC00070B505460C46224600212846FFF7C4FFB0
:100ED00070BD2DE9F84380460E460024AA22214623
:100EE000641CF74842542146641C425405222146A2
:100EF000641C425400222146641C4254F14940467D
:100F000008F0D0FE814609F00AF980B200909DF801
:100F100001202146641CEA4842549DF800202146E5
:100F2000641C4254E749304608F0BCFE814609F093
:100F3000F6F880B200909DF801202146641CE0483C
:100F400042549DF800202046611CCCB2DC490A5472
:100F5000201FC8700027002505E0D948405D3844AF
:100F6000C7B2681CC5B2A542F7DB2046611CCCB2F3
:100F7000D3490F542146D248FFF7A2FFBDE8F883BA
:100F80000FB42DE9FE4F0024AA222146641CCC4850
:100F900042542146641C425404222146641C42549B
:100FA00000222146641C42549DF8860002909DF860
:100FB00008202146641CC24842549DF8300002902B
:100FC0009DF808202146641CBD4842549DF88700C6
:100FD00002909DF808202146641CB9484254002222
:100FE000B94BDDE91D71384608F073FF824609F000
:100FF000C9F800909DF803202046611CCCB2B0498E
:101000000A549DF802202046611CCCB2AC490A5417
:101010009DF801202046611CCCB2A9490A549DF8D4
:1010200000202146601CC4B2A54842549DF87C9023
:101030002046611CCCB2A24901F80090DDF87D7019
:10104000DDF881100022A04B384608F042FF8246AE
:1010500009F098F800909DF803202046611CCCB25E
:1010600097490A549DF802202046611CCCB294494D
:101070000A549DF801202046611CCCB290490A54C4
:101080009DF800202046611CCCB28D490A549DF881
:1010900085902046611CCCB2894901F80090DDF8AA
:1010A0009B008A4908F0FEFD074609F01FF800B2D0
:1010B00001909DF805202046611CCCB280490A545D
:1010C0009DF804202046611CCCB27D490A54DDF80D
:1010D000AF007C4908F0E6FD074609F007F800B2CA
:1010E00001909DF805202146601CC4B2744842540A
:1010F0009DF804202046611CCCB271490A549DF829
:1011000071000830C0B202909DF808202046611C92
:10111000CCB26B490A549DF8720002909DF80820E9
:101120002046611CCCB266490A549DF873000290B7
:101130009DF808202046611CCCB261490A54201F4A
:10114000C8700026002505E05D48405D3044C6B209
:10115000681CC5B2A542F7DB2046611CCCB25849D9
:101160000E5421465648FFF7ABFEBDE8FE0F5DF872
:1011700014FB2DE9F84F06460F4690469946DDF8D8
:1011800028B00024AA222146641C4D48425421461E
:10119000641C425402222146641C4254002221460F
:1011A000641C425400969DF801202146641C425460
:1011B0009DF800202146641C425400979DF80120B0
:1011C0002146641C42549DF800202046611CCCB28C
:1011D0003B490A54CDF800809DF801202046611C4F
:1011E000CCB237490A549DF800202046611CCCB28D
:1011F00033490A54CDF800909DF801202046611C27
:10120000CCB22F490A549DF800202046611CCCB274
:101210002B490A54CDF800B09DF801202046611CEE
:10122000CCB227490A549DF800202046611CCCB25C
:1012300023490A540B9800909DF801202046611C18
:10124000CCB21F490A549DF800202046611CCCB244
:101250001B490A540C9800909DF801202046611CFF
:10126000CCB217490A549DF800202046611CCCB22C
:1012700013490A540D9800909DF801202046611CE6
:10128000CCB20F490A549DF800202046611CCCB214
:101290000B490A540E9800909DF801202046611CCD
:1012A000CCB207490A549DF800202046611CCCB2FC
:1012B00003490A54201FC8704FF0000A00250EE0B1
:1012C000100400200000C84280842E41000020410C
:1012D000F748405D504400F0FF0A681CC5B2A542C3
:1012E000F6DB2046611CCCB2F14901F800A0214692
:1012F000EF48FFF7E5FDBDE8F88F2DE9FE4F824688
:101300000E4617469846DDF830B00024A146AA22C2
:101310002146641CE64842542146641C4254012282
:101320002146641C425400222146641C4254E14977
:10133000504608F0B7FC009008F0D8FE00B20290CA
:101340009DF809202146641CD94842549DF8082084
:101350002146641C4254D749304608F0A3FC009053
:1013600008F0C4FE00B202909DF809202146641CDA
:10137000CF4842549DF808202046611CCCB2CC498D
:101380000A54CC49384608F08DFC009008F0AEFEB7
:1013900000B202909DF809202046611CCCB2C449DD
:1013A0000A549DF808202046611CCCB2C0490A545A
:1013B000C049404608F076FC009008F097FE019086
:1013C0009DF807202046611CCCB2B9490A549DF80B
:1013D00006202146601CC4B2B54842549DF8052041
:1013E0002046611CCCB2B2490A549DF80420204624
:1013F000611CCCB2AE490A54AE49584608F052FCC2
:10140000009008F073FE00B202909DF8092020467B
:10141000611CCCB2A6490A549DF808202046611CE4
:10142000CCB2A3490A542146621CD4B2A04A0D98FA
:1014300050542146621CD4B29D4A0E985054201F2D
:101440001146C870002506E09948405D484400F008
:10145000FF09681CC5B2A542F6DB2046611CCCB270
:10146000934901F8009021469148FFF729FDBDE816
:10147000FE8F2DE9F04105460E460027AA208C4933
:1014800008704870EF2088700220C8700846057107
:101490004671002405E08648005D3844C7B2601CF0
:1014A000C4B2062CF7DB824887710721FFF708FDDD
:1014B000BDE8F0810FB42DE9F8430646002400276B
:1014C000AA222146641C7A4842542146641C425494
:1014D00006F10F00C2B22146641C75484254002236
:1014E0002146641C42547449099808F0DBFB80468D
:1014F00008F0FCFD00B200909DF801202146641C1C
:101500006B4842549DF800202146641C42546A49AD
:101510000A9808F0C7FB804608F0E8FD00B200908A
:101520009DF801202146641C614842549DF800202A
:101530002146601CC4B25E4842545F490B9808F0D3
:10154000B1FB804608F0D2FD00B200909DF801206A
:101550002146601CC4B2564842549DF800202046E3
:10156000611CCCB252490A545349119808F09AFBB5
:10157000804608F0BBFD00B200909DF80120204697
:10158000611CCCB24A490A549DF800202046611CD7
:10159000CCB247490A544849129808F083FB804668
:1015A00008F0A4FD00B200909DF801202046611CC7
:1015B000CCB23F490A549DF800202046611CCCB2B1
:1015C0003B490A543C49139808F06CFB804608F0EC
:1015D0008DFD00B200909DF801202146601CC4B230
:1015E000334842549DF800202046611CCCB230495B
:1015F0000A543149199808F055FB804608F076FDE9
:1016000000B200909DF801202046611CCCB2284910
:101610000A549DF800202046611CCCB224490A548B
:1016200025491A9808F03EFB804608F05FFD00B29D
:1016300000909DF801202046611CCCB21C490A5440
:101640009DF800202046611CCCB219490A541A4961
:101650001B9808F027FB804608F048FD00B2009078
:101660009DF801202046611CCCB211490A549DF816
:1016700000202046611CCCB20D490A54201FC870BE
:10168000002505E00A48405D3844C7B2681CC5B271
:10169000A542F7DB2046611CCCB205490F54214618
:1016A0000348FFF70DFCBDE8F8035DF814FB0000EC
:1016B000100400200000C84200007A442DE9F041E7
:1016C00005460E460027AA20FE4908704870EE2005
:1016D00088700220C870084605714671002405E034
:1016E000F848005D3844C7B2601CC4B2062CF7DB72
:1016F000F44887710721FFF7E3FBBDE8F08130B5BF
:10170000BFB004460CB9FF2C7ED0EF48007C48B92E
:10171000ED48407C30B9EC48807C18B9EA48C07C80
:10172000002859D0E848007CE0B1E848807838B11A
:101730000020E549087401210846FFF7BFFF49E092
:10174000E3480078E3490978E34A1268E34BCDE9BE
:10175000002102901A6C996BD86BE14B1B68FFF764
:10176000CCFD37E0D848407C78B1D848C07838B153
:101770000020D549487401210220FFF79FFF29E08E
:10178000E1210220FFF79AFF24E0CF48807C78B166
:10179000D448407838B10020CB4988740121032017
:1017A000FFF78CFF16E0E1210320FFF787FF11E030
:1017B000C548C07C70B1CC48407838B10020C249DF
:1017C000C87401210420FFF779FF03E0E121042020
:1017D000FFF774FF3FB030BDBB48007930B9BA485D
:1017E000407918B9B8488079002855D0B6480079B2
:1017F000D0B10020B44908712022BC490DA808F0DE
:10180000C3F92022BA4900E01AE105A808F0BCF9A2
:101810001422B849684608F0B7F9B6480C380EC823
:101820000120FFF747FE36E0A7484079C0B100200D
:10183000A54948712022B0490DA808F0A5F9202239
:10184000AE4905A808F0A0F91422AD49684608F091
:101850009BF9AB480C380EC80220FFF72BFE1AE0AC
:1018600099488079B8B10020974988712022A5490C
:101870000DA808F089F92022A24905A808F084F9EA
:101880001422A149684608F07FF99F480C380EC819
:101890000320FFF70FFE9DE78B48407B28B98A485D
:1018A000807B10B98848C07B18B38748407B40B123
:1018B000002085494873954801781020FFF7D9FD2D
:1018C00016E08148807B40B100207F4988738F48B3
:1018D00041781120FFF7CDFD0AE07B48C07B38B18D
:1018E00000207949C873894881781220FFF7C1FD2B
:1018F00070E7874800788749097890FBF1F201FB8F
:10190000120185480078401E814203D101206E49B2
:10191000487031E07E4800787E49097890FBF1F20A
:1019200001FB12017D480078401E814203D1012055
:101930006549887020E0764800787649097890FB00
:10194000F1F201FB120176480078401E814203D17A
:1019500001205D49C8700FE06D4800786D49097835
:1019600090FBF1F201FB12016E480078401E8142AB
:1019700002D101205449087365480078401C64492D
:10198000087051484078A0B100204F494870504835
:10199000007850490978504A1268504BCDE900212F
:1019A00002901A6C996BD86B4D4B1B68FFF7A5FC26
:1019B00046E04548807810B3002043498870494884
:1019C000B0F908004749B1F90610464AB2F90420B7
:1019D0003E4BB3F91230CDE90132CDE903103B485B
:1019E000B0F91000394D0090B5F90E30B5F90A2064
:1019F000B5F90810B5F90600FFF7BBFB20E0324847
:101A0000C07890B100203049C870732246496846BA
:101A100008F0BAF88322444910391EA808F0B4F837
:101A20001EA80FC8FFF7ACFA0AE02748007B38B1C0
:101A30000020254908733D4A91685068FFF749FA2C
:101A400000BFC7E603B587B007988078102871D12A
:101A500007980079000200B207994979084300907D
:101A600008F018FB3249019008F01CF921490C39A3
:101A7000086007988079000200B20799C979084385
:101A8000009008F007FB2A49019008F00BF919496A
:101A90000C3948600798007A000200B20799497A29
:101AA0000843009008F0F6FA2149019008F0FAF88E
:101AB00010490C3988600798807A000200B20799B3
:101AC000C97A38E01004002058040020F8060020ED
:101AD0000C0000200D000020440100204C000020DC
:101AE0003C010020B80600208C030020BC08002028
:101AF0007C080020A80800205C0800201C080020AA
:101B000048080020DC080020080900201C000020F4
:101B10002700002028000020290000202A000020A3
:101B20002B0000202C000020820500204412002001
:101B30006F12833AD4E00843009008F0ABFAFE49F4
:101B4000019008F0AFF8FD4908600798007B00029B
:101B500000B20799497B0843009008F09BFAF649C8
:101B6000019008F09FF8F54948600798807B0002D3
:101B700000B20799C97B0843009008F08BFAEE4940
:101B8000019008F08FF8ED4988600798007C00020A
:101B900000B20799497C0843009008F07BFAE649B7
:101BA000019008F07FF8E64908600798807C000201
:101BB00000B20799C97C0843009008F06BFADE492F
:101BC000019008F06FF8DE4948600798007D000238
:101BD00000B20799497D0843009008F05BFAD649A6
:101BE000019008F05FF8D6498860D6480068D64969
:101BF000009008F057F8019008F091FA80B2ADF823
:101C00000800D0484068D049009008F04BF8019097
:101C100008F085FA80B2ADF80A00CA488068CA495F
:101C2000009008F03FF8019008F079FA80B2ADF822
:101C30000C00C2480068C449009008F033F80190D5
:101C400008F06DFA80B2ADF80E00BC484068BE499D
:101C5000009008F027F8019008F061FA80B2ADF822
:101C60001000B6488068B849009008F01BF8019051
:101C700008F055FA80B2ADF81200B1480068B249D8
:101C8000009008F00FF8019008F049FA80B2ADF822
:101C90001400AB484068AC49009008F003F801908C
:101CA00008F03DFA80B2ADF81600A5488068A64954
:101CB000009007F0F7FF019008F031FA80B2ADF81C
:101CC00018000121A14801F043F9092202A99F4807
:101CD00001F05DF901209E4948739E4908980870FB
:101CE0000798807811287CD107980079000200B20B
:101CF000079949790843009008F0CCF98E49019082
:101D000007F0D0FF9449086007988079000200B27C
:101D10000799C9790843009008F0BCF986490190F9
:101D200007F0C0FF8C4948600798007A000200B2B3
:101D30000799497A0843009008F0ACF97E49019070
:101D400007F0B0FF844988600798807A000200B2EB
:101D50000799C97A0843009008F09CF976490190E8
:101D600007F0A0FF7D4908600798007B000200B2E1
:101D70000799497B0843009008F08CF96E4901905F
:101D800007F090FF754948600798807B000200B219
:101D90000799C97B0843009008F07CF966490190D7
:101DA00007F080FF6D4988600798007C000200B250
:101DB0000799497C0843009008F06CF95E4901904E
:101DC00007F070FF664908600798807C000200B247
:101DD0000799C97C0843009008F05CF956490190C6
:101DE00000E08BE007F05EFF5D4948600798007DEA
:101DF000000200B20799497D0843009008F04AF9B3
:101E00004D49019007F04EFF5549886052480068DF
:101E10004D49009007F046FF019008F080F980B22C
:101E2000ADF808004C4840684749009007F03AFF79
:101E3000019008F074F980B2ADF80A004648806855
:101E40004149009007F02EFF019008F068F980B238
:101E5000ADF80C00414800683B49009007F022FFB4
:101E6000019008F05CF980B2ADF80E003B48406884
:101E70003549009007F016FF019008F050F980B244
:101E8000ADF81000354880682F49009007F00AFF30
:101E9000019008F044F980B2ADF8120030480068B3
:101EA0002949009007F0FEFE019008F038F980B251
:101EB000ADF814002A4840682349009007F0F2FE6C
:101EC000019008F02CF980B2ADF816002448806823
:101ED0001D49009007F0E6FE019008F020F980B25D
:101EE000ADF81800092202A91848123001F04FF885
:101EF0000120174988731749089848700798807817
:101F000012287DD107980079000200B2079949791B
:101F10000843009008F0BEF80749019007F0C2FEA0
:101F20001049086007988079000200B20799C979C2
:101F30000843009018E000006F12833A7C080020EC
:101F4000BC0800209C08002000007A4400A401087E
:101F5000580400201C0000203C0800201C08002021
:101F60005C080020FC08002008F094F8C2490190A9
:101F700007F098FEC14948600798007A000200B255
:101F80000799497A0843009008F084F8BA4901900B
:101F900007F088FEB94988600798807A000200B28D
:101FA0000799C97A0843009008F074F8B249019083
:101FB00007F078FEB24908600798007B000200B283
:101FC0000799497B0843009008F064F8AA490190FA
:101FD00007F068FEAA4948600798807B000200B2BB
:101FE0000799C97B0843009008F054F8A249019072
:101FF00007F058FEA2498860A0480068A14900E0A7
:1020000073E0009007F04EFE019008F088F880B26F
:10201000ADF80800994840689A49009007F042FEE0
:10202000019008F07CF880B2ADF80A00934880680F
:102030009449009007F036FE019008F070F880B2E5
:10204000ADF80C008E4800688E49009007F02AFE1B
:10205000019008F064F880B2ADF80E00884840683E
:102060008849009007F01EFE019008F058F880B2F1
:10207000ADF81000824880688249009007F012FE97
:10208000019008F04CF880B2ADF812007C4800686E
:102090007C49009007F006FE019008F040F880B2FD
:1020A000ADF81400764840687649009007F0FAFDD4
:1020B000019008F034F880B2ADF8160070488068DE
:1020C0007049009007F0EEFD019008F028F880B20A
:1020D000ADF81800092202A96B4800F058FF012052
:1020E0006A49C8736A490898887009B000BD817848
:1020F00003291BD14179027941EA022109B2654ADB
:102100001180C179827941EA022109B2614A518084
:10211000417A027A41EA022109B25E4A9180C17A8B
:10212000827A41EA022109B25A4AD1807047817805
:1021300002290BD10179012907D10421564A1170D6
:102140000121524A11715171917100BF70470146CE
:102150008878012839D15048007818B14E48007865
:10216000012821D10879012804D14C4A107000209F
:10217000907019E00879022805D10120474A507073
:102180000020D07010E00879032805D10120444ACE
:1021900010700020507007E00879042804D1012055
:1021A000404A1070002050700879A02803D1002008
:1021B000394A107009E00879A12806D1364800781C
:1021C000012802D10220344A1070087970472DE9A5
:1021D000F04104460D460026002704E0E05D30444F
:1021E000C6B2781CC7B2681EB842F7DC2E4806712A
:1021F0000079611911F8011C884202D00020BDE865
:10220000F0816078217840EA01202749088008465B
:1022100000884AF6AF21884201D0FF20EFE7A0787E
:102220002149887008468078012803D12046FFF7AD
:102230008EFF1FE01C488078022803D12046FFF75C
:1022400076FF17E018488078032803D12046FFF76F
:102250004EFF0FE014488078102807D0124880788D
:10226000112803D010488078122803D13146204627
:10227000FFF7E8FB0120C2E76F12833AFC08002059
:10228000DC08002000007A4424A40108580400203F
:102290001C000020300400200C000020F806002064
:1022A000B80600208C0300202000002010B5024654
:1022B000012000E050430B1EA1F10104E1B2F9D16D
:1022C00010BD2DE9F34F81B007463C460020009039
:1022D000834681460026804628E020782D2802D1BA
:1022E00048F00208641C20782C2802D020782A2884
:1022F00000D11CE020782E2803D148F00108641C8E
:1023000009E02078392802DC2078302803DA4FF001
:10231000000900260BE008F0010010B1701CC6B2E5
:1023200003E009F1010000F0FF09641CD5E700BFDC
:1023300008F0020000B17F1C00250EE0A9F10100A9
:10234000401BC1B20A20FFF7B1FF795D3039009A16
:1023500000FB01200090681CC5B24D45EEDB052E48
:1023600000DD05260298067000250EE0701E401B59
:10237000C1B20A20FFF79AFF09F101012944795CF3
:10238000303900FB01BB681CC5B2B542EEDB3146FB
:102390000A20FFF78BFF009901FB00BA08F002004A
:1023A00008B1CAF1000A5046BDE8FE8F0246134646
:1023B00010E010782A2805D01078202802DB107849
:1023C0007A2801DDFF20704710782C2801D1481EA3
:1023D000C1B2521C0029ECD1D01AC0B2F3E72DE9EA
:1023E000F84F04460F46FEA1384607F0F1FB0646BB
:1023F00001213046FFF7DAFF0546FF2D17D070198F
:102400006946FFF75EFF804607F044FE44F8770F09
:102410009DF800100A20FFF749FF814607F043FEB0
:1024200080462068414607F06FFC44F87709072191
:102430003046FFF7BBFF0546FF2D22D070196946D5
:10244000FFF73FFF804607F025FEC4F87F009DF8A8
:102450000000032815DA9DF80000C0F10300C1B2A6
:102460000A20FFF723FF824607F01DFE8146DD4963
:1024700007F04AFC8046D4F87F1007F013FCC4F83C
:102480007F00BDE8F88F2DE9F04F87B004468A46FB
:10249000D5A1504607F09CFB814601214846FFF735
:1024A00085FF0546FF2D24D009EB050006A9FFF79F
:1024B00008FF07469DF818100A20FFF7F7FEB7FB44
:1024C000F0F642F21070B6FBF0F0C1B241200155B7
:1024D0006420B6FBF0F06421B0FBF1F201FB1201C5
:1024E000422001556420B6FBF0F100FB116143204E
:1024F000015503214846FFF759FF0546FF2D5ED0E1
:1025000009EB050006A9FFF7DCFE06469DF818005A
:10251000801CC1B20A20FFF7C9FEB6FBF0F73846AF
:1025200007F0D7FD6064A1649DF81800801CC1B25B
:102530000A20FFF7BBFEB6FBF0F100FB116738463F
:1025400007F0B1FD83469DF81800C0F10500C1B247
:102550000A20FFF7ABFE009007F0A5FD8046594624
:1025600007F0A0FB0746A14907F0CEFB019007F05A
:1025700022FECDE9040105210A20FFF797FE019014
:1025800007F0A7FD07468846616CA06C0A46034623
:10259000CDE900103846414607F09BFCCDE9020129
:1025A000DDE9042307F0EEFB6064A164676CA16CB5
:1025B00000228F4B384607F0FEFC6064A1640421C2
:1025C0004846FFF7F3FE0546FF2D03D019F8050036
:1025D00084F84C0005214846FFF7E8FE0546FF2D2C
:1025E00060D009EB050006A9FFF76BFE06469DF8D3
:1025F0001800801CC1B20A20FFF758FEB6FBF0F7A6
:10260000384607F066FD44F84D0F61609DF81800EC
:10261000801CC1B20A20FFF749FEB6FBF0F100FBB7
:102620001167384607F03FFD83469DF81800C0F15A
:102630000500C1B20A20FFF739FE009007F033FD14
:102640005946019007F02EFB8046684907F05CFB75
:10265000074607F0B0FDCDE9040105210A20FFF788
:1026600025FE019007F035FD074688462168606821
:102670000A460346CDE900103846414607F029FCDA
:10268000CDE90201DDE9042307F07CFB20606160F5
:10269000276861680022564B384607F08CFC2060A2
:1026A00061604D3C06214846FFF780FE0546FF2D40
:1026B00003D019F8050084F8550009214846FFF7B2
:1026C00075FE0546FF2D1FD009EB050006A9FFF793
:1026D000F8FD064642F21070B6FBF0F0C1B24020A1
:1026E00001556420B6FBF0F06421B0FBF1F201FB70
:1026F00012013F2001556420B6FBF0F100FB116090
:1027000000F5FA60A4F83D000A214846FFF74EFEA6
:102710000546FF2D09D009EB050006A9FFF7D1FDFD
:10272000074607F0B7FCC4F87B0007B0BDE8F08FA0
:102730002DE9F843054688462EA1404607F048FAA1
:10274000064602213046FFF731FE0446FF2C05D035
:1027500030196946FFF7B5FD85F86400002713E0DE
:10276000F81CC1B23046FFF721FE0446FF2C08D00A
:1027700030196946FFF7A5FDC1B205F15800C155F2
:1027800000E003E0781CC7B20C2FE9DB00BF0F218B
:102790003046FFF70BFE0446FF2C05D03019694682
:1027A000FFF78FFDA5F8650010213046FFF7FEFD0D
:1027B0000446FF2C05D030196946FFF782FDA5F8C5
:1027C000670011213046FFF7F1FD0446FF2C05D0CC
:1027D00030196946FFF775FDA5F86900BDE8F88373
:1027E0005654470000007A44524D430000007042A6
:1027F000006AF840475341002DE9F84305460F466B
:10280000FCA1384607F0E4F9064606213046FFF7FA
:10281000CDFD0446FF2C05D030196946FFF751FD68
:1028200085F8560007213046FFF7C0FD0446FF2C0F
:1028300005D030196946FFF744FD85F85700092196
:102840003046FFF7B3FD0446FF2C0CD03019694623
:10285000FFF737FD814607F01DFC8046E64907F08B
:1028600053FAC5F86B00BDE8F8832DE9FC5F074615
:102870008A464FF00008CDF804A0E0A1019807F0C7
:10288000A7F90646F079303800F0FF0B03213046F7
:10289000FFF78CFD0546FF2D04D070196946FFF740
:1028A00010FD38704FF000096CE0D4A1019807F0DA
:1028B0008FF9064600245CE0042000EB8400C1B2DE
:1028C0003046FFF773FD0546FF2D09D070196946A4
:1028D000FFF7F7FCC1B208EB8802781C815400E0D6
:1028E00049E0052000EB8400C1B23046FFF75EFDF1
:1028F0000546FF2D0AD070196946FFF7E2FCC1B208
:1029000008EB8802781C1044417000E033E0062098
:1029100000EB8400C1B23046FFF748FD0546FF2DAD
:102920000AD070196946FFF7CCFC81B208EB880227
:10293000781C1044418000E01DE0072000EB84007B
:10294000C1B23046FFF732FD0546FF2D0AD070199F
:102950006946FFF7B6FCC1B208EB8802781C104448
:10296000017100E007E008F1010000F0FF08601CC1
:10297000C4B2042CA0DB00BF701C019009F101005F
:1029800000F0FF09D94590DBBDE8FC9F2DE9FC5F15
:102990000446894649462046FFF767FF49462046D8
:1029A000FFF72AFF49462046FFF7C2FE4946204668
:1029B000FFF769FD49462046FFF711FD4FF480619E
:1029C000484607F0FAF894F8560000287ED08D4863
:1029D00090F83800002859D18B480078401C8A496B
:1029E0000870656CA36C2A46884903C907F0CAF9C8
:1029F000864A03C2D4F84D50D4F851302A4684494F
:102A000003C907F0BFF9824A03C2D4F86B108148AA
:102A1000006807F0EFF87F4908607B4800781428C9
:102A200034D17948007807F054FB05462A460B4616
:102A3000764903C907F0BFFA724AC2E90201724837
:102A4000007807F046FB05462A460B46704903C945
:102A500007F0B1FA6B4A03C26B48007807F023FB1A
:102A6000054629466B48006807F04EF9654908613C
:102A70000021664A11605160654A11605160002072
:102A80006449086001205F4981F838005D4890F88A
:102A9000380001283FD1606CA16C5A4AC2E9080194
:102AA000D4F84D00D4F85110C2E90601D4F86B00F7
:102AB000114688620846D0E902532A46D0E90871D7
:102AC000384607F000FA8246002200E023E0524B2D
:102AD00007F0FFF9CDE9000107F0B0FB49490863B1
:102AE0000846D0E900532A46D0E90671384607F077
:102AF000EAF982460022484B07F0EBF9CDE90001E4
:102B000007F09CFB3F49C8620A461169906A07F0CA
:102B1000C3F83C494863BDE8FC9F2DE9FC413F48B0
:102B200090F80101012864D100203C4981F801019D
:102B3000491C3B48FFF72AFF394890F8560020B956
:102B400038A007F0CFFDBDE8FC81354890F864005F
:102B5000022803D139A007F0C5FD07E0304890F8FE
:102B60006400032802D13AA007F0BCFD2C4890F87D
:102B7000640001283CD02A484D3002684168104664
:102B800007F05CFB0746374907F0BEF8044607F03C
:102B900012FB05462A460B4633A007F0A3FD20484A
:102BA000426C816C104607F049FB07462D4907F03F
:102BB000ABF8044607F0FFFA05462A460B462EA05E
:102BC00007F090FD1649D1F86B000B4907F09CF80F
:102BD000064607F0F0FA04460B4611480078104903
:102BE00091F857102246CDE9001027A007F07AFD92
:102BF00063E05FE047474100000020412447504721
:102C000053560000F8050020300000203800002056
:102C100040000020480000208019FB407004002084
:102C2000720500204C6F636174696F6E20756E636E
:102C300065727461696E20210A0000004C6F636147
:102C400074696F6E206D6F6465203A32440A00002B
:102C50004C6F636174696F6E206D6F6465203A33E9
:102C6000440A00000050C3476C6F6E676974756456
:102C7000653A25660A0000006C61746974756465C4
:102C80003A25660A00000000616C74697475646519
:102C90003A252E32666D202020706F73736C6E752E
:102CA0006D3A256420202073766E756D3D25640A8B
:102CB000000000009EA007F015FD00BF43E770B5BF
:102CC0000446002515701D70002009E01578265C6B
:102CD000354415701D78167835441D70451CA8B212
:102CE0008842F3DB70BD70B50025002604E0681C47
:102CF00085B20520FDF730FB924890F801010128CC
:102D000001D1642DF3DBFA2D1BDA8E4805780024FF
:102D100007E08C48401C005DB52800D103E0601C32
:102D200084B2AC42F5DB00BFAC4201D1022609E01F
:102D30008448401CE11C405C08B9032602E00026E0
:102D400000E0012600207F4981F80101304670BD76
:102D500070B57D4C46F2B520208040F606106080AC
:102D60000D20A0800020C4F806004FF6FF70C4F8C4
:102D70000A000020C4F80E000420A07404F114031B
:102D80005A1E1121A01CFFF79AFF00BF6F48006870
:102D90000028FBD115216C4802F070FE002505E0EB
:102DA000FFF7A1FF00B903E0681CC5B2062DF7DBF1
:102DB00000BF062D01D1012070BD0020FCE770B5D9
:102DC00005460E46604C46F2B52020804FF48370D5
:102DD00060800820A080F020A071E57101202072A1
:102DE0006672A072E0722073607304F10F035A1EC2
:102DF0000C21A01CFFF763FF00BF544800680028A7
:102E0000FBD11021504802F039FEFFF76CFF70BD76
:102E100070B505464C4C46F2B520208006206080F7
:102E20001420A0800120A0710020E07120814FF4C7
:102E30000D60C4F80A00C4F80E5007206082A0821A
:102E40000020E082208304F11B035A1E1821A01CDD
:102E5000FFF735FF00BF3D488438806C0028FAD169
:102E60001C21394802F00AFEC820FDF775FA2846F1
:102E700002F026FEFFF737FF70BD2DE9F041054651
:102E80000E461746304C46F2B520208040F20670C0
:102E900060801420A080C4F80650C4F80A60A773AC
:102EA0000020E073207460744FF44D706082002045
:102EB000A082C4F8160004F11B035A1E1821A01C9E
:102EC000FFF7FDFE00BF21488438806C0028FAD14E
:102ED0001C211D4802F0D2FDFFF705FFBDE8F0817F
:102EE00070B505460E46184CC82D01DA012070BD9C
:102EF00046F2B520208040F6060060800620A080C3
:102F0000E58001202081668104F10D035A1E0A210B
:102F1000A01CFFF7D4FE00BF0C488438806C00284A
:102F2000FAD10E21084802F0A9FDFFF7DCFEDEE72A
:102F300064617461206E6F74207265616479210A26
:102F400000000000700400204409002084000240BA
:102F50002DE9F04106460F4604F0F3FD352005F05B
:102F60008BF800240DE006EB842004F02FFE0546CC
:102F7000042D04D004F0F1FD2846BDE8F081601C6A
:102F8000C4B2BC42EFDB04F0E8FD0420F5E72DE914
:102F9000F04106460F4615464FF0000804F0D1FDFB
:102FA000352005F069F800240CE037F8141006EB22
:102FB000440004F00EFF042802D02046BDE8F08152
:102FC000601C84B2AC42F0DB04F0C7FD2846F5E794
:102FD00001460888704730B503460C461546002266
:102FE00007E003EB4200FFF7F3FF24F81200501C48
:102FF00082B2AA42F5D3104630BD30B503460C4626
:103000001546002207E003EB4200FFF7E1FF24F83A
:103010001200501C82B2AA42F5DB30BD2DE9FE43FE
:1030200004460D46904603226946F648FFF7D3FF53
:10303000BDF800004FF6FF71884227D0BDF80200AE
:10304000884223D0BDF8040088421FD0BDF800009C
:1030500000B2A082BDF8020000B2E082BDF8040018
:1030600000B220830120A07000202070B4F9141059
:10307000E5A001F0B9FFB4F91610EBA001F0B4FF20
:10308000B4F91810F0A001F0AFFF06E00020A07026
:1030900001202070F4A001F0A7FF03226946FC483C
:1030A000FFF799FFBDF800004FF6FF7188422AD064
:1030B000BDF80200884226D0BDF80400884222D024
:1030C000BDF8000000B26083BDF8020000B2A0832A
:1030D000BDF8040000B2E0830120E07000206070C1
:1030E000B4F91A10EBA001F07FFFB4F91C10F0A0A6
:1030F00001F07AFFB4F91E10F4A001F075FFFAA0F8
:1031000001F072FF03E00020E070012060700622F1
:103110006946FE48FFF75FFFBDF800004FF6FF71FC
:1031200088425DD0BDF80200884259D0BDF8040045
:10313000884255D0BDF8000000B2A886BDF8020054
:1031400000B2E886BDF8040000B22887BDF806008A
:1031500006F0A9FF0646EE4906F0D6FDA862BDF8C6
:10316000080006F0A0FF0646E94906F0CDFDE8623A
:10317000BDF80A0006F097FF0646E54906F0C4FDD3
:1031800028630120687000202870B5F93410E1A090
:1031900001F02AFFB5F93610E4A001F025FFB5F9DA
:1031A0003810E8A001F020FFA86A07F004F80646EE
:1031B00032460B46E9A001F017FFE86A06F0FBFF74
:1031C000064632460B46E5A001F00EFF286B06F0DE
:1031D000F2FF064632460B46E0A001F005FF06E08E
:1031E0000020687001202870E1A001F0FDFEBDE81C
:1031F000FE8330B585B009226946E448FFF7EBFE4F
:10320000C4B2092C63D1BDF8001008B206F042FF29
:103210000546DF4906F046FDDE490860BDF80210AC
:1032200008B206F037FF0546D94906F03BFDD949FB
:103230004860BDF8041008B206F02CFF0546D449DA
:1032400006F030FDD3498860BDF8061008B206F0DC
:1032500021FF0546CE4906F025FDCF490860BDF89F
:10326000081008B206F016FF0546C94906F01AFD17
:10327000C9494860BDF80A1008B206F00BFF0546C0
:10328000C34906F00FFDC4498860BDF80C1008B2B0
:1032900006F000FF0546BE4906F004FDBF49086080
:1032A000BDF80E1008B206F0F5FE0546B84906F066
:1032B000F9FCBA494860BDF8101008B206F0EAFE01
:1032C0000546B34906F0EEFCB449886002E00020F0
:1032D00005B030BD09226946AC481230FFF77BFECD
:1032E000C4B2092C63D1BDF8001008B206F0D2FEBA
:1032F0000546A74906F0D6FCA9490860BDF80210AA
:1033000008B206F0C7FE0546A14906F0CBFCA44969
:103310004860BDF8041008B206F0BCFE05469C49A2
:1033200006F0C0FC9E498860BDF8061008B206F0A1
:10333000B1FE0546964906F0B5FC9A490860BDF80D
:10334000081008B206F0A6FE0546914906F0AAFC50
:1033500094494860BDF80A1008B206F09BFE054685
:103360008B4906F09FFC8F498860BDF80C1008B2AD
:1033700006F090FE0546864906F094FC8A490860EE
:10338000BDF80E1008B206F085FE0546804906F02D
:1033900089FC85494860BDF8101008B206F07AFE35
:1033A00005467B4906F07EFC7F49886001E00020ED
:1033B0008EE70922694675482430FFF70CFEC4B237
:1033C000092C1DD1BDF8001008B206F063FE0546B9
:1033D0006F4906F067FC75490860BDF8021008B235
:1033E00006F058FE05466A4906F05CFC6F494860E5
:1033F000BDF8041008B206F04DFE05466449D7E05A
:103400001DE1000000940108696D755F64617461DD
:103410002D3E6F735F616363656C5F78203D203084
:103420007825780A00000000696D755F6461746139
:103430002D3E6F735F616363656C5F79203D203063
:103440007825780A00000000696D755F6461746119
:103450002D3E6F735F616363656C5F7A203D203042
:103460007825780A00000000696D755F64617461F9
:103470002D3E6F735F616363656C5F782F792F7A80
:103480002061726520656D707479210A000000006A
:1034900000980108696D755F646174612D3E6F73FA
:1034A0005F6779726F5F78203D20307825780A0059
:1034B000696D755F646174612D3E6F735F677972CA
:1034C0006F5F79203D20307825780A00696D755F3F
:1034D000646174612D3E6F735F6779726F5F7A20EC
:1034E0003D20307825780A00696D755F64617461EC
:1034F0002D3E6F735F6779726F5F782F792F7A2017
:1035000061726520656D707479210A00009C010864
:1035100000007A446D61672D3E786F66667365744E
:10352000203D20307825780A000000006D61672D6D
:103530003E796F6666736574203D20307825780A81
:10354000000000006D61672D3E7A6F6666736574DA
:10355000203D20307825780A000000006D61672D3D
:103560003E786761696E203D20307825660A00004C
:103570006D6167206F666673657420646174612095
:1035800061726520656D707479210A0000A40108DC
:103590006F12833A9C0800207C080020BC080020A1
:1035A0003C0800201C0800205C080020FC080020CB
:1035B00006F078FB24498860BDF8061008B206F0D2
:1035C00069FD0546214906F06DFB21490860BDF8FB
:1035D000081008B206F05EFD05461C4906F062FBC5
:1035E0001B494860BDF80A1008B206F053FD0546B5
:1035F000164906F057FB16498860BDF80C1008B252
:1036000006F048FD0546114906F04CFB10490860DC
:10361000BDF80E1008B206F03DFD05460B4906F058
:1036200041FB0B494860BDF8101008B206F032FDAE
:103630000546064906F036FB0549886001E0002092
:1036400046E6022044E60000FC0800206F12833AA0
:10365000DC08002070B504460D464FF0824120681A
:1036600006F012FE04D30020216806F003FE02D10A
:103670004FF082402060207906F015FD0646216853
:1036800006F002FE01D800202071237904F10C021B
:1036900052F82310A06806F0FFFAA060217904F127
:1036A0000C0040F821502379024652F82310A068FC
:1036B00006F0A0FAA0602079401C20712168A06863
:1036C00006F022FB70BD000010B50446FE492046FE
:1036D00006F0DAFD01D2FC4C05E0FC49204606F07C
:1036E000C9FD00D2F94CFA49204606F0CDFD04D2BE
:1036F000F549204606F0D0FA10BDF649204606F0FE
:10370000B9FD04D2F049204606F074FAF4E72046E9
:10371000F2E72DE9F04704464FF07C51204606F0D1
:10372000C1FA814625462E46EB48A0EB6606354693
:103730002946484606F0B6FA8246294606F0B2FA0D
:1037400080464FF07F5106F0AAFA0746294606F058
:10375000A9FA05462846BDE8F08770B506460D462D
:1037600014462146304606F08FFD01D2264605E07C
:103770002946304606F07EFD00D22E46304670BD0A
:103780000FB400B597B0D548B0F90600089006F020
:1037900081FC0C90D148B0F90800089006F07AFC42
:1037A0000B90CE48B0F90A00089006F073FC0A901E
:1037B0002398CB49089006F075FA0F902498C849D1
:1037C000089006F06FFA0E902598C549089006F00B
:1037D00069FA0D90C3480078012806D0C1480078E6
:1037E00018B1C048007802280BD14FF08040BE4984
:1037F0000863BE4848634FF07F508862BB48C86288
:1038000019E0B8480078032815D1B748406B4FF04D
:103810008041089006F02EFD04D10020B249C86115
:1038200008624862B248B0490863B2484863B24887
:1038300088620020C862AC48806906900A9906F048
:1038400031FA0890A848406904900B9906F02AFACA
:103850000690A548006904900C9906F023FA05909B
:10386000069906F0C7F90790089906F0C3F9169073
:103870004FF08C41169806F00FFA9B4948640A995C
:10388000084606F00FFA07900B99084606F00AFA68
:1038900005900C99084606F005FA0490059906F083
:1038A000A9F90690079906F0A5F90890FFF731FFEE
:1038B00016900C99169806F0F5F90C900B9916983D
:1038C00006F0F0F90B900A99169806F0EBF90A90B9
:1038D00085484069014606900A9806F0E3F9089089
:1038E00081488069014606900B9806F0DBF9079045
:1038F000089906F0D1F915907B4880690146069039
:103900000C9806F0CFF908907748006901460690B8
:103910000A9806F0C7F90790089906F0BDF91490C7
:103920007148406B01460790159806F0BBF9089066
:103930006D48C06901460790089806F05BF96A492E
:10394000C8610846406B01460790149806F0AAF932
:1039500008906548006A01460790089806F04AF901
:10396000614908622798012840D10846006C014649
:103970000790269806F090F90890FFF7A5FE16909C
:103980005948806A5C49089006F074FC22D1554879
:10399000007803281BD0169806F00DFC21F000419A
:1039A0004FF08042554BCDE9040106F092FACDE983
:1039B000060106F043FC4C4988620846806A504A7A
:1039C0004D490890FFF7C9FE4749886202E04A481E
:1039D000454988624448806A0790169906F062F962
:1039E0003F49089006F05EF9099001E00020099037
:1039F0003D48006B0590159906F054F907903A4838
:103A000000690490099906F04DF905900F9906F0A8
:103A1000F1F80690079906F0EDF808903248C06971
:103A200001460790089806F0E5F80F902E48006BC5
:103A30000590149906F036F907902B4840690490D8
:103A4000099906F02FF905900E9906F0D3F8069023
:103A5000079906F0CFF808902348006A01460790BE
:103A6000089806F0C7F80E901F48806907900999DA
:103A700006F018F908900D9906F0BCF80D901A4858
:103A8000006810901848406811901748806812909C
:103A90001548C0681390139804900D9906F002F928
:103AA0000690129802900E9906F0FCF80490119876
:103AB00080F0004002900F9906F0F4F8039004990A
:103AC00006F0EAF805901DE00000B4430000B4C31E
:103AD00000003443000034C3DF59375FF80600208C
:103AE00039FA8E3C0C0000204C0000200AD7A33C81
:103AF000CDCC4C3E0AD7233B0AD7233CE17AA43FE6
:103B0000CDCCCC3E069906F0C7F8D549079006F013
:103B1000C9F80890109801460790089806F06AF8CE
:103B2000D0490860139804900E9906F0BBF80690EF
:103B3000129802900D9906F0B5F804901098029032
:103B40000F9906F0AFF80390049906F053F805902A
:103B5000069906F0A1F8C249079006F0A3F808906C
:103B6000119801460790089806F044F8BD4948604E
:103B7000139804900F9906F095F80690119802900A
:103B80000D9906F08FF80490109802900E9906F0A7
:103B900089F80390049906F07FF80590069906F0DD
:103BA00029F8AF49079006F07DF808901298014671
:103BB0000790089806F01EF8AA49886012980490A9
:103BC0000F9906F06FF80690119802900E9906F082
:103BD00069F80490109802900D9906F063F803902C
:103BE000049906F007F80590069906F055F89C49E7
:103BF000079006F057F80890139801460790089828
:103C000005F0F8FF9749C8600846C0680590084667
:103C1000C0680490059906F045F8079091488068BF
:103C20000390904880680290039906F03BF8059055
:103C30008C48406801908B4840680090019906F0DC
:103C400031F803908748006801908648006800902A
:103C5000019906F027F80290039905F0CBFF049034
:103C6000059905F0C7FF0690079905F0C3FF089076
:103C7000FFF74FFD16907B4800680890169906F0F4
:103C800011F878490860084640680890169906F0CF
:103C900009F874494860084680680890169906F04B
:103CA00001F8704988600846C0680890169905F0C8
:103CB000F9FF6C49C86008468068059008460068AE
:103CC0000490059905F0EEFF07906648C0680590DE
:103CD000644840680490059905F0E4FF0690079950
:103CE00005F0DAFF4FF08041089005F0DBFF5D49F9
:103CF00008610846C06805900846806804900599E8
:103D000005F0D0FF07905748406805905548006877
:103D10000490059905F0C6FF0690079905F06AFF23
:103D20004FF08041089005F0BDFF4E4948610846BC
:103D300080680490084680680390049905F0B2FFFB
:103D400006904848406804904648406803900499AB
:103D500005F0A8FF0590069905F04CFF4FF0804153
:103D6000079005F09FFF4FF07E51089005F097FFF8
:103D70003C4988610846806907900846406906907A
:103D8000079907F0CBFF3849089005F08BFF3549BC
:103D9000886308460069079007F05EFD80F00040E8
:103DA0003149089005F07EFF2E49C8630846C06877
:103DB00001900846C0680090019905F073FF0390D8
:103DC000284880680190274880680090019905F094
:103DD00069FF0290039905F00DFF4FF080410490B8
:103DE00005F060FF4FF07E51059005F058FF0790F9
:103DF0001C48C06802901B4800680190029905F0B9
:103E000051FF04901748806802901648406801905E
:103E1000029905F047FF0390049905F0EBFE4FF07F
:103E20008041059005F03EFF0690079907F076FF68
:103E30000D49089005F036FF0A4908640846806B72
:103E40000890FFF741FC074988630846C06B08905B
:103E5000FFF73AFC0349C86317B05DF814FB000094
:103E60000AD7A33A4C000020E12E65422DE9FF5FFE
:103E700004468A46BAF1000F04D05E48216AFFF773
:103E8000E9FB2062D4E9080105F006FFA0625A4967
:103E9000206A05F039FF834606F08DF94FF0404265
:103EA000564BCDE9000108F07DF90022544BCDE9D5
:103EB000020106F00BF807460022524B06F009F803
:103EC000054606F0BBF981464F48C0F80090C4F89B
:103ED0002C90616BE06A05F0DFFE2063BDE8FF9F78
:103EE0002DE9FE4F49480078032802D000204849B8
:103EF00008604849B1F90010A1F2DC5006F0D8F88A
:103F000080460022444B05F0E4FF06464FF0804215
:103F1000424B05F0DEFF04460D463D48006806F0C2
:103F20004AF9824622462B4605F02CFFCDE90001D6
:103F300006F084F9364908604FF07E52002134487B
:103F40000068FFF70AFC324908603548416C354883
:103F5000FFF780FB324948643348016B3348FFF771
:103F600079FB314908632E49486C314905F09AFEC6
:103F700004462D4902AB2F4A086B214602F09AF8FD
:103F80002D4801682B48006805F086FE04462B4941
:103F900005F088FE2A4908602A48029905F082FE49
:103FA000044627480168284805F07CFE054621465E
:103FB00005F020FE22490860084602F06AFD1D480F
:103FC00000681D4908604FF07E50204B0090194852
:103FD00002680F4801681E4801F0FCFA1D48009075
:103FE0001B481A4BC169164802681B4801F0F2FAD7
:103FF000BDE8FE8F9400002080E6C547955BC83F72
:104000000000F03F40A5E540480100200C000020E2
:1040100024010020300400200000E03FE17A943FBA
:104020004C000020C00000208C030020EC00002089
:104030002BCD9C3A3C01002040010020000048426A
:1040400044010020CDCC4C3ECDCC4C3F0000C842BA
:10405000DC08002000009643FC0800204FF07E5052
:10406000AC4908600020486088604FF07E50AA4943
:1040700008600020486088604FF07E50A7490860C3
:104080000020486088604FF07E50A54908600020FD
:104090004860886070470246002A04DD501A0028F4
:1040A00005DA002003E05018002800DD00207047EA
:1040B0002DE9F84F9B49086C9B4905F0F3FD044638
:1040C00007F0A8FF994908609649086C964905F0E1
:1040D000E9FD044608F052FD9549086095480078CE
:1040E00003281AD09448066841680022934B304652
:1040F00005F0EFFE044606F026F8914908608E4967
:104100004D394E6C896C00228C4B304605F0E1FE37
:10411000044606F018F88B49086087484D38466C0D
:10412000816C0022854B304605F0D3FE80468946DF
:104130008448006805F0BCFF824642464B4605F0C5
:10414000C2FE044605F0FFFF7F4908607A48066812
:1041500041680022794B304605F0BBFE8046894617
:104160007748006805F0A4FF044642464B4605F038
:10417000AAFE824605F0E7FF744908606E484D3894
:10418000476C816C4FF00052714B384605F0A1FE30
:10419000054606F053F8814607F03CFF04466B489D
:1041A000006805F077FF8246214605F07BFD5A49FD
:1041B000C8606548006805F06DFF5649C8605E49F3
:1041C0004D39D1F86F0005F091FF05460521FFF745
:1041D00062FF044605F05EFF5E49086056494D39AE
:1041E000D1F8730005F082FF05460521FFF753FF64
:1041F000044605F04FFF584908604F494D394E6C51
:10420000896C00224D4B304605F063FE80464FF02E
:104210000052524B05F05DFE044606F00FF8824650
:104220004748006805F036FF83464FF07E504C4B00
:10423000524659460090384801F0CCF93E484D3876
:10424000476C816C00223D4B384605F042FE054626
:1042500005F0F4FF04463B48006805F01BFF81466B
:104260004FF07E503E4B224649460090294801F0CF
:10427000B1F93C483A4B0090364802683A48016828
:10428000264801F0A7F93748354B009032480268BC
:1042900036480168224801F09DF9BDE8F88F70B5F5
:1042A0001F49C8692249096805F0FCFC04461B49FE
:1042B000C8691E49096805F0F5FC0546214605F068
:1042C00099FC80F000402A4908601449C8691849DF
:1042D000096805F0E7FC04461149C86913490968F3
:1042E00005F0E0FC0546214605F0D6FC21490860B2
:1042F00070BD10B520480078401C1F490870084662
:104300000078642804D1FFF7D3FE00201A49087012
:1043100010BD000038060020580600207806002056
:10432000980600204C00002039FA8E3C4C010020F9
:10433000500100200C000020BF050020D012634176
:104340005C01002060010020680100206401002061
:1043500047DF913F70010020740100208E75ED3F12
:10436000000020410000A040780100207C010020D6
:10437000580100205401002088010020B0B50446F7
:104380000D4635703346012221461A2002F042FDC7
:1043900007463846B0BD70B504460D462B4601228F
:1043A00021461A2002F069FD0646304670BD08B568
:1043B00069460D20FFF7EFFF9DF80000FF2801D0B0
:1043C000002008BD80210A20FFF7D8FF6420FBF7FA
:1043D000C3FF49210920FFF7D1FF41210A20FFF740
:1043E000CDFF01210B20FFF7C9FF0120E9E7FEB552
:1043F0000446207801286DD1FE480088401CFD4904
:104400000880084600880A2190FBF1F201FB1200A7
:10441000012803D10103F84802F091FEF548008815
:10442000142190FBF1F201FB1200022803D1C1021A
:10443000F14802F082FE00206070EE480088B0F57E
:10444000FA6F48DAB4F90400B4F91C10884202DAB1
:10445000B4F9040001E0B4F91C00A083B4F906002B
:10446000B4F92010884202DAB4F9060001E0B4F988
:1044700020002084B4F90800B4F92410884202DA3C
:10448000B4F9080001E0B4F92400A084B4F90400F0
:10449000B4F91E10884202DDB4F9040001E0B4F959
:1044A0001E00E083B4F90600B4F92210884202DD50
:1044B000B4F9060001E0B4F922006084B4F9080000
:1044C000B4F92610884202DDB4F9080001E0B4F91D
:1044D0002600E084A6E00020C64908804FF4805101
:1044E000C54802F02CFEB4F91C10B4F91E2088183F
:1044F00005F0D0FD06464FF0804105F005FC05466D
:1045000005F0F4FD00B2A086B4F92010B4F9222021
:10451000881805F0BFFD06464FF0804105F0F4FB1A
:10452000054605F0E3FD00B2E086B4F92410B4F9C5
:104530002620881805F0AEFD06464FF0804105F0B4
:10454000E3FB054605F0D2FD00B220874FF07E5018
:10455000A062B4F92210B4F92020881A05F09AFD5F
:104560000546B4F91E10B4F91C20881A05F092FD16
:104570000646294605F0C8FBE062B4F92610B4F9F6
:104580002420881A05F086FD0546B4F91E10B4F9FA
:104590001C20881A05F07EFD0646294605F0B4FB6E
:1045A0002063A08E80B2ADF80000E08E80B2ADF83E
:1045B0000200208F80B2ADF804009049A06A05F097
:1045C00071FB054605F0ABFD80B2ADF806008B49E6
:1045D000E06A05F067FB054605F0A1FD80B2ADF885
:1045E00008008649206B05F05DFB054605F097FD48
:1045F00080B2ADF80A0001218148FEF7A9FC06222D
:1046000069467F48FEF7C3FC01207E49887400207C
:10461000A083E08320846084A084E0840120607013
:1046200000202070FEBD2DE9F04104460D461646DF
:1046300033462A4621461A2002F01FFC0746384618
:10464000BDE8F0812DE9F04F93B000200F900E905F
:1046500081466D490620FFF79EFE6B48801E8078DC
:1046600000F0010000287DD010AA06210020FFF7ED
:10467000DAFF6548801E807800F00200E8B99DF8F6
:1046800041009DF8401001EB002000B25E49891EF8
:1046900088809DF843009DF8421001EB002000B295
:1046A0005949891EC8809DF845009DF8441001EBCA
:1046B000002000B25449891E08815348801E0078AA
:1046C000012806D15048801EFFF791FE13B0BDE8C7
:1046D000F08F4D48801E407801284ED14A49891EEE
:1046E000B1F90410484A921EB2F93420881A05F034
:1046F000D1FC0D904448801E806A80F000484046FE
:104700000D9905F0CFFA074605F0F0FC00B23E49DE
:10471000891E8880B1F906103B4A921EB2F93620F4
:10472000881A05F0B7FC0D903748801EC06A80F0EB
:10473000004840460D9905F0B5FA074605F0D6FC4D
:1047400000B23149891EC880B1F908102E4A921E64
:10475000B2F93820881A05F09DFC80462A48801E50
:10476000016B00E012E1404605F09CFA074605F0B7
:10477000BDFC00B22449891E08812349891EB1F974
:10478000040005F087FC0746204905F0BDFA1E49E4
:10479000891EC860B1F9060005F07CFC07461B497C
:1047A00005F0B2FA1849891E0861B1F9080005F050
:1047B00071FC0746154905F0A7FA1349891E48619F
:1047C000B1F904104943104A921EB2F906200E4B6B
:1047D0009B1EB3F9063002FB03120B49891EB1F987
:1047E0000810094B9B1EB3F9083001FB032005F0AC
:1047F00051FC0DE0BA0100200008014000007A449D
:10480000009C010858040020BA06002000803B46A6
:104810000746FEF77EFF06468349B1F9040005F01E
:1048200039FC0746314605F03DFA0F907E49B1F953
:10483000060005F02FFC0746314605F033FA0E90CE
:104840007949B1F9080005F025FC0746314605F025
:1048500029FA81467549886B754905F023FA0746A0
:10486000744905F051FA82467049C86B704905F0E9
:1048700019FA07466F4905F047FA8346584608F08B
:104880007DF9074605F097FCCDE90601504605F095
:1048900092FCCDE9000107F06FFB074688464846C9
:1048A00005F089FC3A464346CDE9020105F011FBCB
:1048B000CDE90401DDE9062305F00BFBCDE90A0192
:1048C000584608F05BF90590504608F057F90490F7
:1048D0000E9905F0E7F98046059905F0E3F9069091
:1048E000584607F097FB80460F9905F0DBF907461D
:1048F000069905F07FF9079005F05DFCCDE9080108
:10490000DDE90A2305F03EFACDE90C0105F096FC3D
:104910000446504608F032F949460D9005F0C2F9B8
:104920000746504607F076FB0D900E9905F0BAF950
:104930008046394605F0B0F90546284605F03BFCAF
:1049400007468846204605F036FC3A464346CDE900
:10495000060107F023F90022374BCDE9080105F0E5
:10496000B8FA4FF0C042354BCDE90A0105F023FB00
:10497000CDE90C0105F062FC2B49C8630846C16B08
:104980002F48FEF767FE2849C86300E09EE600BF97
:104990009CE62DE9F041244A5169506905F082F9FD
:1049A0000646214A1169106905F07CF907461E4A3E
:1049B000D168D06805F076F98046394605F01AF9D5
:1049C0000546314605F016F90446204608F0C0F9C0
:1049D0001549886188691B4905F04CFC05D31249CB
:1049E0008869194905F050FC09D2184800886428E4
:1049F0000DDA16480088401C1449088007E0134867
:104A0000008820B111480088401E104908800F48D6
:104A10000088322803DD01200349C87002E000202D
:104A20000149C870BDE8F081B80600204C000020A4
:104A3000DB0F49400000344300806640FB21094001
:104A40008C010020C3F5A83E6666663FB8010020D1
:104A5000B0B504460D463570334601222146D020BC
:104A600002F0D8F907463846B0BD70B504460D4689
:104A70002B4601222146D02002F0FFF9064630469F
:104A800070BD38B569467520FFF7EFFF04469DF805
:104A90000000682808D0F5A000F0A6FA2146FEA084
:104AA00000F0A2FA002038BD80216B20FFF7D0FF74
:104AB0006420FBF751FC0B216B20FFF7C9FF64203A
:104AC000FBF74AFC01211920FFF7C2FF02211A203F
:104AD000FFF7BEFF10211B20FFF7BAFF08211C20A3
:104AE000FFF7B6FFF3491C20FFF7BFFF002123208B
:104AF000FFF7AEFF00213820FFF7AAFF0021382082
:104B0000FFF7A6FFECA000F06FFA00BFCBE77CB583
:104B100004466078012861D10020E070EC480088EC
:104B2000C8283FDD0120E07000206070E94800687F
:104B3000E749098890FBF1F000B26083E5484068DE
:104B4000E349098890FBF1F000B2A083E148806856
:104B5000DF49098890FBF1F000B2E083608B80B2FE
:104B6000ADF80000A08B80B2ADF80200E08B80B2FF
:104B7000ADF804000121D848FEF7EAF9032269469E
:104B8000D548FEF704FAC5B2032D02D10120D3495E
:104B900048740020CE490880CE490860486088608B
:104BA00001207CBDCB480068B4F90E100844C94907
:104BB000086008464068B4F910100844C5494860C8
:104BC00008468068B4F912100844C2498860C04899
:104BD0000088401CBE4908800020E2E70020E0E792
:104BE0007CB504462078012863D10020A070BC4821
:104BF0000088C8283FDB0120A07000202070B94841
:104C00000068B749098890FBF1F000B2A082B5486E
:104C10004068B349098890FBF1F000B2E082B148E6
:104C20008068AF49098890FBF1F000B22083A08A28
:104C300080B2ADF80000E08A80B2ADF80200208BAF
:104C400080B2ADF804000121A748FEF781F90322E4
:104C50006946A548FEF79BF9C5B2032D02D1012094
:104C60009E49087400209F490860486088609C49FC
:104C7000088001207CBD9B480068B4F906100844F8
:104C80009849086008464068B4F9081008449549F6
:104C9000486008468168B4F90A00A0F5005008444D
:104CA000904988608E480088401C8D49088000200B
:104CB000E0E70020DEE72DE9F04104460D46164608
:104CC00033462A462146D02002F0D7F80746384618
:104CD000BDE8F0817FB504466A460E213B20FFF710
:104CE000EAFF0546012D03D04FF0FF3004B070BD40
:104CF0009DF801009DF8001040EA012000B2E0801C
:104D00009DF803009DF8021040EA012000B22081C6
:104D10009DF805009DF8041040EA012000B2608172
:104D20009DF807009DF8061040EA012000B2A0811E
:104D30009DF809009DF8081040EA012000B2E081CA
:104D40009DF80B009DF80A1040EA012000B2208275
:104D50009DF80D009DF80C1040EA012000B2608221
:104D60000120C3E770B58CB06048FFF7B3FF04467D
:104D7000012C01D00CB070BD5C48007801280CD12A
:104D80005A48FFF72DFF012807D14FF07E505849B0
:104D90000860002048608860C86054484078012856
:104DA0000CD15248FFF7B3FE012807D14FF07E50D7
:104DB0004F490860002048608860C8604B48807890
:104DC000012851D14948C0780128FAD14748C08804
:104DD0004649898A401A00B24449C8800846008979
:104DE000C98A401A00B24149088108464089098BA6
:104DF000401A00B23D4948810846C089498B401A93
:104E000000B23A49C8810846008A898B401A00B22C
:104E1000364908820846408AC98B401A00B2334995
:104E20004882B1F9060005F035F9064631463148A9
:104E3000FEF710FC054605F059F900B22B49C88071
:104E4000B1F9080005F026F9064631462A48FEF772
:104E500001FC054605F04AF900B224490881B1F980
:104E60000A0005F017F949E0ADE000005B45525239
:104E70004F525D4D50553630353020496E697420A3
:104E80004661696C3A44657669636520494420212E
:104E90003D20307836380A004D5055363035305F79
:104EA000526561645F64617461207265733D25645D
:104EB0000A000000D00200205B4F4B5D4D5055367C
:104EC00030353020496E6974204F4B7E0A00000057
:104ED000D40200203C07002000980108580400205C
:104EE000D20200203007002000940108F8060020BC
:104EF0004C000020BC010020E8010020064631469D
:104F00003248FEF7A7FB054605F0F0F800B230493D
:104F10004881B1F90E0005F0BDF8064631462D482E
:104F2000FEF798FB054605F0E1F800B22849C88174
:104F3000B1F9100005F0AEF8064631462648FEF7F6
:104F400089FB054605F0D2F800B221490882B1F983
:104F5000120005F09FF8064631462048FEF77AFB1E
:104F6000054605F0C3F800B219494882B1F90E00B0
:104F700005F090F805461A4904F094FE1449C862F9
:104F8000B1F9100005F086F80546154904F08AFECF
:104F90000F490863B1F9120005F07CF80546104985
:104FA00004F080FE0A49486301210E48C06B2822A4
:104FB000CDE90A0106491031684604F0E5FD0448D0
:104FC0000FC8FEF7DDFB00BFD4E60000140200208E
:104FD000F8060020400200206C0200209802002009
:104FE0008FC2F53CB80600200FB408B503A80090A6
:104FF0004021094804F0E1FD41210748009B029A45
:1050000005F080FB002000904021034800F005FEE1
:1050100001B05DF814FB0000480700202DE9F047BF
:1050200004460D46052D5AD14FF47A762088001F8C
:1050300020806088001F6080A088001FA080E0881A
:10504000001FE080304605F02EF88046208805F0ED
:105050002AF88146944A4146FEF77FFB074605F051
:105060005EF82080304605F01EF88046608805F026
:105070001AF881468C4A4146FEF76FFB074605F059
:105080004EF86080304605F00EF88046A08805F0A6
:105090000AF88146844A4146FEF75FFB074605F061
:1050A0003EF8A080304604F0FEFF8046E08804F021
:1050B000FAFF81467C4A4146FEF74FFB074605F062
:1050C0002EF8E0802088794908806088091D0880D2
:1050D000A088091D0880E088091D088067E0032D6D
:1050E00049D140F22B46304604F0DDFF804620884F
:1050F00004F0D9FF81466C4A4146FEF72EFB074675
:1051000005F00DF869490880304604F0CCFF804670
:10511000608804F0C8FF8146634A4146FEF71DFBE4
:10512000074604F0FCFF6149091D0880304604F081
:10513000BAFF8046A08804F0B6FF81465A4A41462D
:10514000FEF70BFB074604F0EAFF584908310880D8
:10515000304604F0A8FF8046E08804F0A4FF8146B2
:10516000514A4146FEF7F9FA074604F0D8FF4F4985
:105170000C3108801BE0022D0AD140F22B404B4934
:105180000880091D0880091D0880091D08800EE09F
:105190001DB1012D01D0042D09D14FF47A7043497E
:1051A0000880091D0880091D0880091D0880BDE8C8
:1051B000F08700B589B00121042002F0CDF901216A
:1051C000082002F0C9F90121022002F0D2F90121E0
:1051D000084602F0C1F918208DF80700C020ADF88C
:1051E000040003208DF8060001A9314801F0F8FE03
:1051F0000320ADF8040001A92E4801F0F1FE40F6AD
:10520000C310ADF81C000020ADF81A00ADF81E0068
:105210004720ADF8180006A92448343803F024F8D4
:1052200001212248343803F07BFB6020ADF80800F0
:105230000120ADF80A000020ADF8100002A91B48BB
:10524000343803F04EF802A91848343803F08BF8CC
:1052500002A91648343803F0D3F802A913483438A9
:1052600003F019F908211148343803F089FC0821AA
:105270000E48343803F08DFC08210C48343803F014
:1052800095FC08210948343803F099FC4FF47A70F2
:105290000949088048808880C88000210648FFF7B7
:1052A000BDFE09B000BD00000000E1443404004030
:1052B00000080140000C0140D60200201FB501216A
:1052C000084602F056F90121880703F003FE40F674
:1052D000C410ADF804000020ADF80200ADF80600DF
:1052E0004720ADF8000069464FF0804002F0BCFF57
:1052F00001221146900703F02EFB0121880703F0DD
:105300000FFB1C208DF80C0001208DF80D008DF88E
:105310000E008DF80F0003A802F08BFB1FBD1FB518
:105320000121042002F025F901217A4803F0D2FD81
:1053300042F21070ADF804000020ADF80200ADF8A4
:1053400006004720ADF800006946724802F08CFF65
:10535000012211466F4803F0FEFA01216D4803F067
:10536000DFFA1E208DF80C0001208DF80D000220C0
:105370008DF80E0001208DF80F0003A802F059FBF4
:105380001FBD10B50121880703F093FD00284CD004
:1053900061480088401C60490880FFF7E3FC00F08A
:1053A00062F95D490888C11700EB91718910A0EB83
:1053B000810109B9FFF746F957490888C11700EB81
:1053C0005171C910A0EBC10109B9FFF7E2FA5249C6
:1053D0000888C11700EB91718910A0EB81010129A8
:1053E00001D1FBF736FA4C49088800EBD07149101F
:1053F000A0EB410109B9FBF777FA47490888C117C3
:1054000000EB5171C910A0EBC101012909D143483A
:105410008078012805D142484078012801D1FEF763
:105420005FFD0121880703F055FD10BD70B5012116
:10543000384803F03EFD002869D000F0FDFD3948F2
:105440008078012806D100203649887036493748CF
:10545000FDF79CFA36480078401C3549087008462C
:1054600000780A2801D100200870324840780128CD
:105470002AD100202F4948702F4908802D48817873
:105480002430FCF7A4FE05462846FCF738F92948E5
:10549000B0F846000A2190FBF1F201FB120004284B
:1054A00003D18102254801F04AFE2248B0F84600A7
:1054B0000A2190FBF1F201FB1200082803D14102FE
:1054C0001E4801F03AFE70BD1B480088401C1A4976
:1054D000088008460088B0F57A7F14DB0020088039
:1054E0004FF40061154801F02AFEFBF7A4FC0446C6
:1054F000FBF763FC21462720FBF7CFFB4FF400614D
:105500000E4801F01AFE0121024803F0E3FC00BF3F
:10551000D9E7000000080040DE020020F806002065
:105520008C03002038090020440E00207205002062
:10553000E2020020C4030020E00200200008014035
:105540002DE9F84F04460E4617461D46DDF8288023
:105550003946304604F0A0FBE060E068FEF7B4F89E
:10556000E060B149E06804F09DFB8146616904F0A8
:1055700041FB606185F000492A464946E069FEF733
:10558000ECF86061D4E9030104F086FBA061A16935
:10559000A06804F087FB00906169606804F082FBFA
:1055A0008246E168206804F07DFB8346514604F0A2
:1055B00021FB8146009904F01DFBE06188F0004961
:1055C00042464946E069FEF7C8F8E061E0682061BC
:1055D000BDE8F88F2DE9F84F04460E4617461D46E4
:1055E000DDF828803946304604F056FBE0608E49ED
:1055F000E06804F057FB8146616904F0FBFA6061E2
:1056000085F000492A464946E069FEF7A6F8606140
:10561000D4E9030104F040FBA061A169A06804F093
:1056200041FB00906169606804F03CFB8246E168E0
:10563000206804F037FB8346514604F0DBFA8146CC
:10564000009904F0D7FAE06188F0004942464946E3
:10565000E069FEF782F8E061E0682061BDE8F88F5C
:10566000002141617047F8B570480078032804D0E4
:105670006F48006C6F490860F8BD6F49B1F90400CC
:1056800004F008FD07466D4904F006FB044604F0EB
:1056900092FD21F0004105460022694B04F09EFD79
:1056A00005D26848FFF7DCFF6748FFF7D9FF62497A
:1056B000B1F9060004F0EEFC0746604904F0ECFA8C
:1056C000044604F078FD21F00041054600225C4BC1
:1056D00004F084FD05D25D48FFF7C2FF5C48FFF788
:1056E000BFFF5C48009052485B4BC26B5B4801684F
:1056F0005448FFF76FFF574800904D48564B826B58
:10570000574801685248FFF765FF564800905648D1
:10571000026B4C48554BC1694B48FFF75BFF514842
:1057200000905148C26A4A48504BC1694748FFF748
:1057300051FF4149B1F9020004F0ACFC05463F4974
:1057400004F0AAFA04464A4904F0ACFA3A49C8619E
:10575000B1F9020004F09EFC0746384904F09CFAB7
:10576000044604F028FD21F0004105460022414B8B
:1057700004F034FD0AD240480078E8B92C48006CA7
:105780002C49086001203C49087015E000203A4986
:1057900008702949C869244904F084FA0446254858
:1057A0000168204604F026FA22490860084600688D
:1057B000FDF78AFF1F490860304800901C48264BBF
:1057C000026C1C4801682E48FFF7BAFE2248009080
:1057D0002548426B2A482B4BC1692B48FFF7B0FE86
:1057E00000BF49E70021C16001614161C161816180
:1057F000704700B51348FFF7F5FF1548FFF7F2FFB4
:105800001F48FFF7EFFF2148FFF7ECFF0E48FFF7B7
:10581000E9FF0E48FFF7E6FF1B48FFF7E3FF1C48D0
:10582000FFF7E0FF00BD00000AD7233B0C0000207B
:105830004C000020E8020020300400200080BB441F
:10584000000034403C0800209C0800207C08002018
:105850001C0800200000B4420000C842540100208F
:105860005801002000003443F806002000004842A0
:105870008FC2753D00002440E60200200000F04188
:105880005C08002000002041BC080020DC0800204B
:10589000FC08002000B587B00121084601F05CFE3D
:1058A0000121880301F065FE0121082001F054FE6A
:1058B0004FF46040ADF8180018208DF81B0003204D
:1058C0008DF81A0006A9304801F08AFB0020ADF8D7
:1058D00004004FF48270ADF806000020ADF8080017
:1058E000ADF80A00ADF80C004FF40070ADF80E00F2
:1058F0001020ADF810000020ADF812000720ADF820
:10590000140001A9214803F00FFB01211F4803F0F7
:10591000B0FB07B000BD70B5054605E0601CC4B221
:10592000C82C01DB002070BD0221184803F025FCC3
:105930000028F3D02946154803F0CCFB002405E0ED
:10594000601CC4B2C82C01DB0020ECE701210F4829
:1059500003F013FC0028F3D00C4803F0BDFBC6B2E3
:105960003046E0E710B50446084800884FF6C77196
:105970000840064908800846008820430880012125
:10598000024803F076FB10BD000C014000380040D7
:105990001FB50121082001F0DFFD0121084601F0BB
:1059A000DBFD04208DF807008002ADF80400032021
:1059B0008DF8060001A92E4801F012FB0C210120F0
:1059C00001F024FC4FF48050029000208DF80C0070
:1059D0000C208DF80D0001208DF80E0002A803F0B8
:1059E00011FC28208DF8000000208DF80100022015
:1059F0008DF8020001208DF80300684602F019F8C6
:105A00001FBD10B54FF4805003F062FC78B34FF423
:105A10000061184801F093FBFBF70DFA044604F00F
:105A20004000B8B11448B0F84600401C1249A1F833
:105A30004600012048700846FBF724FA04F02000D5
:105A400040B101200C4908700846B0F84400401CE1
:105A5000A1F8440021462720FBF71FF94FF400610D
:105A6000044801F06AFB4FF4805003F042FC10BD83
:105A7000000C014000080140C403002070B504463A
:105A80000D46002603E0701C86B2002070BDB6F5FE
:105A9000FA7F03DAC64880790128F4D02A462146E5
:105AA000C44804F071F82946C34803F00DFD0121F4
:105AB000C14803F0F4FC0120BD49887100BFE5E74F
:105AC00010B586B004460121042001F045FD0121F6
:105AD000084601F041FD0121880301F03DFD182039
