:020000040800F2
:10000000C0150020696C0008CD010008CF01000870
:10001000D3010008D7010008DB0100080000000040
:10002000000000000000000000000000DF010008E8
:10003000E101000800000000E3010008E5010008FC
:10004000836C0008836C0008836C0008836C0008D4
:10005000836C0008836C0008836C0008836C0008C4
:10006000836C0008836C0008836C0008836C0008B4
:10007000836C0008836C00086B5F0008836C0008C9
:10008000836C00083F600008836C0008836C0008E4
:10009000836C0008836C0008836C0008836C000884
:1000A000836C0008836C0008836C0008836C000874
:1000B0006F540008836C000819550008836C000811
:1000C000836C0008836C0008836C0008836C000854
:1000D000836C00086F5C00080F5E0008836C0008EA
:1000E000EF5A0008836C0008836C0008DFF80CD01E
:1000F0000AF070F90048004701010008C01500200F
:1001000000BF00BF00BF00F004F94FF4A06007F08B
:1001100041FB04F023FE00F067F805F0B9FF05F09D
:10012000BEF84FF4FA7000F0BDF84FF4FA7000F02A
:10013000B9F800F0B3FB00F08BF900F089FE1D4A1E
:100140001D491E4803F070FD1C48807810B901203D
:100150001A4908701948C07810B901201749487029
:100160001448407810B90120124908700120144940
:10017000087448748874C87401F0FDFA01F06FFBCC
:10018000012807D101030F4806F08FFE05F076FC29
:1001900001F0B4FB03F0E0FD0B49087004F04EFCE5
:1001A0004FF4E13005F0D3FD05F02FF905F0FCF830
:1001B00000BFFEE7940300201C040020CC030020B5
:1001C000F004002000080140E9020020704700BF51
:1001D000FEE700BFFEE700BFFEE700BFFEE7704797
:1001E000704770477047000008B509F002FB012115
:1001F000042007F067F80121084607F063F80121A1
:10020000264806F074FE10208DF803004FF41040CD
:10021000ADF8000003208DF802006946204806F082
:1002200095FD4FF410411E4806F03DFE08BD10B587
:100230004FF4FA7000F036F84FF4FA7000F032F82C
:100240004FF4FA7000F02EF84FF4FA7000F02AF82C
:100250004FF40041124806F028FE4FF48051104838
:1002600006F023FE4FF4FA7000F01CF84FF4FA7019
:1002700000F018F84FF4FA7000F014F84FF4FA7028
:1002800000F010F84FF40041054806F00CFE4FF462
:100290000041034806F007FE10BD000000023000D8
:1002A00000080140014601224FF0E0231A6142F2AA
:1002B00028324A435A6100229A6100BF4FF0E0227F
:1002C000106900F001021AB100F48032002AF5D062
:1002D00000224FF0E0239A611A6170470146012223
:1002E0004FF0E0231A6101EBC1025A6100229A61CA
:1002F00000BF4FF0E022106900F001021AB100F4D3
:100300008032002AF5D000224FF0E0239A611A6172
:10031000704710B506F068FE4FF4803006F084FE9A
:1003200000BF06F0C0FE0128FBD1022007F0A0FAB2
:10033000102007F0B1FA4FF4E0114FF4803006F0CE
:10034000DBFE012006F0E4FE00BF392006F08FFE40
:100350000028FAD0002006F0ECFE002006F0FBFE9C
:100360004FF4806006F0EEFE4FF4004006F00EFF02
:10037000022007F07DFA002007F083FA102007F032
:100380008BFA022006F0C7FE10BD000010B5582100
:10039000EE2004F01FFE10BD70B5014600230126BB
:1003A000887B00F00F05C88900F47F40C8810022D7
:1003B00004E031F8120000B10026521C082AF8DBD4
:1003C0000EB1012070BD002218E002F0010020B142
:1003D000501011F81000434004E0501031F81000A4
:1003E00083EA2023082406E003F4004008B183F4E4
:1003F000C0535B00641E002CF6DC521C102AE4DBA8
:10040000C8892843C881C3F30330854201D1002045
:10041000D8E70120D6E738B5044600200090A02098
:1004200000EB4400C1B202236A46EE2004F03CFE19
:100430009DF801009DF8001040EA012038BD10B57C
:100440001E21EE2004F0C6FD0A20FFF72BFF10BD91
:1004500038B50A20FFF726FF01236A46A021EE20C7
:1004600004F022FE0020E749487001200870FFF7E1
:10047000E6FF6420FFF716FF002408E060B2FFF7F4
:10048000CAFFE0490C3121F81400601CC4B2082CEA
:10049000F4DBDC480C30FFF77FFF08B1002038BDEB
:1004A000FFF774FF0120FAE708B503236A4600212D
:1004B000EE2004F0F9FD9DF8000000049DF8011005
:1004C00040EA01209DF80210084308BD10B54821FC
:1004D000EE2004F07FFD10BD2DE9F04F85B00446FD
:1004E000E18A4FF48072A1FB02126068B0EB01094F
:1004F000218A4FF000004FEA004040EA11404FEAE5
:100500000142A18A4FF000034FEAE97CA1FB09AB4D
:1005100003FB09B301FB0C334FEADA1141EA4361F3
:10052000511840EBE310CDE90210E1894FF00000D3
:100530004FEAC03040EA51404FEAC132618A4FF081
:1005400000034FEAE97CA1FB09AB03FB09B301FB04
:100550000C334FEA1A2141EA0361511840EB232082
:10056000CDE90010208B4FF000024FEAE973A0FBA9
:10057000091C02FB09C200FB03224FEAD15040EAEA
:1005800042214FEAE2504FF4FA63CD1840F10006E1
:100590001946691A76F100005FDA19466F1A66F19A
:1005A000000805210022A7FB010308FB013107FB1E
:1005B000021201463846A1FB003A02FB07A008FBE5
:1005C00001081F465FEA68024FEA3703DDE90201CE
:1005D000C01A61EB0201CDE90201B80840EA887057
:1005E000DDE90012081A62EBA802CDE90002864993
:1005F000691A76F1FF3030DA40F2DC516F1846F1BB
:1006000000083846A0FB002308FB003308FB07382E
:10061000174607210020A7FB012308FB013107FB38
:100620000013DDE90210891A60EB0300CDE9021026
:100630000B2200213B46A3FB02CA08FB02A007FBDA
:10064000010160465FEA610C4FEA3003DDE90020FA
:10065000D11A60EB0C00CDE900100023A068DDE9A1
:100660000012A0FB01CA03FB01A100FB02104FEA2C
:100670005C5141EAC0234115DDE90202181A61EB21
:100680000201C00B40EA41400490049809F0C1FB0C
:100690002062E56105B0BDE8F08F38B504462078EA
:1006A00001287AD159480088502190FBF1F201FBD2
:1006B000120020B94FF40041554806F0F6FB5348AC
:1006C0000088502190FBF1F201FB1200282804D190
:1006D0004FF400414E4806F0E6FB4C480088C8281D
:1006E00005DA4A480088401C4849088038BD494816
:1006F0000078092844DD4748007809F08AFB054660
:1007000029464548006809F0B5F96062012060702B
:1007100000202070606A20620020A0620021204634
:1007200004F094F8E06A6063002020633B490860AD
:100730003B4908603B4908603949086033490880F3
:10074000344908703449086001203749C874206A68
:1007500009F082FB4FF6FF7101EA2040ADF800007E
:10076000206A09F079FB80B2ADF8020001212F4820
:1007700003F0F4F9022269462C4803F00EFA0CE06B
:1007800024480078401C234908702348216A0068E7
:1007900009F0E6F820490860A8E700BFA6E710B511
:1007A0002349088800EBD0714910A0EB410131B911
:1007B000FFF77AFE13494860FFF788FE1CE01C49EA
:1007C000088800EBD0714910A0EB4101012913D139
:1007D000FFF76AFE0B4988600846FFF77DFE01219E
:1007E000084804F033F807480078012802D105488A
:1007F000FFF753FFFFF7CAFD0D480088401C0C4966
:10080000088010BD9403002024FAFFFF00000020A0
:100810000008014002000020040000208C0200209B
:100820009402002074020020F004002000A00108BF
:100830000800002070B505460C4604F0D5FAD0201B
:1008400004F06BFB04F00CFB284604F066FB04F09C
:1008500007FB204604F061FB04F002FB04F0E2FA1F
:1008600070BD70B5054604F0BFFAD02004F055FB0A
:1008700004F0F6FA284604F050FB04F0F1FA04F014
:10088000B3FAD12004F049FB04F0EAFA002004F0A6
:100890006FFB044604F0C6FA204670BD10B5752003
:1008A000FFF7DFFF0446682C01D0002010BD802137
:1008B0006B20FFF7BFFF6420FFF7F4FC0B216B20D8
:1008C000FFF7B8FF6420FFF7EDFC01211920FFF7C7
:1008D000B1FF02211A20FFF7ADFF10211B20FFF707
:1008E000A9FF08211C20FFF7A5FF1C20FFF7B9FF77
:1008F000FE49087000212320FFF79CFF00213820CB
:10090000FFF798FF00213820FFF794FF0120CDE783
:100910007CB504466078012861D10020E070F4487D
:100920000088C8283FDD0120E07000206070F14899
:100930000068EF49098890FBF1F000B26083ED4850
:100940004068EB49098890FBF1F000B2A083E948C8
:100950008068E749098890FBF1F000B2E083608B82
:1009600080B2ADF80000A08B80B2ADF80200E08B41
:1009700080B2ADF804000121DF4803F0EFF8032254
:100980006946DD4803F009F9C5B2032D02D1012003
:10099000DA4948740020D6490880D6490860486082
:1009A000886001207CBDD3480068B4F90E1008446B
:1009B000D049086008464068B4F910100844CD4991
:1009C000486008468068B4F912100844C949886034
:1009D000C7480088401CC64908800020E2E7002084
:1009E000E0E77CB504462078012863D10020A070A0
:1009F000C3480088C8283FDB0120A0700020207079
:100A0000C0480068BE49098890FBF1F000B2A0829E
:100A1000BC484068BA49098890FBF1F000B2E08216
:100A2000B8488068B649098890FBF1F000B220838D
:100A3000A08A80B2ADF80000E08A80B2ADF8020072
:100A4000208B80B2ADF804000121AF4803F086F896
:100A500003226946AC4803F0A0F8C5B2032D02D1C9
:100A60000120A64908740020A649086048608860F3
:100A7000A349088001207CBDA2480068B4F9061093
:100A80000844A049086008464068B4F908100844C2
:100A90009C49486008468168B4F90A00A0F50050F6
:100AA00008449849886096480088401C944908800A
:100AB0000020E0E70020DEE72DE9F04107460E4682
:100AC0001546984604F090F9384604F026FA04F0EA
:100AD000C7F9304604F021FA04F0C2F904F084F9B1
:100AE000791CC8B204F019FA04F0BAF9002405E040
:100AF000012004F03DFA2855601CC4B2A8F10100A1
:100B0000A042F5DC002004F033FA285504F08AF9FD
:100B1000BDE8F0811FB504460E236A463B21D02074
:100B2000FFF7CAFF9DF801009DF8001040EA012080
:100B300000B2E0809DF803009DF8021040EA012019
:100B400000B220819DF805009DF8041040EA0120C4
:100B500000B260819DF807009DF8061040EA012070
:100B600000B2A0819DF809009DF8081040EA01201C
:100B700000B2E0819DF80B009DF80A1040EA0120C8
:100B800000B220829DF80D009DF80C1040EA012073
:100B900000B260821FBD30B58DB05C48FFF7BAFF70
:100BA0005A48007801280ED15848FFF71AFF01284B
:100BB00007D14FF07E505649086000204860886099
:100BC000C8600DB030BD5148407801280DD14F4864
:100BD000FFF79EFE012807D14FF07E504C49086078
:100BE000002048608860C860EBE74848C0884749F3
:100BF000898A401A00B24549C88008460089C98AD6
:100C0000401A00B24149088108464089098B401AC0
:100C100000B23E4948810846C089498B401A00B25B
:100C20003A49C8810846008A898B401A00B2374980
:100C300008820846408AC98B401A00B2334948826C
:100C4000B1F9060009F0DCF805462946314803F001
:100C5000F1F9044609F000F900B22C49C880B1F955
:100C6000080009F0CDF8054629462B4803F0E2F9C3
:100C7000044609F0F1F800B224490881B1F90A00EC
:100C800009F0BEF805462946244803F0D3F9044686
:100C900009F0E2F800B21D494881B1F90E0009F0EF
:100CA000AFF8054629461E4803F0C4F9044609F08A
:100CB000D3F800B21549C881B1F9100009F0A0F8C5
:100CC00005462946174803F0B5F9044609F0C4F86B
:100CD00000B20E490882B1F9120009F091F80546F8
:100CE0002946114803F0A6F904461FE02001002020
:100CF000240100201004002000980108F0040020C6
:100D0000220100200404002000940108CC030020EC
:100D10009C0100200C00002038000020640000200E
:100D200090000020BC000020E800002009F094F8AA
:100D300000B22A494882B1F90E0009F061F8044670
:100D4000274908F065FE2549C862B1F9100009F08D
:100D500057F80446224908F05BFE20490863B1F9C0
:100D6000120009F04DF804461D4908F051FE1B49D8
:100D7000486301211B48C06B2822CDE90A011749AD
:100D80001031684608F0B6FD14480FC803F0E8F9C2
:100D900000BF16E770B5044604F026F8D02004F032
:100DA000BCF804F05DF8204604F0B7F804F058F8F9
:100DB00004F01AF8D12004F0B0F804F051F8012042
:100DC00004F0D6F80546002004F0D2F8064604F0F8
:100DD00029F806EB052080B270BD0000CC0300208E
:100DE0008FC2F53C1C04002070B505460C4603F08C
:100DF000FBFF1A2004F091F804F032F8284604F0C2
:100E00008CF804F02DF8204604F087F804F028F858
:100E100004F008F870BD70B5044603F0E5FF1A2031
:100E200004F07BF804F01CF8204604F076F804F097
:100E300017F803F0D9FF1B2004F06FF804F010F846
:100E4000002004F095F8054603F0ECFF284670BD3D
:100E500010B50D20FFF7DFFF0446FF2C01D0002066
:100E600010BD80210A20FFF7BFFF6420FFF71AFAA8
:100E700049210920FFF7B8FF41210A20FFF7B4FFFD
:100E800001210B20FFF7B0FF0120E9E7FEB5044682
:100E9000207801286DD1FE480088401CFC4908805C
:100EA000084600880A2190FBF1F201FB120001289C
:100EB00003D10103F74805F0F8FFF5480088142135
:100EC00090FBF1F201FB1200022803D1C102F148AC
:100ED00005F0E9FF00206070ED480088B0F5FA6F7A
:100EE00048DAB4F90400B4F91C10884202DAB4F903
:100EF000040001E0B4F91C00A083B4F90600B4F9C1
:100F00002010884202DAB4F9060001E0B4F92000AA
:100F10002084B4F90800B4F92410884202DAB4F944
:100F2000080001E0B4F92400A084B4F90400B4F985
:100F30001E10884202DDB4F9040001E0B4F91E007D
:100F4000E083B4F90600B4F92210884202DDB4F956
:100F5000060001E0B4F922006084B4F90800B4F995
:100F60002610884202DDB4F9080001E0B4F9260039
:100F7000E084A6E00020C64908804FF48051C548AF
:100F800005F093FFB4F91C10B4F91E20881808F07E
:100F900037FF06464FF0804108F06CFD054608F02B
:100FA0005BFF00B2A086B4F92010B4F922208818A3
:100FB00008F026FF06464FF0804108F05BFD05462D
:100FC00008F04AFF00B2E086B4F92410B4F92620F4
:100FD000881808F015FF06464FF0804108F04AFDDA
:100FE000054608F039FF00B220874FF07E50A0621E
:100FF000B4F92210B4F92020881A08F001FF054640
:10100000B4F91E10B4F91C20881A08F0F9FE06463F
:10101000294608F02FFDE062B4F92610B4F9242027
:10102000881A08F0EDFE0546B4F91E10B4F91C202C
:10103000881A08F0E5FE0646294608F01BFD2063E5
:10104000A08E80B2ADF80000E08E80B2ADF8020054
:10105000208F80B2ADF804008F49A06A08F0D8FC58
:10106000054608F012FF80B2ADF806008A49E06A32
:1010700008F0CEFC054608F008FF80B2ADF8080085
:101080008549206B08F0C4FC054608F0FEFE80B2DE
:10109000ADF80A000121814802F060FD0622694690
:1010A0007E4802F07AFD01207D4988740020A083EB
:1010B000E08320846084A084E084012060700020AC
:1010C0002070FEBD2DE9F04107460D46164603F09F
:1010D0008BFE1A2003F021FF03F0C2FE002003F074
:1010E0001CFF03F0BDFE03F07FFE1B2003F015FF85
:1010F00003F0B6FE002405E0012003F039FF285577
:10110000601CC4B2701EA042F6DC002003F030FF69
:10111000285503F087FEBDE8F0812DE9F04F93B02C
:1011200000200F900E9081460620FFF774FE5D4967
:1011300088700846807800F0010000287DD00622E3
:1011400010A90020FFF7BEFF5648807800F002008B
:10115000D0B99DF841009DF8401001EB002000B28D
:10116000504988809DF843009DF8421001EB002013
:1011700000B24C49C8809DF845009DF8441001EB31
:10118000002000B24749088146480078012805D16F
:101190004448FFF77BFE13B0BDE8F08F414840782C
:1011A000012842D13F49B1F904103E4AB2F9342036
:1011B000881A08F025FE0D903A48806A80F00048B1
:1011C00040460D9908F024FC074608F045FE00B2A1
:1011D00034498880B1F90610324AB2F93620881AAB
:1011E00008F00EFE0D902F48C06A80F0004840467F
:1011F0000D9908F00DFC074608F02EFE00B22949B3
:10120000C880B1F90810274AB2F93820881A08F0C6
:10121000F7FD80462348016B404608F0F9FB07467E
:1012200008F01AFE00B21F4908811E49B1F90400F6
:1012300008F0E6FD07461C4900E0F9E008F01AFC5A
:101240001849C860B1F9060008F0DAFD07461649EA
:1012500008F010FC13490861B1F9080008F0D0FD4E
:101260000746114908F006FC0E494861B1F904101F
:1012700049430C4AB2F906200A4BB3F9063002FB87
:1012800003120849B1F90810064BB3F908300DE014
:10129000560100200008014000007A44009C01082B
:1012A000F00400201C04002000803B4601FB0320CA
:1012B00008F0A6FD074602F01CFF06468349B1F977
:1012C000040008F09DFD0746314608F0A1FB0F9091
:1012D0007E49B1F9060008F093FD0746314608F053
:1012E00097FB0E907949B1F9080008F089FD07468F
:1012F000314608F08DFB81467549886B754908F0C9
:1013000087FB0746744908F0B5FB82467049C86BF5
:10131000704908F07DFB07466F4908F0ABFB834638
:1013200058460BF0C1FA074608F0FBFDCDE906016F
:10133000504608F0F6FDCDE900010AF0B3FC07467F
:101340008846484608F0EDFD3A464346CDE902019D
:1013500008F075FCCDE90401DDE9062308F06FFC17
:10136000CDE90A0158460BF09FFA059050460BF064
:101370009BFA04900E9908F04BFB8046059908F003
:1013800047FB069058460AF0DBFC80460F9908F0B0
:101390003FFB0746069908F0E3FA079008F0C1FD05
:1013A000CDE90801DDE90A2308F0A2FBCDE90C0133
:1013B00008F0FAFD044650460BF076FA49460D90C7
:1013C00008F026FB074650460AF0BAFC0D900E992D
:1013D00008F01EFB8046394608F014FB05462846F7
:1013E00008F09FFD07468846204608F09AFD3A46D9
:1013F0004346CDE906010AF067FA0022374BCDE9F2
:10140000080108F01CFC4FF0C042354BCDE90A0141
:1014100008F087FCCDE90C0108F0C6FD2B49C86334
:101420000846C16B2F4802F005FE2849C86300E05A
:10143000B1E600BFAFE62DE9F041244A5169506999
:1014400008F0E6FA0646214A1169106908F0E0FA48
:1014500007461E4AD168D06808F0DAFA8046394655
:1014600008F07EFA0546314608F07AFA044620462E
:101470000BF004FB1549886188691B4908F0B0FD31
:1014800005D312498869194908F0B4FD09D21848F2
:10149000008864280DDA16480088401C144908802A
:1014A00007E01348008820B111480088401E104909
:1014B00008800F480088322803DD01200349C870E6
:1014C00002E000200149C870BDE8F0811C04002042
:1014D0009C010020DB0F494000003443008066403F
:1014E000FB21094028010020C3F5A83E6666663F3F
:1014F0005401002070B58C48007818B18A480078F3
:10150000012827D18948807801281BD18748C078D5
:10151000012817D186484078012813D185484078A2
:1015200001280FD18448007802280BD1834890F815
:101530005600012806D17C48007830B901207A494C
:10154000087002E000207849087000217C4803F010
:10155000DBFD70BD74480078022831D10221784843
:1015600003F0D2FD04F0BBF97649886B08F0D9FC92
:1015700021F0004104460022734B08F0E5FC1BD823
:101580007049C86B08F0CDFC21F0004104460022F0
:101590006D4B08F0D9FC0FD86C480088401C6B4993
:1015A000088008460088B0F5487F08D900200880E8
:1015B00003205D49087002E0002064490880C8E704
:1015C00059480078052806D104F089F905215C48BE
:1015D00003F09AFDBDE75448007803287ED15949AD
:1015E000886B08F09EFC21F0004104460022584B15
:1015F00008F0C2FC0BD35349C86B08F092FC21F0F1
:10160000004104460022524B08F0B6FC0ED251486D
:101610000088401C4F49088008460088C82808D91F
:101620000020088005204049087002E00020494958
:10163000088049480088494908804948C0694949A3
:1016400008604948C06948604848C06988604348A4
:10165000008808F0DEFB04464548C169204608F0D2
:101660007FF94049C8600A461168D06808F078F9E7
:1016700006463C484168304608F072F9054639484C
:101680008168284608F0BEF9044608F0FEFB2C49A4
:101690000880344A1168D06808F0B4F90646314829
:1016A0004168304608F05CF905462E4881682846B6
:1016B00008F056F9044608F0E8FB21494880294A19
:1016C0001168D06808F09EF9064626484168304601
:1016D00008F098F905462348816800E021E0284693
:1016E00008F090F9044608F0D0FB154988801D4A9F
:1016F0001168D06808F034F906461A484168304647
:1017000008F080F9054617488168284608F028F94E
:10171000044608F0BAFB0A49C8800321084803F0D0
:10172000F3FC00BF15E7704758010020CC030020F0
:101730001C04002094030020E90200200A06002077
:10174000DA0200209C0100200000244066010020F5
:10175000000039405C010020C80400206401002022
:10176000C407002064080020E407002004080020CB
:1017700044080020704708B50121042005F0A2FDAF
:101780004FF40060ADF8000010208DF80300032036
:101790008DF802006946C84805F0D8FA4FF4006198
:1017A000C54805F082FB4FF48070ADF800001020B2
:1017B0008DF8030003208DF802006946BE4805F04D
:1017C000C5FA4FF48071BC4805F06DFB04F0D8F801
:1017D0004FF48071B84805F066FB08BD2DE9F04173
:1017E00007460C4615464FF48071B34805F05DFB83
:1017F000384604F006F98046002606E0002004F092
:1018000000F92070641C701CC6B2AE42F6DB4FF4C7
:101810008071A94805F047FB4046BDE8F0812DE9FD
:10182000F04107460C4615464FF48071A24805F07A
:101830003CFB384604F0E5F88046002605E02078B9
:1018400004F0DFF8641C701CC6B2AE42F7DB4FF444
:101850008071994805F027FB4046BDE8F0811FB52F
:1018600096A103C9CDE90201052202A93020FFF7A4
:10187000D6FF052269461020FFF7B0FF002408E0DC
:101880001DF8040002A9095D884200D003E0601C35
:10189000C4B2052CF4DB00BF052C02D0002004B03C
:1018A00010BD0120FBE770B505460C464FF4807172
:1018B000814805F0FAFA284604F0A3F806462046C7
:1018C00004F09FF84FF480717B4805F0ECFA304645
:1018D00070BD70B504464FF48071774805F0E5FAA5
:1018E000204604F08EF8002004F08BF805464FF4F3
:1018F0008071714805F0D7FA284670BD10B54FF4D5
:1019000000616D4805F0D1FA0A20FEF7CBFC0121F9
:101910002120FFF7C8FF01212220FFF7C4FF032188
:101920002320FFF7C0FF052266492A20FFF777FF33
:1019300001212520FFF7B7FF26210846FFF7B3FF57
:1019400001213C20FFF7AFFF06213D20FFF7ABFF51
:101950000F212020FFF7A7FF4FF40061564805F044
:10196000A2FA10BD10B54FF40061534805F09DFA7E
:1019700001212220FFF797FF03212320FFF793FF88
:10198000052251493020FFF74AFF05224D492A2000
:10199000FFF745FF5A212420FFF785FF012125206D
:1019A000FFF781FF26210846FFF77DFF01213C203C
:1019B000FFF779FF06213D20FFF775FF0E2120205C
:1019C000FFF771FF10BD10B54FF400613A4805F004
:1019D0006CFA0021E120FFF766FF10BD10B54FF44F
:1019E0000061354805F061FA1720FFF772FF0446E1
:1019F000204610BD70B504460D464FF400612E48D8
:101A000005F053FAFFF7EAFF064606F0200008B19A
:101A1000FFF7D9FF2A462146A020FFF700FF4FF429
:101A20000061254805F03FFA002070BD10B54FF465
:101A30000061214805F039FA0021E220FFF733FF69
:101A400010BD10B54FF400611B4805F02EFA0720B9
:101A5000FFF73FFF04464FF40061174805F023FAF3
:101A6000204610BD70B505460C461646052C01DD16
:101A7000FF2070BD04F1A801C8B232462946FFF725
:101A8000CEFE0120F5E710B56020FFF722FF10BD64
:101A900010B50446FFF7F7FFA070A078202803DDFB
:101AA000FFF7C4FF002010BDA27804F124016120DB
:101AB000FFF794FE0120F6E700080140AABBCCDD49
:101AC000FF000000ADCA0008A8CA000870B50546AE
:101AD0000C46224600212846FFF7C4FF70BD2DE9C1
:101AE000F84380460E460024AA222146641CF7488B
:101AF00042542146641C425405222146641C42542F
:101B000000222146641C4254F149404607F080FF00
:101B1000814608F0BAF980B200909DF80120214674
:101B2000641CEA4842549DF800202146641C42543B
:101B3000E749304607F06CFF814608F0A6F980B20D
:101B400000909DF801202146641CE04842549DF815
:101B500000202046611CCCB2DC490A54201FC8700A
:101B60000027002505E0D948405D3844C7B2681C0D
:101B7000C5B2A542F7DB2046611CCCB2D3490F5455
:101B80002146D248FFF7A2FFBDE8F8830FB42DE944
:101B9000FE4F0024AA222146641CCC484254214610
:101BA000641C425404222146641C425400222146F3
:101BB000641C42549DF8860002909DF8082021463E
:101BC000641CC24842549DF8300002909DF80820E1
:101BD0002146641CBD4842549DF8870002909DF840
:101BE00008202146641CB94842540022B94BDDE963
:101BF0001D71384608F023F8824608F079F9009004
:101C00009DF803202046611CCCB2B0490A549DF8CF
:101C100002202046611CCCB2AC490A549DF8012038
:101C20002046611CCCB2A9490A549DF800202146E7
:101C3000601CC4B2A54842549DF87C902046611CAB
:101C4000CCB2A24901F80090DDF87D70DDF881107A
:101C50000022A04B384607F0F2FF824608F048F910
:101C600000909DF803202046611CCCB297490A548D
:101C70009DF802202046611CCCB294490A549DF87C
:101C800001202046611CCCB290490A549DF80020E6
:101C90002046611CCCB28D490A549DF8859020469F
:101CA000611CCCB2894901F80090DDF89B008A499B
:101CB00007F0AEFE074608F0CFF800B201909DF89D
:101CC00005202046611CCCB280490A549DF80420AE
:101CD0002046611CCCB27D490A54DDF8AF007C4936
:101CE00007F096FE074608F0B7F800B201909DF89D
:101CF00005202146601CC4B2744842549DF804205B
:101D00002046611CCCB271490A549DF8710008301C
:101D1000C0B202909DF808202046611CCCB26B49ED
:101D20000A549DF8720002909DF808202046611C1C
:101D3000CCB266490A549DF8730002909DF80820C1
:101D40002046611CCCB261490A54201FC87000268D
:101D5000002505E05D48405D3044C6B2681CC5B250
:101D6000A542F7DB2046611CCCB258490E542146EF
:101D70005648FFF7ABFEBDE8FE0F5DF814FB2DE9FA
:101D8000F84F06460F4690469946DDF828B00024E5
:101D9000AA222146641C4D4842542146641C4254E8
:101DA00002222146641C425400222146641C4254F3
:101DB00000969DF801202146641C42549DF80020A5
:101DC0002146641C425400979DF801202146641C62
:101DD00042549DF800202046611CCCB23B490A5475
:101DE000CDF800809DF801202046611CCCB2374917
:101DF0000A549DF800202046611CCCB233490A5495
:101E0000CDF800909DF801202046611CCCB22F49EE
:101E10000A549DF800202046611CCCB22B490A547C
:101E2000CDF800B09DF801202046611CCCB22749B6
:101E30000A549DF800202046611CCCB223490A5464
:101E40000B9800909DF801202046611CCCB21F49E0
:101E50000A549DF800202046611CCCB21B490A544C
:101E60000C9800909DF801202046611CCCB21749C7
:101E70000A549DF800202046611CCCB213490A5434
:101E80000D9800909DF801202046611CCCB20F49AE
:101E90000A549DF800202046611CCCB20B490A541C
:101EA0000E9800909DF801202046611CCCB2074995
:101EB0000A549DF800202046611CCCB203490A5404
:101EC000201FC8704FF0000A00250EE0A804002073
:101ED0000000C84280842E4100002041F748405D48
:101EE000504400F0FF0A681CC5B2A542F6DB20464C
:101EF000611CCCB2F14901F800A02146EF48FFF780
:101F0000E5FDBDE8F88F2DE9FE4F82460E461746E7
:101F10009846DDF830B00024A146AA222146641C70
:101F2000E64842542146641C425401222146641C66
:101F3000425400222146641C4254E149504607F0B5
:101F400067FD009007F088FF00B202909DF809201D
:101F50002146641CD94842549DF808202146641C3F
:101F60004254D749304607F053FD009007F074FF04
:101F700000B202909DF809202146641CCF484254CB
:101F80009DF808202046611CCCB2CC490A54CC49AB
:101F9000384607F03DFD009007F05EFF00B202906A
:101FA0009DF809202046611CCCB2C4490A549DF812
:101FB00008202046611CCCB2C0490A54C0494046A2
:101FC00007F026FD009007F047FF01909DF80720DD
:101FD0002046611CCCB2B9490A549DF8062021461E
:101FE000601CC4B2B54842549DF805202046611CCF
:101FF000CCB2B2490A549DF804202046611CCCB2F0
:10200000AE490A54AE49584607F002FD009007F069
:1020100023FF00B202909DF809202046611CCCB23B
:10202000A6490A549DF808202046611CCCB2A34959
:102030000A542146621CD4B2A04A0D98505421463D
:10204000621CD4B29D4A0E985054201F1146C8708D
:10205000002506E09948405D484400F0FF09681CEF
:10206000C5B2A542F6DB2046611CCCB2934901F80B
:10207000009021469148FFF729FDBDE8FE8F2DE92C
:10208000F04105460E460027AA208C49087048708A
:10209000EF2088700220C870084605714671002440
:1020A00005E08648005D3844C7B2601CC4B2062C07
:1020B000F7DB824887710721FFF708FDBDE8F08153
:1020C0000FB42DE9F843064600240027AA22214632
:1020D000641C7A4842542146641C425406F10F00A5
:1020E000C2B22146641C7548425400222146641C39
:1020F00042547449099807F08BFC804607F0ACFE07
:1021000000B200909DF801202146641C6B484254A7
:102110009DF800202146641C42546A490A9807F041
:1021200077FC804607F098FE00B200909DF80120F1
:102130002146641C614842549DF800202146601CE1
:10214000C4B25E4842545F490B9807F061FC804678
:1021500007F082FE00B200909DF801202146601C2D
:10216000C4B2564842549DF800202046611CCCB2AF
:1021700052490A545349119807F04AFC804607F027
:102180006BFE00B200909DF801202046611CCCB28D
:102190004A490A549DF800202046611CCCB24749A8
:1021A0000A544849129807F033FC804607F054FE61
:1021B00000B200909DF801202046611CCCB23F493E
:1021C0000A549DF800202046611CCCB23B490A54B9
:1021D0003C49139807F01CFC804607F03DFE00B216
:1021E00000909DF801202146601CC4B2334842543F
:1021F0009DF800202046611CCCB230490A54314978
:10220000199807F005FC804607F026FE00B2009002
:102210009DF801202046611CCCB228490A549DF843
:1022200000202046611CCCB224490A5425491A9842
:1022300007F0EEFB804607F00FFE00B200909DF81D
:1022400001202046611CCCB21C490A549DF8002094
:102250002046611CCCB219490A541A491B9807F050
:10226000D7FB804607F0F8FD00B200909DF80120F2
:102270002046611CCCB211490A549DF8002020462A
:10228000611CCCB20D490A54201FC870002505E01E
:102290000A48405D3844C7B2681CC5B2A542F7DBA6
:1022A0002046611CCCB205490F5421460348FFF774
:1022B0000DFCBDE8F8035DF814FB0000A804002045
:1022C0000000C84200007A442DE9F04105460E4660
:1022D0000027AA20FE4908704870EE20887002206E
:1022E000C870084605714671002405E0F848005D95
:1022F0003844C7B2601CC4B2062CF7DBF4488771BF
:102300000721FFF7E3FBBDE8F08130B5BFB004461D
:102310000CB9FF2C7ED0EF48007C48B9ED48407CDA
:1023200030B9EC48807C18B9EA48C07C002859D004
:10233000E848007CE0B1E848807838B10020E54901
:10234000087401210846FFF7BFFF49E0E348007821
:10235000E3490978E34A1268E34BCDE90021029092
:102360001A6C996BD86BE14B1B68FFF7CCFD37E01B
:10237000D848407C78B1D848C07838B10020D549D9
:10238000487401210220FFF79FFF29E0E12102208C
:10239000FFF79AFF24E0CF48807C78B1D44840789A
:1023A00038B10020CB49887401210320FFF78CFF4E
:1023B00016E0E1210320FFF787FF11E0C548C07C4C
:1023C00070B1CC48407838B10020C249C8740121AE
:1023D0000420FFF779FF03E0E1210420FFF774FFF9
:1023E0003FB030BDBB48007930B9BA48407918B920
:1023F000B8488079002855D0B6480079D0B100207F
:10240000B44908712022BC490DA807F073FA2022B4
:10241000BA4900E01AE105A807F06CFA1422B8499D
:10242000684607F067FAB6480C380EC80120FFF777
:1024300047FE36E0A7484079C0B10020A549487161
:102440002022B0490DA807F055FA2022AE4905A870
:1024500007F050FA1422AD49684607F04BFAAB4832
:102460000C380EC80220FFF72BFE1AE0994880793D
:10247000B8B10020974988712022A5490DA807F01E
:1024800039FA2022A24905A807F034FA1422A149FA
:10249000684607F02FFA9F480C380EC80320FFF754
:1024A0000FFE9DE78B48407B28B98A48807B10B996
:1024B0008848C07B18B38748407B40B100208549DD
:1024C0004873954801781020FFF7D9FD16E0814840
:1024D000807B40B100207F4988738F48417811206C
:1024E000FFF7CDFD0AE07B48C07B38B10020794979
:1024F000C873894881781220FFF7C1FD70E78748CB
:1025000000788749097890FBF1F201FB12018548B8
:102510000078401E814203D101206E49487031E0AD
:102520007E4800787E49097890FBF1F201FB1201A8
:102530007D480078401E814203D1012065498870A2
:1025400020E0764800787649097890FBF1F201FBAB
:10255000120176480078401E814203D101205D4976
:10256000C8700FE06D4800786D49097890FBF1F272
:1025700001FB12016E480078401E814202D1012009
:102580005449087365480078401C644908705148F4
:102590004078A0B100204F49487050480078504919
:1025A0000978504A1268504BCDE9002102901A6C0C
:1025B000996BD86B4D4B1B68FFF7A5FC46E045486F
:1025C000807810B30020434988704948B0F908006A
:1025D0004749B1F90610464AB2F904203E4BB3F917
:1025E0001230CDE90132CDE903103B48B0F91000BB
:1025F000394D0090B5F90E30B5F90A20B5F908103B
:10260000B5F90600FFF7BBFB20E03248C07890B177
:1026100000203049C87073224649684607F06AF9BD
:102620008322444910391EA807F064F91EA80FC878
:10263000FFF7ACFA0AE02748007B38B100202549B3
:1026400008733D4A91685068FFF749FA00BFC7E632
:1026500003B587B007988078102871D10798007962
:10266000000200B2079949790843009007F0C8FBBF
:102670003249019007F0CCF921490C3908600798DC
:102680008079000200B20799C9790843009007F0E9
:10269000B7FB2A49019007F0BBF919490C3948608A
:1026A0000798007A000200B20799497A084300901F
:1026B00007F0A6FB2149019007F0AAF910490C394F
:1026C00088600798807A000200B20799C97A38E0DA
:1026D000A8040020F0040020CC03002058010020B2
:1026E00059010020940200209C0100208C0200204F
:1026F0001C0400209403002004080020C4070020CC
:10270000F0070020A40700206407002090070020A5
:1027100024080020500800206801002073010020D8
:10272000740100207501002076010020770100204F
:10273000780100201A0600208C1100206F12833AC5
:10274000D4E00843009007F05BFBFE49019007F0DE
:102750005FF9FD4908600798007B000200B2079905
:10276000497B0843009007F04BFBF649019007F0C6
:102770004FF9F54948600798807B000200B207993D
:10278000C97B0843009007F03BFBEE49019007F03E
:102790003FF9ED4988600798007C000200B2079974
:1027A000497C0843009007F02BFBE649019007F0B5
:1027B0002FF9E64908600798807C000200B207996B
:1027C000C97C0843009007F01BFBDE49019007F02D
:1027D0001FF9DE4948600798007D000200B20799A2
:1027E000497D0843009007F00BFBD649019007F0A4
:1027F0000FF9D6498860D6480068D649009007F09E
:1028000007F9019007F041FB80B2ADF80800D0480D
:102810004068D049009007F0FBF8019007F035FBC5
:1028200080B2ADF80A00CA488068CA49009007F033
:10283000EFF8019007F029FB80B2ADF80C00C24818
:102840000068C449009007F0E3F8019007F01DFB11
:1028500080B2ADF80E00BC484068BE49009007F059
:10286000D7F8019007F011FB80B2ADF81000B64820
:102870008068B849009007F0CBF8019007F005FB9D
:1028800080B2ADF81200B1480068B249009007F07C
:10289000BFF8019007F0F9FA80B2ADF81400AB4828
:1028A0004068AC49009007F0B3F8019007F0EDFAEA
:1028B00080B2ADF81600A5488068A649009007F0E0
:1028C000A7F8019007F0E1FA80B2ADF818000121F5
:1028D000A14801F043F9092202A99F4801F05DF9DE
:1028E00001209E4948739E4908980870079880788F
:1028F00011287CD107980079000200B20799497924
:102900000843009007F07CFA8E49019007F080F8A8
:102910009449086007988079000200B20799C97944
:102920000843009007F06CFA8649019007F070F8B0
:102930008C4948600798007A000200B20799497AEA
:102940000843009007F05CFA7E49019007F060F8B8
:10295000844988600798807A000200B20799C97A92
:102960000843009007F04CFA7649019007F050F8C0
:102970007D4908600798007B000200B20799497BF7
:102980000843009007F03CFA6E49019007F040F8C8
:10299000754948600798807B000200B20799C97B9F
:1029A0000843009007F02CFA6649019007F030F8D0
:1029B0006D4988600798007C000200B20799497C45
:1029C0000843009007F01CFA5E49019007F020F8D8
:1029D000664908600798807C000200B20799C97CAC
:1029E0000843009007F00CFA5649019000E08BE094
:1029F00007F00EF85D4948600798007D000200B2BC
:102A00000799497D0843009007F0FAF94D49019074
:102A100006F0FEFF55498860524800684D49009015
:102A200006F0F6FF019007F030FA80B2ADF808002A
:102A30004C4840684749009006F0EAFF019007F0D3
:102A400024FA80B2ADF80A004648806841490090F7
:102A500006F0DEFF019007F018FA80B2ADF80C0026
:102A6000414800683B49009006F0D2FF019007F012
:102A70000CFA80B2ADF80E003B4840683549009032
:102A800006F0C6FF019007F000FA80B2ADF8100022
:102A9000354880682F49009006F0BAFF019007F092
:102AA000F4F980B2ADF8120030480068294900906E
:102AB00006F0AEFF019007F0E8F980B2ADF814001F
:102AC0002A4840682349009006F0A2FF019007F0D1
:102AD000DCF980B2ADF81600244880681D490090EA
:102AE00006F096FF019007F0D0F980B2ADF818001B
:102AF000092202A91848123001F04FF801201749A5
:102B000088731749089848700798807812287DD1F3
:102B100007980079000200B20799497908430090AC
:102B200007F06EF90749019006F072FF104908603E
:102B300007988079000200B20799C979084300908C
:102B400018E000006F12833AC40700200408002038
:102B5000E407002000007A4400A40108F0040020EB
:102B6000680100208407002064070020A4070020DB
:102B70004408002007F044F9C249019006F048FFDC
:102B8000C14948600798007A000200B20799497A63
:102B90000843009007F034F9BA49019006F038FF75
:102BA000B94988600798807A000200B20799C97A0B
:102BB0000843009007F024F9B249019006F028FF7D
:102BC000B24908600798007B000200B20799497B70
:102BD0000843009007F014F9AA49019006F018FF85
:102BE000AA4948600798807B000200B20799C97B18
:102BF0000843009007F004F9A249019006F008FF8D
:102C0000A2498860A0480068A14900E073E00090F4
:102C100006F0FEFE019007F038F980B2ADF808002A
:102C2000994840689A49009006F0F2FE019007F03A
:102C30002CF980B2ADF80A0093488068944900905E
:102C400006F0E6FE019007F020F980B2ADF80C0026
:102C50008E4800688E49009006F0DAFE019007F079
:102C600014F980B2ADF80E00884840688849009099
:102C700006F0CEFE019007F008F980B2ADF8100022
:102C8000824880688249009006F0C2FE019007F0F9
:102C9000FCF880B2ADF812007C4800687C490090D6
:102CA00006F0B6FE019007F0F0F880B2ADF814001F
:102CB000764840687649009006F0AAFE019007F039
:102CC000E4F880B2ADF81600704880687049009052
:102CD00006F09EFE019007F0D8F880B2ADF818001B
:102CE000092202A96B4800F058FF01206A49C87305
:102CF0006A490898887009B000BD817803291BD102
:102D00004179027941EA022109B2654A1180C1790B
:102D1000827941EA022109B2614A5180417A027AFC
:102D200041EA022109B25E4A9180C17A827A41EA7F
:102D3000022109B25A4AD1807047817802290BD109
:102D40000179012907D10421564A11700121524A03
:102D500011715171917100BF704701468878012847
:102D600039D15048007818B14E480078012821D157
:102D70000879012804D14C4A10700020907019E0A5
:102D80000879022805D10120474A50700020D070F0
:102D900010E00879032805D10120444A1070002072
:102DA000507007E00879042804D10120404A1070CF
:102DB000002050700879A02803D10020394A1070F3
:102DC00009E00879A12806D136480078012802D107
:102DD0000220344A1070087970472DE9F04104460A
:102DE0000D460026002704E0E05D3044C6B2781CA2
:102DF000C7B2681EB842F7DC2E4806710079611927
:102E000011F8011C884202D00020BDE8F0816078F2
:102E1000217840EA012027490880084600884AF6C0
:102E2000AF21884201D0FF20EFE7A07821498870C8
:102E300008468078012803D12046FFF78EFF1FE067
:102E40001C488078022803D12046FFF776FF17E060
:102E500018488078032803D12046FFF74EFF0FE083
:102E600014488078102807D012488078112803D0A1
:102E700010488078122803D131462046FFF7E8FB3E
:102E80000120C2E76F12833A440800202408002082
:102E900000007A4424A40108F00400206801002006
:102EA000C804002058010020CC0300201C0400208E
:102EB000940300206C01002010B50246012000E0C0
:102EC00050430B1EA1F10104E1B2F9D110BD2DE96F
:102ED000F34F81B007463C46002000908346814670
:102EE0000026804628E020782D2802D148F00208EC
:102EF000641C20782C2802D020782A2800D11CE0DD
:102F000020782E2803D148F00108641C09E02078BD
:102F1000392802DC2078302803DA4FF00009002637
:102F20000BE008F0010010B1701CC6B203E009F11B
:102F3000010000F0FF09641CD5E700BF08F00200A3
:102F400000B17F1C00250EE0A9F10100401BC1B2B9
:102F50000A20FFF7B1FF795D3039009A00FB0120AC
:102F60000090681CC5B24D45EEDB052E00DD052640
:102F70000298067000250EE0701E401BC1B20A20A8
:102F8000FFF79AFF09F101012944795C303900FB10
:102F900001BB681CC5B2B542EEDB31460A20FFF723
:102FA0008BFF009901FB00BA08F0020008B1CAF1DA
:102FB000000A5046BDE8FE8F0246134610E0107826
:102FC0002A2805D01078202802DB10787A2801DD25
:102FD000FF20704710782C2801D1481EC1B2521C26
:102FE0000029ECD1D01AC0B2F3E72DE9F84F04461E
:102FF0000F46FEA1384606F0A1FC064601213046E8
:10300000FFF7DAFF0546FF2D17D070196946FFF765
:103010005EFF804606F0F4FE44F8770F9DF800103E
:103020000A20FFF749FF814606F0F3FE804620683C
:10303000414606F01FFD44F8770907213046FFF7A7
:10304000BBFF0546FF2D22D070196946FFF73FFFF1
:10305000804606F0D5FEC4F87F009DF800000328E6
:1030600015DA9DF80000C0F10300C1B20A20FFF795
:1030700023FF824606F0CDFE8146DD4906F0FAFCCC
:103080008046D4F87F1006F0C3FCC4F87F00BDE88A
:10309000F88F2DE9F04F87B004468A46D5A15046F7
:1030A00006F04CFC814601214846FFF785FF0546A6
:1030B000FF2D24D009EB050006A9FFF708FF0746FE
:1030C0009DF818100A20FFF7F7FEB7FBF0F642F262
:1030D0001070B6FBF0F0C1B2412001556420B6FB80
:1030E000F0F06421B0FBF1F201FB12014220015526
:1030F0006420B6FBF0F100FB116143200155032170
:103100004846FFF759FF0546FF2D5ED009EB050045
:1031100006A9FFF7DCFE06469DF81800801CC1B228
:103120000A20FFF7C9FEB6FBF0F7384606F087FE27
:103130006064A1649DF81800801CC1B20A20FFF7EA
:10314000BBFEB6FBF0F100FB1167384606F061FEEE
:1031500083469DF81800C0F10500C1B20A20FFF7B0
:10316000ABFE009006F055FE8046594606F050FC36
:103170000746A14906F07EFC019006F0D2FECDE99B
:10318000040105210A20FFF797FE019006F057FE83
:1031900007468846616CA06C0A460346CDE90010DC
:1031A0003846414606F04BFDCDE90201DDE9042336
:1031B00006F09EFC6064A164676CA16C00228F4BDA
:1031C000384606F0AEFD6064A16404214846FFF76E
:1031D000F3FE0546FF2D03D019F8050084F84C00D6
:1031E00005214846FFF7E8FE0546FF2D60D009EBB4
:1031F000050006A9FFF76BFE06469DF81800801C27
:10320000C1B20A20FFF758FEB6FBF0F7384606F0C9
:1032100016FE44F84D0F61609DF81800801CC1B285
:103220000A20FFF749FEB6FBF0F100FB11673846B4
:1032300006F0EFFD83469DF81800C0F10500C1B20D
:103240000A20FFF739FE009006F0E3FD5946019091
:1032500006F0DEFB8046684906F00CFC074606F0E7
:1032600060FECDE9040105210A20FFF725FE01904B
:1032700006F0E5FD07468846216860680A46034671
:10328000CDE900103846414606F0D9FCCDE90201EF
:10329000DDE9042306F02CFC20606160276861688A
:1032A0000022564B384606F03CFD206061604D3CE4
:1032B00006214846FFF780FE0546FF2D03D019F88A
:1032C000050084F8550009214846FFF775FE0546BC
:1032D000FF2D1FD009EB050006A9FFF7F8FD0646F4
:1032E00042F21070B6FBF0F0C1B2402001556420EC
:1032F000B6FBF0F06421B0FBF1F201FB12013F20BC
:1033000001556420B6FBF0F100FB116000F5FA6096
:10331000A4F83D000A214846FFF74EFE0546FF2D62
:1033200009D009EB050006A9FFF7D1FD074606F015
:1033300067FDC4F87B0007B0BDE8F08F2DE9F843C6
:10334000054688462EA1404606F0F8FA06460221B8
:103350003046FFF731FE0446FF2C05D03019694690
:10336000FFF7B5FD85F86400002713E0F81CC1B233
:103370003046FFF721FE0446FF2C08D0301969467D
:10338000FFF7A5FDC1B205F15800C15500E003E00B
:10339000781CC7B20C2FE9DB00BF0F213046FFF7C6
:1033A0000BFE0446FF2C05D030196946FFF78FFD50
:1033B000A5F8650010213046FFF7FEFD0446FF2CFE
:1033C00005D030196946FFF782FDA5F86700112185
:1033D0003046FFF7F1FD0446FF2C05D03019694651
:1033E000FFF775FDA5F86900BDE8F883565447005E
:1033F00000007A44524D430000007042006AF840D9
:10340000475341002DE9F84305460F46FCA13846D5
:1034100006F094FA064606213046FFF7CDFD044635
:10342000FF2C05D030196946FFF751FD85F856008D
:1034300007213046FFF7C0FD0446FF2C05D03019A8
:103440006946FFF744FD85F8570009213046FFF72C
:10345000B3FD0446FF2C0CD030196946FFF737FD49
:10346000814606F0CDFC8046E64906F003FBC5F830
:103470006B00BDE8F8832DE9FC5F07468A464FF0F4
:103480000008CDF804A0E0A1019806F057FA06461E
:10349000F079303800F0FF0B03213046FFF78CFD48
:1034A0000546FF2D04D070196946FFF710FD3870EE
:1034B0004FF000096CE0D4A1019806F03FFA0646EF
:1034C00000245CE0042000EB8400C1B23046FFF72A
:1034D00073FD0546FF2D09D070196946FFF7F7FC0B
:1034E000C1B208EB8802781C815400E049E0052055
:1034F00000EB8400C1B23046FFF75EFD0546FF2DAC
:103500000AD070196946FFF7E2FCC1B208EB8802E5
:10351000781C1044417000E033E0062000EB84008A
:10352000C1B23046FFF748FD0546FF2D0AD070199D
:103530006946FFF7CCFC81B208EB8802781C104486
:10354000418000E01DE0072000EB8400C1B230465E
:10355000FFF732FD0546FF2D0AD070196946FFF7C7
:10356000B6FCC1B208EB8802781C1044017100E07F
:1035700007E008F1010000F0FF08601CC4B2042C51
:10358000A0DB00BF701C019009F1010000F0FF09F1
:10359000D94590DBBDE8FC9F2DE9FC5F04468946D8
:1035A00049462046FFF767FF49462046FFF72AFFB6
:1035B00049462046FFF7C2FE49462046FFF769FD0F
:1035C00049462046FFF711FD4FF48061484606F05A
:1035D000AAF994F8560000287ED08D4890F838005B
:1035E000002859D18B480078401C8A490870656CC6
:1035F000A36C2A46884903C906F07AFA864A03C2B0
:10360000D4F84D50D4F851302A46844903C906F005
:103610006FFA824A03C2D4F86B108148006806F042
:103620009FF97F4908607B480078142834D1794895
:10363000007806F004FC05462A460B46764903C985
:1036400006F06FFB724AC2E902017248007806F088
:10365000F6FB05462A460B46704903C906F061FB96
:103660006B4A03C26B48007806F0D3FB0546294637
:103670006B48006806F0FEF9654908610021664A5A
:1036800011605160654A1160516000206449086012
:1036900001205F4981F838005D4890F83800012822
:1036A0003FD1606CA16C5A4AC2E90801D4F84D00C0
:1036B000D4F85110C2E90601D4F86B0011468862B3
:1036C0000846D0E902532A46D0E90871384606F088
:1036D000B0FA8246002200E023E0524B06F0AFFA37
:1036E000CDE9000106F060FC494908630846D0E9CD
:1036F00000532A46D0E90671384606F09AFA824607
:103700000022484B06F09BFACDE9000106F04CFC84
:103710003F49C8620A461169906A06F073F93C494C
:103720004863BDE8FC9F2DE9FC413F4890F801014A
:10373000012864D100203C4981F80101491C3B4823
:10374000FFF72AFF394890F8560020B938A006F054
:103750007FFEBDE8FC81354890F86400022803D163
:1037600039A006F075FE07E0304890F864000328A1
:1037700002D13AA006F06CFE2C4890F864000128B3
:103780003CD02A484D3002684168104606F00CFCD7
:103790000746374906F06EF9044606F0C2FB0546B7
:1037A0002A460B4633A006F053FE2048426C816C3B
:1037B000104606F0F9FB07462D4906F05BF9044672
:1037C00006F0AFFB05462A460B462EA006F040FE4B
:1037D0001649D1F86B000B4906F04CF9064606F085
:1037E000A0FB04460B4611480078104991F8571089
:1037F0002246CDE9001027A006F02AFE63E05FE034
:1038000047474100000020412447504753560000DD
:1038100090060020800100208801002090010020F7
:10382000980100208019FB40080500200A060020AE
:103830004C6F636174696F6E20756E63657274613D
:10384000696E20210A0000004C6F636174696F6E1D
:10385000206D6F6465203A32440A00004C6F63614A
:1038600074696F6E206D6F6465203A33440A0000FE
:103870000050C3476C6F6E6769747564653A25665E
:103880000A0000006C617469747564653A25660A03
:1038900000000000616C7469747564653A252E320D
:1038A000666D202020706F73736C6E756D3A2564A1
:1038B00020202073766E756D3D25640A000000009F
:1038C0009EA006F0C5FD00BF43E770B50446002585
:1038D00015701D70002009E01578265C35441570C0
:1038E0001D78167835441D70451CA8B28842F3DB5C
:1038F00070BD70B50025002604E0681C85B2052067
:10390000FCF7D0FC924890F80101012801D1642D08
:10391000F3DBFA2D1BDA8E480578002407E08C488B
:10392000401C005DB52800D103E0601C84B2AC42AD
:10393000F5DB00BFAC4201D1022609E08448401CFF
:10394000E11C405C08B9032602E0002600E00126E5
:1039500000207F4981F80101304670BD70B57D4C73
:1039600046F2B520208040F6061060800D20A08031
:103970000020C4F806004FF6FF70C4F80A000020CB
:10398000C4F80E000420A07404F114035A1E11217F
:10399000A01CFFF79AFF00BF6F4800680028FBD10A
:1039A00015216C4802F0E0F8002505E0FFF7A1FFC3
:1039B00000B903E0681CC5B2062DF7DB00BF062D79
:1039C00001D1012070BD0020FCE770B505460E4610
:1039D000604C46F2B52020804FF483706080082050
:1039E000A080F020A071E571012020726672A072A3
:1039F000E0722073607304F10F035A1E0C21A01CA7
:103A0000FFF763FF00BF544800680028FBD1102176
:103A1000504802F0A9F8FFF76CFF70BD70B505467D
:103A20004C4C46F2B5202080062060801420A080F7
:103A30000120A0710020E07120814FF40D60C4F8D6
:103A40000A00C4F80E5007206082A0820020E082A5
:103A5000208304F11B035A1E1821A01CFFF735FF19
:103A600000BF3D488438806C0028FAD11C213948B9
:103A700002F07AF8C820FCF715FC284602F096F808
:103A8000FFF737FF70BD2DE9F04105460E4617469A
:103A9000304C46F2B520208040F206706080142041
:103AA000A080C4F80650C4F80A60A7730020E07331
:103AB000207460744FF44D7060820020A082C4F8BE
:103AC000160004F11B035A1E1821A01CFFF7FDFE6F
:103AD00000BF21488438806C0028FAD11C211D4881
:103AE00002F042F8FFF705FFBDE8F08170B505462A
:103AF0000E46184CC82D01DA012070BD46F2B520E3
:103B0000208040F6060060800620A080E58001202D
:103B10002081668104F10D035A1E0A21A01CFFF7C3
:103B2000D4FE00BF0C488438806C0028FAD10E21E6
:103B3000084802F019F8FFF7DCFEDEE76461746103
:103B4000206E6F74207265616479210A00000000A4
:103B5000080500208C080020840002402DE9F04177
:103B600006460F4603F0A3FE352004F03BF900247F
:103B70000DE006EB842003F0DFFE0546042D04D0A3
:103B800003F0A1FE2846BDE8F081601CC4B2BC422F
:103B9000EFDB03F098FE0420F5E72DE9F04106463F
:103BA0000F4615464FF0000803F081FE352004F063
:103BB00019F900240CE037F8141006EB440003F068
:103BC000BEFF042802D02046BDE8F081601C84B20C
:103BD000AC42F0DB03F077FE2846F5E701460888A3
:103BE000704730B503460C461546002207E003EB4C
:103BF0004200FFF7F3FF24F81200501C82B2AA42E1
:103C0000F5D3104630BD30B503460C4615460022AC
:103C100007E003EB4200FFF7E1FF24F81200501C1D
:103C200082B2AA42F5DB30BDFEB504460D4617460A
:103C300003226946F148FFF7D4FFBDF800004FF6B4
:103C4000FF71884218D0BDF80200884214D0BDF838
:103C50000400884210D0BDF8000000B2A082BDF878
:103C6000020000B2E082BDF8040000B2208301200F
:103C7000A0700020207003E00020A07001202070C0
:103C800003226946DE48FFF7ACFFBDF800004FF69F
:103C9000FF71884218D0BDF80200884214D0BDF8E8
:103CA0000400884210D0BDF8000000B26083BDF867
:103CB000020000B2A083BDF8040000B2E08301203E
:103CC000E0700020607003E00020E0700120607070
:103CD00006226946CB48FFF784FFBDF800004FF687
:103CE000FF71884233D0BDF8020088422FD0BDF862
:103CF000040088422BD0BDF8000000B2A886BDF8B1
:103D0000020000B2E886BDF8040000B22887BDF8C2
:103D1000060006F07EF80646BB4905F0ABFEA86239
:103D2000BDF8080006F075F80646B74905F0A2FE92
:103D3000E862BDF80A0006F06CF80646B24905F0E4
:103D400099FE2863012068700020287003E000209D
:103D5000687001202870FEBD30B585B00922694623
:103D6000AA48FFF73EFFC4B2092C63D1BDF800108A
:103D700008B206F045F80546A54905F049FEA549F3
:103D80000860BDF8021008B206F03AF80546A049EE
:103D900005F03EFE9F494860BDF8041008B206F0E9
:103DA0002FF805469A4905F033FE9A498860BDF818
:103DB000061008B206F024F80546954905F028FEDD
:103DC00095490860BDF8081008B206F019F80546D4
:103DD0008F4905F01DFE90494860BDF80A1008B2F1
:103DE00006F00EF805468A4905F012FE8A498860F9
:103DF000BDF80C1008B206F003F80546844905F03A
:103E000007FE86490860BDF80E1008B205F0F8FFFD
:103E100005467F4905F0FCFD80494860BDF810105B
:103E200008B205F0EDFF0546794905F0F1FD7B4943
:103E3000886002E0002005B030BD09226946734861
:103E40001230FFF7CEFEC4B2092C63D1BDF80010CA
:103E500008B205F0D5FF05466D4905F0D9FD70495A
:103E60000860BDF8021008B205F0CAFF05466849AF
:103E700005F0CEFD6A494860BDF8041008B205F0AF
:103E8000BFFF0546624905F0C3FD65498860BDF87E
:103E9000061008B205F0B4FF05465D4905F0B8FD0F
:103EA00060490860BDF8081008B205F0A9FF054692
:103EB000574905F0ADFD5B494860BDF80A1008B2EE
:103EC00005F09EFF0546524905F0A2FD5549886060
:103ED000BDF80C1008B205F093FF05464C4905F0FB
:103EE00097FD51490860BDF80E1008B205F088FF33
:103EF0000546474905F08CFD4B494860BDF8101058
:103F000008B205F07DFF0546414905F081FD4649AF
:103F1000886001E000208EE7092269463B48243092
:103F2000FFF75FFEC4B2092C63D1BDF8001008B2E0
:103F300005F066FF0546364905F06AFD3B49086015
:103F4000BDF8021008B205F05BFF0546304905F0E8
:103F50005FFD36494860BDF8041008B205F050FF17
:103F600005462B4905F054FD30498860BDF8061020
:103F700008B205F045FF0546254905F049FD2C49E5
:103F80000860BDF8081008B205F03AFF0546204960
:103F900005F03EFD26494860BDF80A1008B205F05C
:103FA0002FFF05461A4905F033FD21498860BDF809
:103FB0000C1008B205F024FF0546154905F028FD50
:103FC0001B490860BDF80E1008B205F019FF054640
:103FD0000F4905F01DFD16494860BDF8101008B2E4
:103FE00005F00EFF05460A4905F012FD10498860EC
:103FF00001E000201FE702201DE7000000940108F7
:1040000000980108009C010800007A4400A40108FF
:104010006F12833AE4070020C40700200408002040
:104020008407002064070020A40700204408002023
:104030002408002070B504460D464FF082412068E8
:1040400005F0D8FF04D30020216805F0C9FF02D194
:104050004FF082402060207905F0DBFE06462168A3
:1040600005F0C8FF01D800202071237904F10C026B
:1040700052F82310A06805F0C5FCA060217904F176
:104080000C0040F821502379024652F82310A06812
:1040900005F066FCA0602079401C20712168A068B2
:1040A00005F0E8FC70BD000010B50446FE4920464E
:1040B00005F0A0FF01D2FC4C05E0FC49204605F0CC
:1040C0008FFF00D2F94CFA49204605F093FF04D245
:1040D000F549204605F096FC10BDF649204605F04E
:1040E0007FFF04D2F049204605F03AFCF4E7204671
:1040F000F2E72DE9F04704464FF07C51204605F0E9
:1041000087FC814625462E46EB48A0EB66063546E1
:104110002946484605F07CFC8246294605F078FC95
:1041200080464FF07F5105F070FC0746294605F0A8
:104130006FFC05462846BDE8F08770B506460D467B
:1041400014462146304605F055FF01D2264605E0CB
:104150002946304605F044FF00D22E46304670BD59
:104160000FB400B597B0D548B0F90600089005F037
:1041700047FE0C90D148B0F90800089005F040FEC9
:104180000B90CE48B0F90A00089005F039FE0A906D
:104190002398CB49089005F03BFC0F902498C84920
:1041A000089005F035FC0E902598C549089005F05B
:1041B0002FFC0D90C3480078012806D0C148007834
:1041C00018B1C048007802280BD14FF08040BE499A
:1041D0000863BE4848634FF07F508862BB48C8629E
:1041E00019E0B8480078032815D1B748406B4FF064
:1041F0008041089005F0F4FE04D10020B249C86166
:1042000008624862B248B0490863B2484863B2489D
:1042100088620020C862AC48806906900A9905F05F
:10422000F7FB0890A848406904900B9905F0F0FB53
:104230000690A548006904900C9905F0E9FB0590EB
:10424000069905F08DFB0790089905F089FB1690FB
:104250004FF08C41169805F0D5FB9B4948640A99AC
:10426000084605F0D5FB07900B99084605F0D0FBF2
:1042700005900C99084605F0CBFB0490059905F0D4
:104280006FFB0690079905F06BFB0890FFF731FF75
:1042900016900C99169805F0BBFB0C900B9916988C
:1042A00005F0B6FB0B900A99169805F0B1FB0A9041
:1042B00085484069014606900A9805F0A9FB0890D8
:1042C00081488069014606900B9805F0A1FB079094
:1042D000089905F097FB15907B4880690146069088
:1042E0000C9805F095FB0890774800690146069008
:1042F0000A9805F08DFB0790089905F083FB149050
:104300007148406B01460790159805F081FB0890B5
:104310006D48C06901460790089805F021FB6A497D
:10432000C8610846406B01460790149805F070FB81
:1043300008906548006A01460790089805F010FB50
:10434000614908622798012840D10846006C01465F
:104350000790269805F056FB0890FFF7A5FE1690EB
:104360005948806A5C49089005F03AFE22D15548C8
:10437000007803281BD0169805F0D3FD21F00041EA
:104380004FF08042554BCDE9040105F058FCCDE9D2
:10439000060105F009FE4C4988620846806A504AC9
:1043A0004D490890FFF7C9FE4749886202E04A4834
:1043B000454988624448806A0790169905F028FBB1
:1043C0003F49089005F024FB099001E00020099086
:1043D0003D48006B0590159905F01AFB07903A4887
:1043E00000690490099905F013FB05900F9905F0F9
:1043F000B7FA0690079905F0B3FA08903248C069F9
:1044000001460790089805F0ABFA0F902E48006B14
:104410000590149905F0FCFA07902B484069049028
:10442000099905F0F5FA05900E9905F099FA0690AC
:10443000079905F095FA08902348006A014607900D
:10444000089805F08DFA0E901F4880690790099929
:1044500005F0DEFA08900D9905F082FA0D901A48E1
:1044600000681090184840681190174880681290B2
:104470001548C0681390139804900D9905F0C8FA78
:104480000690129802900E9905F0C2FA04901198C5
:1044900080F0004002900F9905F0BAFA0390049959
:1044A00005F0B0FA05901DE00000B4430000B4C36D
:1044B00000003443000034C3DF59375FCC030020D1
:1044C00039FA8E3C580100209C0100200AD7A33CF9
:1044D000CDCC4C3E0AD7233B0AD7233CE17AA43FFC
:1044E000CDCCCC3E069905F08DFAD549079005F064
:1044F0008FFA0890109801460790089805F030FA56
:10450000D0490860139804900E9905F081FA06903E
:10451000129802900D9905F07BFA04901098029081
:104520000F9905F075FA0390049905F019FA0590B2
:10453000069905F067FAC249079005F069FA0890F4
:10454000119801460790089805F00AFABD4948609D
:10455000139804900F9905F05BFA06901198029059
:104560000D9905F055FA0490109802900E9905F0F7
:104570004FFA0390049905F045FA0590069905F065
:10458000EFF9AF49079005F043FA089012980146F9
:104590000790089805F0E4F9AA49886012980490F9
:1045A0000F9905F035FA0690119802900E9905F0D2
:1045B0002FFA0490109802900D9905F029FA0390B3
:1045C000049905F0CDF90590069905F01BFA9C4970
:1045D000079005F01DFA0890139801460790089877
:1045E00005F0BEF99749C8600846C06805900846BE
:1045F000C0680490059905F00BFA0790914880680F
:104600000390904880680290039905F001FA0590A4
:104610008C48406801908B4840680090019905F0F3
:10462000F7F9039087480068019086480068009079
:10463000019905F0EDF90290039905F091F90490C4
:10464000059905F08DF90690079905F089F908900C
:10465000FFF74FFD16907B4800680890169905F00B
:10466000D7F978490860084640680890169905F01F
:10467000CFF974494860084680680890169905F09B
:10468000C7F9704988600846C0680890169905F017
:10469000BFF96C49C8600846806805900846006804
:1046A0000490059905F0B4F907906648C068059034
:1046B000644840680490059905F0AAF906900799A6
:1046C00005F0A0F94FF08041089005F0A1F95D498F
:1046D00008610846C06805900846806804900599FE
:1046E00005F096F9079057484068059055480068CE
:1046F0000490059905F08CF90690079905F030F9BA
:104700004FF08041089005F083F94E494861084612
:1047100080680490084680680390049905F078F951
:1047200006904848406804904648406803900499C1
:1047300005F06EF90590069905F012F94FF08041E9
:10474000079005F065F94FF07E51089005F05DF98E
:104750003C49886108468069079008464069069090
:10476000079907F071F93849089005F051F9354972
:10477000886308460069079006F004FF80F0004057
:104780003149089005F044F92E49C8630846C068CD
:1047900001900846C0680090019905F039F903902E
:1047A000284880680190274880680090019905F0AA
:1047B0002FF90290039905F0D3F84FF0804104904F
:1047C00005F026F94FF07E51059005F01EF907908F
:1047D0001C48C06802901B4800680190029905F0CF
:1047E00017F90490174880680290164840680190B5
:1047F000029905F00DF90390049905F0B1F84FF016
:104800008041059005F004F90690079907F01CF91E
:104810000D49089005F0FCF80A4908640846806BC9
:104820000890FFF741FC074988630846C06B089071
:10483000FFF73AFC0349C86317B05DF814FB0000AA
:104840000AD7A33A9C010020E12E65422DE9FF5FC3
:1048500004468A46BAF1000F04D05E48216AFFF789
:10486000E9FB2062D4E9080105F0CCF8A0625A49BE
:10487000206A05F0FFF8834605F053FB4FF04042F5
:10488000564BCDE9000107F023FB0022544BCDE944
:10489000020105F0D1F907460022524B05F0CFF98D
:1048A000054605F081FB81464F48C0F80090C4F8EA
:1048B0002C90616BE06A05F0A5F82063BDE8FF9FCE
:1048C0002DE9FE4F49480078032802D000204849CE
:1048D00008604849B1F90010A1F2DC5005F09EFAD9
:1048E00080460022444B05F0AAF906464FF080426C
:1048F000424B05F0A4F904460D463D48006805F01A
:1049000010FB824622462B4605F0F2F8CDE9000165
:1049100005F04AFB364908604FF07E5200213448CA
:104920000068FFF70AFC324908603548416C354899
:10493000FFF780FB324948643348016B3348FFF787
:1049400079FB314908632E49486C314905F060F81C
:1049500004462D4902AB2F4A086B214601F022FC88
:104960002D4801682B48006805F04CF804462B4997
:1049700005F04EF82A4908602A48029905F048F8DF
:10498000044627480168284805F042F805462146B4
:1049900004F0E6FF22490860084602F0F2F81D48DC
:1049A00000681D4908604FF07E50204B0090194868
:1049B00002680F4801681E4800F082FE1D48009002
:1049C0001B481A4BC169164802681B4800F078FE64
:1049D000BDE8FE8FE401002080E6C547955BC83F37
:1049E0000000F03F40A5E54098020020580100205B
:1049F00074020020C80400200000E03FE17A943FE8
:104A00009C01002010020020940300203C020020A2
:104A10002BCD9C3A8C0200209002002000004842DE
:104A200094020020CDCC4C3ECDCC4C3F0000C8427F
:104A30002408002000009643440800204FF07E50D8
:104A4000AC4908600020486088604FF07E50AA4959
:104A500008600020486088604FF07E50A7490860D9
:104A60000020486088604FF07E50A5490860002013
:104A70004860886070470246002A04DD501A00280A
:104A800005DA002003E05018002800DD0020704700
:104A90002DE9F84F9B49086C9B4904F0B9FF044687
:104AA00007F04EF9994908609649086C964904F058
:104AB000AFFF044607F0F8FE954908609548007876
:104AC00003281AD09448066841680022934B304668
:104AD00005F0B5F8044605F0ECF9914908608E49F7
:104AE0004D394E6C896C00228C4B304605F0A7F88E
:104AF000044605F0DEF98B49086087484D38466C5E
:104B0000816C0022854B304605F099F88046894635
:104B10008448006805F082F9824642464B4605F01B
:104B200088F8044605F0C5F97F4908607A480668A8
:104B300041680022794B304605F081F8804689466D
:104B40007748006805F06AF9044642464B4605F08E
:104B500070F8824605F0ADF9744908606E484D382A
:104B6000476C816C4FF00052714B384605F067F886
:104B7000054605F019FA814607F0E2F804466B484D
:104B8000006805F03DF98246214604F041FF5A498C
:104B9000C8606548006805F033F95649C8605E4949
:104BA0004D39D1F86F0005F057F905460521FFF79B
:104BB00062FF044605F024F95E49086056494D3904
:104BC000D1F8730005F048F905460521FFF753FFBA
:104BD000044605F015F9584908604F494D394E6CA7
:104BE000896C00224D4B304605F029F880464FF085
:104BF0000052524B05F023F8044605F0D5F98246E1
:104C00004748006805F0FCF883464FF07E504C4B57
:104C1000524659460090384800F052FD3E484D3803
:104C2000476C816C00223D4B384605F008F805467C
:104C300005F0BAF904463B48006805F0E1F8814602
:104C40004FF07E503E4B224649460090294800F0E6
:104C500037FD3C483A4B0090364802683A480168B4
:104C6000264800F02DFD3748354B00903248026849
:104C700036480168224800F023FDBDE8F88F70B582
:104C80001F49C8692249096804F0C2FE04461B494D
:104C9000C8691E49096804F0BBFE0546214604F0B8
:104CA0005FFE80F000402A4908601449C86918492D
:104CB000096804F0ADFE04461149C8691349096842
:104CC00004F0A6FE0546214604F09CFE214908603A
:104CD00070BD10B520480078401C1F490870084678
:104CE0000078642804D1FFF7D3FE00201A49087029
:104CF00010BD0000D0060020F006002010070020A4
:104D0000300700209C01002039FA8E3C9C020020D4
:104D1000A00200205801002057060020D012634155
:104D2000AC020020B0020020B8020020B402002033
:104D300047DF913FC0020020C40200208E75ED3F86
:104D4000000020410000A040C8020020CC0200204A
:104D5000A8020020A4020020D802002008B50121EA
:104D6000082002F0AFFA4FF44060ADF800001420C4
:104D70008DF8030003208DF802006946E14801F038
:104D8000E5FF4FF40061DF4802F08DF84FF48061D9
:104D9000DC4802F088F808BD08B54FF40060ADF8B3
:104DA000000014208DF8030003208DF802006946EE
:104DB000D44801F0CBFF08BD08B54FF40060ADF852
:104DC000000048208DF8030003208DF8020069469A
:104DD000CC4801F0BBFF08BD002102E000BF4A1C27
:104DE000D1B28142FADB704710B5FFF7D5FF4FF41F
:104DF0000061C44802F057F84FF48061C14802F0E6
:104E000052F80520FFF7E8FF4FF40061BD4802F0BB
:104E10004CF80A20FFF7E0FF4FF48061B94802F038
:104E200044F810BD10B5FFF7B7FF4FF48061B548E7
:104E300002F03BF84FF40061B24802F036F80A2065
:104E4000FFF7CAFF4FF48061AE4802F02CF80A2049
:104E5000FFF7C2FF4FF40061AA4802F024F810BD2A
:104E600010B50024FFF7A8FF4FF40061A54802F039
:104E70001AF80AE0601CC4B2C82C03DDFFF7D2FFA9
:104E8000002010BD0220FFF7A7FF4FF400619D48EE
:104E900001F0EFFF0028EDD14FF48061994802F056
:104EA00002F80620FFF798FF4FF48061954801F063
:104EB000FCFF0120E5E710B5FFF76EFF4FF400613E
:104EC000904801F0F2FF0520FFF786FF4FF4806164
:104ED0008C4801F0E8FF0520FFF77EFF4FF480616A
:104EE000884801F0E2FF10BD10B5FFF755FF4FF401
:104EF0000061844801F0D7FF0520FFF76DFF4FF4F4
:104F00008061804801F0CFFF0520FFF765FF4FF477
:104F100080617C4801F0C9FF10BD70B50446FFF701
:104F20003BFF002521E004F0800028B14FF4006130
:104F3000744801F0B8FF04E04FF40061714801F0DB
:104F4000B4FF6006040E0520FFF746FF4FF48061B2
:104F50006C4801F0A8FF0520FFF73EFF4FF4806189
:104F6000684801F0A2FF681CC5B2082DDBDB70BDEC
:104F700070B505460024FFF71FFF4FF480616148BC
:104F800001F093FF00261BE00220FFF725FF4FF4FE
:104F900080615C4801F087FF6006040E0120FFF786
:104FA0001BFF4FF40061574801F063FF08B1601C1C
:104FB000C4B24FF48061534801F077FF701CC6B251
:104FC000082EE1DB15B1FFF776FF01E0FFF78CFF5C
:104FD000204670BD70B505460C46FFF705FF284614
:104FE000FFF79BFFFFF73CFF2046FFF796FFFFF719
:104FF00037FFFFF717FF70BD70B506460C46154624
:10500000FFF7F2FE3046FFF788FFFFF729FF204643
:10501000FFF783FFFFF724FF2846FFF77EFFFFF728
:105020001FFFFFF7FFFE70BD70B504460D46FFF78A
:10503000DBFE2046FFF771FFFFF712FF2846FFF760
:105040006CFFFFF70DFFFFF7CFFE611CC8B2FFF743
:1050500064FFFFF705FF0020FFF78AFF0646FFF712
:10506000E1FE304670BD2DE9F04180460D46164602
:105070001F46FFF7B9FE4046FFF74FFFFFF7F0FE70
:105080002846FFF74AFFFFF7EBFE002406E0305DFD
:10509000FFF743FFFFF7E4FE601CC4B2BC42F6DB3F
:1050A000FFF7C0FEBDE8F0812DE9F04107460E464E
:1050B00015469846FFF798FE3846FFF72EFFFFF794
:1050C000CFFE3046FFF729FFFFF7CAFEFFF78CFE41
:1050D000791CC8B2FFF721FFFFF7C2FE002405E0EC
:1050E0000120FFF745FF2855601CC4B2A8F101005C
:1050F000A042F5DC0020FFF73BFF2855FFF792FEAA
:10510000BDE8F081000C01402DE9F04704460D4652
:10511000052D5AD14FF47A762088001F20806088B0
:10512000001F6080A088001FA080E088001FE08032
:10513000304604F06EFE8046208804F06AFE814608
:10514000944A4146FEF7F9FF074604F09EFE208090
:10515000304604F05EFE8046608804F05AFE8146C8
:105160008C4A4146FEF7E9FF074604F08EFE608058
:10517000304604F04EFE8046A08804F04AFE814688
:10518000844A4146FEF7D9FF074604F07EFEA08020
:10519000304604F03EFE8046E08804F03AFE814648
:1051A0007C4A4146FEF7C9FF074604F06EFEE080E8
:1051B0002088794908806088091D0880A088091D19
:1051C0000880E088091D088067E0032D49D140F27E
:1051D0002B46304604F01DFE8046208804F019FE60
:1051E00081466C4A4146FEF7A8FF074604F04DFE93
:1051F00069490880304604F00CFE8046608804F05F
:1052000008FE8146634A4146FEF797FF074604F0D1
:105210003CFE6149091D0880304604F0FAFD8046D5
:10522000A08804F0F6FD81465A4A4146FEF785FF04
:10523000074604F02AFE584908310880304604F039
:10524000E8FD8046E08804F0E4FD8146514A41468D
:10525000FEF773FF074604F018FE4F490C31088033
:105260001BE0022D0AD140F22B404B490880091D5A
:105270000880091D0880091D08800EE01DB1012D60
:1052800001D0042D09D14FF47A7043490880091DDB
:105290000880091D0880091D0880BDE8F08700B559
:1052A00089B00121042002F00DF80121082002F04C
:1052B00009F80121022002F012F80121084602F04B
:1052C00001F818208DF80700C020ADF80400032075
:1052D0008DF8060001A9314801F038FD0320ADF832
:1052E000040001A92E4801F031FD40F6C310ADF8CD
:1052F0001C000020ADF81A00ADF81E004720ADF8E4
:10530000180006A92448343802F064FE012122481E
:10531000343803F0BBF96020ADF808000120ADF887
:105320000A000020ADF8100002A91B48343802F032
:105330008EFE02A91848343802F0CBFE02A91648A6
:10534000343802F013FF02A91348343802F059FF31
:1053500008211148343803F0C9FA08210E483438BE
:1053600003F0CDFA08210C48343803F0D5FA0821AF
:105370000948343803F0D9FA4FF47A7009490880A3
:1053800048808880C88000210648FFF7BDFE09B02C
:1053900000BD00000000E14434040040000801406A
:1053A000000C0140DA0200201FB50121084601F07F
:1053B00096FF0121880703F043FC40F6C410ADF8C6
:1053C00004000020ADF80200ADF806004720ADF85B
:1053D000000069464FF0804002F0FCFD01221146BA
:1053E000900703F06EF90121880703F04FF91C20A4
:1053F0008DF80C0001208DF80D008DF80E008DF851
:105400000F0003A802F0CBF91FBD1FB50121042036
:1054100001F065FF01217A4803F012FC42F210709E
:10542000ADF804000020ADF80200ADF806004720FA
:10543000ADF800006946724802F0CCFD0122114629
:105440006F4803F03EF901216D4803F01FF91E205B
:105450008DF80C0001208DF80D0002208DF80E0053
:1054600001208DF80F0003A802F099F91FBD10B5B7
:105470000121880703F0D3FB00284CD06148008845
:10548000401C60490880FBF786FB00F062F95D492B
:105490000888C11700EB91718910A0EB810109B94F
:1054A000FBF73BFE57490888C11700EB5171C91043
:1054B000A0EBC10109B9FBF7BEFF52490888C1172B
:1054C00000EB91718910A0EB8101012901D1FBF75B
:1054D00066F94C49088800EBD0714910A0EB4101F6
:1054E00009B9FCF707F847490888C11700EB517163
:1054F000C910A0EBC101012909D1434880780128D6
:1055000005D142484078012801D1FFF7D9F901219E
:10551000880703F095FB10BD70B50121384803F0F2
:105520007EFB002869D000F0FFFD39488078012813
:1055300006D100203649887036493748FEF72CF8E6
:1055400036480078401C35490870084600780A281B
:1055500001D1002008703248407801282AD100206B
:105560002F4948702F4908802D4881782430FDF755
:1055700034FC05462846FCF7C8FE2948B0F846002A
:105580000A2190FBF1F201FB1200042803D18102F1
:10559000254801F08AFC2248B0F846000A2190FB19
:1055A000F1F201FB1200082803D141021E4801F06C
:1055B0007AFC70BD1B480088401C1A4908800846C8
:1055C0000088B0F57A7F14DB002008804FF400617A
:1055D000154801F06AFCFCF734FA0446FCF7F3F9CD
:1055E00021462720FCF75FF94FF400610E4801F0D7
:1055F0005AFC0121024803F023FB00BFD9E7000059
:1056000000080040E2020020CC03002094030020A8
:10561000800800208C0D00200A060020E6020020F1
:105620005C040020E4020020000801402DE9F84F4E
:1056300004460E4617461D46DDF82880394630469A
:1056400004F0E0F9E060E068FEF72EFDE060B149AB
:10565000E06804F0DDF98146616904F081F9606178
:1056600085F000492A464946E069FEF766FD60611B
:10567000D4E9030104F0C6F9A061A169A06804F0AF
:10568000C7F900906169606804F0C2F98246E16878
:10569000206804F0BDF98346514604F061F9814663
:1056A000009904F05DF9E06188F0004942464946FE
:1056B000E069FEF742FDE061E0682061BDE8F88F37
:1056C0002DE9F84F04460E4617461D46DDF82880A2
:1056D0003946304604F096F9E0608E49E06804F0FF
:1056E00097F98146616904F03BF9606185F00049F2
:1056F0002A464946E069FEF720FD6061D4E90301CE
:1057000004F080F9A061A169A06804F081F900901B
:105710006169606804F07CF98246E168206804F001
:1057200077F98346514604F01BF98146009904F04D
:1057300017F9E06188F0004942464946E069FEF702
:10574000FCFCE061E0682061BDE8F88F0021416168
:105750007047F8B570480078032804D06F48006C93
:105760006F490860F8BD6F49B1F9040004F048FBC7
:1057700007466D4904F046F9044604F0D2FB21F0D7
:10578000004105460022694B04F0DEFB05D2684863
:10579000FFF7DCFF6748FFF7D9FF6249B1F9060060
:1057A00004F02EFB0746604904F02CF9044604F08F
:1057B000B8FB21F00041054600225C4B04F0C4FB1D
:1057C00005D25D48FFF7C2FF5C48FFF7BFFF5C48AA
:1057D000009052485B4BC26B5B4801685448FFF72E
:1057E0006FFF574800904D48564B826B57480168F1
:1057F0005248FFF765FF564800905648026B4C48E8
:10580000554BC1694B48FFF75BFF51480090514829
:10581000C26A4A48504BC1694748FFF751FF4149A6
:10582000B1F9020004F0ECFA05463F4904F0EAF849
:1058300004464A4904F0ECF83A49C861B1F902005B
:1058400004F0DEFA0746384904F0DCF8044604F0B8
:1058500068FB21F0004105460022414B04F074FB37
:105860000AD240480078E8B92C48006C2C490860FE
:1058700001203C49087015E000203A490870294988
:10588000C869244904F0C4F8044625480168204644
:1058900004F066F82249086008460068FEF704FC38
:1058A0001F490860304800901C48264B026C1C4879
:1058B00001682E48FFF7BAFE224800902548426B47
:1058C0002A482B4BC1692B48FFF7B0FE00BF49E7C0
:1058D0000021C16001614161C1618161704700B512
:1058E0001348FFF7F5FF1548FFF7F2FF1F48FFF7D2
:1058F000EFFF2148FFF7ECFF0E48FFF7E9FF0E48E6
:10590000FFF7E6FF1B48FFF7E3FF1C48FFF7E0FF48
:1059100000BD00000AD7233B580100209C01002055
:10592000EC020020C80400200080BB44000034408A
:1059300084070020E4070020C4070020640700203B
:105940000000B4420000C842A4020020A8020020C7
:1059500000003443CC030020000048428FC2753D54
:1059600000002440EA0200200000F041A4070020CB
:1059700000002041040800202408002044080020E2
:1059800000B587B00121084601F09CFC0121880385
:1059900001F0A5FC0121082001F094FC4FF46040C7
:1059A000ADF8180018208DF81B0003208DF81A00A0
:1059B00006A9304801F0CAF90020ADF804004FF400
:1059C0008270ADF806000020ADF80800ADF80A00BE
:1059D000ADF80C004FF40070ADF80E001020ADF8DB
:1059E00010000020ADF812000720ADF8140001A946
:1059F000214803F04FF901211F4803F0F0F907B0E7
:105A000000BD70B5054605E0601CC4B2C82C01DBC2
:105A1000002070BD0221184803F065FA0028F3D079
:105A20002946154803F00CFA002405E0601CC4B2B6
:105A3000C82C01DB0020ECE701210F4803F053FAEA
:105A40000028F3D00C4803F0FDF9C6B23046E0E779
:105A500010B50446084800884FF6C771084006494B
:105A6000088008460088204308800121024803F08E
:105A7000B6F910BD000C0140003800401FB50121EF
:105A8000082001F01FFC0121084601F01BFC042046
:105A90008DF807008002ADF8040003208DF80600A1
:105AA00001A92E4801F052F90C21012001F064FAFD
:105AB0004FF48050029000208DF80C000C208DF8DF
:105AC0000D0001208DF80E0002A803F051FA2820E5
:105AD0008DF8000000208DF8010002208DF80200F2
