:020000040800F2
:1000000038160020A16B00081D0200081F0200081E
:1000100023020008270200082B020008000000004D
:100020000000000000000000000000002F02000897
:100030003102000800000000330200083502000809
:10004000BB6B0008BB6B0008BB6B0008BB6B0008F8
:10005000BB6B0008BB6B0008BB6B0008BB6B0008E8
:10006000BB6B0008BB6B0008BB6B0008BB6B0008D8
:10007000BB6B0008BB6B00081F5B0008BB6B000874
:10008000BB6B0008F35B0008BB6B0008BB6B000890
:10009000BB6B0008BB6B0008BB6B0008BB6B0008A8
:1000A000BB6B0008BB6B0008BB6B0008BB6B000898
:1000B00023500008BB6B0008CD500008BB6B000844
:1000C000BB6B0008BB6B0008BB6B0008BB6B000878
:1000D000BB6B000823580008C3590008BB6B00081D
:1000E000A3560008BB6B0008BB6B0008DFF80CD000
:1000F0000AF00CF9004800470101000838160020FA
:1001000090B000BF00BF00BF002400F02AF94FF4F8
:10011000A06007F0DBFA06F081FB00F08DF805F037
:1001200091FD04F096FE4FF4FA7000F0E3F84FF4FE
:10013000FA7000F0DFF804F05CFB00F0B1F903F0B6
:10014000EEFF264A2649274802F036FF25488078E8
:1001500010B90120234908702248C07810B9012045
:10016000204948701D48407810B901201B4908708B
:1001700001201D49087448748874C87400F0C3FCD9
:1001800000F035FD012807D10103184806F029FECB
:1001900005F04EFA00F07AFD02F0A6FF144908704F
:1001A00003F014FE4FF4E13005F0DAFA4FF4E130D9
:1001B00005F0A7FB04F003FF04F0D0FE0CE022469C
:1001C0000CA168460AF0F0F84021684605F075FB7E
:1001D000C82000F08FF8641CF1E700008C030020B9
:1001E000B8060020F806002058040020000801404E
:1001F000E502002074696D65733A25642C68656CAE
:100200006C6F212057656C636F6D6520746F206D76
:10021000792053544D33320A00000000704700BF6C
:10022000FEE700BFFEE700BFFEE700BFFEE7704746
:10023000704770477047000008B509F076FA012151
:10024000042006F0DBFF0121084606F0D7FF01215C
:10025000264806F0E8FD10208DF803004FF410400A
:10026000ADF8000003208DF802006946204806F032
:1002700009FD4FF410411E4806F0B1FD08BD10B550
:100280004FF4FA7000F036F84FF4FA7000F032F8DC
:100290004FF4FA7000F02EF84FF4FA7000F02AF8DC
:1002A0004FF40041124806F09CFD4FF48051104875
:1002B00006F097FD4FF4FA7000F01CF84FF4FA7056
:1002C00000F018F84FF4FA7000F014F84FF4FA70D8
:1002D00000F010F84FF40041054806F080FD4FF49F
:1002E0000041034806F07BFD10BD00000002300015
:1002F00000080140014601224FF0E0231A6142F25A
:1003000028324A435A6100229A6100BF4FF0E0222E
:10031000106900F001021AB100F48032002AF5D011
:1003200000224FF0E0239A611A61704701460122D2
:100330004FF0E0231A6101EBC1025A6100229A6179
:1003400000BF4FF0E022106900F001021AB100F482
:100350008032002AF5D000224FF0E0239A611A6122
:10036000704710B506F0DCFD4FF4803006F0F8FD64
:1003700000BF06F034FE0128FBD1022007F014FA7A
:10038000102007F025FA4FF4E0114FF4803006F00A
:100390004FFE012006F058FE00BF392006F003FE94
:1003A0000028FAD0002006F060FE002006F06FFE64
:1003B0004FF4806006F062FE4FF4004006F082FECB
:1003C000022007F0F1F9002007F0F7F9102007F0FC
:1003D000FFF9022006F03BFE10BD000010B55821C9
:1003E000EE2006F057FB10BD70B501460023012634
:1003F000887B00F00F05C88900F47F40C881002287
:1004000004E031F8120000B10026521C082AF8DB83
:100410000EB1012070BD002218E002F0010020B1F1
:10042000501011F81000434004E0501031F8100053
:1004300083EA2023082406E003F4004008B183F493
:10044000C0535B00641E002CF6DC521C102AE4DB57
:10045000C8892843C881C3F30330854201D10020F5
:10046000D8E70120D6E738B5044600200090A02048
:1004700000EB4400C1B26B460222EE2006F04FFBB7
:100480009DF801009DF8001040EA012038BD10B52C
:100490001E21EE2006F0FEFA0A20FFF72BFF10BD0A
:1004A00038B50A20FFF726FF6B460122A021EE2077
:1004B00006F035FB0020E749487001200870FFF77F
:1004C000E6FF6420FFF716FF002408E060B2FFF7A4
:1004D000CAFFE0490C3121F81400601CC4B2082C9A
:1004E000F4DBDC480C30FFF77FFF08B1002038BD9B
:1004F000FFF774FF0120FAE708B56B4603220021DD
:10050000EE2006F00CFB9DF8000000049DF80110A1
:1005100040EA01209DF80210084308BD10B54821AB
:10052000EE2006F0B7FA10BD2DE9F04F85B0044675
:10053000E18A4FF48072A1FB02126068B0EB0109FE
:10054000218A4FF000004FEA004040EA11404FEA94
:100550000142A18A4FF000034FEAE97CA1FB09ABFD
:1005600003FB09B301FB0C334FEADA1141EA4361A3
:10057000511840EBE310CDE90210E1894FF0000083
:100580004FEAC03040EA51404FEAC132618A4FF031
:1005900000034FEAE97CA1FB09AB03FB09B301FBB4
:1005A0000C334FEA1A2141EA0361511840EB232032
:1005B000CDE90010208B4FF000024FEAE973A0FB59
:1005C000091C02FB09C200FB03224FEAD15040EA9A
:1005D00042214FEAE2504FF4FA63CD1840F1000691
:1005E0001946691A76F100005FDA19466F1A66F14A
:1005F000000805210022A7FB010308FB013107FBCE
:10060000021201463846A1FB003A02FB07A008FB94
:1006100001081F465FEA68024FEA3703DDE902017D
:10062000C01A61EB0201CDE90201B80840EA887006
:10063000DDE90012081A62EBA802CDE90002864942
:10064000691A76F1FF3030DA40F2DC516F1846F16A
:1006500000083846A0FB002308FB003308FB0738DE
:10066000174607210020A7FB012308FB013107FBE8
:100670000013DDE90210891A60EB0300CDE90210D6
:100680000B2200213B46A3FB02CA08FB02A007FB8A
:10069000010160465FEA610C4FEA3003DDE90020AA
:1006A000D11A60EB0C00CDE900100023A068DDE951
:1006B0000012A0FB01CA03FB01A100FB02104FEADC
:1006C0005C5141EAC0234115DDE90202181A61EBD1
:1006D0000201C00B40EA41400490049809F035FB48
:1006E0002062E56105B0BDE8F08F38B5044620789A
:1006F00001287AD159480088502190FBF1F201FB82
:10070000120020B94FF40041554806F06AFB5348E7
:100710000088502190FBF1F201FB1200282804D13F
:100720004FF400414E4806F05AFB4C480088C82858
:1007300005DA4A480088401C4849088038BD4948C5
:100740000078092844DD4748007809F0FEFA05469C
:1007500029464548006809F029F960620120607067
:1007600000202070606A20620020A06200212046E4
:1007700003F034FAE06A6063002020633B490860BC
:100780003B4908603B4908603949086033490880A3
:10079000344908703449086001203749C874206A18
:1007A00009F0F6FA4FF6FF7101EA2040ADF80000BB
:1007B000206A09F0EDFA80B2ADF8020001212F485D
:1007C00002F094FB022269462C4802F0AEFB0CE0DA
:1007D00024480078401C234908702348216A006897
:1007E00009F05AF820490860A8E700BFA6E710B54D
:1007F0002349088800EBD0714910A0EB410131B9C1
:10080000FFF77AFE13494860FFF788FE1CE01C4999
:10081000088800EBD0714910A0EB4101012913D1E8
:10082000FFF76AFE0B4988600846FFF77DFE01214D
:10083000084803F0D3F907480078012802D1054899
:10084000FFF753FFFFF7CAFD0D480088401C0C4915
:10085000088010BD8C03002024FAFFFF0000002058
:100860000008014002000020040000203C0100209C
:1008700044010020240100205804002000A00108A9
:100880000800002070B58C48007818B18A480078BC
:10089000012827D18948807801281BD18748C07852
:1008A000012817D186484078012813D1854840781F
:1008B00001280FD18448007802280BD1834890F892
:1008C0005600012806D17C48007830B901207A49C9
:1008D000087002E000207849087000217C4804F08C
:1008E000EDF970BD74480078022831D102217848B2
:1008F00004F0E4F904F0CDFD7649886B09F0ADFA17
:1009000021F0004104460022734B09F0B9FA1BD8CC
:100910007049C86B09F0A1FA21F000410446002299
:100920006D4B09F0ADFA0FD86C480088401C6B493C
:10093000088008460088B0F5487F08D90020088064
:1009400003205D49087002E0002064490880C8E780
:1009500059480078052806D104F09BFD05215C4824
:1009600004F0ACF9BDE75448007803287ED159491A
:10097000886B09F072FA21F0004104460022584BBE
:1009800009F096FA0BD35349C86B09F066FA21F0C7
:10099000004104460022524B09F08AFA0ED2514817
:1009A0000088401C4F49088008460088C82808D99C
:1009B0000020088005204049087002E000204949D5
:1009C000088049480088494908804948C069494920
:1009D00008604948C06948604848C0698860434821
:1009E000008809F0B2F904464548C169204608F07C
:1009F00053FF4049C8600A461168D06808F04CFFB0
:100A000006463C484168304608F046FF05463948EE
:100A10008168284608F092FF044609F0D2F92C4973
:100A20000880344A1168D06808F088FF06463148CB
:100A30004168304608F030FF05462E488168284658
:100A400008F02AFF044609F0BCF921494880294AE8
:100A50001168D06808F072FF0646264841683046A3
:100A600008F06CFF05462348816800E021E0284635
:100A700008F064FF044609F0A4F9154988801D4A6E
:100A80001168D06808F008FF06461A4841683046E9
:100A900008F054FF054617488168284608F0FCFE18
:100AA000044609F08EF90A49C8800321084804F079
:100AB00005F900BF15E770470C000020F80600207C
:100AC000B80600208C030020E502002072050020FB
:100AD000D60200204C000020000024401A00002014
:100AE00000003940100000203004002018000020D1
:100AF0003C080020DC0800205C0800207C08002066
:100B0000BC080020704708B50121042006F076FBE0
:100B10004FF40060ADF8000010208DF803000320B2
:100B20008DF802006946C84806F0ACF84FF4006141
:100B3000C54806F056F94FF48070ADF8000010205B
:100B40008DF8030003208DF802006946BE4806F0C8
:100B500099F84FF48071BC4806F041F904F0EAFCC2
:100B60004FF48071B84806F03AF908BD2DE9F0411C
:100B700007460C4615464FF48071B34806F031F92C
:100B8000384604F018FD8046002606E0002004F0F8
:100B900012FD2070641C701CC6B2AE42F6DB4FF42E
:100BA0008071A94806F01BF94046BDE8F0812DE9A7
:100BB000F04107460C4615464FF48071A24806F0F6
:100BC00010F9384604F0F7FC8046002605E020784E
:100BD00004F0F1FC641C701CC6B2AE42F7DB4FF4AB
:100BE0008071994806F0FBF84046BDE8F0811FB5DA
:100BF00096A103C9CDE90201052202A93020FFF721
:100C0000D6FF052269461020FFF7B0FF002408E058
:100C10001DF8040002A9095D884200D003E0601CB1
:100C2000C4B2052CF4DB00BF052C02D0002004B0B8
:100C300010BD0120FBE770B505460C464FF48071EE
:100C4000814806F0CEF8284604F0B5FC064620465A
:100C500004F0B1FC4FF480717B4806F0C0F83046D8
:100C600070BD70B504464FF48071774806F0B9F84E
:100C7000204604F0A0FC002004F09DFC05464FF443
:100C80008071714806F0ABF8284670BD10B54FF47E
:100C900000616D4806F0A5F80A20FFF72BFB012143
:100CA0002120FFF7C8FF01212220FFF7C4FF032105
:100CB0002320FFF7C0FF052266492A20FFF777FFB0
:100CC00001212520FFF7B7FF26210846FFF7B3FFD4
:100CD00001213C20FFF7AFFF06213D20FFF7ABFFCE
:100CE0000F212020FFF7A7FF4FF40061564806F0C0
:100CF00076F810BD10B54FF40061534806F071F856
:100D000001212220FFF797FF03212320FFF793FF04
:100D1000052251493020FFF74AFF05224D492A207C
:100D2000FFF745FF5A212420FFF785FF01212520E9
:100D3000FFF781FF26210846FFF77DFF01213C20B8
:100D4000FFF779FF06213D20FFF775FF0E212020D8
:100D5000FFF771FF10BD10B54FF400613A4806F07F
:100D600040F80021E120FFF766FF10BD10B54FF4F9
:100D70000061354806F035F81720FFF772FF04468A
:100D8000204610BD70B504460D464FF400612E4854
:100D900006F027F8FFF7EAFF064606F0200008B144
:100DA000FFF7D9FF2A462146A020FFF700FF4FF4A6
:100DB0000061254806F013F8002070BD10B54FF40F
:100DC0000061214806F00DF80021E220FFF733FF13
:100DD00010BD10B54FF400611B4806F002F8072063
:100DE000FFF73FFF04464FF40061174805F0F7FF97
:100DF000204610BD70B505460C461646052C01DD93
:100E0000FF2070BD04F1A801C8B232462946FFF7A1
:100E1000CEFE0120F5E710B56020FFF722FF10BDE0
:100E200010B50446FFF7F7FFA070A078202803DD77
:100E3000FFF7C4FF002010BDA27804F12401612057
:100E4000FFF794FE0120F6E700080140AABBCCDDC5
:100E5000FF00000015CA000810CA000870B505465A
:100E60000C46224600212846FFF7C4FF70BD2DE93D
:100E7000F84380460E460024AA222146641CF74807
:100E800042542146641C425405222146641C4254AB
:100E900000222146641C4254F149404608F054FDAA
:100EA000814608F08EFF80B200909DF80120214617
:100EB000641CEA4842549DF800202146641C4254B8
:100EC000E749304608F040FD814608F07AFF80B2DD
:100ED00000909DF801202146641CE04842549DF892
:100EE00000202046611CCCB2DC490A54201FC87087
:100EF0000027002505E0D948405D3844C7B2681C8A
:100F0000C5B2A542F7DB2046611CCCB2D3490F54D1
:100F10002146D248FFF7A2FFBDE8F8830FB42DE9C0
:100F2000FE4F0024AA222146641CCC48425421468C
:100F3000641C425404222146641C4254002221466F
:100F4000641C42549DF8860002909DF808202146BA
:100F5000641CC24842549DF8300002909DF808205D
:100F60002146641CBD4842549DF8870002909DF8BC
:100F700008202146641CB94842540022B94BDDE9DF
:100F80001D71384608F0F7FD824608F04DFF0090CD
:100F90009DF803202046611CCCB2B0490A549DF84C
:100FA00002202046611CCCB2AC490A549DF80120B5
:100FB0002046611CCCB2A9490A549DF80020214664
:100FC000601CC4B2A54842549DF87C902046611C28
:100FD000CCB2A24901F80090DDF87D70DDF88110F7
:100FE0000022A04B384608F0C6FD824608F01CFFE0
:100FF00000909DF803202046611CCCB297490A540A
:101000009DF802202046611CCCB294490A549DF8F8
:1010100001202046611CCCB290490A549DF8002062
:101020002046611CCCB28D490A549DF8859020461B
:10103000611CCCB2894901F80090DDF89B008A4917
:1010400008F082FC074608F0A3FE00B201909DF86C
:1010500005202046611CCCB280490A549DF804202A
:101060002046611CCCB27D490A54DDF8AF007C49B2
:1010700008F06AFC074608F08BFE00B201909DF86C
:1010800005202146601CC4B2744842549DF80420D7
:101090002046611CCCB271490A549DF87100083099
:1010A000C0B202909DF808202046611CCCB26B496A
:1010B0000A549DF8720002909DF808202046611C99
:1010C000CCB266490A549DF8730002909DF808203E
:1010D0002046611CCCB261490A54201FC87000260A
:1010E000002505E05D48405D3044C6B2681CC5B2CD
:1010F000A542F7DB2046611CCCB258490E5421466C
:101100005648FFF7ABFEBDE8FE0F5DF814FB2DE976
:10111000F84F06460F4690469946DDF828B0002461
:10112000AA222146641C4D4842542146641C425464
:1011300002222146641C425400222146641C42546F
:1011400000969DF801202146641C42549DF8002021
:101150002146641C425400979DF801202146641CDE
:1011600042549DF800202046611CCCB23B490A54F1
:10117000CDF800809DF801202046611CCCB2374993
:101180000A549DF800202046611CCCB233490A5411
:10119000CDF800909DF801202046611CCCB22F496B
:1011A0000A549DF800202046611CCCB22B490A54F9
:1011B000CDF800B09DF801202046611CCCB2274933
:1011C0000A549DF800202046611CCCB223490A54E1
:1011D0000B9800909DF801202046611CCCB21F495D
:1011E0000A549DF800202046611CCCB21B490A54C9
:1011F0000C9800909DF801202046611CCCB2174944
:101200000A549DF800202046611CCCB213490A54B0
:101210000D9800909DF801202046611CCCB20F492A
:101220000A549DF800202046611CCCB20B490A5498
:101230000E9800909DF801202046611CCCB2074911
:101240000A549DF800202046611CCCB203490A5480
:10125000201FC8704FF0000A00250EE01004002087
:101260000000C84280842E4100002041F748405DC4
:10127000504400F0FF0A681CC5B2A542F6DB2046C8
:10128000611CCCB2F14901F800A02146EF48FFF7FC
:10129000E5FDBDE8F88F2DE9FE4F82460E46174664
:1012A0009846DDF830B00024A146AA222146641CED
:1012B000E64842542146641C425401222146641CE3
:1012C000425400222146641C4254E149504608F031
:1012D0003BFB009008F05CFD00B202909DF80920F5
:1012E0002146641CD94842549DF808202146641CBC
:1012F0004254D749304608F027FB009008F048FDDB
:1013000000B202909DF809202146641CCF48425447
:101310009DF808202046611CCCB2CC490A54CC4927
:10132000384608F011FB009008F032FD00B2029040
:101330009DF809202046611CCCB2C4490A549DF88E
:1013400008202046611CCCB2C0490A54C04940461E
:1013500008F0FAFA009008F01BFD01909DF80720B4
:101360002046611CCCB2B9490A549DF8062021469A
:10137000601CC4B2B54842549DF805202046611C4B
:10138000CCB2B2490A549DF804202046611CCCB26C
:10139000AE490A54AE49584608F0D6FA009008F013
:1013A000F7FC00B202909DF809202046611CCCB2E7
:1013B000A6490A549DF808202046611CCCB2A349D6
:1013C0000A542146621CD4B2A04A0D9850542146BA
:1013D000621CD4B29D4A0E985054201F1146C8700A
:1013E000002506E09948405D484400F0FF09681C6C
:1013F000C5B2A542F6DB2046611CCCB2934901F888
:10140000009021469148FFF729FDBDE8FE8F2DE9A8
:10141000F04105460E460027AA208C490870487006
:10142000EF2088700220C8700846057146710024BC
:1014300005E08648005D3844C7B2601CC4B2062C83
:10144000F7DB824887710721FFF708FDBDE8F081CF
:101450000FB42DE9F843064600240027AA222146AE
:10146000641C7A4842542146641C425406F10F0021
:10147000C2B22146641C7548425400222146641CB5
:1014800042547449099808F05FFA804608F080FCDD
:1014900000B200909DF801202146641C6B48425424
:1014A0009DF800202146641C42546A490A9808F0BD
:1014B0004BFA804608F06CFC00B200909DF80120C9
:1014C0002146641C614842549DF800202146601C5E
:1014D000C4B25E4842545F490B9808F035FA804622
:1014E00008F056FC00B200909DF801202146601CD7
:1014F000C4B2564842549DF800202046611CCCB22C
:1015000052490A545349119808F01EFA804608F0CF
:101510003FFC00B200909DF801202046611CCCB237
:101520004A490A549DF800202046611CCCB2474924
:101530000A544849129808F007FA804608F028FC37
:1015400000B200909DF801202046611CCCB23F49BA
:101550000A549DF800202046611CCCB23B490A5435
:101560003C49139808F0F0F9804608F011FC00B2ED
:1015700000909DF801202146601CC4B233484254BB
:101580009DF800202046611CCCB230490A543149F4
:10159000199808F0D9F9804608F0FAFB00B20090DB
:1015A0009DF801202046611CCCB228490A549DF8C0
:1015B00000202046611CCCB224490A5425491A98BF
:1015C00008F0C2F9804608F0E3FB00B200909DF8F5
:1015D00001202046611CCCB21C490A549DF8002011
:1015E0002046611CCCB219490A541A491B9808F0CC
:1015F000ABF9804608F0CCFB00B200909DF80120CA
:101600002046611CCCB211490A549DF800202046A6
:10161000611CCCB20D490A54201FC870002505E09A
:101620000A48405D3844C7B2681CC5B2A542F7DB22
:101630002046611CCCB205490F5421460348FFF7F0
:101640000DFCBDE8F8035DF814FB00001004002059
:101650000000C84200007A442DE9F04105460E46DC
:101660000027AA20FE4908704870EE2088700220EA
:10167000C870084605714671002405E0F848005D11
:101680003844C7B2601CC4B2062CF7DBF44887713B
:101690000721FFF7E3FBBDE8F08130B5BFB004469A
:1016A0000CB9FF2C7ED0EF48007C48B9ED48407C57
:1016B00030B9EC48807C18B9EA48C07C002859D081
:1016C000E848007CE0B1E848807838B10020E5497E
:1016D000087401210846FFF7BFFF49E0E34800789E
:1016E000E3490978E34A1268E34BCDE9002102900F
:1016F0001A6C996BD86BE14B1B68FFF7CCFD37E098
:10170000D848407C78B1D848C07838B10020D54955
:10171000487401210220FFF79FFF29E0E121022008
:10172000FFF79AFF24E0CF48807C78B1D448407816
:1017300038B10020CB49887401210320FFF78CFFCA
:1017400016E0E1210320FFF787FF11E0C548C07CC8
:1017500070B1CC48407838B10020C249C87401212A
:101760000420FFF779FF03E0E1210420FFF774FF75
:101770003FB030BDBB48007930B9BA48407918B99C
:10178000B8488079002855D0B6480079D0B10020FB
:10179000B44908712022BC490DA808F047F820225E
:1017A000BA4900E01AE105A808F040F81422B84947
:1017B000684608F03BF8B6480C380EC80120FFF721
:1017C00047FE36E0A7484079C0B10020A5494871DE
:1017D0002022B0490DA808F029F82022AE4905A81A
:1017E00008F024F81422AD49684608F01FF8AB4809
:1017F0000C380EC80220FFF72BFE1AE099488079BA
:10180000B8B10020974988712022A5490DA808F099
:101810000DF82022A24905A808F008F81422A149D1
:10182000684608F003F89F480C380EC80320FFF7FD
:101830000FFE9DE78B48407B28B98A48807B10B912
:101840008848C07B18B38748407B40B10020854959
:101850004873954801781020FFF7D9FD16E08148BC
:10186000807B40B100207F4988738F4841781120E8
:10187000FFF7CDFD0AE07B48C07B38B100207949F5
:10188000C873894881781220FFF7C1FD70E7874847
:1018900000788749097890FBF1F201FB1201854835
:1018A0000078401E814203D101206E49487031E02A
:1018B0007E4800787E49097890FBF1F201FB120125
:1018C0007D480078401E814203D10120654988701F
:1018D00020E0764800787649097890FBF1F201FB28
:1018E000120176480078401E814203D101205D49F3
:1018F000C8700FE06D4800786D49097890FBF1F2EF
:1019000001FB12016E480078401E814202D1012085
:101910005449087365480078401C64490870514870
:101920004078A0B100204F49487050480078504995
:101930000978504A1268504BCDE9002102901A6C88
:10194000996BD86B4D4B1B68FFF7A5FC46E04548EB
:10195000807810B30020434988704948B0F90800E6
:101960004749B1F90610464AB2F904203E4BB3F993
:101970001230CDE90132CDE903103B48B0F9100037
:10198000394D0090B5F90E30B5F90A20B5F90810B7
:10199000B5F90600FFF7BBFB20E03248C07890B1F4
:1019A00000203049C87073224649684607F03EFF60
:1019B0008322444910391EA807F038FF1EA80FC81B
:1019C000FFF7ACFA0AE02748007B38B10020254930
:1019D00008733D4A91685068FFF749FA00BFC7E6AF
:1019E00003B587B007988078102871D107980079DF
:1019F000000200B2079949790843009008F09CF969
:101A00003249019007F0A0FF21490C39086007987E
:101A10008079000200B20799C9790843009008F064
:101A20008BF92A49019007F08FFF19490C3948605A
:101A30000798007A000200B20799497A084300909B
:101A400008F07AF92149019007F07EFF10490C391E
:101A500088600798807A000200B20799C97A38E056
:101A60001004002058040020F80600200C0000207C
:101A70000D000020440100204C0000203C0100200B
:101A8000B80600208C0300207C0800203C080020C1
:101A9000680800201C080020DC070020080800203F
:101AA0009C080020C80800201C00002027000020FF
:101AB00028000020290000202A0000202B00002000
:101AC0002C00002082050020041200206F12833AAF
:101AD000D4E00843009008F02FF9FE49019007F088
:101AE00033FFFD4908600798007B000200B20799A8
:101AF000497B0843009008F01FF9F649019007F070
:101B000023FFF54948600798807B000200B20799DF
:101B1000C97B0843009008F00FF9EE49019007F0E7
:101B200013FFED4988600798007C000200B2079916
:101B3000497C0843009008F0FFF8E649019007F05F
:101B400003FFE64908600798807C000200B207990D
:101B5000C97C0843009008F0EFF8DE49019007F0D7
:101B6000F3FEDE4948600798007D000200B2079945
:101B7000497D0843009008F0DFF8D649019007F04E
:101B8000E3FED6498860D6480068D649009007F041
:101B9000DBFE019008F015F980B2ADF80800D048DE
:101BA0004068D049009007F0CFFE019008F009F995
:101BB00080B2ADF80A00CA488068CA49009007F0B0
:101BC000C3FE019008F0FDF880B2ADF80C00C248E9
:101BD0000068C449009007F0B7FE019008F0F1F8E2
:101BE00080B2ADF80E00BC484068BE49009007F0D6
:101BF000ABFE019008F0E5F880B2ADF81000B648F1
:101C00008068B849009007F09FFE019008F0D9F86D
:101C100080B2ADF81200B1480068B249009007F0F8
:101C200093FE019008F0CDF880B2ADF81400AB48F7
:101C30004068AC49009007F087FE019008F0C1F8B9
:101C400080B2ADF81600A5488068A649009007F05C
:101C50007BFE019008F0B5F880B2ADF818000121C4
:101C6000A14801F043F9092202A99F4801F05DF95A
:101C700001209E4948739E4908980870079880780B
:101C800011287CD107980079000200B207994979A0
:101C90000843009008F050F88E49019007F054FE78
:101CA0009449086007988079000200B20799C979C1
:101CB0000843009008F040F88649019007F044FE80
:101CC0008C4948600798007A000200B20799497A67
:101CD0000843009008F030F87E49019007F034FE88
:101CE000844988600798807A000200B20799C97A0F
:101CF0000843009008F020F87649019007F024FE90
:101D00007D4908600798007B000200B20799497B73
:101D10000843009008F010F86E49019007F014FE97
:101D2000754948600798807B000200B20799C97B1B
:101D30000843009008F000F86649019007F004FE9F
:101D40006D4988600798007C000200B20799497CC1
:101D50000843009007F0F0FF5E49019007F0F4FDA2
:101D6000664908600798807C000200B20799C97C28
:101D70000843009007F0E0FF5649019000E08BE037
:101D800007F0E2FD5D4948600798007D000200B25F
:101D90000799497D0843009007F0CEFF4D49019017
:101DA00007F0D2FD55498860524800684D490090BF
:101DB00007F0CAFD019008F004F880B2ADF8080001
:101DC0004C4840684749009007F0BEFD019007F07D
:101DD000F8FF80B2ADF80A0046488068414900909B
:101DE00007F0B2FD019007F0ECFF80B2ADF80C00F7
:101DF000414800683B49009007F0A6FD019007F0BC
:101E0000E0FF80B2ADF80E003B48406835490090D5
:101E100007F09AFD019007F0D4FF80B2ADF81000F2
:101E2000354880682F49009007F08EFD019007F03B
:101E3000C8FF80B2ADF81200304800682949009010
:101E400007F082FD019007F0BCFF80B2ADF81400EE
:101E50002A4840682349009007F076FD019007F07A
:101E6000B0FF80B2ADF81600244880681D4900908C
:101E700007F06AFD019007F0A4FF80B2ADF81800EA
:101E8000092202A91848123001F04FF80120174921
:101E900088731749089848700798807812287DD170
:101EA00007980079000200B2079949790843009029
:101EB00007F042FF0749019007F046FD104908600E
:101EC00007988079000200B20799C9790843009009
:101ED00018E000006F12833A3C0800207C080020C4
:101EE0005C08002000007A4400A401085804002087
:101EF0001C000020FC070020DC0700201C0800203C
:101F0000BC08002007F018FFC249019007F01CFD33
:101F1000C14948600798007A000200B20799497ADF
:101F20000843009007F008FFBA49019007F00CFD44
:101F3000B94988600798807A000200B20799C97A87
:101F40000843009007F0F8FEB249019007F0FCFC4E
:101F5000B24908600798007B000200B20799497BEC
:101F60000843009007F0E8FEAA49019007F0ECFC56
:101F7000AA4948600798807B000200B20799C97B94
:101F80000843009007F0D8FEA249019007F0DCFC5E
:101F9000A2498860A0480068A14900E073E0009071
:101FA00007F0D2FC019007F00CFF80B2ADF80800FA
:101FB000994840689A49009007F0C6FC019007F0E4
:101FC00000FF80B2ADF80A00934880689449009001
:101FD00007F0BAFC019007F0F4FE80B2ADF80C00F7
:101FE0008E4800688E49009007F0AEFC019007F023
:101FF000E8FE80B2ADF80E0088484068884900903D
:1020000007F0A2FC019007F0DCFE80B2ADF81000F2
:10201000824880688249009007F096FC019007F0A2
:10202000D0FE80B2ADF812007C4800687C49009078
:1020300007F08AFC019007F0C4FE80B2ADF81400EE
:10204000764840687649009007F07EFC019007F0E2
:10205000B8FE80B2ADF816007048806870490090F4
:1020600007F072FC019007F0ACFE80B2ADF81800EA
:10207000092202A96B4800F058FF01206A49C87381
:102080006A490898887009B000BD817803291BD17E
:102090004179027941EA022109B2654A1180C17988
:1020A000827941EA022109B2614A5180417A027A79
:1020B00041EA022109B25E4A9180C17A827A41EAFC
:1020C000022109B25A4AD1807047817802290BD186
:1020D0000179012907D10421564A11700121524A80
:1020E00011715171917100BF7047014688780128C4
:1020F00039D15048007818B14E480078012821D1D4
:102100000879012804D14C4A10700020907019E021
:102110000879022805D10120474A50700020D0706C
:1021200010E00879032805D10120444A10700020EE
:10213000507007E00879042804D10120404A10704B
:10214000002050700879A02803D10020394A10706F
:1021500009E00879A12806D136480078012802D183
:102160000220344A1070087970472DE9F041044686
:102170000D460026002704E0E05D3044C6B2781C1E
:10218000C7B2681EB842F7DC2E48067100796119A3
:1021900011F8011C884202D00020BDE8F08160786F
:1021A000217840EA012027490880084600884AF63D
:1021B000AF21884201D0FF20EFE7A0782149887045
:1021C00008468078012803D12046FFF78EFF1FE0E4
:1021D0001C488078022803D12046FFF776FF17E0DD
:1021E00018488078032803D12046FFF74EFF0FE000
:1021F00014488078102807D012488078112803D01E
:1022000010488078122803D131462046FFF7E8FBBA
:102210000120C2E76F12833ABC0800209C0800200E
:1022200000007A4424A40108580400201C00002067
:10223000300400200C000020F8060020B806002022
:102240008C0300202000002010B50246012000E091
:1022500050430B1EA1F10104E1B2F9D110BD2DE9EB
:10226000F34F81B007463C460020009083468146EC
:102270000026804628E020782D2802D148F0020868
:10228000641C20782C2802D020782A2800D11CE059
:1022900020782E2803D148F00108641C09E020783A
:1022A000392802DC2078302803DA4FF000090026B4
:1022B0000BE008F0010010B1701CC6B203E009F198
:1022C000010000F0FF09641CD5E700BF08F0020020
:1022D00000B17F1C00250EE0A9F10100401BC1B236
:1022E0000A20FFF7B1FF795D3039009A00FB012029
:1022F0000090681CC5B24D45EEDB052E00DD0526BD
:102300000298067000250EE0701E401BC1B20A2024
:10231000FFF79AFF09F101012944795C303900FB8C
:1023200001BB681CC5B2B542EEDB31460A20FFF79F
:102330008BFF009901FB00BA08F0020008B1CAF156
:10234000000A5046BDE8FE8F0246134610E01078A2
:102350002A2805D01078202802DB10787A2801DDA1
:10236000FF20704710782C2801D1481EC1B2521CA2
:102370000029ECD1D01AC0B2F3E72DE9F84F04469A
:102380000F46FEA1384607F075FA06460121304691
:10239000FFF7DAFF0546FF2D17D070196946FFF7E2
:1023A0005EFF804607F0C8FC44F8770F9DF80010E8
:1023B0000A20FFF749FF814607F0C7FC80462068E6
:1023C000414607F0F3FA44F8770907213046FFF752
:1023D000BBFF0546FF2D22D070196946FFF73FFF6E
:1023E000804607F0A9FCC4F87F009DF80000032890
:1023F00015DA9DF80000C0F10300C1B20A20FFF712
:1024000023FF824607F0A1FC8146DD4907F0CEFAA2
:102410008046D4F87F1007F097FAC4F87F00BDE833
:10242000F88F2DE9F04F87B004468A46D5A1504673
:1024300007F020FA814601214846FFF785FF05464F
:10244000FF2D24D009EB050006A9FFF708FF07467A
:102450009DF818100A20FFF7F7FEB7FBF0F642F2DE
:102460001070B6FBF0F0C1B2412001556420B6FBFC
:10247000F0F06421B0FBF1F201FB120142200155A2
:102480006420B6FBF0F100FB1161432001550321EC
:102490004846FFF759FF0546FF2D5ED009EB0500C2
:1024A00006A9FFF7DCFE06469DF81800801CC1B2A5
:1024B0000A20FFF7C9FEB6FBF0F7384607F05BFCD1
:1024C0006064A1649DF81800801CC1B20A20FFF767
:1024D000BBFEB6FBF0F100FB1167384607F035FC98
:1024E00083469DF81800C0F10500C1B20A20FFF72D
:1024F000ABFE009007F029FC8046594607F024FA0D
:102500000746A14907F052FA019007F0A6FCCDE971
:10251000040105210A20FFF797FE019007F02BFC2C
:1025200007468846616CA06C0A460346CDE9001058
:102530003846414607F01FFBCDE90201DDE90423DF
:1025400007F072FA6064A164676CA16C00228F4B83
:10255000384607F082FB6064A16404214846FFF717
:10256000F3FE0546FF2D03D019F8050084F84C0052
:1025700005214846FFF7E8FE0546FF2D60D009EB30
:10258000050006A9FFF76BFE06469DF81800801CA3
:10259000C1B20A20FFF758FEB6FBF0F7384607F045
:1025A000EAFB44F84D0F61609DF81800801CC1B231
:1025B0000A20FFF749FEB6FBF0F100FB1167384631
:1025C00007F0C3FB83469DF81800C0F10500C1B2B7
:1025D0000A20FFF739FE009007F0B7FB594601903B
:1025E00007F0B2F98046684907F0E0F9074607F0BE
:1025F00034FCCDE9040105210A20FFF725FE0190F6
:1026000007F0B9FB07468846216860680A4603461A
:10261000CDE900103846414607F0ADFACDE9020198
:10262000DDE9042307F000FA206061602768616833
:102630000022564B384607F010FB206061604D3C8D
:1026400006214846FFF780FE0546FF2D03D019F806
:10265000050084F8550009214846FFF775FE054638
:10266000FF2D1FD009EB050006A9FFF7F8FD064670
:1026700042F21070B6FBF0F0C1B240200155642068
:10268000B6FBF0F06421B0FBF1F201FB12013F2038
:1026900001556420B6FBF0F100FB116000F5FA6013
:1026A000A4F83D000A214846FFF74EFE0546FF2DDF
:1026B00009D009EB050006A9FFF7D1FD074607F091
:1026C0003BFBC4F87B0007B0BDE8F08F2DE9F84371
:1026D000054688462EA1404607F0CCF80646022162
:1026E0003046FFF731FE0446FF2C05D0301969460D
:1026F000FFF7B5FD85F86400002713E0F81CC1B2B0
:102700003046FFF721FE0446FF2C08D030196946F9
:10271000FFF7A5FDC1B205F15800C15500E003E087
:10272000781CC7B20C2FE9DB00BF0F213046FFF742
:102730000BFE0446FF2C05D030196946FFF78FFDCC
:10274000A5F8650010213046FFF7FEFD0446FF2C7A
:1027500005D030196946FFF782FDA5F86700112101
:102760003046FFF7F1FD0446FF2C05D030196946CD
:10277000FFF775FDA5F86900BDE8F88356544700DA
:1027800000007A44524D430000007042006AF84055
:10279000475341002DE9F84305460F46FCA1384652
:1027A00007F068F8064606213046FFF7CDFD0446DF
:1027B000FF2C05D030196946FFF751FD85F856000A
:1027C00007213046FFF7C0FD0446FF2C05D0301925
:1027D0006946FFF744FD85F8570009213046FFF7A9
:1027E000B3FD0446FF2C0CD030196946FFF737FDC6
:1027F000814607F0A1FA8046E64907F0D7F8C5F808
:102800006B00BDE8F8832DE9FC5F07468A464FF070
:102810000008CDF804A0E0A1019807F02BF80646C7
:10282000F079303800F0FF0B03213046FFF78CFDC4
:102830000546FF2D04D070196946FFF710FD38706A
:102840004FF000096CE0D4A1019807F013F8064698
:1028500000245CE0042000EB8400C1B23046FFF7A6
:1028600073FD0546FF2D09D070196946FFF7F7FC87
:10287000C1B208EB8802781C815400E049E00520D1
:1028800000EB8400C1B23046FFF75EFD0546FF2D28
:102890000AD070196946FFF7E2FCC1B208EB880262
:1028A000781C1044417000E033E0062000EB840007
:1028B000C1B23046FFF748FD0546FF2D0AD070191A
:1028C0006946FFF7CCFC81B208EB8802781C104403
:1028D000418000E01DE0072000EB8400C1B23046DB
:1028E000FFF732FD0546FF2D0AD070196946FFF744
:1028F000B6FCC1B208EB8802781C1044017100E0FC
:1029000007E008F1010000F0FF08601CC4B2042CCD
:10291000A0DB00BF701C019009F1010000F0FF096D
:10292000D94590DBBDE8FC9F2DE9FC5F0446894654
:1029300049462046FFF767FF49462046FFF72AFF32
:1029400049462046FFF7C2FE49462046FFF769FD8B
:1029500049462046FFF711FD4FF48061484606F0D6
:102960007EFF94F8560000287ED08D4890F83800FD
:10297000002859D18B480078401C8A490870656C42
:10298000A36C2A46884903C907F04EF8864A03C259
:10299000D4F84D50D4F851302A46844903C907F081
:1029A00043F8824A03C2D4F86B108148006806F0ED
:1029B00073FF7F4908607B480078142834D1794838
:1029C000007807F0D8F905462A460B46764903C930
:1029D00007F043F9724AC2E902017248007807F031
:1029E000CAF905462A460B46704903C907F035F96E
:1029F0006B4A03C26B48007807F0A7F905462946E1
:102A00006B48006806F0D2FF654908610021664AFC
:102A100011605160654A116051600020644908608E
:102A200001205F4981F838005D4890F8380001289E
:102A30003FD1606CA16C5A4AC2E90801D4F84D003C
:102A4000D4F85110C2E90601D4F86B00114688622F
:102A50000846D0E902532A46D0E90871384607F003
:102A600084F88246002200E023E0524B07F083F80E
:102A7000CDE9000107F034FA494908630846D0E976
:102A800000532A46D0E90671384607F06EF88246B0
:102A90000022484B07F06FF8CDE9000107F020FA5B
:102AA0003F49C8620A461169906A06F047FF3C49EF
:102AB0004863BDE8FC9F2DE9FC413F4890F80101C7
:102AC000012864D100203C4981F80101491C3B48A0
:102AD000FFF72AFF394890F8560020B938A007F0D0
:102AE00053FCBDE8FC81354890F86400022803D10E
:102AF00039A007F049FC07E0304890F8640003284B
:102B000002D13AA007F040FC2C4890F8640001285C
:102B10003CD02A484D3002684168104607F0E0F981
:102B20000746374906F042FF044607F096F9054686
:102B30002A460B4633A007F027FC2048426C816CE4
:102B4000104607F0CDF907462D4906F02FFF044641
:102B500007F083F905462A460B462EA007F014FC21
:102B60001649D1F86B000B4906F020FF064607F026
:102B700074F904460B4611480078104991F8571033
:102B80002246CDE9001027A007F0FEFB63E05FE0DE
:102B9000474741000000204124475047535600005A
:102BA000F805002030000020380000204000002000
:102BB000480000208019FB407004002072050020AE
:102BC0004C6F636174696F6E20756E6365727461BA
:102BD000696E20210A0000004C6F636174696F6E9A
:102BE000206D6F6465203A32440A00004C6F6361C7
:102BF00074696F6E206D6F6465203A33440A00007B
:102C00000050C3476C6F6E6769747564653A2566DA
:102C10000A0000006C617469747564653A25660A7F
:102C200000000000616C7469747564653A252E3289
:102C3000666D202020706F73736C6E756D3A25641D
:102C400020202073766E756D3D25640A000000001B
:102C50009EA007F099FB00BF43E770B5044600252E
:102C600015701D70002009E01578265C354415703C
:102C70001D78167835441D70451CA8B28842F3DBD8
:102C800070BD70B50025002604E0681C85B20520E3
:102C9000FDF730FB924890F80101012801D1642D25
:102CA000F3DBFA2D1BDA8E480578002407E08C4808
:102CB000401C005DB52800D103E0601C84B2AC422A
:102CC000F5DB00BFAC4201D1022609E08448401C7C
:102CD000E11C405C08B9032602E0002600E0012662
:102CE00000207F4981F80101304670BD70B57D4CF0
:102CF00046F2B520208040F6061060800D20A080AE
:102D00000020C4F806004FF6FF70C4F80A00002047
:102D1000C4F80E000420A07404F114035A1E1121FB
:102D2000A01CFFF79AFF00BF6F4800680028FBD186
:102D300015216C4802F0F2FC002505E0FFF7A1FF29
:102D400000B903E0681CC5B2062DF7DB00BF062DF5
:102D500001D1012070BD0020FCE770B505460E468C
:102D6000604C46F2B52020804FF4837060800820CC
:102D7000A080F020A071E571012020726672A0721F
:102D8000E0722073607304F10F035A1E0C21A01C23
:102D9000FFF763FF00BF544800680028FBD11021F3
:102DA000504802F0BBFCFFF76CFF70BD70B50546E4
:102DB0004C4C46F2B5202080062060801420A08074
:102DC0000120A0710020E07120814FF40D60C4F853
:102DD0000A00C4F80E5007206082A0820020E08222
:102DE000208304F11B035A1E1821A01CFFF735FF96
:102DF00000BF3D488438806C0028FAD11C21394836
:102E000002F08CFCC820FDF775FA284602F0A8FCF9
:102E1000FFF737FF70BD2DE9F04105460E46174616
:102E2000304C46F2B520208040F2067060801420BD
:102E3000A080C4F80650C4F80A60A7730020E073AD
:102E4000207460744FF44D7060820020A082C4F83A
:102E5000160004F11B035A1E1821A01CFFF7FDFEEB
:102E600000BF21488438806C0028FAD11C211D48FD
:102E700002F054FCFFF705FFBDE8F08170B5054690
:102E80000E46184CC82D01DA012070BD46F2B5205F
:102E9000208040F6060060800620A080E5800120AA
:102EA0002081668104F10D035A1E0A21A01CFFF740
:102EB000D4FE00BF0C488438806C0028FAD10E2163
:102EC000084802F02BFCFFF7DCFEDEE7646174616A
:102ED000206E6F74207265616479210A0000000021
:102EE0007004002004090020840002402DE9F04114
:102EF00006460F4604F077FC352004F00FFF00244F
:102F00000DE006EB842004F0B3FC0546042D04D04C
:102F100004F075FC2846BDE8F081601CC4B2BC42D8
:102F2000EFDB04F06CFC0420F5E72DE9F0410646E8
:102F30000F4615464FF0000804F055FC352004F00C
:102F4000EDFE00240CE037F8141006EB440004F00A
:102F500092FD042802D02046BDE8F081601C84B2B6
:102F6000AC42F0DB04F04BFC2846F5E7014608884C
:102F7000704730B503460C461546002207E003EBC8
:102F80004200FFF7F3FF24F81200501C82B2AA425D
:102F9000F5D3104630BD30B503460C461546002229
:102FA00007E003EB4200FFF7E1FF24F81200501C9A
:102FB00082B2AA42F5DB30BDFEB504460D46174687
:102FC00003226946F148FFF7D4FFBDF800004FF631
:102FD000FF71884218D0BDF80200884214D0BDF8B5
:102FE0000400884210D0BDF8000000B2A082BDF8F5
:102FF000020000B2E082BDF8040000B2208301208C
:10300000A0700020207003E00020A070012020703C
:1030100003226946DE48FFF7ACFFBDF800004FF61B
:10302000FF71884218D0BDF80200884214D0BDF864
:103030000400884210D0BDF8000000B26083BDF8E3
:10304000020000B2A083BDF8040000B2E0830120BA
:10305000E0700020607003E00020E07001206070EC
:1030600006226946CB48FFF784FFBDF800004FF603
:10307000FF71884233D0BDF8020088422FD0BDF8DE
:10308000040088422BD0BDF8000000B2A886BDF82D
:10309000020000B2E886BDF8040000B22887BDF83F
:1030A000060006F052FE0646BB4906F07FFCA86209
:1030B000BDF8080006F049FE0646B74906F076FC62
:1030C000E862BDF80A0006F040FE0646B24906F086
:1030D0006DFC2863012068700020287003E0002048
:1030E000687001202870FEBD30B585B009226946A0
:1030F000AA48FFF73EFFC4B2092C63D1BDF8001007
:1031000008B206F019FE0546A54906F01DFCA549C2
:103110000860BDF8021008B206F00EFE0546A04990
:1031200006F012FC9F494860BDF8041008B206F092
:1031300003FE05469A4906F007FC9A498860BDF8E7
:10314000061008B206F0F8FD0546954906F0FCFBAE
:1031500095490860BDF8081008B206F0EDFD054677
:103160008F4906F0F1FB90494860BDF80A1008B29B
:1031700006F0E2FD05468A4906F0E6FB8A498860CA
:10318000BDF80C1008B206F0D7FD0546844906F0DC
:10319000DBFB86490860BDF80E1008B206F0CCFDD6
:1031A00005467F4906F0D0FB80494860BDF8101005
:1031B00008B206F0C1FD0546794906F0C5FB7B491A
:1031C000886002E0002005B030BD092269467348DE
:1031D0001230FFF7CEFEC4B2092C63D1BDF8001047
:1031E00008B206F0A9FD05466D4906F0ADFB704931
:1031F0000860BDF8021008B206F09EFD0546684959
:1032000006F0A2FB6A494860BDF8041008B206F057
:1032100093FD0546624906F097FB65498860BDF855
:10322000061008B206F088FD05465D4906F08CFBE5
:1032300060490860BDF8081008B206F07DFD05463B
:10324000574906F081FB5B494860BDF80A1008B297
:1032500006F072FD0546524906F076FB5549886036
:10326000BDF80C1008B206F067FD05464C4906F0A3
:103270006BFB51490860BDF80E1008B206F05CFD0A
:103280000546474906F060FB4B494860BDF8101001
:1032900008B206F051FD0546414906F055FB464986
:1032A000886001E000208EE7092269463B4824300F
:1032B000FFF75FFEC4B2092C63D1BDF8001008B25D
:1032C00006F03AFD0546364906F03EFB3B490860EC
:1032D000BDF8021008B206F02FFD0546304906F091
:1032E00033FB36494860BDF8041008B206F024FDEF
:1032F00005462B4906F028FB30498860BDF80610CA
:1033000008B206F019FD0546254906F01DFB2C49BB
:103310000860BDF8081008B206F00EFD0546204909
:1033200006F012FB26494860BDF80A1008B206F004
:1033300003FD05461A4906F007FB21498860BDF8E0
:103340000C1008B206F0F8FC0546154906F0FCFA28
:103350001B490860BDF80E1008B206F0EDFC0546EA
:103360000F4906F0F1FA16494860BDF8101008B28E
:1033700006F0E2FC05460A4906F0E6FA10498860C4
:1033800001E000201FE702201DE700000094010873
:1033900000980108009C010800007A4400A401087C
:1033A0006F12833A5C0800203C0800207C08002053
:1033B000FC070020DC0700201C080020BC080020BF
:1033C0009C08002070B504460D464FF082412068ED
:1033D00006F0ACFD04D30020216806F09DFD02D16B
:1033E0004FF082402060207906F0AFFC064621684D
:1033F00006F09CFD01D800202071237904F10C0215
:1034000052F82310A06806F099FAA060217904F11F
:103410000C0040F821502379024652F82310A0688E
:1034200006F03AFAA0602079401C20712168A0685B
:1034300006F0BCFA70BD000010B50446FE492046F7
:1034400006F074FD01D2FC4C05E0FC49204606F074
:1034500063FD00D2F94CFA49204606F067FD04D21C
:10346000F549204606F06AFA10BDF649204606F0F6
:1034700053FD04D2F049204606F00EFAF4E7204648
:10348000F2E72DE9F04704464FF07C51204606F064
:103490005BFA814625462E46EB48A0EB660635468C
:1034A0002946484606F050FA8246294606F04CFA6C
:1034B00080464FF07F5106F044FA0746294606F051
:1034C00043FA05462846BDE8F08770B506460D4626
:1034D00014462146304606F029FD01D2264605E075
:1034E0002946304606F018FD00D22E46304670BD03
:1034F0000FB400B597B0D548B0F90600089006F0B3
:103500001BFC0C90D148B0F90800089006F014FCA0
:103510000B90CE48B0F90A00089006F00DFC0A9016
:103520002398CB49089006F00FFA0F902498C849C9
:10353000089006F009FA0E902598C549089006F003
:1035400003FA0D90C3480078012806D0C1480078DE
:1035500018B1C048007802280BD14FF08040BE4916
:103560000863BE4848634FF07F508862BB48C8621A
:1035700019E0B8480078032815D1B748406B4FF0E0
:103580008041089006F0C8FC04D10020B249C8610F
:1035900008624862B248B0490863B2484863B2481A
:1035A00088620020C862AC48806906900A9906F0DB
:1035B000CBF90890A848406904900B9906F0C4F92B
:1035C0000690A548006904900C9906F0BDF9059095
:1035D000069906F061F90790089906F05DF91690D2
:1035E0004FF08C41169806F0A9F99B4948640A9956
:1035F000084606F0A9F907900B99084606F0A4F9C9
:1036000005900C99084606F09FF90490059906F07C
:1036100043F90690079906F03FF90890FFF731FF4C
:1036200016900C99169806F08FF90C900B99169835
:1036300006F08AF90B900A99169806F085F90A9017
:1036400085484069014606900A9806F07DF9089081
:1036500081488069014606900B9806F075F907903D
:10366000089906F06BF915907B4880690146069031
:103670000C9806F069F908907748006901460690B1
:103680000A9806F061F90790089906F057F9149026
:103690007148406B01460790159806F055F908905F
:1036A0006D48C06901460790089806F0F5F86A4928
:1036B000C8610846406B01460790149806F044F92B
:1036C00008906548006A01460790089806F0E4F8FB
:1036D000614908622798012840D10846006C0146DC
:1036E0000790269806F02AF90890FFF7A5FE169095
:1036F0005948806A5C49089006F00EFC22D1554872
:10370000007803281BD0169806F0A7FB21F0004193
:103710004FF08042554BCDE9040106F02CFACDE97B
:10372000060106F0DDFB4C4988620846806A504A73
:103730004D490890FFF7C9FE4749886202E04A48B0
:10374000454988624448806A0790169906F0FCF85B
:103750003F49089006F0F8F8099001E00020099030
:103760003D48006B0590159906F0EEF807903A4831
:1037700000690490099906F0E7F805900F9906F0A2
:103780008BF80690079906F087F808903248C069D0
:1037900001460790089806F07FF80F902E48006BBE
:1037A0000590149906F0D0F807902B4840690490D2
:1037B000099906F0C9F805900E9906F06DF8069083
:1037C000079906F069F808902348006A01460790B7
:1037D000089806F061F80E901F48806907900999D3
:1037E00006F0B2F808900D9906F056F80D901A48B8
:1037F000006810901848406811901748806812902F
:103800001548C0681390139804900D9906F09CF821
:103810000690129802900E9906F096F8049011986E
:1038200080F0004002900F9906F08EF80390049902
:1038300006F084F805901DE00000B4430000B4C316
:1038400000003443000034C3DF59375FF80600201E
:1038500039FA8E3C0C0000204C0000200AD7A33C13
:10386000CDCC4C3E0AD7233B0AD7233CE17AA43F78
:10387000CDCCCC3E069906F061F8D549079006F00C
:1038800063F80890109801460790089806F004F82D
:10389000D0490860139804900E9906F055F80690E8
:1038A000129802900D9906F04FF80490109802902B
:1038B0000F9906F049F80390049905F0EDFF059083
:1038C000069906F03BF8C249079006F03DF80890CB
:1038D000119801460790089805F0DEFFBD49486041
:1038E000139804900F9906F02FF806901198029003
:1038F0000D9906F029F80490109802900E9906F0A0
:1039000023F80390049906F019F80590069905F03C
:10391000C3FFAF49079006F017F8089012980146C8
:103920000790089805F0B8FFAA498860129804909B
:103930000F9906F009F80690119802900E9906F07A
:1039400003F80490109802900D9905F0FDFF039084
:10395000049905F0A1FF0590069905F0EFFF9C4939
:10396000079005F0F1FF089013980146079008981A
:1039700005F092FF9749C8600846C0680590084660
:10398000C0680490059905F0DFFF079091488068B2
:103990000390904880680290039905F0D5FF059048
:1039A0008C48406801908B4840680090019905F070
:1039B000CBFF03908748006801908648006800901C
:1039C000019905F0C1FF0290039905F065FF04908D
:1039D000059905F061FF0690079905F05DFF0890D5
:1039E000FFF74FFD16907B4800680890169905F088
:1039F000ABFF78490860084640680890169905F0C2
:103A0000A3FF74494860084680680890169905F03D
:103A10009BFF704988600846C0680890169905F0B9
:103A200093FF6C49C86008468068059008460068A6
:103A30000490059905F088FF07906648C0680590D6
:103A4000644840680490059905F07EFF0690079948
:103A500005F074FF4FF08041089005F075FF5D4957
:103A600008610846C068059008468068049005997A
:103A700005F06AFF07905748406805905548006870
:103A80000490059905F060FF0690079905F004FF82
:103A90004FF08041089005F057FF4E4948610846B5
:103AA00080680490084680680390049905F04CFFF4
:103AB000069048484068049046484068039004993E
:103AC00005F042FF0590069905F0E6FE4FF08041B3
:103AD000079005F039FF4FF07E51089005F031FF57
:103AE0003C4988610846806907900846406906900D
:103AF000079907F05DFF3849089005F025FF354923
:103B0000886308460069079007F0F0FC80F00040E9
:103B10003149089005F018FF2E49C8630846C0686F
:103B200001900846C0680090019905F00DFF0390D0
:103B3000284880680190274880680090019905F026
:103B400003FF0290039905F0A7FE4FF08041049017
:103B500005F0FAFE4FF07E51059005F0F2FE079059
:103B60001C48C06802901B4800680190029905F04B
:103B7000EBFE049017488068029016484068019058
:103B8000029905F0E1FE0390049905F085FE4FF0DF
:103B90008041059005F0D8FE0690079907F008FFD0
:103BA0000D49089005F0D0FE0A4908640846806B6C
:103BB0000890FFF741FC074988630846C06B0890EE
:103BC000FFF73AFC0349C86317B05DF814FB000027
:103BD0000AD7A33A4C000020E12E65422DE9FF5F91
:103BE00004468A46BAF1000F04D05E48216AFFF706
:103BF000E9FB2062D4E9080105F0A0FEA0625A4961
:103C0000206A05F0D3FE834606F027F94FF04042C4
:103C1000564BCDE9000108F00FF90022544BCDE9D5
:103C2000020105F0A5FF07460022524B05F0A3FF55
:103C3000054606F055F981464F48C0F80090C4F893
:103C40002C90616BE06A05F079FE2063BDE8FF9F70
:103C50002DE9FE4F49480078032802D0002048494A
:103C600008604849B1F90010A1F2DC5006F072F882
:103C700080460022444B05F07EFF06464FF080420E
:103C8000424B05F078FF04460D463D48006806F0BB
:103C9000E4F8824622462B4605F0C6FECDE9000137
:103CA00006F01EF9364908604FF07E520021344874
:103CB0000068FFF70AFC324908603548416C354816
:103CC000FFF780FB324948643348016B3348FFF704
:103CD00079FB314908632E49486C314905F034FEBF
:103CE00004462D4902AB2F4A086B214602F034F8F6
:103CF0002D4801682B48006805F020FE04462B493A
:103D000005F022FE2A4908602A48029905F01CFEA7
:103D1000044627480168284805F016FE0546214656
:103D200005F0BAFD22490860084602F004FD1D486E
:103D300000681D4908604FF07E50204B00901948E4
:103D400002680F4801681E4801F094FA1D4800906F
:103D50001B481A4BC169164802681B4801F08AFAD1
:103D6000BDE8FE8F9400002080E6C547955BC83F04
:103D70000000F03F40A5E540480100200C00002075
:103D800024010020300400200000E03FE17A943F4D
:103D90004C000020C00000208C030020EC0000201C
:103DA0002BCD9C3A3C0100204001002000004842FD
:103DB00044010020CDCC4C3ECDCC4C3F0000C8424D
:103DC0009C08002000009643BC0800204FF07E5065
:103DD000AC4908600020486088604FF07E50AA49D6
:103DE00008600020486088604FF07E50A749086056
:103DF0000020486088604FF07E50A5490860002090
:103E00004860886070470246002A04DD501A002886
:103E100005DA002003E05018002800DD002070477C
:103E20002DE9F84F9B49086C9B4905F08DFD044630
:103E300007F03AFF994908609649086C964905F0E1
:103E400083FD044608F0E4FC954908609548007835
:103E500003281AD09448066841680022934B3046E4
:103E600005F089FE044605F0C0FF914908608E49BF
:103E70004D394E6C896C00228C4B304605F07BFE30
:103E8000044605F0B2FF8B49086087484D38466C00
:103E9000816C0022854B304605F06DFE80468946D8
:103EA0008448006805F056FF824642464B4605F0BE
:103EB0005CFE044605F099FF7F4908607A48066871
:103EC00041680022794B304605F055FE8046894610
:103ED0007748006805F03EFF044642464B4605F031
:103EE00044FE824605F081FF744908606E484D38F3
:103EF000476C816C4FF00052714B384605F03BFE29
:103F0000054605F0EDFF814607F0CEFE04466B48FE
:103F1000006805F011FF8246214605F015FD5A495B
:103F2000C8606548006805F007FF5649C8605E49EB
:103F30004D39D1F86F0005F02BFF05460521FFF73D
:103F400062FF044605F0F8FE5E49086056494D39A7
:103F5000D1F8730005F01CFF05460521FFF753FF5C
:103F6000044605F0E9FE584908604F494D394E6C4A
:103F7000896C00224D4B304605F0FDFD80464FF028
:103F80000052524B05F0F7FD044605F0A9FF8246AA
:103F90004748006805F0D0FE83464FF07E504C4BFA
:103FA000524659460090384801F064F93E484D3871
:103FB000476C816C00223D4B384605F0DCFD054620
:103FC00005F08EFF04463B48006805F0B5FE8146CB
:103FD0004FF07E503E4B224649460090294801F062
:103FE00049F93C483A4B0090364802683A48016823
:103FF000264801F03FF93748354B009032480268B7
:1040000036480168224801F035F9BDE8F88F70B5EF
:104010001F49C8692249096805F096FC04461B49F6
:10402000C8691E49096805F08FFC0546214605F060
:1040300033FC80F000402A4908601449C8691849D7
:10404000096805F081FC04461149C86913490968EB
:1040500005F07AFC0546214605F070FC2149086010
:1040600070BD10B520480078401C1F4908700846F4
:104070000078642804D1FFF7D3FE00201A490870A5
:1040800010BD0000380600205806002078060020E9
:10409000980600204C00002039FA8E3C4C0100208C
:1040A000500100200C000020BF050020D012634109
:1040B0005C010020600100206801002064010020F4
:1040C00047DF913F70010020740100208E75ED3FA5
:1040D000000020410000A040780100207C01002069
:1040E000580100205401002088010020B0B504468A
:1040F0000D4635703346012221461A2002F0DCFCC1
:1041000007463846B0BD70B504460D462B46012221
:1041100021461A2002F003FD0646304670BD08B560
:1041200069460D20FFF7EFFF9DF80000FF2801D042
:10413000002008BD80210A20FFF7D8FF6420FCF78B
:10414000D9F849210920FFF7D1FF41210A20FFF7C3
:10415000CDFF01210B20FFF7C9FF0120E9E7FEB5E4
:104160000446207801286DD1FE480088401CFD4996
:104170000880084600880A2190FBF1F201FB12003A
:10418000012803D10103F84802F02BFEF54800880E
:10419000142190FBF1F201FB1200022803D1C102AD
:1041A000F14802F01CFE00206070EE480088B0F577
:1041B000FA6F48DAB4F90400B4F91C10884202DA44
:1041C000B4F9040001E0B4F91C00A083B4F90600BE
:1041D000B4F92010884202DAB4F9060001E0B4F91B
:1041E00020002084B4F90800B4F92410884202DACF
:1041F000B4F9080001E0B4F92400A084B4F9040083
:10420000B4F91E10884202DDB4F9040001E0B4F9EB
:104210001E00E083B4F90600B4F92210884202DDE2
:10422000B4F9060001E0B4F922006084B4F9080092
:10423000B4F92610884202DDB4F9080001E0B4F9AF
:104240002600E084A6E00020C64908804FF4805193
:10425000C54802F0C6FDB4F91C10B4F91E20881838
:1042600005F06AFD06464FF0804105F09FFB0546CC
:1042700005F08EFD00B2A086B4F92010B4F922201A
:10428000881805F059FD06464FF0804105F08EFB79
:10429000054605F07DFD00B2E086B4F92410B4F9BE
:1042A0002620881805F048FD06464FF0804105F0AD
:1042B0007DFB054605F06CFD00B220874FF07E5077
:1042C000A062B4F92210B4F92020881A05F034FD58
:1042D0000546B4F91E10B4F91C20881A05F02CFD0F
:1042E0000646294605F062FBE062B4F92610B4F9EF
:1042F0002420881A05F020FD0546B4F91E10B4F9F3
:104300001C20881A05F018FD0646294605F04EFBCC
:104310002063A08E80B2ADF80000E08E80B2ADF8D0
:104320000200208F80B2ADF804009049A06A05F029
:104330000BFB054605F045FD80B2ADF806008B4944
:10434000E06A05F001FB054605F03BFD80B2ADF8E3
:1043500008008649206B05F0F7FA054605F031FDA7
:1043600080B2ADF80A0001218148FEF7BFFD0622A8
:1043700069467F48FEF7D9FD01207E4988740020F8
:10438000A083E08320846084A084E08401206070A6
:1043900000202070FEBD2DE9F04104460D46164672
:1043A00033462A4621461A2002F0B9FB0746384612
:1043B000BDE8F0812DE9F04F93B000200F900E90F2
:1043C00081466D490620FFF79EFE6B48801E80786F
:1043D00000F0010000287DD010AA06210020FFF780
:1043E000DAFF6548801E807800F00200E8B99DF889
:1043F00041009DF8401001EB002000B25E49891E8B
:1044000088809DF843009DF8421001EB002000B227
:104410005949891EC8809DF845009DF8441001EB5C
:10442000002000B25449891E08815348801E00783C
:10443000012806D15048801EFFF791FE13B0BDE859
:10444000F08F4D48801E407801284ED14A49891E80
:10445000B1F90410484A921EB2F93420881A05F0C6
:104460006BFC0D904448801E806A80F000484046F6
:104470000D9905F069FA074605F08AFC00B23E493D
:10448000891E8880B1F906103B4A921EB2F9362087
:10449000881A05F051FC0D903748801EC06A80F0E4
:1044A000004840460D9905F04FFA074605F070FCAC
:1044B00000B23149891EC880B1F908102E4A921EF7
:1044C000B2F93820881A05F037FC80462A48801E49
:1044D000016B00E012E1404605F036FA074605F0B0
:1044E00057FC00B22449891E08812349891EB1F96D
:1044F000040005F021FC0746204905F057FA1E4943
:10450000891EC860B1F9060005F016FC07461B4974
:1045100005F04CFA1849891E0861B1F9080005F048
:104520000BFC0746154905F041FA1349891E4861FD
:10453000B1F904104943104A921EB2F906200E4BFD
:104540009B1EB3F9063002FB03120B49891EB1F919
:104550000810094B9B1EB3F9083001FB032005F03E
:10456000EBFB0DE0BA0100200008014000007A4496
:10457000009C010858040020BA06002000803B4639
:104580000746FEF77EFF06468349B1F9040005F0B1
:10459000D3FB0746314605F0D7F90F907E49B1F9B4
:1045A000060005F0C9FB0746314605F0CDF90E902F
:1045B0007949B1F9080005F0BFFB0746314605F01F
:1045C000C3F981467549886B754905F0BDF9074601
:1045D000744905F0EBF982467049C86B704905F0E3
:1045E000B3F907466F4905F0E1F98346584608F0EC
:1045F0000FF9074605F031FCCDE90601504605F0FC
:104600002CFCCDE9000107F001FB0746884648462F
:1046100005F023FC3A464346CDE9020105F0ABFA2A
:10462000CDE90401DDE9062305F0A5FACDE90A018B
:10463000584608F0EDF80590504608F0E9F8049067
:104640000E9905F081F98046059905F07DF90690EF
:10465000584607F029FB80460F9905F075F9074683
:10466000069905F019F9079005F0F7FBCDE9080167
:10467000DDE90A2305F0D8F9CDE90C0105F030FC9D
:104680000446504608F0C4F849460D9005F05CF920
:104690000746504607F008FB0D900E9905F054F9B7
:1046A0008046394605F04AF90546284605F0D5FB0F
:1046B00007468846204605F0D0FB3A464346CDE9FA
:1046C000060107F0B5F80022374BCDE9080105F0E7
:1046D00052FA4FF0C042354BCDE90A0105F0BDFA60
:1046E000CDE90C0105F0FCFB2B49C8630846C16B02
:1046F0002F48FEF767FE2849C86300E09EE600BF2A
:104700009CE62DE9F041244A5169506905F01CF9F5
:104710000646214A1169106905F016F907461E4A36
:10472000D168D06805F010F98046394605F0B4F834
:104730000546314605F0B0F80446204608F052F927
:104740001549886188691B4905F0E6FB05D31249C4
:104750008869194905F0EAFB09D2184800886428DD
:104760000DDA16480088401C1449088007E01348F9
:10477000008820B111480088401E104908800F4869
:104780000088322803DD01200349C87002E00020C0
:104790000149C870BDE8F081B80600204C00002037
:1047A000DB0F49400000344300806640FB21094094
:1047B0008C010020C3F5A83E6666663FB801002064
:1047C000B0B504460D463570334601222146D0204F
:1047D00002F072F907463846B0BD70B504460D4682
:1047E0002B4601222146D02002F099F90646304698
:1047F00070BD08B569467520FFF7EFFF9DF8000012
:10480000682801D0002008BD80216B20FFF7D8FF69
:104810006420FBF76FFD0B216B20FFF7D1FF6420B5
:10482000FBF768FD01211920FFF7CAFF02211A20BA
:10483000FFF7C6FF10211B20FFF7C2FF08211C2035
:10484000FFF7BEFFFE491C20FFF7C7FF0021232012
:10485000FFF7B6FF00213820FFF7B2FF0021382014
:10486000FFF7AEFF0120CEE77CB504466078012853
:1048700061D10020E070F3480088C8283FDD0120A6
:10488000E07000206070F0480068EE49098890FBF5
:10489000F1F000B26083EC484068EA49098890FB77
:1048A000F1F000B2A083E8488068E649098890FBEF
:1048B000F1F000B2E083608B80B2ADF80000A08B15
:1048C00080B2ADF80200E08B80B2ADF804000121A7
:1048D000DE48FEF70BFB03226946DC48FEF725FBAA
:1048E000C5B2032D02D10120D94948740020D54911
:1048F0000880D54908604860886001207CBDD248A6
:104900000068B4F90E100844CF49086008464068B2
:10491000B4F910100844CC49486008468068B4F9DE
:1049200012100844C8498860C6480088401CC54920
:1049300008800020E2E70020E0E77CB5044620780C
:10494000012863D10020A070C2480088C8283FDB3E
:104950000120A07000202070BF480068BD49098870
:1049600090FBF1F000B2A082BB484068B9490988C9
:1049700090FBF1F000B2E082B7488068B549098841
:1049800090FBF1F000B22083A08A80B2ADF8000065
:10499000E08A80B2ADF80200208B80B2ADF804004E
:1049A0000121AE48FEF7A2FA03226946AB48FEF7A2
:1049B000BCFAC5B2032D02D10120A549087400201C
:1049C000A549086048608860A249088001207CBD34
:1049D000A1480068B4F9061008449F4908600846D9
:1049E0004068B4F9081008449B494860084681684B
:1049F000B4F90A00A0F5005008449749886095482A
:104A00000088401C934908800020E0E70020DEE792
:104A10002DE9F04104460D46164633462A46214606
:104A2000D02002F07CF807463846BDE8F0811FB57B
:104A300004466A460E213B20FFF7EAFF9DF801007D
:104A40009DF8001040EA012000B2E0809DF80300CC
:104A50009DF8021040EA012000B220819DF8050077
:104A60009DF8041040EA012000B260819DF8070023
:104A70009DF8061040EA012000B2A0819DF80900CF
:104A80009DF8081040EA012000B2E0819DF80B007B
:104A90009DF80A1040EA012000B220829DF80D0026
:104AA0009DF80C1040EA012000B260821FBD30B5B5
:104AB0008DB06B48FFF7BBFF6948007801280ED125
:104AC0006748FFF73AFF012807D14FF07E5065494C
:104AD0000860002048608860C8600DB030BD604844
:104AE000407801280DD15E48FFF7BEFE012807D1AE
:104AF0004FF07E505B490860002048608860C860C5
:104B0000EBE75748C0885649898A401A00B2544991
:104B1000C88008460089C98A401A00B250490881F5
:104B200008464089098B401A00B24D494881084621
:104B3000C089498B401A00B24949C8810846008A99
:104B4000898B401A00B2464908820846408AC98BC0
:104B5000401A00B242494882B1F9060005F0ECF86B
:104B6000054629464048FEF72DFC044605F010F99D
:104B700000B23B49C880B1F9080005F0DDF80546F0
:104B800029463A48FEF71EFC044605F001F900B23A
:104B900033490881B1F90A0005F0CEF805462946E7
:104BA0003348FEF70FFC044605F0F2F800B22C493A
:104BB0004881B1F90E0005F0BFF8054629462D4899
:104BC000FEF700FC044605F0E3F800B22449C88172
:104BD000B1F9100005F0B0F8054629462648FEF761
:104BE000F1FB044605F0D4F800B21D490882B1F982
:104BF000120005F0A1F8054629462048FEF7E2FB21
:104C0000044605F0C5F800B215494882B1F90E0016
:104C100005F092F804461A4904F096FE1049C8625D
:104C2000B1F9100005F088F80446154904F08CFE2F
:104C30000B490863B1F9120005F07EF8044621E043
:104C4000D0020020D40200203C0700200098010878
:104C500058040020D20200203007002000940108F0
:104C6000F80600204C000020BC010020E8010020D4
:104C700014020020400200206C0200209802002054
:104C80008FC2F53C0A4904F05FFE0A4948630121DE
:104C90000948C06B2822CDE90A010649103168464F
:104CA00004F0C4FD03480FC8FEF722FC00BF14E760
:104CB0008FC2F53CF8060020B80600202DE9F04729
:104CC00004460D46052D5AD14FF47A762088001FF0
:104CD00020806088001F6080A088001FA080E0887E
:104CE000001FE080304605F030F88046208805F04F
:104CF0002CF88146944A4146FEF7E7FB074605F04B
:104D000060F82080304605F020F88046608805F085
:104D10001CF881468C4A4146FEF7D7FB074605F052
:104D200050F86080304605F010F88046A08805F005
:104D30000CF88146844A4146FEF7C7FB074605F05A
:104D400040F8A080304605F000F88046E08804F086
:104D5000FCFF81467C4A4146FEF7B7FB074605F05B
:104D600030F8E0802088794908806088091D088033
:104D7000A088091D0880E088091D088067E0032DD0
:104D800049D140F22B46304604F0DFFF80462088B0
:104D900004F0DBFF81466C4A4146FEF796FB07466E
:104DA00005F00FF869490880304604F0CEFF8046D0
:104DB000608804F0CAFF8146634A4146FEF785FBDE
:104DC000074604F0FEFF6149091D0880304604F0E3
:104DD000BCFF8046A08804F0B8FF81465A4A41468D
:104DE000FEF773FB074604F0ECFF584908310880D2
:104DF000304604F0AAFF8046E08804F0A6FF814612
:104E0000514A4146FEF761FB074604F0DAFF4F497D
:104E10000C3108801BE0022D0AD140F22B404B4997
:104E20000880091D0880091D0880091D08800EE002
:104E30001DB1012D01D0042D09D14FF47A704349E1
:104E40000880091D0880091D0880091D0880BDE82B
:104E5000F08700B589B00121042002F0CFF90121CB
:104E6000082002F0CBF90121022002F0D4F901213F
:104E7000084602F0C3F918208DF80700C020ADF8ED
:104E8000040003208DF8060001A9314801F0FAFE64
:104E90000320ADF8040001A92E4801F0F3FE40F60E
:104EA000C310ADF81C000020ADF81A00ADF81E00CC
:104EB0004720ADF8180006A92448343803F026F836
:104EC00001212248343803F07DFB6020ADF8080052
:104ED0000120ADF80A000020ADF8100002A91B481F
:104EE000343803F050F802A91848343803F08DF82C
:104EF00002A91648343803F0D5F802A9134834380B
:104F000003F01BF908211148343803F08BFC082109
:104F10000E48343803F08FFC08210C48343803F075
:104F200097FC08210948343803F09BFC4FF47A7051
:104F30000949088048808880C88000210648FFF71A
:104F4000BDFE09B000BD00000000E1443404004093
:104F500000080140000C0140D60200201FB50121CD
:104F6000084602F058F90121880703F005FE40F6D3
:104F7000C410ADF804000020ADF80200ADF8060042
:104F80004720ADF8000069464FF0804002F0BEFFB8
:104F900001221146900703F030FB0121880703F03E
:104FA00011FB1C208DF80C0001208DF80D008DF8F0
:104FB0000E008DF80F0003A802F08DFB1FBD1FB57A
:104FC0000121042002F027F901217A4803F0D4FDE1
:104FD00042F21070ADF804000020ADF80200ADF808
:104FE00006004720ADF800006946724802F08EFFC7
:104FF000012211466F4803F000FB01216D4803F0C8
:10500000E1FA1E208DF80C0001208DF80D00022021
:105010008DF80E0001208DF80F0003A802F05BFB55
:105020001FBD10B50121880703F095FD00284CD065
:1050300061480088401C60490880FFF738FD00F097
:1050400062F95D490888C11700EB91718910A0EBE6
:10505000810109B9FFF7AEF957490888C11700EB7C
:105060005171C910A0EBC10109B9FFF74AFB5249C0
:105070000888C11700EB91718910A0EB810101290B
:1050800001D1FBF7B4FB4C49088800EBD071491003
:10509000A0EB410109B9FBF7F5FB47490888C117A7
:1050A00000EB5171C910A0EBC101012909D143489E
:1050B0008078012805D142484078012801D1FEF7C7
:1050C000C7FD0121880703F057FD10BD70B5012110
:1050D000384803F040FD002869D000F0FFFD394852
:1050E0008078012806D10020364988703649374833
:1050F000FDF71AFC36480078401C35490870084610
:1051000000780A2801D10020087032484078012830
:105110002AD100202F4948702F4908802D488178D6
:105120002430FDF722F805462846FCF7B6FA294850
:10513000B0F846000A2190FBF1F201FB12000428AE
:1051400003D18102254801F04CFE2248B0F8460008
:105150000A2190FBF1F201FB1200082803D1410261
:105160001E4801F03CFE70BD1B480088401C1A49D7
:10517000088008460088B0F57A7F14DB002008809C
:105180004FF40061154801F02CFEFBF722FE0446A7
:10519000FBF7E1FD21462720FBF74DFD4FF40061B1
:1051A0000E4801F01CFE0121024803F0E5FC00BF9F
:1051B000D9E7000000080040DE020020F8060020C9
:1051C0008C030020F8080020040E00207205002047
:1051D000E2020020C4030020E00200200008014099
:1051E0002DE9F84F04460E4617461D46DDF8288087
:1051F0003946304604F0A2FBE060E068FEF71CF997
:10520000E060B149E06804F09FFB8146616904F009
:1052100043FB606185F000492A464946E069FEF794
:1052200054F96061D4E9030104F088FBA061A1692D
:10523000A06804F089FB00906169606804F084FB59
:105240008246E168206804F07FFB8346514604F003
:1052500023FB8146009904F01FFBE06188F00049C0
:1052600042464946E069FEF730F9E061E0682061B6
:10527000BDE8F88F2DE9F84F04460E4617461D4647
:10528000DDF828803946304604F058FBE0608E494E
:10529000E06804F059FB8146616904F0FDFA606141
:1052A00085F000492A464946E069FEF70EF960613B
:1052B000D4E9030104F042FBA061A169A06804F0F5
:1052C00043FB00906169606804F03EFB8246E16840
:1052D000206804F039FB8346514604F0DDFA81462C
:1052E000009904F0D9FAE06188F000494246494645
:1052F000E069FEF7EAF8E061E0682061BDE8F88F58
:10530000002141617047F8B570480078032804D047
:105310006F48006C6F490860F8BD6F49B1F904002F
:1053200004F00AFD07466D4904F008FB044604F04A
:1053300094FD21F0004105460022694B04F0A0FDD8
:1053400005D26848FFF7DCFF6748FFF7D9FF6249DD
:10535000B1F9060004F0F0FC0746604904F0EEFAEB
:10536000044604F07AFD21F00041054600225C4B22
:1053700004F086FD05D25D48FFF7C2FF5C48FFF7E9
:10538000BFFF5C48009052485B4BC26B5B480168B2
:105390005448FFF76FFF574800904D48564B826BBB
:1053A000574801685248FFF765FF56480090564835
:1053B000026B4C48554BC1694B48FFF75BFF5148A6
:1053C00000905148C26A4A48504BC1694748FFF7AC
:1053D00051FF4149B1F9020004F0AEFC05463F49D6
:1053E00004F0ACFA04464A4904F0AEFA3A49C861FE
:1053F000B1F9020004F0A0FC0746384904F09EFA17
:10540000044604F02AFD21F0004105460022414BEC
:1054100004F036FD0AD240480078E8B92C48006C08
:105420002C49086001203C49087015E000203A49E9
:1054300008702949C869244904F086FA04462548B9
:105440000168204604F028FA2249086008460068EE
:10545000FDF7F2FF1F490860304800901C48264BBA
:10546000026C1C4801682E48FFF7BAFE22480090E3
:105470002548426B2A482B4BC1692B48FFF7B0FEE9
:1054800000BF49E70021C16001614161C1618161E3
:10549000704700B51348FFF7F5FF1548FFF7F2FF17
:1054A0001F48FFF7EFFF2148FFF7ECFF0E48FFF71B
:1054B000E9FF0E48FFF7E6FF1B48FFF7E3FF1C4834
:1054C000FFF7E0FF00BD00000AD7233B0C000020DF
:1054D0004C000020E8020020300400200080BB4483
:1054E00000003440FC0700205C0800203C0800203D
:1054F000DC0700200000B4420000C8425401002034
:105500005801002000003443F80600200000484203
:105510008FC2753D00002440E60200200000F041EB
:105520001C080020000020417C0800209C0800206E
:10553000BC08002000B587B00121084601F05EFEDE
:105540000121880301F067FE0121082001F056FEC9
:105550004FF46040ADF8180018208DF81B000320B0
:105560008DF81A0006A9304801F08CFB0020ADF838
:1055700004004FF48270ADF806000020ADF808007A
:10558000ADF80A00ADF80C004FF40070ADF80E0055
:105590001020ADF810000020ADF812000720ADF883
:1055A000140001A9214803F011FB01211F4803F059
:1055B000B2FB07B000BD70B5054605E0601CC4B283
:1055C000C82C01DB002070BD0221184803F027FC25
:1055D0000028F3D02946154803F0CEFB002405E04F
:1055E000601CC4B2C82C01DB0020ECE701210F488D
:1055F00003F015FC0028F3D00C4803F0BFFBC6B243
:105600003046E0E710B50446084800884FF6C771F9
:105610000840064908800846008820430880012188
:10562000024803F078FB10BD000C01400038004038
:105630001FB50121082001F0E1FD0121084601F01C
:10564000DDFD04208DF807008002ADF80400032082
:105650008DF8060001A92E4801F014FB0C21012051
:1056600001F026FC4FF48050029000208DF80C00D1
:105670000C208DF80D0001208DF80E0002A803F01B
:1056800013FC28208DF8000000208DF80100022076
:105690008DF8020001208DF80300684602F01BF827
:1056A0001FBD10B54FF4805003F064FC78B34FF485
:1056B0000061184801F095FBFBF78BFB044604F0F2
:1056C0004000B8B11448B0F84600401C1249A1F897
:1056D0004600012048700846FBF7A2FB04F02000BA
:1056E00040B101200C4908700846B0F84400401C45
:1056F000A1F8440021462720FBF79DFA4FF40061F2
:10570000044801F06CFB4FF4805003F044FC10BDE2
:10571000000C014000080140C403002070B504469D
:105720000D46002603E0701C86B2002070BDB6F561
:10573000FA7F03DAC74880790128F4D02A46214647
:10574000C54804F073F82946C44803F00FFD012151
:10575000C24803F0F6FC0120BE49887100BFE5E7AE
:1057600010B586B004460121042001F047FD012157
:10577000084601F043FD0121880301F03FFD182098
:105780008DF817004FF40070ADF8140003208DF869
:10579000160005A9B24801F075FA04208DF817002B
:1057A0000002ADF8140005A9AD4801F06BFA0194B0
:1057B0000020ADF80A00ADF80C00ADF810000C2088
:1057C000ADF80E000020ADF8080001A9A54801F0D1
:1057D000BCFD0121A34801F044FE012240F2244116
:1057E000A04801F04AFE012240F226619D4801F0E6
:1057F00044FE25208DF8000001208DF801000320D3
:105800008DF8020001208DF80300684601F063FF67
:105810000122C021934801F055FE00F02BF906B09B
:1058200010BD10B540218F4801F0F6FE90B1402127
:105830008C4801F0FEFE87480078012803D1002043
:10584000844988710870012082494870084600899F
:10585000401C088140F22441824801F0F3FE58B315
:10586000804801F06FFE7B484089401C794948819F
:105870004FF4003003F094FC00217848143003F01A
:1058800060FC0120734988707448143003F070FC88
:105890000446C4F180006F49888080216F4814302D
:1058A00003F064FC01216D48143003F04AFC40F21F
:1058B00024416C4801F0F0FE10BD70B504460D4661
:1058C000002603E0701C86B2002070BDB6F5FA7F9A
:1058D00003DA654880790128F4D02A4621466348D6
:1058E00003F0A4FF29465D483C3003F03FFC012152
:1058F0005A483C3003F025FC01205B49887100BF09
:10590000E3E710B586B004460121042001F076FCDF
:105910000121084601F072FC0121480401F07BFCE2
:1059200018208DF817000420ADF8140003208DF81E
:10593000160005A94A4801F0A5F904208DF81700C2
:105940000820ADF8140005A9454801F09BF9019421
:105950000020ADF80A00ADF80C00ADF810000C20E6
:10596000ADF80E000020ADF8080001A9404801F094
:10597000ECFC01213E4801F074FD012240F224417B
:105980003B4801F07AFD012240F22661384801F0DF
:1059900074FD26208DF8000000208DF80100032002
:1059A0008DF8020001208DF80300684601F093FE97
:1059B0000122C0212E4801F085FD00F0C7F806B095
:1059C00010BD10B540212A4801F026FE68B14021E3
:1059D000274801F02EFE24480078012805D1002038
:1059E0002149887108700120487040F22441204804
:1059F00001F028FE60B31E4801F0A4FD1A4840895A
:105A0000401C194948814FF4001003F0C9FB0021E4
:105A10001248283003F095FB0120134988700F4885
:105A2000283003F0A5FB0446C4F580600E49888049
:105A30004FF480610948283003F098FB01210748A2
:105A4000283003F07EFB40F22441094801F024FE97
:105A500010BD0000EC0800200409002044000240B2
:105A60000008014000380140F8080020040A002026
:105A70000044004000B58DB00121084601F0B1FBA3
:105A8000674803F091FA6748029067480390002046
:105A90000490802005900020069080200790002030
:105AA000089009900A904FF480500B9000200C90C1
:105AB00002A95B48143803F019FB01215848143837
:105AC00003F03FFB5648283803F06EFA5548029021
:105AD00056480390102004900020059002A95048D9
