:020000040800F2
:1000000078160020CD6E0008790200087B020008F7
:100010007F02000883020008870200080000000039
:100020000000000000000000000000008B0200083B
:100030008D020008000000008F02000891020008F5
:10004000E76E0008E76E0008E76E0008E76E00083C
:10005000E76E0008E76E0008E76E0008E76E00082C
:10006000E76E0008E76E0008E76E0008E76E00081C
:10007000E76E0008E76E00086F5E0008E76E000894
:10008000E76E0008435F0008E76E0008E76E0008AF
:10009000E76E0008E76E0008E76E0008E76E0008EC
:1000A000E76E0008E76E0008E76E0008E76E0008DC
:1000B00077530008E76E000821540008E76E000837
:1000C000E76E0008E76E0008E76E0008E76E0008BC
:1000D000E76E0008775B0008135D0008E76E000814
:1000E000F7590008E76E0008E76E0008DFF80CD04B
:1000F0000AF0A2FA00480047010100087816002023
:1001000000BF00BF00BF002400F059F94FF4A06009
:1001100007F072FC4FF4E13005F0CCFC4FF4E13015
:1001200005F097FD642000F013F92EA004F056FFAF
:1001300006F01CFD2EA004F051FF00F0ABF833A038
:1001400004F04CFF05F026FF37A004F047FF05F050
:100150002AF83CA004F042FF4FF4FA7000F0F8F8DF
:100160004FF4FA7000F0F4F804F086FC00F0C6F9E1
:1001700004F018F93A4A3B493B4802F04BFF3A4831
:10018000807810B90120384908703748C07810B914
:100190000120354948703248407810B90120304973
:1001A000087001203149087448748874C87400F0DC
:1001B000D8FC00F04AFD012807D101032C4806F0C5
:1001C000A6FF05F0DFFB00F08FFD03F00EF82949D4
:1001D000087003F03FFF05F09CF805F069F800E0B7
:1001E000641CFDE7506F776572204F6E210A000096
:1001F0004472697665723A49494320696E69742090
:1002000066696E69736865647E0A00004472697687
:1002100065723A4C454420696E69742066696E695E
:10022000736865647E0A00004472697665723A41BB
:10023000444320696E69742066696E6973686564F9
:100240007E0A00004472697665723A50574D206903
:100250006E69742066696E69736865647E0A000061
:100260008C030020B8060020F80600205804002067
:1002700000080140E5020020704700BFFEE700BF14
:10028000FEE700BFFEE700BFFEE77047704770471C
:100290007047000008B509F0DEFB0121042007F0DB
:1002A00043F90121084607F03FF90121264806F0ED
:1002B00050FF10208DF803004FF41040ADF80000FF
:1002C00003208DF802006946204806F071FE4FF4C5
:1002D00010411E4806F019FF08BD10B54FF4FA7022
:1002E00000F036F84FF4FA7000F032F84FF4FA707C
:1002F00000F02EF84FF4FA7000F02AF84FF40041A5
:10030000124806F004FF4FF48051104806F0FFFE3B
:100310004FF4FA7000F01CF84FF4FA7000F018F87F
:100320004FF4FA7000F014F84FF4FA7000F010F87F
:100330004FF40041054806F0E8FE4FF40041034841
:1003400006F0E3FE10BD000000023000000801408E
:10035000014601224FF0E0231A6142F228324A435B
:100360005A6100229A6100BF4FF0E022106900F04C
:1003700001021AB100F48032002AF5D000224FF0B9
:10038000E0239A611A617047014601224FF0E02391
:100390001A6101EBC1025A6100229A6100BF4FF05D
:1003A000E022106900F001021AB100F48032002A44
:1003B000F5D000224FF0E0239A611A61704710B522
:1003C00006F044FF4FF4803006F060FF00BF06F0F7
:1003D0009CFF0128FBD1022007F07CFB102007F0D6
:1003E0008DFB4FF4E0114FF4803006F0B7FF012091
:1003F00006F0C0FF00BF392006F06BFF0028FAD0DE
:10040000002006F0C8FF002006F0D7FF4FF4806000
:1004100006F0CAFF4FF4004006F0EAFF022007F0A2
:1004200059FB002007F05FFB102007F067FB02205C
:1004300006F0A3FF10BD000010B55821EE2006F015
:10044000D1FC10BD70B5014600230126887B00F069
:100450000F05C88900F47F40C881002204E031F80C
:10046000120000B10026521C082AF8DB0EB1012050
:1004700070BD002218E002F0010020B1501011F808
:100480001000434004E0501031F8100083EA2023AC
:10049000082406E003F4004008B183F4C0535B0075
:1004A000641E002CF6DC521C102AE4DBC8892843A9
:1004B000C881C3F30330854201D10020D8E7012071
:1004C000D6E738B5044600200090A02000EB440099
:1004D000C1B26B460222EE2006F0C3FC9DF801007B
:1004E0009DF8001040EA012038BD10B51E21EE2015
:1004F00006F078FC0A20FFF72BFF10BD38B50A2064
:10050000FFF726FF6B460122A021EE2006F0A9FC92
:100510000020E749487001200870FFF7E6FF6420DB
:10052000FFF716FF002408E060B2FFF7CAFFE049BA
:100530000C3121F81400601CC4B2082CF4DBDC4838
:100540000C30FFF77FFF08B1002038BDFFF774FFC4
:100550000120FAE708B56B4603220021EE2006F0E1
:1005600080FC9DF8000000049DF8011040EA012085
:100570009DF80210084308BD10B54821EE2006F092
:1005800031FC10BD2DE9F04F85B00446E18A4FF4EF
:100590008072A1FB02126068B0EB0109218A4FF062
:1005A00000004FEA004040EA11404FEA0142A18AB0
:1005B0004FF000034FEAE97CA1FB09AB03FB09B351
:1005C00001FB0C334FEADA1141EA4361511840EB69
:1005D000E310CDE90210E1894FF000004FEAC0308E
:1005E00040EA51404FEAC132618A4FF000034FEABE
:1005F000E97CA1FB09AB03FB09B301FB0C334FEA18
:100600001A2141EA0361511840EB2320CDE9001083
:10061000208B4FF000024FEAE973A0FB091C02FB9C
:1006200009C200FB03224FEAD15040EA42214FEABF
:10063000E2504FF4FA63CD1840F100061946691AEA
:1006400076F100005FDA19466F1A66F1000805219D
:100650000022A7FB010308FB013107FB0212014640
:100660003846A1FB003A02FB07A008FB01081F4621
:100670005FEA68024FEA3703DDE90201C01A61EB65
:100680000201CDE90201B80840EA8870DDE90012F4
:10069000081A62EBA802CDE900028649691A76F1D0
:1006A000FF3030DA40F2DC516F1846F1000838466E
:1006B000A0FB002308FB003308FB0738174607217F
:1006C0000020A7FB012308FB013107FB0013DDE934
:1006D0000210891A60EB0300CDE902100B22002101
:1006E0003B46A3FB02CA08FB02A007FB01016046D0
:1006F0005FEA610C4FEA3003DDE90020D11A60EBBC
:100700000C00CDE900100023A068DDE90012A0FB79
:1007100001CA03FB01A100FB02104FEA5C5141EA50
:10072000C0234115DDE90202181A61EB0201C00B7A
:1007300040EA41400490049809F09DFC2062E56184
:1007400005B0BDE8F08F38B50446207801287AD18D
:1007500059480088502190FBF1F201FB120020B9AA
:100760004FF40041554806F0D2FC53480088502110
:1007700090FBF1F201FB1200282804D14FF4004154
:100780004E4806F0C2FC4C480088C82805DA4A48A2
:100790000088401C4849088038BD4948007809282D
:1007A00044DD4748007809F066FC0546294645487F
:1007B000006809F091FA60620120607000202070EA
:1007C000606A20620020A0620021204603F04AFBFC
:1007D000E06A6063002020633B4908603B49086091
:1007E0003B4908603949086033490880344908703A
:1007F0003449086001203749C874206A09F05EFC5A
:100800004FF6FF7101EA2040ADF80000206A09F0C0
:1008100055FC80B2ADF8020001212F4802F094FB94
:10082000022269462C4802F0AEFB0CE02448007816
:10083000401C234908702348216A006809F0C2F966
:1008400020490860A8E700BFA6E710B5234908883B
:1008500000EBD0714910A0EB410131B9FFF77AFEEE
:1008600013494860FFF788FE1CE01C49088800EB2C
:10087000D0714910A0EB4101012913D1FFF76AFEA5
:100880000B4988600846FFF77DFE0121084803F008
:10089000E9FA07480078012802D10548FFF753FF1D
:1008A000FFF7CAFD0D480088401C0C49088010BDA8
:1008B0008C03002024FAFFFF000000200008014004
:1008C00002000020040000203C0100204401002020
:1008D000240100205804002000A001080800002086
:1008E00070B58C48007818B18A480078012827D163
:1008F0008948807801281BD18748C078012817D102
:1009000086484078012813D18548407801280FD1C6
:100910008448007802280BD1834890F856000128BB
:1009200006D17C48007830B901207A49087002E08D
:1009300000207849087000217C4804F069FB70BDF4
:1009400074480078022831D10221784804F060FB15
:1009500004F049FF7649886B09F015FC21F000414D
:1009600004460022734B09F021FC1BD87049C86B68
:1009700009F009FC21F00041044600226D4B09F00A
:1009800015FC0FD86C480088401C6B49088008464D
:100990000088B0F5487F08D90020088003205D4911
:1009A000087002E0002064490880C8E759480078D0
:1009B000052806D104F017FF05215C4804F028FB48
:1009C000BDE75448007803287ED15949886B09F067
:1009D000DAFB21F0004104460022584B09F0FEFBEF
:1009E0000BD35349C86B09F0CEFB21F000410446FC
:1009F0000022524B09F0F2FB0ED251480088401CF5
:100A00004F49088008460088C82808D90020088077
:100A100005204049087002E0002049490880494803
:100A20000088494908804948C069494908604948DF
:100A3000C06948604848C06988604348008809F038
:100A40001AFB04464548C169204609F0BBF84049F5
:100A5000C8600A461168D06809F0B4F806463C48F8
:100A60004168304609F0AEF80546394881682846A5
:100A700009F0FAF8044609F03AFB2C490880344A98
:100A80001168D06809F0F0F80646314841683046F0
:100A900009F098F805462E488168284609F092F832
:100AA000044609F024FB21494880294A1168D0688E
:100AB00009F0DAF8064626484168304609F0D4F8CD
:100AC00005462348816800E021E0284609F0CCF87B
:100AD000044609F00CFB154988801D4A1168D0684E
:100AE00009F070F806461A484168304609F0BCF82B
:100AF000054617488168284609F064F8044609F05D
:100B0000F6FA0A49C8800321084804F081FA00BFB8
:100B100015E770470C000020F8060020B8060020FA
:100B20008C030020E502002072050020D602002080
:100B30004C000020000024401A0000200000394032
:100B40001000002030040020180000207C08002045
:100B50001C0900209C080020BC080020FC08002084
:100B6000704708B50121042006F0DEFC4FF4006058
:100B7000ADF8000010208DF8030003208DF802006E
:100B80006946C84806F014FA4FF40061C54806F0FB
:100B9000BEFA4FF48070ADF8000010208DF803000D
:100BA00003208DF802006946BE4806F001FA4FF4B2
:100BB0008071BC4806F0A9FA04F066FE4FF480711B
:100BC000B84806F0A2FA08BD2DE9F04107460C46E8
:100BD00015464FF48071B34806F099FA384604F090
:100BE00094FE8046002606E0002004F08EFE207071
:100BF000641C701CC6B2AE42F6DB4FF48071A9488B
:100C000006F083FA4046BDE8F0812DE9F041074641
:100C10000C4615464FF48071A24806F078FA384623
:100C200004F073FE8046002605E0207804F06DFE97
:100C3000641C701CC6B2AE42F7DB4FF48071994859
:100C400006F063FA4046BDE8F0811FB596A103C9DE
:100C5000CDE90201052202A93020FFF7D6FF0522C7
:100C600069461020FFF7B0FF002408E01DF80400DB
:100C700002A9095D884200D003E0601CC4B2052CC3
:100C8000F4DB00BF052C02D0002004B010BD012011
:100C9000FBE770B505460C464FF48071814806F0BD
:100CA00036FA284604F031FE0646204604F02DFEB2
:100CB0004FF480717B4806F028FA304670BD70B55D
:100CC00004464FF48071774806F021FA204604F07C
:100CD0001CFE002004F019FE05464FF48071714897
:100CE00006F013FA284670BD10B54FF400616D4848
:100CF00006F00DFA0A20FFF72BFB01212120FFF758
:100D0000C8FF01212220FFF7C4FF03212320FFF7A2
:100D1000C0FF052266492A20FFF777FF0121252021
:100D2000FFF7B7FF26210846FFF7B3FF01213C205C
:100D3000FFF7AFFF06213D20FFF7ABFF0F2120207B
:100D4000FFF7A7FF4FF40061564806F0DEF910BD2B
:100D500010B54FF40061534806F0D9F90121222063
:100D6000FFF797FF03212320FFF793FF0522514947
:100D70003020FFF74AFF05224D492A20FFF745FFA3
:100D80005A212420FFF785FF01212520FFF781FF4D
:100D900026210846FFF77DFF01213C20FFF779FF60
:100DA00006213D20FFF775FF0E212020FFF771FF80
:100DB00010BD10B54FF400613A4806F0A8F90021C3
:100DC000E120FFF766FF10BD10B54FF40061354814
:100DD00006F09DF91720FFF772FF0446204610BD6C
:100DE00070B504460D464FF400612E4806F08FF9A9
:100DF000FFF7EAFF064606F0200008B1FFF7D9FF2B
:100E00002A462146A020FFF700FF4FF40061254845
:100E100006F07BF9002070BD10B54FF40061214849
:100E200006F075F90021E220FFF733FF10BD10B581
:100E30004FF400611B4806F06AF90720FFF73FFFF7
:100E400004464FF40061174806F05FF9204610BDD4
:100E500070B505460C461646052C01DDFF2070BD19
:100E600004F1A801C8B232462946FFF7CEFE0120A0
:100E7000F5E710B56020FFF722FF10BD10B504465E
:100E8000FFF7F7FFA070A078202803DDFFF7C4FF6D
:100E9000002010BDA27804F124016120FFF794FE28
:100EA0000120F6E700080140AABBCCDDFF000000EE
:100EB00051CD00084CCD000870B505460C462246C1
:100EC00000212846FFF7C4FF70BD2DE9F843804696
:100ED0000E460024AA222146641CF74842542146AB
:100EE000641C425405222146641C425400222146BF
:100EF000641C4254F149404608F0BCFE814609F0AA
:100F0000F6F880B200909DF801202146641CEA4862
:100F100042549DF800202146641C4254E749304663
:100F200008F0A8FE814609F0E2F880B200909DF832
:100F300001202146641CE04842549DF800202046D0
:100F4000611CCCB2DC490A54201FC8700027002560
:100F500005E0D948405D3844C7B2681CC5B2A54217
:100F6000F7DB2046611CCCB2D3490F542146D2484E
:100F7000FFF7A2FFBDE8F8830FB42DE9FE4F002470
:100F8000AA222146641CCC4842542146641C425487
:100F900004222146641C425400222146641C42540F
:100FA0009DF8860002909DF808202146641CC248E6
:100FB00042549DF8300002909DF808202146641CA0
:100FC000BD4842549DF8870002909DF808202146B4
:100FD000641CB94842540022B94BDDE91D71384602
:100FE00008F05FFF824609F0B5F800909DF80320F5
:100FF0002046611CCCB2B0490A549DF8022020461C
:10100000611CCCB2AC490A549DF801202046611CF9
:10101000CCB2A9490A549DF800202146601CC4B2F4
:10102000A54842549DF87C902046611CCCB2A24950
:1010300001F80090DDF87D70DDF881100022A04BF2
:10104000384608F02EFF824609F084F800909DF89B
:1010500003202046611CCCB297490A549DF8022017
:101060002046611CCCB294490A549DF801202046C8
:10107000611CCCB290490A549DF800202046611CA6
:10108000CCB28D490A549DF885902046611CCCB2A3
:10109000894901F80090DDF89B008A4908F0EAFDD3
:1010A000074609F00BF800B201909DF80520204694
:1010B000611CCCB280490A549DF804202046611C72
:1010C000CCB27D490A54DDF8AF007C4908F0D2FD6E
:1010D000074608F0F3FF00B201909DF80520214675
:1010E000601CC4B2744842549DF804202046611C20
:1010F000CCB271490A549DF871000830C0B2029018
:101100009DF808202046611CCCB26B490A549DF81A
:10111000720002909DF808202046611CCCB26649FE
:101120000A549DF8730002909DF808202046611C27
:10113000CCB261490A54201FC8700026002505E082
:101140005D48405D3044C6B2681CC5B2A542F7DBBD
:101150002046611CCCB258490E5421465648FFF730
:10116000ABFEBDE8FE0F5DF814FB2DE9F84F064617
:101170000F4690469946DDF828B00024AA22214661
:10118000641C4D4842542146641C425402222146AC
:10119000641C425400222146641C425400969DF86F
:1011A00001202146641C42549DF800202146641C05
:1011B000425400979DF801202146641C42549DF83A
:1011C00000202046611CCCB23B490A54CDF8008077
:1011D0009DF801202046611CCCB237490A549DF885
:1011E00000202046611CCCB233490A54CDF800904F
:1011F0009DF801202046611CCCB22F490A549DF86D
:1012000000202046611CCCB22B490A54CDF800B016
:101210009DF801202046611CCCB227490A549DF854
:1012200000202046611CCCB223490A540B98009040
:101230009DF801202046611CCCB21F490A549DF83C
:1012400000202046611CCCB21B490A540C98009027
:101250009DF801202046611CCCB217490A549DF824
:1012600000202046611CCCB213490A540D9800900E
:101270009DF801202046611CCCB20F490A549DF80C
:1012800000202046611CCCB20B490A540E980090F5
:101290009DF801202046611CCCB207490A549DF8F4
:1012A00000202046611CCCB203490A54201FC8709C
:1012B0004FF0000A00250EE0100400200000C84294
:1012C00080842E4100002041F748405D504400F0EA
:1012D000FF0A681CC5B2A542F6DB2046611CCCB2F1
:1012E000F14901F800A02146EF48FFF7E5FDBDE810
:1012F000F88F2DE9FE4F82460E4617469846DDF8D8
:1013000030B00024A146AA222146641CE64842547B
:101310002146641C425401222146641C425400228E
:101320002146641C4254E149504608F0A3FC009059
:1013300008F0C4FE00B202909DF809202146641C0A
:10134000D94842549DF808202146641C4254D7498C
:10135000304608F08FFC009008F0B0FE00B202901A
:101360009DF809202146641CCF4842549DF808206E
:101370002046611CCCB2CC490A54CC49384608F00E
:1013800079FC009008F09AFE00B202909DF80920C6
:101390002046611CCCB2C4490A549DF8082020465E
:1013A000611CCCB2C0490A54C049404608F062FCF6
:1013B000009008F083FE01909DF807202046611CF4
:1013C000CCB2B9490A549DF806202146601CC4B22B
:1013D000B54842549DF805202046611CCCB2B24964
:1013E0000A549DF804202046611CCCB2AE490A5430
:1013F000AE49584608F03EFC009008F05FFE00B28F
:1014000002909DF809202046611CCCB2A6490A54DE
:101410009DF808202046611CCCB2A3490A542146FD
:10142000621CD4B2A04A0D9850542146621CD4B21A
:101430009D4A0E985054201F1146C870002506E0A2
:101440009948405D484400F0FF09681CC5B2A542B8
:10145000F6DB2046611CCCB2934901F8009021468E
:101460009148FFF729FDBDE8FE8F2DE9F0410546C3
:101470000E460027AA208C4908704870EF2088701B
:101480000220C870084605714671002405E08648B0
:10149000005D3844C7B2601CC4B2062CF7DB82483A
:1014A00087710721FFF708FDBDE8F0810FB42DE932
:1014B000F843064600240027AA222146641C7A48E5
:1014C00042542146641C425406F10F00C2B2214628
:1014D000641C7548425400222146641C42547449DD
:1014E000099808F0C7FB804608F0E8FD00B20090BC
:1014F0009DF801202146641C6B4842549DF8002051
:101500002146641C42546A490A9808F0B3FB80469D
:1015100008F0D4FD00B200909DF801202146641C23
:10152000614842549DF800202146601CC4B25E48C8
:1015300042545F490B9808F09DFB804608F0BEFDC1
:1015400000B200909DF801202146601CC4B25648AC
:1015500042549DF800202046611CCCB252490A54E6
:101560005349119808F086FB804608F0A7FD00B2A9
:1015700000909DF801202046611CCCB24A490A54D3
:101580009DF800202046611CCCB247490A544849C6
:10159000129808F06FFB804608F090FD00B20090B2
:1015A0009DF801202046611CCCB23F490A549DF8A9
:1015B00000202046611CCCB23B490A543C49139898
:1015C00008F058FB804608F079FD00B200909DF8C5
:1015D00001202146601CC4B2334842549DF80020CB
:1015E0002046611CCCB230490A543149199808F0A0
:1015F00041FB804608F062FD00B200909DF801209A
:101600002046611CCCB228490A549DF8002020468F
:10161000611CCCB224490A5425491A9808F02AFBC7
:10162000804608F04BFD00B200909DF80120204656
:10163000611CCCB21C490A549DF800202046611C54
:10164000CCB219490A541A491B9808F013FB80467A
:1016500008F034FD00B200909DF801202046611C86
:10166000CCB211490A549DF800202046611CCCB22E
:101670000D490A54201FC870002505E00A48405D46
:101680003844C7B2681CC5B2A542F7DB2046611CCE
:10169000CCB205490F5421460348FFF70DFCBDE8C5
:1016A000F8035DF814FB0000100400200000C8429D
:1016B00000007A442DE9F04105460E460027AA2095
:1016C000FE4908704870EE2088700220C8700846F5
:1016D00005714671002405E0F848005D3844C7B242
:1016E000601CC4B2062CF7DBF44887710721FFF7B2
:1016F000E3FBBDE8F08130B5BFB004460CB9FF2C68
:101700007ED0EF48007C48B9ED48407C30B9EC48C9
:10171000807C18B9EA48C07C002859D0E848007C91
:10172000E0B1E848807838B10020E549087401212B
:101730000846FFF7BFFF49E0E3480078E34909782E
:10174000E34A1268E34BCDE9002102901A6C996BD1
:10175000D86BE14B1B68FFF7CCFD37E0D848407CE5
:1017600078B1D848C07838B10020D54948740121F3
:101770000220FFF79FFF29E0E1210220FFF79AFFF7
:1017800024E0CF48807C78B1D448407838B100203C
:10179000CB49887401210320FFF78CFF16E0E1217B
:1017A0000320FFF787FF11E0C548C07C70B1CC482B
:1017B000407838B10020C249C87401210420FFF7E5
:1017C00079FF03E0E1210420FFF774FF3FB030BD53
:1017D000BB48007930B9BA48407918B9B84880791F
:1017E000002855D0B6480079D0B10020B44908711E
:1017F0002022BC490DA808F0AFF92022BA4900E028
:101800001AE105A808F0A8F91422B849684608F0BA
:10181000A3F9B6480C380EC80120FFF747FE36E0A2
:10182000A7484079C0B10020A54948712022B0499D
:101830000DA808F091F92022AE4905A808F08CF90E
:101840001422AD49684608F087F9AB480C380EC839
:101850000220FFF72BFE1AE099488079B8B10020EA
:10186000974988712022A5490DA808F075F9202212
:10187000A24905A808F070F91422A149684608F0A9
:101880006BF99F480C380EC80320FFF70FFE9DE749
:101890008B48407B28B98A48807B10B98848C07B38
:1018A00018B38748407B40B100208549487395486C
:1018B00001781020FFF7D9FD16E08148807B40B108
:1018C00000207F4988738F4841781120FFF7CDFDB4
:1018D0000AE07B48C07B38B100207949C873894849
:1018E00081781220FFF7C1FD70E7874800788749AB
:1018F000097890FBF1F201FB120185480078401E47
:10190000814203D101206E49487031E07E48007861
:101910007E49097890FBF1F201FB12017D480078C5
:10192000401E814203D101206549887020E076483D
:1019300000787649097890FBF1F201FB12017648B4
:101940000078401E814203D101205D49C8700FE03C
:101950006D4800786D49097890FBF1F201FB1201A6
:101960006E480078401E814202D10120544908731C
:1019700065480078401C6449087051484078A0B11F
:1019800000204F4948705048007850490978504A23
:101990001268504BCDE9002102901A6C996BD86BFC
:1019A0004D4B1B68FFF7A5FC46E04548807810B317
:1019B0000020434988704948B0F908004749B1F907
:1019C0000610464AB2F904203E4BB3F91230CDE975
:1019D0000132CDE903103B48B0F91000394D0090B9
:1019E000B5F90E30B5F90A20B5F90810B5F90600B9
:1019F000FFF7BBFB20E03248C07890B100203049AF
:101A0000C87073224649684608F0A6F88322444904
:101A100010391EA808F0A0F81EA80FC8FFF7ACFAEE
:101A20000AE02748007B38B10020254908733D4A69
:101A300091685068FFF749FA00BFC7E603B587B061
:101A400007988078102871D107980079000200B2B9
:101A5000079949790843009008F004FB3249019046
:101A600008F008F921490C390860079880790002CC
:101A700000B20799C9790843009008F0F3FA2A499F
:101A8000019008F0F7F819490C3948600798007A76
:101A9000000200B20799497A0843009008F0E2FA80
:101AA0002149019008F0E6F810490C398860079840
:101AB000807A000200B20799C97A38E01004002049
:101AC00058040020F80600200C0000200D00002023
:101AD000440100204C0000203C010020B8060020FA
:101AE0008C030020BC0800207C080020A8080020EF
:101AF0005C0800201C08002048080020DC080020AA
:101B0000080900201C0000202700002028000020D9
:101B1000290000202A0000202B0000202C0000209B
:101B200082050020441200206F12833AD4E008435B
:101B3000009008F097FAFE49019008F09BF8FD49E3
:101B400008600798007B000200B20799497B0843B0
:101B5000009008F087FAF649019008F08BF8F549F3
:101B600048600798807B000200B20799C97B084350
:101B7000009008F077FAEE49019008F07BF8ED4903
:101B800088600798007C000200B20799497C0843EE
:101B9000009008F067FAE649019008F06BF8E64912
:101BA00008600798807C000200B20799C97C08434E
:101BB000009008F057FADE49019008F05BF8DE4922
:101BC00048600798007D000200B20799497D0843EC
:101BD000009008F047FAD649019008F04BF8D64932
:101BE0008860D6480068D649009008F043F8019014
:101BF00008F07DFA80B2ADF80800D0484068D049BE
:101C0000009008F037F8019008F071FA80B2ADF852
:101C10000A00CA488068CA49009008F02BF8019071
:101C200008F065FA80B2ADF80C00C2480068C449FB
:101C3000009008F01FF8019008F059FA80B2ADF852
:101C40000E00BC484068BE49009008F013F80190AF
:101C500008F04DFA80B2ADF81000B6488068B84977
:101C6000009008F007F8019008F041FA80B2ADF852
:101C70001200B1480068B249009007F0FBFF0190E4
:101C800008F035FA80B2ADF81400AB484068AC49B2
:101C9000009007F0EFFF019008F029FA80B2ADF84C
:101CA0001600A5488068A649009007F0E3FF019060
:101CB00008F01DFA80B2ADF818000121A14801F02A
:101CC00043F9092202A99F4801F05DF901209E49CC
:101CD00048739E49089808700798807811287CD12D
:101CE00007980079000200B20799497908430090EB
:101CF00008F0B8F98E49019007F0BCFF94490860DC
:101D000007988079000200B20799C97908430090CA
:101D100008F0A8F98649019007F0ACFF8C494860AB
:101D20000798007A000200B20799497A08430090A8
:101D300008F098F97E49019007F09CFF844988607B
:101D40000798807A000200B20799C97A0843009088
:101D500008F088F97649019007F08CFF7D4908600A
:101D60000798007B000200B20799497B0843009066
:101D700008F078F96E49019007F07CFF75494860DA
:101D80000798807B000200B20799C97B0843009046
:101D900008F068F96649019007F06CFF6D498860AA
:101DA0000798007C000200B20799497C0843009024
:101DB00008F058F95E49019007F05CFF6649086039
:101DC0000798807C000200B20799C97C0843009004
:101DD00008F048F95649019000E08BE007F04AFF0F
:101DE0005D4948600798007D000200B20799497D6F
:101DF0000843009008F036F94D49019007F03AFF8A
:101E000055498860524800684D49009007F032FFFC
:101E1000019008F06CF980B2ADF808004C484068B9
:101E20004749009007F026FF019008F060F980B262
:101E3000ADF80A00464880684149009007F01AFF53
:101E4000019008F054F980B2ADF80C0041480068E8
:101E50003B49009007F00EFF019008F048F980B26E
:101E6000ADF80E003B4840683549009007F002FF8E
:101E7000019008F03CF980B2ADF810003548806858
:101E80002F49009007F0F6FE019008F030F980B27B
:101E9000ADF81200304800682949009007F0EAFECA
:101EA000019008F024F980B2ADF814002A48406887
:101EB0002349009007F0DEFE019008F018F980B287
:101EC000ADF81600244880681D49009007F0D2FE46
:101ED000019008F00CF980B2ADF81800092202A9AF
:101EE0001848123001F04FF801201749887317493C
:101EF000089848700798807812287DD10798007953
:101F0000000200B2079949790843009008F0AAF846
:101F10000749019007F0AEFE1049086007988079E4
:101F2000000200B20799C9790843009018E0000048
:101F30006F12833A7C080020BC0800209C08002017
:101F400000007A4400A40108580400201C0000206E
:101F50003C0800201C0800205C080020FC08002031
:101F600008F080F8C249019007F084FEC14948603A
:101F70000798007A000200B20799497A0843009056
:101F800008F070F8BA49019007F074FEB94988600A
:101F90000798807A000200B20799C97A0843009036
:101FA00008F060F8B249019007F064FEB249086099
:101FB0000798007B000200B20799497B0843009014
:101FC00008F050F8AA49019007F054FEAA49486069
:101FD0000798807B000200B20799C97B08430090F4
:101FE00008F040F8A249019007F044FEA249886039
:101FF000A0480068A14900E073E0009007F03AFEB5
:10200000019008F074F880B2ADF808009948406873
:102010009A49009007F02EFE019008F068F880B20F
:10202000ADF80A00934880689449009007F022FEBA
:10203000019008F05CF880B2ADF80C008E480068A2
:102040008E49009007F016FE019008F050F880B21B
:10205000ADF80E00884840688849009007F00AFEF5
:10206000019008F044F880B2ADF810008248806812
:102070008249009007F0FEFD019008F038F880B228
:10208000ADF812007C4800687C49009007F0F2FD32
:10209000019008F02CF880B2ADF814007648406842
:1020A0007649009007F0E6FD019008F020F880B234
:1020B000ADF81600704880687049009007F0DAFDAE
:1020C000019008F014F880B2ADF81800092202A9B6
:1020D0006B4800F058FF01206A49C8736A490898A4
:1020E000887009B000BD817803291BD1417902793C
:1020F00041EA022109B2654A1180C179827941EA37
:10210000022109B2614A5180417A027A41EA0221F0
:1021100009B25E4A9180C17A827A41EA022109B20B
:102120005A4AD1807047817802290BD1017901295F
:1021300007D10421564A11700121524A117151717F
:10214000917100BF704701468878012839D1504805
:10215000007818B14E480078012821D1087901286B
:1021600004D14C4A10700020907019E008790228C0
:1021700005D10120474A50700020D07010E0087946
:10218000032805D10120444A10700020507007E058
:102190000879042804D10120404A107000205070B2
:1021A0000879A02803D10020394A107009E0087985
:1021B000A12806D136480078012802D10220344AED
:1021C0001070087970472DE9F04104460D4600264D
:1021D000002704E0E05D3044C6B2781CC7B2681E38
:1021E000B842F7DC2E4806710079611911F8011C1C
:1021F000884202D00020BDE8F0816078217840EA72
:10220000012027490880084600884AF6AF21884205
:1022100001D0FF20EFE7A078214988700846807838
:10222000012803D12046FFF78EFF1FE01C4880786D
:10223000022803D12046FFF776FF17E01848807880
:10224000032803D12046FFF74EFF0FE014488078A3
:10225000102807D012488078112803D010488078C1
:10226000122803D131462046FFF7E8FB0120C2E7E0
:102270006F12833AFC080020DC08002000007A443A
:1022800024A40108580400201C0000203004002071
:102290000C000020F8060020B80600208C03002067
:1022A0002000002010B50246012000E050430B1E24
:1022B000A1F10104E1B2F9D110BD2DE9F34F81B0D4
:1022C00007463C4600200090834681460026804613
:1022D00028E020782D2802D148F00208641C2078DC
:1022E0002C2802D020782A2800D11CE020782E2823
:1022F00003D148F00108641C09E02078392802DC89
:102300002078302803DA4FF0000900260BE008F0AF
:10231000010010B1701CC6B203E009F1010000F029
:10232000FF09641CD5E700BF08F0020000B17F1C64
:1023300000250EE0A9F10100401BC1B20A20FFF701
:10234000B1FF795D3039009A00FB01200090681CD4
:10235000C5B24D45EEDB052E00DD05260298067060
:1023600000250EE0701E401BC1B20A20FFF79AFF45
:1023700009F101012944795C303900FB01BB681C7B
:10238000C5B2B542EEDB31460A20FFF78BFF00995C
:1023900001FB00BA08F0020008B1CAF1000A504679
:1023A000BDE8FE8F0246134610E010782A2805D0BB
:1023B0001078202802DB10787A2801DDFF20704792
:1023C00010782C2801D1481EC1B2521C0029ECD132
:1023D000D01AC0B2F3E72DE9F84F04460F46FEA12C
:1023E000384607F0DDFB064601213046FFF7DAFFED
:1023F0000546FF2D17D070196946FFF75EFF80462E
:1024000007F030FE44F8770F9DF800100A20FFF720
:1024100049FF814607F02FFE80462068414607F0BD
:102420005BFC44F8770907213046FFF7BBFF054600
:10243000FF2D22D070196946FFF73FFF804607F055
:1024400011FEC4F87F009DF80000032815DA9DF8FE
:102450000000C0F10300C1B20A20FFF723FF82464B
:1024600007F009FE8146DD4907F036FC8046D4F8C6
:102470007F1007F0FFFBC4F87F00BDE8F88F2DE95F
:10248000F04F87B004468A46D5A1504607F088FB36
:10249000814601214846FFF785FF0546FF2D24D0E0
:1024A00009EB050006A9FFF708FF07469DF818107D
:1024B0000A20FFF7F7FEB7FBF0F642F21070B6FB0A
:1024C000F0F0C1B2412001556420B6FBF0F0642168
:1024D000B0FBF1F201FB1201422001556420B6FB72
:1024E000F0F100FB11614320015503214846FFF73D
:1024F00059FF0546FF2D5ED009EB050006A9FFF741
:10250000DCFE06469DF81800801CC1B20A20FFF7C9
:10251000C9FEB6FBF0F7384607F0C3FD6064A1645E
:102520009DF81800801CC1B20A20FFF7BBFEB6FB65
:10253000F0F100FB1167384607F09DFD83469DF8DA
:102540001800C0F10500C1B20A20FFF7ABFE0090F1
:1025500007F091FD8046594607F08CFB0746A149DC
:1025600007F0BAFB019007F00EFECDE9040105214A
:102570000A20FFF797FE019007F093FD0746884673
:10258000616CA06C0A460346CDE90010384641460E
:1025900007F087FCCDE90201DDE9042307F0DAFB4F
:1025A0006064A164676CA16C00228F4B384607F011
:1025B000EAFC6064A16404214846FFF7F3FE054687
:1025C000FF2D03D019F8050084F84C00052148467A
:1025D000FFF7E8FE0546FF2D60D009EB050006A9D0
:1025E000FFF76BFE06469DF81800801CC1B20A205A
:1025F000FFF758FEB6FBF0F7384607F052FD44F8F7
:102600004D0F61609DF81800801CC1B20A20FFF7D1
:1026100049FEB6FBF0F100FB1167384607F02BFDD1
:1026200083469DF81800C0F10500C1B20A20FFF7EB
:1026300039FE009007F01FFD5946019007F01AFB84
:102640008046684907F048FB074607F09CFDCDE946
:10265000040105210A20FFF725FE019007F021FD66
:1026600007468846216860680A460346CDE900109F
:102670003846414607F015FCCDE90201DDE90423A7
:1026800007F068FB20606160276861680022564B94
:10269000384607F078FC206061604D3C06214846D2
:1026A000FFF780FE0546FF2D03D019F8050084F8DA
:1026B000550009214846FFF775FE0546FF2D1FD03E
:1026C00009EB050006A9FFF7F8FD064642F2107077
:1026D000B6FBF0F0C1B2402001556420B6FBF0F02B
:1026E0006421B0FBF1F201FB12013F20015564208F
:1026F000B6FBF0F100FB116000F5FA60A4F83D00B4
:102700000A214846FFF74EFE0546FF2D09D009EB8A
:10271000050006A9FFF7D1FD074607F0A3FCC4F8A2
:102720007B0007B0BDE8F08F2DE9F84305468846E9
:102730002EA1404607F034FA064602213046FFF744
:1027400031FE0446FF2C05D030196946FFF7B5FD70
:1027500085F86400002713E0F81CC1B23046FFF78B
:1027600021FE0446FF2C08D030196946FFF7A5FD6D
:10277000C1B205F15800C15500E003E0781CC7B2B2
:102780000C2FE9DB00BF0F213046FFF70BFE04469C
:10279000FF2C05D030196946FFF78FFDA5F86500BD
:1027A00010213046FFF7FEFD0446FF2C05D03019FE
:1027B0006946FFF782FDA5F8670011213046FFF753
:1027C000F1FD0446FF2C05D030196946FFF775FD71
:1027D000A5F86900BDE8F8835654470000007A4424
:1027E000524D430000007042006AF84047534100D8
:1027F0002DE9F84305460F46FCA1384607F0D0F90D
:10280000064606213046FFF7CDFD0446FF2C05D0D5
:1028100030196946FFF751FD85F85600072130460B
:10282000FFF7C0FD0446FF2C05D030196946FFF7BD
:1028300044FD85F8570009213046FFF7B3FD0446F3
:10284000FF2C0CD030196946FFF737FD814607F0A1
:1028500009FC8046E64907F03FFAC5F86B00BDE881
:10286000F8832DE9FC5F07468A464FF00008CDF853
:1028700004A0E0A1019807F093F90646F0793038FA
:1028800000F0FF0B03213046FFF78CFD0546FF2DBE
:1028900004D070196946FFF710FD38704FF0000939
:1028A0006CE0D4A1019807F07BF9064600245CE0B7
:1028B000042000EB8400C1B23046FFF773FD0546EB
:1028C000FF2D09D070196946FFF7F7FCC1B208EB7C
:1028D0008802781C815400E049E0052000EB840068
:1028E000C1B23046FFF75EFD0546FF2D0AD07019D4
:1028F0006946FFF7E2FCC1B208EB8802781C10447D
:10290000417000E033E0062000EB8400C1B23046A5
:10291000FFF748FD0546FF2D0AD070196946FFF7FD
:10292000CCFC81B208EB8802781C1044418000E0A6
:102930001DE0072000EB8400C1B23046FFF732FDF6
:102940000546FF2D0AD070196946FFF7B6FCC1B2E3
:1029500008EB8802781C1044017100E007E008F1E0
:10296000010000F0FF08601CC4B2042CA0DB00BF13
:10297000701C019009F1010000F0FF09D94590DBBE
:10298000BDE8FC9F2DE9FC5F044689464946204688
:10299000FFF767FF49462046FFF72AFF49462046D2
:1029A000FFF7C2FE49462046FFF769FD494620462B
:1029B000FFF711FD4FF48061484607F0E6F894F800
:1029C000560000287ED08D4890F83800002859D154
:1029D0008B480078401C8A490870656CA36C2A46B5
:1029E000884903C907F0B6F9864A03C2D4F84D50A6
:1029F000D4F851302A46844903C907F0ABF9824A1A
:102A000003C2D4F86B108148006807F0DBF87F49F7
:102A100008607B480078142834D17948007807F0A2
:102A200040FB05462A460B46764903C907F0ABFA38
:102A3000724AC2E902017248007807F032FB05468B
:102A40002A460B46704903C907F09DFA6B4A03C238
:102A50006B48007807F00FFB054629466B48006875
:102A600007F03AF9654908610021664A1160516032
:102A7000654A1160516000206449086001205F4987
:102A800081F838005D4890F8380001283FD1606C2B
:102A9000A16C5A4AC2E90801D4F84D00D4F851108B
:102AA000C2E90601D4F86B00114688620846D0E9F5
:102AB00002532A46D0E90871384607F0ECF98246FD
:102AC000002200E023E0524B07F0EBF9CDE90001D2
:102AD00007F09CFB494908630846D0E900532A46A1
:102AE000D0E90671384607F0D6F982460022484BF5
:102AF00007F0D7F9CDE9000107F088FB3F49C8622C
:102B00000A461169906A07F0AFF83C494863BDE88E
:102B1000FC9F2DE9FC413F4890F80101012864D158
:102B200000203C4981F80101491C3B48FFF72AFF7E
:102B3000394890F8560020B938A007F0BBFDBDE831
:102B4000FC81354890F86400022803D139A007F0D1
:102B5000B1FD07E0304890F86400032802D13AA0A4
:102B600007F0A8FD2C4890F8640001283CD02A48C2
:102B70004D3002684168104607F048FB0746374968
:102B800007F0AAF8044607F0FEFA05462A460B4667
:102B900033A007F08FFD2048426C816C104607F08F
:102BA00035FB07462D4907F097F8044607F0EBFA86
:102BB00005462A460B462EA007F07CFD1649D1F8A3
:102BC0006B000B4907F088F8064607F0DCFA04466C
:102BD0000B4611480078104991F857102246CDE96C
:102BE000001027A007F066FD63E05FE04747410063
:102BF000000020412447504753560000F8050020AC
:102C00003000002038000020400000204800002054
:102C10008019FB4070040020720500204C6F636136
:102C200074696F6E20756E6365727461696E2021C0
:102C30000A0000004C6F636174696F6E206D6F64F1
:102C400065203A32440A00004C6F636174696F6E0C
:102C5000206D6F6465203A33440A00000050C3477A
:102C60006C6F6E6769747564653A25660A000000CA
:102C70006C617469747564653A25660A0000000029
:102C8000616C7469747564653A252E32666D202016
:102C900020706F73736C6E756D3A256420202073FD
:102CA000766E756D3D25640A000000009EA007F059
:102CB00001FD00BF43E770B50446002515701D7087
:102CC000002009E01578265C354415701D781678CB
:102CD00035441D70451CA8B28842F3DB70BD70B549
:102CE0000025002604E0681C85B20520FDF730FBB6
:102CF000924890F80101012801D1642DF3DBFA2DEF
:102D00001BDA8E480578002407E08C48401C005DE3
:102D1000B52800D103E0601C84B2AC42F5DB00BFF3
:102D2000AC4201D1022609E08448401CE11C405C11
:102D300008B9032602E0002600E0012600207F49B2
:102D400081F80101304670BD70B57D4C46F2B5206A
:102D5000208040F6061060800D20A0800020C4F87E
:102D600006004FF6FF70C4F80A000020C4F80E00F9
:102D70000420A07404F114035A1E1121A01CFFF7B3
:102D80009AFF00BF6F4800680028FBD115216C48EE
:102D900002F06EFE002505E0FFF7A1FF00B903E099
:102DA000681CC5B2062DF7DB00BF062D01D101203E
:102DB00070BD0020FCE770B505460E46604C46F23B
:102DC000B52020804FF4837060800820A080F02020
:102DD000A071E571012020726672A072E07220730A
:102DE000607304F10F035A1E0C21A01CFFF763FF50
:102DF00000BF544800680028FBD11021504802F061
:102E000037FEFFF76CFF70BD70B505464C4C46F2BF
:102E1000B5202080062060801420A0800120A071B1
:102E20000020E07120814FF40D60C4F80A00C4F85E
:102E30000E5007206082A0820020E082208304F1EF
:102E40001B035A1E1821A01CFFF735FF00BF3D4889
:102E50008438806C0028FAD11C21394802F008FE21
:102E6000C820FDF775FA284602F024FEFFF737FF69
:102E700070BD2DE9F04105460E461746304C46F22E
:102E8000B520208040F2067060801420A080C4F835
:102E90000650C4F80A60A7730020E07320746074C1
:102EA0004FF44D7060820020A082C4F8160004F137
:102EB0001B035A1E1821A01CFFF7FDFE00BF21486E
:102EC0008438806C0028FAD11C211D4802F0D0FD06
:102ED000FFF705FFBDE8F08170B505460E46184CBA
:102EE000C82D01DA012070BD46F2B520208040F6E1
:102EF000060060800620A080E58001202081668198
:102F000004F10D035A1E0A21A01CFFF7D4FE00BFD6
:102F10000C488438806C0028FAD10E21084802F051
:102F2000A7FDFFF7DCFEDEE764617461206E6F745D
:102F3000207265616479210A00000000700400209D
:102F400044090020840002402DE9F04106460F4666
:102F500004F0DFFD352005F077F800240DE006EBE6
:102F6000842004F01BFE0546042D04D004F0DDFD92
:102F70002846BDE8F081601CC4B2BC42EFDB04F01F
:102F8000D4FD0420F5E72DE9F04106460F4615462D
:102F90004FF0000804F0BDFD352005F055F8002481
:102FA0000CE037F8141006EB440004F0FAFE042895
:102FB00002D02046BDE8F081601C84B2AC42F0DB58
:102FC00004F0B3FD2846F5E701460888704730B5A0
:102FD00003460C461546002207E003EB4200FFF7CC
:102FE000F3FF24F81200501C82B2AA42F5D3104617
:102FF00030BD30B503460C461546002207E003EB12
:103000004200FFF7E1FF24F81200501C82B2AA42EE
:10301000F5DB30BD2DE9FE4304460D469046032204
:103020006946F648FFF7D3FFBDF800004FF6FF7181
:10303000884227D0BDF80200884223D0BDF80400A2
:1030400088421FD0BDF8000000B2A082BDF8020087
:1030500000B2E082BDF8040000B220830120A0701D
:1030600000202070B4F91410E5A001F0B7FFB4F906
:103070001610EBA001F0B2FFB4F91810F0A001F0A7
:10308000ADFF06E00020A07001202070F4A001F048
:10309000A5FF03226946FC48FFF799FFBDF8000031
:1030A0004FF6FF7188422AD0BDF80200884226D030
:1030B000BDF80400884222D0BDF8000000B2608351
:1030C000BDF8020000B2A083BDF8040000B2E083A6
:1030D0000120E07000206070B4F91A10EBA001F03C
:1030E0007DFFB4F91C10F0A001F078FFB4F91E10B8
:1030F000F4A001F073FFFAA001F070FF03E00020DC
:10310000E0700120607006226946FE48FFF75FFF0D
:10311000BDF800004FF6FF7188425DD0BDF8020097
:10312000884259D0BDF80400884255D0BDF800004F
:1031300000B2A886BDF8020000B2E886BDF804001F
:1031400000B22887BDF8060006F095FF0646EE4956
:1031500006F0C2FDA862BDF8080006F08CFF064626
:10316000E94906F0B9FDE862BDF80A0006F083FF00
:103170000646E54906F0B0FD28630120687000208E
:103180002870B5F93410E1A001F028FFB5F9361028
:10319000E4A001F023FFB5F93810E8A001F01EFF0C
:1031A000A86A06F0F0FF064632460B46E9A001F099
:1031B00015FFE86A06F0E7FF064632460B46E5A033
:1031C00001F00CFF286B06F0DEFF064632460B4688
:1031D000E0A001F003FF06E00020687001202870E5
:1031E000E1A001F0FBFEBDE8FE8330B585B0092209
:1031F0006946E448FFF7EBFEC4B2092C63D1BDF881
:10320000001008B206F02EFF0546DF4906F032FD39
:10321000DE490860BDF8021008B206F023FF05463B
:10322000D94906F027FDD9494860BDF8041008B215
:1032300006F018FF0546D44906F01CFDD349886006
:10324000BDF8061008B206F00DFF0546CE4906F09F
:1032500011FDCF490860BDF8081008B206F002FF62
:103260000546C94906F006FDC9494860BDF80A107F
:1032700008B206F0F7FE0546C34906F0FBFCC44958
:103280008860BDF80C1008B206F0ECFE0546BE4999
:1032900006F0F0FCBF490860BDF80E1008B206F059
:1032A000E1FE0546B84906F0E5FCBA494860BDF8BC
:1032B000101008B206F0D6FE0546B34906F0DAFC57
:1032C000B449886002E0002005B030BD092269469B
:1032D000AC481230FFF77BFEC4B2092C63D1BDF8B5
:1032E000001008B206F0BEFE0546A74906F0C2FC73
:1032F000A9490860BDF8021008B206F0B3FE054601
:10330000A14906F0B7FCA4494860BDF8041008B212
:1033100006F0A8FE05469C4906F0ACFC9E49886074
:10332000BDF8061008B206F09DFE0546964906F067
:10333000A1FC9A490860BDF8081008B206F092FE98
:103340000546914906F096FC94494860BDF80A107C
:1033500008B206F087FE05468B4906F08BFC8F49C4
:103360008860BDF80C1008B206F07CFE0546864960
:1033700006F080FC8A490860BDF80E1008B206F01D
:1033800071FE0546804906F075FC85494860BDF828
:10339000101008B206F066FE05467B4906F06AFC8E
:1033A0007F49886001E000208EE709226946754860
:1033B0002430FFF70CFEC4B2092C1DD1BDF800105B
:1033C00008B206F04FFE05466F4906F053FC7549FA
:1033D0000860BDF8021008B206F044FE05466A49CE
:1033E00006F048FC6F494860BDF8041008B206F0CA
:1033F00039FE05466449D7E01DE10000009401084C
:10340000696D755F646174612D3E6F735F616363A5
:10341000656C5F78203D20307825780A0000000038
:10342000696D755F646174612D3E6F735F61636385
:10343000656C5F79203D20307825780A0000000017
:10344000696D755F646174612D3E6F735F61636365
:10345000656C5F7A203D20307825780A00000000F6
:10346000696D755F646174612D3E6F735F61636345
:10347000656C5F782F792F7A2061726520656D7099
:103480007479210A0000000000980108696D755FD9
:10349000646174612D3E6F735F6779726F5F78202E
:1034A0003D20307825780A00696D755F646174612C
:1034B0002D3E6F735F6779726F5F79203D203078A2
:1034C00025780A00696D755F646174612D3E6F73C4
:1034D0005F6779726F5F7A203D20307825780A0027
:1034E000696D755F646174612D3E6F735F6779729A
:1034F0006F5F782F792F7A2061726520656D707407
:1035000079210A00009C010800007A446D61672D52
:103510003E786F6666736574203D20307825780AA2
:10352000000000006D61672D3E796F6666736574FB
:10353000203D20307825780A000000006D61672D5D
:103540003E7A6F6666736574203D20307825780A70
:10355000000000006D61672D3E786761696E203D57
:1035600020307825660A00006D6167206F666673FB
:10357000657420646174612061726520656D70748A
:1035800079210A0000A401086F12833A9C080020E8
:103590007C080020BC0800203C0800201C080020FB
:1035A0005C080020FC08002006F064FB24498860C9
:1035B000BDF8061008B206F055FD0546214906F093
:1035C00059FB21490860BDF8081008B206F04AFD11
:1035D00005461C4906F04EFB1B494860BDF80A1021
:1035E00008B206F03FFD0546164906F043FB1649B2
:1035F0008860BDF80C1008B206F034FD054611498C
:1036000006F038FB10490860BDF80E1008B206F04D
:1036100029FD05460B4906F02DFB0B494860BDF816
:10362000101008B206F01EFD0546064906F022FB02
:103630000549886001E0002046E6022044E60000DB
:10364000FC0800206F12833ADC08002070B50446A5
:103650000D464FF08241206806F0FEFD04D30020A5
:10366000216806F0EFFD02D14FF082402060207902
:1036700006F001FD0646216806F0EEFD01D80020A7
:103680002071237904F10C0252F82310A06806F08F
:10369000EBFAA060217904F10C0040F82150237965
:1036A000024652F82310A06806F08CFAA060207938
:1036B000401C20712168A06806F00EFB70BD000060
:1036C00010B50446FE49204606F0C6FD01D2FC4C6A
:1036D00005E0FC49204606F0B5FD00D2F94CFA4958
:1036E000204606F0B9FD04D2F549204606F0BCFAA2
:1036F00010BDF649204606F0A5FD04D2F04920464B
:1037000006F060FAF4E72046F2E72DE9F0470446B8
:103710004FF07C51204606F0ADFA814625462E46F4
:10372000EB48A0EB660635462946484606F0A2FA65
:103730008246294606F09EFA80464FF07F5106F0F9
:1037400096FA0746294606F095FA05462846BDE84A
:10375000F08770B506460D4614462146304606F001
:103760007BFD01D2264605E02946304606F06AFD7B
:1037700000D22E46304670BD0FB400B597B0D54884
:10378000B0F90600089006F06DFC0C90D148B0F935
:103790000800089006F066FC0B90CE48B0F90A00CD
:1037A000089006F05FFC0A902398CB49089006F039
:1037B00061FA0F902498C849089006F05BFA0E90C1
:1037C0002598C549089006F055FA0D90C348007831
:1037D000012806D0C148007818B1C04800780228F6
:1037E0000BD14FF08040BE490863BE4848634FF09C
:1037F0007F508862BB48C86219E0B8480078032847
:1038000015D1B748406B4FF08041089006F01AFD83
:1038100004D10020B249C86108624862B248B04988
:103820000863B2484863B24888620020C862AC4866
:10383000806906900A9906F01DFA0890A848406928
:1038400004900B9906F016FA0690A54800690490BA
:103850000C9906F00FFA0590069906F0B3F9079057
:10386000089906F0AFF916904FF08C41169806F0C3
:10387000FBF99B4948640A99084606F0FBF9079052
:103880000B99084606F0F6F905900C99084606F0E3
:10389000F1F90490059906F095F90690079906F05C
:1038A00091F90890FFF731FF16900C99169806F0E1
:1038B000E1F90C900B99169806F0DCF90B900A9937
:1038C000169806F0D7F90A90854840690146069097
:1038D0000A9806F0CFF90890814880690146069061
:1038E0000B9806F0C7F90790089906F0BDF91590F6
:1038F0007B488069014606900C9806F0BBF9089059
:1039000077480069014606900A9806F0B3F90790D7
:10391000089906F0A9F914907148406B0146079088
:10392000159806F0A7F908906D48C0690146079000
:10393000089806F047F96A49C8610846406B014695
:103940000790149806F096F908906548006A0146B9
:103950000790089806F036F961490862279801280F
:1039600040D10846006C01460790269806F07CF985
:103970000890FFF7A5FE16905948806A5C490890A8
:1039800006F060FC22D15548007803281BD0169819
:1039900006F0F9FB21F000414FF08042554BCDE994
:1039A000040106F07EFACDE9060106F02FFC4C4931
:1039B00088620846806A504A4D490890FFF7C9FE60
:1039C0004749886202E04A48454988624448806A1B
:1039D0000790169906F04EF93F49089006F04AF90B
:1039E000099001E0002009903D48006B0590159971
:1039F00006F040F907903A4800690490099906F0EA
:103A000039F905900F9906F0DDF80690079906F050
:103A1000D9F808903248C06901460790089806F026
:103A2000D1F80F902E48006B0590149906F022F9FA
:103A300007902B4840690490099906F01BF90590FE
:103A40000E9906F0BFF80690079906F0BBF80890AB
:103A50002348006A01460790089806F0B3F80E90D4
:103A60001F4880690790099906F004F908900D999C
:103A700006F0A8F80D901A480068109018484068A1
:103A800011901748806812901548C06813901398D9
:103A900004900D9906F0EEF80690129802900E9997
:103AA00006F0E8F80490119880F0004002900F9919
:103AB00006F0E0F80390049906F0D6F805901DE0B2
:103AC0000000B4430000B4C300003443000034C31A
:103AD000DF59375FF806002039FA8E3C0C000020D1
:103AE0004C0000200AD7A33CCDCC4C3E0AD7233B48
:103AF0000AD7233CE17AA43FCDCCCC3E069906F010
:103B0000B3F8D549079006F0B5F80890109801462B
:103B10000790089806F056F8D0490860139804906A
:103B20000E9906F0A7F80690129802900D9906F0EB
:103B3000A1F80490109802900F9906F09BF803905A
:103B4000049906F03FF80590069906F08DF8C249F1
:103B5000079006F08FF80890119801460790089892
:103B600006F030F8BD494860139804900F9906F0AC
:103B700081F80690119802900D9906F07BF8049058
:103B8000109802900E9906F075F80390049906F0CB
:103B90006BF80590069906F015F8AF49079006F006
:103BA00069F80890129801460790089806F00AF8FC
:103BB000AA498860129804900F9906F05BF8069065
:103BC000119802900E9906F055F804901098029002
:103BD0000D9906F04FF80390049905F0F3FF059056
:103BE000069906F041F89C49079006F043F80890C2
:103BF000139801460790089805F0E4FF9749C860BC
:103C00000846C06805900846C0680490059906F00B
:103C100031F807909148806803909048806802903E
:103C2000039906F027F805908C48406801908B486E
:103C300040680090019906F01DF8039087480068DD
:103C40000190864800680090019906F013F80290F0
:103C5000039905F0B7FF0490059905F0B3FF0690AE
:103C6000079905F0AFFF0890FFF74FFD16907B48CE
:103C700000680890169905F0FDFF7849086008462D
:103C800040680890169905F0F5FF744948600846A9
:103C900080680890169905F0EDFF70498860084625
:103CA000C0680890169905F0E5FF6C49C8600846A1
:103CB00080680590084600680490059905F0DAFFD1
:103CC00007906648C068059064484068049005996C
:103CD00005F0D0FF0690079905F0C6FF4FF0804130
:103CE000089005F0C7FF5D4908610846C068059067
:103CF000084680680490059905F0BCFF0790574876
:103D000040680590554800680490059905F0B2FF99
:103D10000690079905F056FF4FF08041089005F096
:103D2000A9FF4E49486108468068049008468068AB
:103D30000390049905F09EFF06904848406804905F
:103D4000464840680390049905F094FF0590069951
:103D500005F038FF4FF08041079005F08BFF4FF0E2
:103D60007E51089005F083FF3C49886108468069D0
:103D70000790084640690690079907F0B7FF384951
:103D8000089005F077FF3549886308460069079079
:103D900007F04AFD80F000403149089005F06AFFC5
:103DA0002E49C8630846C06801900846C068009064
:103DB000019905F05FFF039028488068019027482B
:103DC00080680090019905F055FF0290039905F075
:103DD000F9FE4FF08041049005F04CFF4FF07E510A
:103DE000059005F044FF07901C48C06802901B48EE
:103DF00000680190029905F03DFF04901748806823
:103E00000290164840680190029905F033FF039034
:103E1000049905F0D7FE4FF08041059005F02AFF88
:103E20000690079907F062FF0D49089005F022FF00
:103E30000A4908640846806B0890FFF741FC07496F
:103E400088630846C06B0890FFF73AFC0349C863D3
:103E500017B05DF814FB00000AD7A33A4C0000200D
:103E6000E12E65422DE9FF5F04468A46BAF1000F54
:103E700004D05E48216AFFF7E9FB2062D4E908011B
:103E800005F0F2FEA0625A49206A05F025FF83463C
:103E900006F079F94FF04042564BCDE9000108F0A9
:103EA00069F90022544BCDE9020105F0F7FF0746FE
:103EB0000022524B05F0F5FF054606F0A7F98146B2
:103EC0004F48C0F80090C4F82C90616BE06A05F090
:103ED000CBFE2063BDE8FF9F2DE9FE4F49480078E7
:103EE000032802D00020484908604849B1F9001071
:103EF000A1F2DC5006F0C4F880460022444B05F0E5
:103F0000D0FF06464FF08042424B05F0CAFF044600
:103F10000D463D48006806F036F9824622462B469B
:103F200005F018FFCDE9000106F070F93649086088
:103F30004FF07E52002134480068FFF70AFC3249F6
:103F400008603548416C3548FFF780FB32494864CA
:103F50003348016B3348FFF779FB314908632E4939
:103F6000486C314905F086FE04462D4902AB2F4AC4
:103F7000086B214602F098F82D4801682B4800682C
:103F800005F072FE04462B4905F074FE2A490860CC
:103F90002A48029905F06EFE044627480168284821
:103FA00005F068FE0546214605F00CFE2249086032
:103FB000084602F068FD1D4800681D4908604FF082
:103FC0007E50204B0090194802680F4801681E4837
:103FD00001F0FAFA1D4800901B481A4BC1691648B7
:103FE00002681B4801F0F0FABDE8FE8F9400002043
:103FF00080E6C547955BC83F0000F03F40A5E5401F
:10400000480100200C000020240100203004002082
:104010000000E03FE17A943F4C000020C000002007
:104020008C030020EC0000202BCD9C3A3C010020AA
:10403000400100200000484244010020CDCC4C3E0D
:10404000CDCC4C3F0000C842DC0800200000964365
:10405000FC0800204FF07E50AC490860002048600A
:1040600088604FF07E50AA49086000204860886050
:104070004FF07E50A74908600020486088604FF0EC
:104080007E50A5490860002048608860704702465D
:10409000002A04DD501A002805DA002003E0501839
:1040A000002800DD002070472DE9F84F9B49086C7F
:1040B0009B4905F0DFFD044607F094FF994908602D
:1040C0009649086C964905F0D5FD044608F03EFD7A
:1040D000954908609548007803281AD094480668E6
:1040E00041680022934B304605F0DBFE044606F0A3
:1040F00012F8914908608E494D394E6C896C002246
:104100008C4B304605F0CDFE044606F004F88B4992
:10411000086087484D38466C816C0022854B3046DC
:1041200005F0BFFE804689468448006805F0A8FF78
:10413000824642464B4605F0AEFE044605F0EBFFD4
:104140007F4908607A48066841680022794B30460A
:1041500005F0A7FE804689467748006805F090FF85
:10416000044642464B4605F096FE824605F0D3FFD4
:10417000744908606E484D38476C816C4FF00052AE
:10418000714B384605F08DFE054606F03FF8814636
:1041900007F028FF04466B48006805F063FF82467D
:1041A000214605F067FD5A49C8606548006805F07A
:1041B00059FF5649C8605E494D39D1F86F0005F086
:1041C0007DFF05460521FFF762FF044605F04AFF23
:1041D0005E49086056494D39D1F8730005F06EFF0D
:1041E00005460521FFF753FF044605F03BFF5849FC
:1041F00008604F494D394E6C896C00224D4B30465A
:1042000005F04FFE80464FF00052524B05F049FE3C
:10421000044605F0FBFF82464748006805F022FF90
:1042200083464FF07E504C4B5246594600903848DA
:1042300001F0CAF93E484D38476C816C00223D4B75
:10424000384605F02EFE054605F0E0FF04463B48E3
:10425000006805F007FF81464FF07E503E4B224636
:1042600049460090294801F0AFF93C483A4B00908C
:10427000364802683A480168264801F0A5F93748EF
:10428000354B00903248026836480168224801F0F8
:104290009BF9BDE8F88F70B51F49C86922490968C4
:1042A00005F0E8FC04461B49C8691E49096805F089
:1042B000E1FC0546214605F085FC80F000402A49D6
:1042C00008601449C8691849096805F0D3FC044618
:1042D0001149C8691349096805F0CCFC0546214617
:1042E00005F0C2FC2149086070BD10B52048007877
:1042F000401C1F49087008460078642804D1FFF765
:10430000D3FE00201A49087010BD000038060020B6
:104310005806002078060020980600204C00002057
:1043200039FA8E3C4C010020500100200C00002086
:10433000BF050020D01263415C0100206001002015
:10434000680100206401002047DF913F70010020D8
:10435000740100208E75ED3F000020410000A04058
:10436000780100207C010020580100205401002029
:104370008801002073B5044601AE33460122214670
:104380001A2002F041FD054628467CBD70B5044662
:104390000D462B46012221461A2002F062FD0646F8
:1043A000304670BD08B569460D20FFF7EFFF9DF858
:1043B0000000FF2801D0002008BD80210A20FFF75F
:1043C000D9FF6420FBF7C4FF49210920FFF7D2FF82
:1043D00041210A20FFF7CEFF01210B20FFF7CAFF82
:1043E0000120E9E7FEB50446207801286DD1FE489A
:1043F0000088401CFC490880084600880A2190FB80
:10440000F1F201FB1200012803D10103F74802F089
:104410007EFEF5480088142190FBF1F201FB1200AA
:10442000022803D1C102F14802F06FFE0020607043
:10443000ED480088B0F5FA6F48DAB4F90400B4F931
:104440001C10884202DAB4F9040001E0B4F91C003F
:10445000A083B4F90600B4F92010884202DAB4F956
:10446000060001E0B4F920002084B4F90800B4F992
:104470002410884202DAB4F9080001E0B4F92400FB
:10448000A084B4F90400B4F91E10884202DDB4F926
:10449000040001E0B4F91E00E083B4F90600B4F9A9
:1044A0002210884202DDB4F9060001E0B4F92200CE
:1044B0006084B4F90800B4F92610884202DDB4F92A
:1044C000080001E0B4F92600E084A6E00020C64917
:1044D00008804FF48051C54802F019FEB4F91C1051
:1044E000B4F91E20881805F0BDFD06464FF0804146
:1044F00005F0F2FB054605F0E1FD00B2A086B4F937
:104500002010B4F92220881805F0ACFD06464FF0C3
:10451000804105F0E1FB054605F0D0FD00B2E086E4
:10452000B4F92410B4F92620881805F09BFD06463E
:104530004FF0804105F0D0FB054605F0BFFD00B20D
:1045400020874FF07E50A062B4F92210B4F92020E9
:10455000881A05F087FD0546B4F91E10B4F91C2031
:10456000881A05F07FFD0646294605F0B5FBE06296
:10457000B4F92610B4F92420881A05F073FD054615
:10458000B4F91E10B4F91C20881A05F06BFD06461C
:10459000294605F0A1FB2063A08E80B2ADF8000093
:1045A000E08E80B2ADF80200208F80B2ADF804003A
:1045B0008F49A06A05F05EFB054605F098FD80B2C4
:1045C000ADF806008A49E06A05F054FB054605F09F
:1045D0008EFD80B2ADF808008549206B05F04AFBDE
:1045E000054605F084FD80B2ADF80A00012181483E
:1045F000FEF7AAFC062269467E48FEF7C4FC0120AD
:104600007D4988740020A083E08320846084A08496
:10461000E0840120607000202070FEBD2DE9F04193
:1046200004460D46164633462A4621461A2002F015
:1046300018FC07463846BDE8F0812DE9F04F93B0ED
:1046400000200F900E9081466C490620FFF79EFED9
:104650006A48801E807800F0010000287ED010AAF1
:1046600006210020FFF7DAFF6448801E807800F002
:104670000200E8B99DF841009DF8401001EB0020D0
:1046800000B25E49891E88809DF843009DF8421063
:1046900001EB002000B25949891EC8809DF84500F1
:1046A0009DF8441001EB002000B25449891E088196
:1046B0005248801E0078012806D15048801EFFF71E
:1046C00091FE13B0BDE8F08F4C48801E4078012861
:1046D0004ED14A49891EB1F90410484A921EB2F9D6
:1046E0003420881A05F0BEFC0D904448801E806A74
:1046F00080F0004840460D9905F0BCFA074605F0E9
:10470000DDFC00B23D49891E8880B1F906103B4AA4
:10471000921EB2F93620881A05F0A4FC0D90374895
:10472000801EC06A80F0004840460D9905F0A2FA4C
:10473000074605F0C3FC00B23049891EC880B1F9B4
:1047400008102E4A921EB2F93820881A05F08AFC09
:1047500080462A48801E016B404600E012E105F0C9
:1047600089FA074605F0AAFC00B22449891E08818F
:104770002249891EB1F9040005F074FC074620495E
:1047800005F0AAFA1D49891EC860B1F9060005F0B6
:1047900069FC07461A4905F09FFA1849891E086105
:1047A000B1F9080005F05EFC0746154905F094FADA
:1047B0001249891E4861B1F9041049430F4A921EFB
:1047C000B2F906200D4B9B1EB3F9063002FB031213
:1047D0000A49891EB1F90810084B9B1EB3F908302D
:1047E00001FB03200EE00000BA0100200008014098
:1047F00000007A44009C010858040020BA060020FA
:1048000000803B4605F02EFC0746FEF77EFF06467D
:104810008349B1F9040005F025FC0746314605F04F
:1048200029FA0F907E49B1F9060005F01BFC0746F6
:10483000314605F01FFA0E907949B1F9080005F0EC
:1048400011FC0746314605F015FA81467549886B1B
:10485000754905F00FFA0746744905F03DFA82469E
:104860007049C86B704905F005FA07466F4905F0B5
:1048700033FA8346584608F069F9074605F083FC89
:10488000CDE90601504605F07EFCCDE9000107F0B8
:104890005BFB07468846484605F075FC3A464346AA
:1048A000CDE9020105F0FDFACDE90401DDE90623B9
:1048B00005F0F7FACDE90A01584608F047F90590E6
:1048C000504608F043F904900E9905F0D3F980465C
:1048D000059905F0CFF90690584607F083FB80460E
:1048E0000F9905F0C7F90746069905F06BF907908F
:1048F00005F049FCCDE90801DDE90A2305F02AFAB3
:10490000CDE90C0105F082FC0446504608F01EF982
:1049100049460D9005F0AEF90746504607F062FB98
:104920000D900E9905F0A6F98046394605F09CF9E0
:104930000546284605F027FC07468846204605F030
:1049400022FC3A464346CDE9060107F00FF9002262
:10495000374BCDE9080105F0A4FA4FF0C042354BC2
:10496000CDE90A0105F00FFBCDE90C0105F04EFC85
:104970002B49C8630846C16B2F48FEF767FE2849DC
:10498000C86300E09DE600BF9BE62DE9F041244AA4
:104990005169506905F06EF90646214A116910699E
:1049A00005F068F907461E4AD168D06805F062F93B
:1049B0008046394605F006F90546314605F002F90C
:1049C0000446204608F0ACF91549886188691B49FE
:1049D00005F038FC05D312498869194905F03CFCFB
:1049E00009D21848008864280DDA16480088401C4F
:1049F0001449088007E01348008820B11148008856
:104A0000401E104908800F480088322803DD01202D
:104A10000349C87002E000200149C870BDE8F08178
:104A2000B80600204C000020DB0F49400000344352
:104A300000806640FB2109408C010020C3F5A83EA0
:104A40006666663FB801002073B5044601AE334682
:104A500001222146D02002F0D7F9054628467CBD28
:104A600070B504460D462B4601222146D02002F0A7
:104A7000F8F90646304670BD38B569467520FFF72F
:104A8000EFFF04469DF80000682808D0F5A000F06C
:104A9000A5FA2146FEA000F0A1FA002038BD802131
:104AA0006B20FFF7D1FF6420FBF752FC0B216B203A
:104AB000FFF7CAFF6420FBF74BFC01211920FFF729
:104AC000C3FF02211A20FFF7BFFF10211B20FFF7B1
:104AD000BBFF08211C20FFF7B7FFF4491C20FFF79C
:104AE000BFFF00212320FFF7AFFF00213820FFF791
:104AF000ABFF00213820FFF7A7FFEDA000F06EFA12
:104B000000BFCBE77CB504466078012861D1002066
:104B1000E070ED480088C8283FDD0120E0700020EB
:104B20006070EA480068E849098890FBF1F000B23B
:104B30006083E6484068E449098890FBF1F000B2E0
:104B4000A083E2488068E049098890FBF1F000B258
:104B5000E083608B80B2ADF80000A08B80B2ADF82E
:104B60000200E08B80B2ADF804000121D848FEF7C6
:104B7000EBF903226946D648FEF705FAC5B2032DC4
:104B800002D10120D34948740020CF490880CF4981
:104B900008604860886001207CBDCC480068B4F99A
:104BA0000E100844C949086008464068B4F910105E
:104BB0000844C649486008468068B4F912100844A1
:104BC000C2498860C0480088401CBF490880002056
:104BD000E2E70020E0E77CB504462078012863D1B5
:104BE0000020A070BC480088C8283FDB0120A070CE
:104BF00000202070B9480068B749098890FBF1F09F
:104C000000B2A082B5484068B349098890FBF1F032
:104C100000B2E082B1488068AF49098890FBF1F0AA
:104C200000B22083A08A80B2ADF80000E08A80B292
:104C3000ADF80200208B80B2ADF804000121A84835
:104C4000FEF782F903226946A548FEF79CF9C5B232
:104C5000032D02D101209F49087400209F4908605C
:104C6000486088609C49088001207CBD9B480068A2
:104C7000B4F9061008449949086008464068B4F938
:104C8000081008449549486008468168B4F90A004C
:104C9000A0F500500844914988608F480088401C66
:104CA0008D4908800020E0E70020DEE72DE9F04193
:104CB00004460D46164633462A462146D02002F0C9
:104CC000D0F807463846BDE8F0817FB504466A460D
:104CD0000E213B20FFF7EAFF0546012D03D04FF0E0
:104CE000FF3004B070BD9DF801009DF8001040EA4F
:104CF000012000B2E0809DF803009DF8021040EA18
:104D0000012000B220819DF805009DF8041040EAC2
:104D1000012000B260819DF807009DF8061040EA6E
:104D2000012000B2A0819DF809009DF8081040EA1A
:104D3000012000B2E0819DF80B009DF80A1040EAC6
:104D4000012000B220829DF80D009DF80C1040EA71
:104D5000012000B260820120C3E770B58CB06148C9
:104D6000FFF7B3FF0446012C01D00CB070BD5D48C5
:104D7000007801280CD15B48FFF72DFF012807D1EF
:104D80004FF07E5058490860002048608860C86035
:104D90005448407801280CD15248FFF7B3FE01284F
:104DA00007D14FF07E50504908600020486088606D
:104DB000C8604C488078012852D14A48C078012800
:104DC000FAD14848C0884749898A401A00B2454903
:104DD000C88008460089C98A401A00B24149088142
:104DE00008464089098B401A00B23E49488108466E
:104DF000C089498B401A00B23A49C8810846008AE6
:104E0000898B401A00B2374908820846408AC98B0C
:104E1000401A00B233494882B1F9060005F022F980
:104E2000064631463148FEF711FC054605F046F9C5
:104E300000B22C49C880B1F9080005F013F9064604
:104E400031462B48FEF702FC054605F037F900B263
:104E500024490881B1F90A0005F004F9064649E041
:104E6000ACE000005B4552524F525D4D505536301C
:104E7000353020496E6974204661696C3A44657624
:104E800069636520494420213D20307836380A0086
:104E90004D5055363035305F526561645F646174E2
:104EA00061207265733D25640A000000D002002075
:104EB0005B4F4B5D4D50553630353020496E69742F
:104EC000204F4B7E0A000000D40200203C07002047
:104ED0000098010858040020D2020020300700206A
:104EE00000940108F80600204C000020BC010020BE
:104EF000E801002031463248FEF7A8FB054605F0E0
:104F0000DDF800B22F494881B1F90E0005F0AAF88A
:104F1000064631462C48FEF799FB054605F0CEF8CB
:104F200000B22849C881B1F9100005F09BF8064687
:104F300031462648FEF78AFB054605F0BFF800B269
:104F400020490882B1F9120005F08CF80646314676
:104F50001F48FEF77BFB054605F0B0F800B2194983
:104F60004882B1F90E0005F07DF80546194904F0B4
:104F700081FE1449C862B1F9100005F073F80546C6
:104F8000144904F077FE0F490863B1F9120005F0E7
:104F900069F805460F4904F06DFE0A49486301218E
:104FA0000D48C06B2822CDE90A0106491031684638
:104FB00004F0D2FD03480FC8FEF7DEFB00BFD4E6C5
:104FC00014020020F8060020400200206C0200209D
:104FD000980200208FC2F53CB80600200FB408B537
:104FE00003A800904021094804F0CFFD4121074863
:104FF000009B029A05F06EFB0020009040210348C0
:1050000000F005FE01B05DF814FB00004807002029
:105010002DE9F04704460D46052D5AD14FF47A7616
:105020002088001F20806088001F6080A088001FEB
:10503000A080E088001FE080304605F01CF8804624
:10504000208805F018F88146944A4146FEF781FB16
:10505000074605F04CF82080304605F00CF88046F5
:10506000608805F008F881468C4A4146FEF771FBDE
:10507000074605F03CF86080304604F0FCFF8046AF
:10508000A08804F0F8FF8146844A4146FEF761FBA0
:10509000074605F02CF8A080304604F0ECFF80466F
:1050A000E08804F0E8FF81467C4A4146FEF751FB68
:1050B000074605F01CF8E080208879490880608860
:1050C000091D0880A088091D0880E088091D088046
:1050D00067E0032D49D140F22B46304604F0CBFF68
:1050E0008046208804F0C7FF81466C4A4146FEF79F
:1050F00030FB074604F0FBFF69490880304604F0A6
:10510000BAFF8046608804F0B6FF8146634A414694
:10511000FEF71FFB074604F0EAFF6149091D0880FE
:10512000304604F0A8FF8046A08804F0A4FF814622
:105130005A4A4146FEF70DFB074604F0D8FF58498E
:1051400008310880304604F096FF8046E08804F07D
:1051500092FF8146514A4146FEF7FBFA074604F0AA
:10516000C6FF4F490C3108801BE0022D0AD140F2E6
:105170002B404B490880091D0880091D0880091D26
:1051800008800EE01DB1012D01D0042D09D14FF48E
:105190007A7043490880091D0880091D0880091D8F
:1051A0000880BDE8F08700B589B00121042002F035
:1051B000BBF90121082002F0B7F90121022002F019
:1051C000C0F90121084602F0AFF918208DF8070058
:1051D000C020ADF8040003208DF8060001A9314875
:1051E00001F0E6FE0320ADF8040001A92E4801F00D
:1051F000DFFE40F6C310ADF81C000020ADF81A0029
:10520000ADF81E004720ADF8180006A92448343830
:1052100003F012F801212248343803F069FB6020C2
:10522000ADF808000120ADF80A000020ADF810002C
:1052300002A91B48343803F03CF802A91848343856
:1052400003F079F802A91648343803F0C1F802A92E
:105250001348343803F007F908211148343803F0B3
:1052600077FC08210E48343803F07BFC08210C48F9
:10527000343803F083FC08210948343803F087FCF4
:105280004FF47A700949088048808880C8800021DE
:105290000648FFF7BDFE09B000BD00000000E14474
:1052A0003404004000080140000C0140D6020020F8
:1052B0001FB50121084602F044F90121880703F0D7
:1052C000F1FD40F6C410ADF804000020ADF8020076
:1052D000ADF806004720ADF8000069464FF0804069
:1052E00002F0AAFF01221146900703F01CFB0121E6
:1052F000880703F0FDFA1C208DF80C0001208DF8C2
:105300000D008DF80E008DF80F0003A802F079FB58
:105310001FBD1FB50121042002F013F901217A48B5
:1053200003F0C0FD42F21070ADF804000020ADF8AB
:105330000200ADF806004720ADF80000694672484B
:1053400002F07AFF012211466F4803F0ECFA0121C6
:105350006D4803F0CDFA1E208DF80C0001208DF869
:105360000D0002208DF80E0001208DF80F0003A81B
:1053700002F047FB1FBD10B50121880703F081FD36
:1053800000284CD061480088401C60490880FFF725
:10539000E4FC00F062F95D490888C11700EB9171E7
:1053A0008910A0EB810109B9FFF747F9574908882F
:1053B000C11700EB5171C910A0EBC10109B9FFF78A
:1053C000E4FA52490888C11700EB91718910A0EBEB
:1053D0008101012901D1FBF738FA4C49088800EB1B
:1053E000D0714910A0EB410109B9FBF779FA47499F
:1053F0000888C11700EB5171C910A0EBC101012948
:1054000009D143488078012805D1424840780128D5
:1054100001D1FEF761FD0121880703F043FD10BDB6
:1054200070B50121384803F02CFD002869D000F048
:10543000FDFD39488078012806D100203649887062
:1054400036493748FDF79EFA36480078401C354902
:105450000870084600780A2801D1002008703248F8
:10546000407801282AD100202F4948702F49088010
:105470002D4881782430FCF7A6FE05462846FCF727
:105480003AF92948B0F846000A2190FBF1F201FBF5
:105490001200042803D18102254801F038FE224879
:1054A000B0F846000A2190FBF1F201FB1200082837
:1054B00003D141021E4801F028FE70BD1B48008840
:1054C000401C1A49088008460088B0F57A7F14DB32
:1054D000002008804FF40061154801F018FEFBF72A
:1054E000A6FC0446FBF765FC21462720FBF7D1FB11
:1054F0004FF400610E4801F008FE0121024803F05C
:10550000D1FC00BFD9E7000000080040DE02002007
:10551000F80600208C03002038090020440E0020EB
:1055200072050020E2020020C4030020E0020020F7
:10553000000801402DE9F84F04460E4617461D4667
:10554000DDF828803946304604F08EFBE060E068E4
:10555000FEF7B6F8E060B149E06804F08BFB8146E5
:10556000616904F02FFB606185F000492A464946D5
:10557000E069FEF7EEF86061D4E9030104F074FB22
:10558000A061A169A06804F075FB00906169606882
:1055900004F070FB8246E168206804F06BFB8346F0
:1055A000514604F00FFB8146009904F00BFBE061CB
:1055B00088F0004942464946E069FEF7CAF8E061D2
:1055C000E0682061BDE8F88F2DE9F84F04460E46EB
:1055D00017461D46DDF828803946304604F044FB66
:1055E000E0608E49E06804F045FB8146616904F0A3
:1055F000E9FA606185F000492A464946E069FEF70C
:10560000A8F86061D4E9030104F02EFBA061A16950
:10561000A06804F02FFB00906169606804F02AFB29
:105620008246E168206804F025FB8346514604F079
:10563000C9FA8146009904F0C5FAE06188F0004992
:1056400042464946E069FEF784F8E061E06820617F
:10565000BDE8F88F002141617047F8B570480078C7
:10566000032804D06F48006C6F490860F8BD6F498B
:10567000B1F9040004F0F6FC07466D4904F0F4FAB1
:10568000044604F080FD21F0004105460022694BEC
:1056900004F08CFD05D26848FFF7DCFF6748FFF790
:1056A000D9FF6249B1F9060004F0DCFC0746604905
:1056B00004F0DAFA044604F066FD21F000410546E4
:1056C00000225C4B04F072FD05D25D48FFF7C2FF7B
:1056D0005C48FFF7BFFF5C48009052485B4BC26BD1
:1056E0005B4801685448FFF76FFF574800904D48EA
:1056F000564B826B574801685248FFF765FF564882
:1057000000905648026B4C48554BC1694B48FFF717
:105710005BFF514800905148C26A4A48504BC169EA
:105720004748FFF751FF4149B1F9020004F09AFCE4
:1057300005463F4904F098FA04464A4904F09AFAAB
:105740003A49C861B1F9020004F08CFC07463849B7
:1057500004F08AFA044604F016FD21F000410546E3
:105760000022414B04F022FD0AD240480078E8B9FB
:105770002C48006C2C49086001203C49087015E059
:1057800000203A4908702949C869244904F072FA8E
:10579000044625480168204604F014FA22490860AE
:1057A00008460068FDF78CFF1F49086030480090EC
:1057B0001C48264B026C1C4801682E48FFF7BAFEB5
:1057C000224800902548426B2A482B4BC1692B4840
:1057D000FFF7B0FE00BF49E70021C16001614161F0
:1057E000C1618161704700B51348FFF7F5FF1548A7
:1057F000FFF7F2FF1F48FFF7EFFF2148FFF7ECFF2D
:105800000E48FFF7E9FF0E48FFF7E6FF1B48FFF7DA
:10581000E3FF1C48FFF7E0FF00BD00000AD7233B71
:105820000C0000204C000020E80200203004002082
:105830000080BB44000034403C0800209C0800204D
:105840007C0800201C0800200000B4420000C84270
:10585000540100205801002000003443F8060020C5
:10586000000048428FC2753D00002440E60200203F
:105870000000F0415C08002000002041BC0800202E
:10588000DC080020FC08002000B587B00121084694
:1058900001F04AFE0121880301F053FE0121082096
:1058A00001F042FE4FF46040ADF8180018208DF86A
:1058B0001B0003208DF81A0006A9304801F078FB80
:1058C0000020ADF804004FF48270ADF8060000200F
:1058D000ADF80800ADF80A00ADF80C004FF4007008
:1058E000ADF80E001020ADF810000020ADF8120049
:1058F0000720ADF8140001A9214803F0FDFA0121A9
:105900001F4803F09EFB07B000BD70B5054605E0DB
:10591000601CC4B2C82C01DB002070BD02211848F5
:1059200003F013FC0028F3D02946154803F0BAFB16
:10593000002405E0601CC4B2C82C01DB0020ECE7A9
:1059400001210F4803F001FC0028F3D00C4803F0BC
:10595000ABFBC6B23046E0E710B504460848008805
:105960004FF6C77108400649088008460088204362
:1059700008800121024803F064FB10BD000C0140C7
:10598000003800401FB50121082001F0CDFD0121A4
:10599000084601F0C9FD04208DF807008002ADF82B
:1059A000040003208DF8060001A92E4801F000FB39
:1059B0000C21012001F012FC4FF4805002900020D5
:1059C0008DF80C000C208DF80D0001208DF80E00D4
:1059D00002A803F0FFFB28208DF8000000208DF8BE
:1059E000010002208DF8020001208DF803006846B6
:1059F00002F007F81FBD10B54FF4805003F050FCC3
:105A000078B34FF40061184801F081FBFBF70FFAFF
:105A1000044604F04000B8B11448B0F84600401CF9
:105A20001249A1F84600012048700846FBF726FA03
:105A300004F0200040B101200C4908700846B0F87D
:105A40004400401CA1F8440021462720FBF721F91F
:105A50004FF40061044801F058FB4FF4805003F00C
:105A600030FC10BD000C014000080140C4030020C0
:105A700070B504460D46002603E0701C86B2002077
:105A800070BDB6F5FA7F03DAC64880790128F4D0F4
:105A90002A462146C44804F05FF82946C34803F06B
:105AA000FBFC0121C14803F0E2FC0120BD498871E3
:105AB00000BFE5E710B586B004460121042001F0DF
:105AC00033FD0121084601F02FFD0121880301F07B
:105AD0002BFD18208DF817004FF40070ADF814005E
