:020000040800F2
:10000000B81600206D6C00086D0200086F02000831
:1000100073020008770200087B020008000000005D
:100020000000000000000000000000007F02000847
:100030008102000800000000830200088502000819
:10004000876C0008876C0008876C0008876C0008C4
:10005000876C0008876C0008876C0008876C0008B4
:10006000876C0008876C0008876C0008876C0008A4
:10007000876C0008876C0008EB5B0008876C000841
:10008000876C0008BF5C0008876C0008876C00085C
:10009000876C0008876C0008876C0008876C000874
:1000A000876C0008876C0008876C0008876C000864
:1000B000EB500008876C000895510008876C000819
:1000C000876C0008876C0008876C0008876C000844
:1000D000876C0008EB580008915A0008876C0008EC
:1000E0006B570008876C0008876C0008DFF80CD09D
:1000F0000AF072F90048004701010008B816002014
:1001000000BF00BF00BF002400F053F94FF4A0600F
:1001100007F042FB4FF4E13005F086FB4FF4E1308D
:1001200005F056FC642000F00DF906F0DDFB2DA073
:1001300004F012FE00F0A8F831A004F00DFE05F066
:10014000E7FD36A004F008FE04F0E7FE3AA004F054
:1001500003FE4FF4FA7000F0F5F84FF4FA7000F077
:10016000F1F804F06EFB00F0C3F904F000F8394A2E
:1001700039493A4802F048FF3848807810B90120E0
:10018000364908703548C07810B9012033494870A5
:100190003048407810B901202E49087001203049BC
:1001A000087448748874C87400F0D5FC00F047FDEA
:1001B000012807D101032B4806F079FE05F09CFACF
:1001C00000F08CFD02F0B8FF2749087003F026FE0E
:1001D00004F059FF04F026FF03E0C82000F0B2F855
:1001E000641CFAE74472697665723A4949432069AA
:1001F0006E69742066696E69736865647E0A0000C2
:100200004472697665723A4C454420696E6974207F
:1002100066696E69736865647E0A00004472697677
:1002200065723A41444320696E69742066696E695B
:10023000736865647E0A00004472697665723A509C
:10024000574D20696E69742066696E6973686564CC
:100250007E0A00008C030020B8060020F80600206B
:100260005804002000080140E5020020704700BF4C
:10027000FEE700BFFEE700BFFEE700BFFEE77047F6
:10028000704770477047000008B509F0B4FA0121C3
:10029000042007F019F80121084607F015F801219C
:1002A000264806F026FE10208DF803004FF410407B
:1002B000ADF8000003208DF802006946204806F0E2
:1002C00047FD4FF410411E4806F0EFFD08BD10B584
:1002D0004FF4FA7000F036F84FF4FA7000F032F88C
:1002E0004FF4FA7000F02EF84FF4FA7000F02AF88C
:1002F0004FF40041124806F0DAFD4FF480511048E7
:1003000006F0D5FD4FF4FA7000F01CF84FF4FA70C7
:1003100000F018F84FF4FA7000F014F84FF4FA7087
:1003200000F010F84FF40041054806F0BEFD4FF410
:100330000041034806F0B9FD10BD00000002300086
:1003400000080140014601224FF0E0231A6142F209
:1003500028324A435A6100229A6100BF4FF0E022DE
:10036000106900F001021AB100F48032002AF5D0C1
:1003700000224FF0E0239A611A6170470146012282
:100380004FF0E0231A6101EBC1025A6100229A6129
:1003900000BF4FF0E022106900F001021AB100F432
:1003A0008032002AF5D000224FF0E0239A611A61D2
:1003B000704710B506F01AFE4FF4803006F036FE96
:1003C00000BF06F072FE0128FBD1022007F052FAAE
:1003D000102007F063FA4FF4E0114FF4803006F07C
:1003E0008DFE012006F096FE00BF392006F041FE8A
:1003F0000028FAD0002006F09EFE002006F0ADFE98
:100400004FF4806006F0A0FE4FF4004006F0C0FEFE
:10041000022007F02FFA002007F035FA102007F02D
:100420003DFA022006F079FE10BD000010B55821FB
:10043000EE2006F095FB10BD70B5014600230126A5
:10044000887B00F00F05C88900F47F40C881002236
:1004500004E031F8120000B10026521C082AF8DB33
:100460000EB1012070BD002218E002F0010020B1A1
:10047000501011F81000434004E0501031F8100003
:1004800083EA2023082406E003F4004008B183F443
:10049000C0535B00641E002CF6DC521C102AE4DB07
:1004A000C8892843C881C3F30330854201D10020A5
:1004B000D8E70120D6E738B5044600200090A020F8
:1004C00000EB4400C1B26B460222EE2006F08DFB29
:1004D0009DF801009DF8001040EA012038BD10B5DC
:1004E0001E21EE2006F03CFB0A20FFF72BFF10BD7B
:1004F00038B50A20FFF726FF6B460122A021EE2027
:1005000006F073FB0020E749487001200870FFF7F0
:10051000E6FF6420FFF716FF002408E060B2FFF753
:10052000CAFFE0490C3121F81400601CC4B2082C49
:10053000F4DBDC480C30FFF77FFF08B1002038BD4A
:10054000FFF774FF0120FAE708B56B46032200218C
:10055000EE2006F04AFB9DF8000000049DF8011013
:1005600040EA01209DF80210084308BD10B548215B
:10057000EE2006F0F5FA10BD2DE9F04F85B00446E7
:10058000E18A4FF48072A1FB02126068B0EB0109AE
:10059000218A4FF000004FEA004040EA11404FEA44
:1005A0000142A18A4FF000034FEAE97CA1FB09ABAD
:1005B00003FB09B301FB0C334FEADA1141EA436153
:1005C000511840EBE310CDE90210E1894FF0000033
:1005D0004FEAC03040EA51404FEAC132618A4FF0E1
:1005E00000034FEAE97CA1FB09AB03FB09B301FB64
:1005F0000C334FEA1A2141EA0361511840EB2320E2
:10060000CDE90010208B4FF000024FEAE973A0FB08
:10061000091C02FB09C200FB03224FEAD15040EA49
:1006200042214FEAE2504FF4FA63CD1840F1000640
:100630001946691A76F100005FDA19466F1A66F1F9
:10064000000805210022A7FB010308FB013107FB7D
:10065000021201463846A1FB003A02FB07A008FB44
:1006600001081F465FEA68024FEA3703DDE902012D
:10067000C01A61EB0201CDE90201B80840EA8870B6
:10068000DDE90012081A62EBA802CDE900028649F2
:10069000691A76F1FF3030DA40F2DC516F1846F11A
:1006A00000083846A0FB002308FB003308FB07388E
:1006B000174607210020A7FB012308FB013107FB98
:1006C0000013DDE90210891A60EB0300CDE9021086
:1006D0000B2200213B46A3FB02CA08FB02A007FB3A
:1006E000010160465FEA610C4FEA3003DDE900205A
:1006F000D11A60EB0C00CDE900100023A068DDE901
:100700000012A0FB01CA03FB01A100FB02104FEA8B
:100710005C5141EAC0234115DDE90202181A61EB80
:100720000201C00B40EA41400490049809F073FBB9
:100730002062E56105B0BDE8F08F38B50446207849
:1007400001287AD159480088502190FBF1F201FB31
:10075000120020B94FF40041554806F0A8FB534859
:100760000088502190FBF1F201FB1200282804D1EF
:100770004FF400414E4806F098FB4C480088C828CA
:1007800005DA4A480088401C4849088038BD494875
:100790000078092844DD4748007809F03CFB05460D
:1007A00029464548006809F067F9606201206070D9
:1007B00000202070606A20620020A0620021204694
:1007C00003F034FAE06A6063002020633B4908606C
:1007D0003B4908603B490860394908603349088053
:1007E000344908703449086001203749C874206AC8
:1007F00009F034FB4FF6FF7101EA2040ADF800002C
:10080000206A09F02BFB80B2ADF8020001212F48CD
:1008100002F094FB022269462C4802F0AEFB0CE089
:1008200024480078401C234908702348216A006846
:1008300009F098F820490860A8E700BFA6E710B5BE
:100840002349088800EBD0714910A0EB410131B970
:10085000FFF77AFE13494860FFF788FE1CE01C4949
:10086000088800EBD0714910A0EB4101012913D198
:10087000FFF76AFE0B4988600846FFF77DFE0121FD
:10088000084803F0D3F907480078012802D1054849
:10089000FFF753FFFFF7CAFD0D480088401C0C49C5
:1008A000088010BD8C03002024FAFFFF0000002008
:1008B0000008014002000020040000203C0100204C
:1008C00044010020240100205804002000A0010859
:1008D0000800002070B58C48007818B18A4800786C
:1008E000012827D18948807801281BD18748C07802
:1008F000012817D186484078012813D185484078CF
:1009000001280FD18448007802280BD1834890F841
:100910005600012806D17C48007830B901207A4978
:10092000087002E000207849087000217C4804F03B
:1009300029FA70BD74480078022831D10221784824
:1009400004F020FA04F009FE7649886B09F0EBFA0E
:1009500021F0004104460022734B09F0F7FA1BD83E
:100960007049C86B09F0DFFA21F00041044600220B
:100970006D4B09F0EBFA0FD86C480088401C6B49AE
:10098000088008460088B0F5487F08D90020088014
:1009900003205D49087002E0002064490880C8E730
:1009A00059480078052806D104F0D7FD05215C4898
:1009B00004F0E8F9BDE75448007803287ED159498E
:1009C000886B09F0B0FA21F0004104460022584B30
:1009D00009F0D4FA0BD35349C86B09F0A4FA21F0FB
:1009E000004104460022524B09F0C8FA0ED2514889
:1009F0000088401C4F49088008460088C82808D94C
:100A00000020088005204049087002E00020494984
:100A1000088049480088494908804948C0694949CF
:100A200008604948C06948604848C06988604348D0
:100A3000008809F0F0F904464548C169204608F0ED
:100A400091FF4049C8600A461168D06808F08AFFE3
:100A500006463C484168304608F084FF0546394860
:100A60008168284608F0D0FF044609F010FA2C49A6
:100A70000880344A1168D06808F0C6FF064631483D
:100A80004168304608F06EFF05462E4881682846CA
:100A900008F068FF044609F0FAF921494880294A1C
:100AA0001168D06808F0B0FF064626484168304615
:100AB00008F0AAFF05462348816800E021E02846A7
:100AC00008F0A2FF044609F0E2F9154988801D4AA2
:100AD0001168D06808F046FF06461A48416830465B
:100AE00008F092FF054617488168284608F03AFF4B
:100AF000044609F0CCF90A49C8800321084804F0EB
:100B000041F900BF15E770470C000020F8060020EF
:100B1000B80600208C030020E502002072050020AA
:100B2000D60200204C000020000024401A000020C3
:100B30000000394010000020300400201800002080
:100B4000BC0800205C090020DC080020FC08002014
:100B50003C090020704708B50121042006F0B4FBD1
:100B60004FF40060ADF8000010208DF80300032062
:100B70008DF802006946C84806F0EAF84FF40061B3
:100B8000C54806F094F94FF48070ADF800001020CD
:100B90008DF8030003208DF802006946BE4806F078
:100BA000D7F84FF48071BC4806F07FF904F026FDB9
:100BB0004FF48071B84806F078F908BD2DE9F0418E
:100BC00007460C4615464FF48071B34806F06FF99E
:100BD000384604F054FD8046002606E0002004F06C
:100BE0004EFD2070641C701CC6B2AE42F6DB4FF4A2
:100BF0008071A94806F059F94046BDE8F0812DE919
:100C0000F04107460C4615464FF48071A24806F0A5
:100C10004EF9384604F033FD8046002605E0207882
:100C200004F02DFD641C701CC6B2AE42F7DB4FF41D
:100C30008071994806F039F94046BDE8F0811FB54A
:100C400096A103C9CDE90201052202A93020FFF7D0
:100C5000D6FF052269461020FFF7B0FF002408E008
:100C60001DF8040002A9095D884200D003E0601C61
:100C7000C4B2052CF4DB00BF052C02D0002004B068
:100C800010BD0120FBE770B505460C464FF480719E
:100C9000814806F00CF9284604F0F1FC064620468F
:100CA00004F0EDFC4FF480717B4806F0FEF830460E
:100CB00070BD70B504464FF48071774806F0F7F8C0
:100CC000204604F0DCFC002004F0D9FC05464FF47B
:100CD0008071714806F0E9F8284670BD10B54FF4F0
:100CE00000616D4806F0E3F80A20FFF72BFB0121B5
:100CF0002120FFF7C8FF01212220FFF7C4FF0321B5
:100D00002320FFF7C0FF052266492A20FFF777FF5F
:100D100001212520FFF7B7FF26210846FFF7B3FF83
:100D200001213C20FFF7AFFF06213D20FFF7ABFF7D
:100D30000F212020FFF7A7FF4FF40061564806F06F
:100D4000B4F810BD10B54FF40061534806F0AFF889
:100D500001212220FFF797FF03212320FFF793FFB4
:100D6000052251493020FFF74AFF05224D492A202C
:100D7000FFF745FF5A212420FFF785FF0121252099
:100D8000FFF781FF26210846FFF77DFF01213C2068
:100D9000FFF779FF06213D20FFF775FF0E21202088
:100DA000FFF771FF10BD10B54FF400613A4806F02F
:100DB0007EF80021E120FFF766FF10BD10B54FF46B
:100DC0000061354806F073F81720FFF772FF0446FC
:100DD000204610BD70B504460D464FF400612E4804
:100DE00006F065F8FFF7EAFF064606F0200008B1B6
:100DF000FFF7D9FF2A462146A020FFF700FF4FF456
:100E00000061254806F051F8002070BD10B54FF480
:100E10000061214806F04BF80021E220FFF733FF84
:100E200010BD10B54FF400611B4806F040F80720D4
:100E3000FFF73FFF04464FF40061174806F035F80E
:100E4000204610BD70B505460C461646052C01DD42
:100E5000FF2070BD04F1A801C8B232462946FFF751
:100E6000CEFE0120F5E710B56020FFF722FF10BD90
:100E700010B50446FFF7F7FFA070A078202803DD27
:100E8000FFF7C4FF002010BDA27804F12401612007
:100E9000FFF794FE0120F6E700080140AABBCCDD75
:100EA000FF000000F1CA0008ECCA000870B5054652
:100EB0000C46224600212846FFF7C4FF70BD2DE9ED
:100EC000F84380460E460024AA222146641CF748B7
:100ED00042542146641C425405222146641C42545B
:100EE00000222146641C4254F149404608F092FD1C
:100EF000814608F0CCFF80B200909DF80120214689
:100F0000641CEA4842549DF800202146641C425467
:100F1000E749304608F07EFD814608F0B8FF80B210
:100F200000909DF801202146641CE04842549DF841
:100F300000202046611CCCB2DC490A54201FC87036
:100F40000027002505E0D948405D3844C7B2681C39
:100F5000C5B2A542F7DB2046611CCCB2D3490F5481
:100F60002146D248FFF7A2FFBDE8F8830FB42DE970
:100F7000FE4F0024AA222146641CCC48425421463C
:100F8000641C425404222146641C4254002221461F
:100F9000641C42549DF8860002909DF8082021466A
:100FA000641CC24842549DF8300002909DF808200D
:100FB0002146641CBD4842549DF8870002909DF86C
:100FC00008202146641CB94842540022B94BDDE98F
:100FD0001D71384608F035FE824608F08BFF009000
:100FE0009DF803202046611CCCB2B0490A549DF8FC
:100FF00002202046611CCCB2AC490A549DF8012065
:101000002046611CCCB2A9490A549DF80020214613
:10101000601CC4B2A54842549DF87C902046611CD7
:10102000CCB2A24901F80090DDF87D70DDF88110A6
:101030000022A04B384608F004FE824608F05AFF12
:1010400000909DF803202046611CCCB297490A54B9
:101050009DF802202046611CCCB294490A549DF8A8
:1010600001202046611CCCB290490A549DF8002012
:101070002046611CCCB28D490A549DF885902046CB
:10108000611CCCB2894901F80090DDF89B008A49C7
:1010900008F0C0FC074608F0E1FE00B201909DF8A0
:1010A00005202046611CCCB280490A549DF80420DA
:1010B0002046611CCCB27D490A54DDF8AF007C4962
:1010C00008F0A8FC074608F0C9FE00B201909DF8A0
:1010D00005202146601CC4B2744842549DF8042087
:1010E0002046611CCCB271490A549DF87100083049
:1010F000C0B202909DF808202046611CCCB26B491A
:101100000A549DF8720002909DF808202046611C48
:10111000CCB266490A549DF8730002909DF80820ED
:101120002046611CCCB261490A54201FC8700026B9
:10113000002505E05D48405D3044C6B2681CC5B27C
:10114000A542F7DB2046611CCCB258490E5421461B
:101150005648FFF7ABFEBDE8FE0F5DF814FB2DE926
:10116000F84F06460F4690469946DDF828B0002411
:10117000AA222146641C4D4842542146641C425414
:1011800002222146641C425400222146641C42541F
:1011900000969DF801202146641C42549DF80020D1
:1011A0002146641C425400979DF801202146641C8E
:1011B00042549DF800202046611CCCB23B490A54A1
:1011C000CDF800809DF801202046611CCCB2374943
:1011D0000A549DF800202046611CCCB233490A54C1
:1011E000CDF800909DF801202046611CCCB22F491B
:1011F0000A549DF800202046611CCCB22B490A54A9
:10120000CDF800B09DF801202046611CCCB22749E2
:101210000A549DF800202046611CCCB223490A5490
:101220000B9800909DF801202046611CCCB21F490C
:101230000A549DF800202046611CCCB21B490A5478
:101240000C9800909DF801202046611CCCB21749F3
:101250000A549DF800202046611CCCB213490A5460
:101260000D9800909DF801202046611CCCB20F49DA
:101270000A549DF800202046611CCCB20B490A5448
:101280000E9800909DF801202046611CCCB20749C1
:101290000A549DF800202046611CCCB203490A5430
:1012A000201FC8704FF0000A00250EE01004002037
:1012B0000000C84280842E4100002041F748405D74
:1012C000504400F0FF0A681CC5B2A542F6DB204678
:1012D000611CCCB2F14901F800A02146EF48FFF7AC
:1012E000E5FDBDE8F88F2DE9FE4F82460E46174614
:1012F0009846DDF830B00024A146AA222146641C9D
:10130000E64842542146641C425401222146641C92
:10131000425400222146641C4254E149504608F0E0
:1013200079FB009008F09AFD00B202909DF8092028
:101330002146641CD94842549DF808202146641C6B
:101340004254D749304608F065FB009008F086FD0E
:1013500000B202909DF809202146641CCF484254F7
:101360009DF808202046611CCCB2CC490A54CC49D7
:10137000384608F04FFB009008F070FD00B2029074
:101380009DF809202046611CCCB2C4490A549DF83E
:1013900008202046611CCCB2C0490A54C0494046CE
:1013A00008F038FB009008F059FD01909DF80720E7
:1013B0002046611CCCB2B9490A549DF8062021464A
:1013C000601CC4B2B54842549DF805202046611CFB
:1013D000CCB2B2490A549DF804202046611CCCB21C
:1013E000AE490A54AE49584608F014FB009008F084
:1013F00035FD00B202909DF809202046611CCCB258
:10140000A6490A549DF808202046611CCCB2A34985
:101410000A542146621CD4B2A04A0D985054214669
:10142000621CD4B29D4A0E985054201F1146C870B9
:10143000002506E09948405D484400F0FF09681C1B
:10144000C5B2A542F6DB2046611CCCB2934901F837
:10145000009021469148FFF729FDBDE8FE8F2DE958
:10146000F04105460E460027AA208C4908704870B6
:10147000EF2088700220C87008460571467100246C
:1014800005E08648005D3844C7B2601CC4B2062C33
:10149000F7DB824887710721FFF708FDBDE8F0817F
:1014A0000FB42DE9F843064600240027AA2221465E
:1014B000641C7A4842542146641C425406F10F00D1
:1014C000C2B22146641C7548425400222146641C65
:1014D00042547449099808F09DFA804608F0BEFC11
:1014E00000B200909DF801202146641C6B484254D4
:1014F0009DF800202146641C42546A490A9808F06D
:1015000089FA804608F0AAFC00B200909DF80120FC
:101510002146641C614842549DF800202146601C0D
:10152000C4B25E4842545F490B9808F073FA804693
:1015300008F094FC00B200909DF801202146601C48
:10154000C4B2564842549DF800202046611CCCB2DB
:1015500052490A545349119808F05CFA804608F041
:101560007DFC00B200909DF801202046611CCCB2A9
:101570004A490A549DF800202046611CCCB24749D4
:101580000A544849129808F045FA804608F066FC6B
:1015900000B200909DF801202046611CCCB23F496A
:1015A0000A549DF800202046611CCCB23B490A54E5
:1015B0003C49139808F02EFA804608F04FFC00B220
:1015C00000909DF801202146601CC4B2334842546B
:1015D0009DF800202046611CCCB230490A543149A4
:1015E000199808F017FA804608F038FC00B200900D
:1015F0009DF801202046611CCCB228490A549DF870
:1016000000202046611CCCB224490A5425491A986E
:1016100008F000FA804608F021FC00B200909DF826
:1016200001202046611CCCB21C490A549DF80020C0
:101630002046611CCCB219490A541A491B9808F07B
:10164000E9F9804608F00AFC00B200909DF80120FC
:101650002046611CCCB211490A549DF80020204656
:10166000611CCCB20D490A54201FC870002505E04A
:101670000A48405D3844C7B2681CC5B2A542F7DBD2
:101680002046611CCCB205490F5421460348FFF7A0
:101690000DFCBDE8F8035DF814FB00001004002009
:1016A0000000C84200007A442DE9F04105460E468C
:1016B0000027AA20FE4908704870EE20887002209A
:1016C000C870084605714671002405E0F848005DC1
:1016D0003844C7B2601CC4B2062CF7DBF4488771EB
:1016E0000721FFF7E3FBBDE8F08130B5BFB004464A
:1016F0000CB9FF2C7ED0EF48007C48B9ED48407C07
:1017000030B9EC48807C18B9EA48C07C002859D030
:10171000E848007CE0B1E848807838B10020E5492D
:10172000087401210846FFF7BFFF49E0E34800784D
:10173000E3490978E34A1268E34BCDE900210290BE
:101740001A6C996BD86BE14B1B68FFF7CCFD37E047
:10175000D848407C78B1D848C07838B10020D54905
:10176000487401210220FFF79FFF29E0E1210220B8
:10177000FFF79AFF24E0CF48807C78B1D4484078C6
:1017800038B10020CB49887401210320FFF78CFF7A
:1017900016E0E1210320FFF787FF11E0C548C07C78
:1017A00070B1CC48407838B10020C249C8740121DA
:1017B0000420FFF779FF03E0E1210420FFF774FF25
:1017C0003FB030BDBB48007930B9BA48407918B94C
:1017D000B8488079002855D0B6480079D0B10020AB
:1017E000B44908712022BC490DA808F085F82022D0
:1017F000BA4900E01AE105A808F07EF81422B849B9
:10180000684608F079F8B6480C380EC80120FFF792
:1018100047FE36E0A7484079C0B10020A54948718D
:101820002022B0490DA808F067F82022AE4905A88B
:1018300008F062F81422AD49684608F05DF8AB483C
:101840000C380EC80220FFF72BFE1AE09948807969
:10185000B8B10020974988712022A5490DA808F049
:101860004BF82022A24905A808F046F81422A14905
:10187000684608F041F89F480C380EC80320FFF76F
:101880000FFE9DE78B48407B28B98A48807B10B9C2
:101890008848C07B18B38748407B40B10020854909
:1018A0004873954801781020FFF7D9FD16E081486C
:1018B000807B40B100207F4988738F484178112098
:1018C000FFF7CDFD0AE07B48C07B38B100207949A5
:1018D000C873894881781220FFF7C1FD70E78748F7
:1018E00000788749097890FBF1F201FB12018548E5
:1018F0000078401E814203D101206E49487031E0DA
:101900007E4800787E49097890FBF1F201FB1201D4
:101910007D480078401E814203D1012065498870CE
:1019200020E0764800787649097890FBF1F201FBD7
:10193000120176480078401E814203D101205D49A2
:10194000C8700FE06D4800786D49097890FBF1F29E
:1019500001FB12016E480078401E814202D1012035
:101960005449087365480078401C64490870514820
:101970004078A0B100204F49487050480078504945
:101980000978504A1268504BCDE9002102901A6C38
:10199000996BD86B4D4B1B68FFF7A5FC46E045489B
:1019A000807810B30020434988704948B0F9080096
:1019B0004749B1F90610464AB2F904203E4BB3F943
:1019C0001230CDE90132CDE903103B48B0F91000E7
:1019D000394D0090B5F90E30B5F90A20B5F9081067
:1019E000B5F90600FFF7BBFB20E03248C07890B1A4
:1019F00000203049C87073224649684607F07CFFD2
:101A00008322444910391EA807F076FF1EA80FC88C
:101A1000FFF7ACFA0AE02748007B38B100202549DF
:101A200008733D4A91685068FFF749FA00BFC7E65E
:101A300003B587B007988078102871D1079800798E
:101A4000000200B2079949790843009008F0DAF9DA
:101A50003249019007F0DEFF21490C3908600798F0
:101A60008079000200B20799C9790843009008F014
:101A7000C9F92A49019007F0CDFF19490C3948608E
:101A80000798007A000200B20799497A084300904B
:101A900008F0B8F92149019007F0BCFF10490C3952
:101AA00088600798807A000200B20799C97A38E006
:101AB0001004002058040020F80600200C0000202C
:101AC0000D000020440100204C0000203C010020BB
:101AD000B80600208C030020FC080020BC08002071
:101AE000E80800209C0800205C08002088080020EE
:101AF0001C090020480900201C00002027000020AD
:101B000028000020290000202A0000202B000020AF
:101B10002C00002082050020841200206F12833ADE
:101B2000D4E00843009008F06DF9FE49019007F0F9
:101B300071FFFD4908600798007B000200B2079919
:101B4000497B0843009008F05DF9F649019007F0E1
:101B500061FFF54948600798807B000200B2079951
:101B6000C97B0843009008F04DF9EE49019007F059
:101B700051FFED4988600798007C000200B2079988
:101B8000497C0843009008F03DF9E649019007F0D0
:101B900041FFE64908600798807C000200B207997F
:101BA000C97C0843009008F02DF9DE49019007F048
:101BB00031FFDE4948600798007D000200B20799B6
:101BC000497D0843009008F01DF9D649019007F0BF
:101BD00021FFD6498860D6480068D649009007F0B2
:101BE00019FF019008F053F980B2ADF80800D04811
:101BF0004068D049009007F00DFF019008F047F9C8
:101C000080B2ADF80A00CA488068CA49009007F05F
:101C100001FF019008F03BF980B2ADF80C00C2481A
:101C20000068C449009007F0F5FE019008F02FF914
:101C300080B2ADF80E00BC484068BE49009007F085
:101C4000E9FE019008F023F980B2ADF81000B64823
:101C50008068B849009007F0DDFE019008F017F9A0
:101C600080B2ADF81200B1480068B249009007F0A8
:101C7000D1FE019008F00BF980B2ADF81400AB482A
:101C80004068AC49009007F0C5FE019008F0FFF8ED
:101C900080B2ADF81600A5488068A649009007F00C
:101CA000B9FE019008F0F3F880B2ADF818000121F8
:101CB000A14801F043F9092202A99F4801F05DF90A
:101CC00001209E4948739E490898087007988078BB
:101CD00011287CD107980079000200B20799497950
:101CE0000843009008F08EF88E49019007F092FEAC
:101CF0009449086007988079000200B20799C97971
:101D00000843009008F07EF88649019007F082FEB3
:101D10008C4948600798007A000200B20799497A16
:101D20000843009008F06EF87E49019007F072FEBB
:101D3000844988600798807A000200B20799C97ABE
:101D40000843009008F05EF87649019007F062FEC3
:101D50007D4908600798007B000200B20799497B23
:101D60000843009008F04EF86E49019007F052FECB
:101D7000754948600798807B000200B20799C97BCB
:101D80000843009008F03EF86649019007F042FED3
:101D90006D4988600798007C000200B20799497C71
:101DA0000843009008F02EF85E49019007F032FEDB
:101DB000664908600798807C000200B20799C97CD8
:101DC0000843009008F01EF85649019000E08BE0AF
:101DD00007F020FE5D4948600798007D000200B2D0
:101DE0000799497D0843009008F00CF84D4901908F
:101DF00007F010FE55498860524800684D49009030
:101E000007F008FE019008F042F880B2ADF8080033
:101E10004C4840684749009007F0FCFD019008F0ED
:101E200036F880B2ADF80A00464880684149009013
:101E300007F0F0FD019008F02AF880B2ADF80C0030
:101E4000414800683B49009007F0E4FD019008F02C
:101E50001EF880B2ADF80E003B484068354900904E
:101E600007F0D8FD019008F012F880B2ADF810002C
:101E7000354880682F49009007F0CCFD019008F0AC
:101E800006F880B2ADF81200304800682949009089
:101E900007F0C0FD019007F0FAFF80B2ADF8140022
:101EA0002A4840682349009007F0B4FD019007F0EC
:101EB000EEFF80B2ADF81600244880681D490090FE
:101EC00007F0A8FD019007F0E2FF80B2ADF818001E
:101ED000092202A91848123001F04FF801201749D1
:101EE00088731749089848700798807812287DD120
:101EF00007980079000200B20799497908430090D9
:101F000007F080FF0749019007F084FD1049086041
:101F100007988079000200B20799C97908430090B8
:101F200018E000006F12833ABC080020FC08002073
:101F3000DC08002000007A4400A4010858040020B6
:101F40001C0000207C0800205C0800209C08002069
:101F50003C09002007F056FFC249019007F05AFDE6
:101F6000C14948600798007A000200B20799497A8F
:101F70000843009007F046FFBA49019007F04AFD78
:101F8000B94988600798807A000200B20799C97A37
:101F90000843009007F036FFB249019007F03AFD80
:101FA000B24908600798007B000200B20799497B9C
:101FB0000843009007F026FFAA49019007F02AFD88
:101FC000AA4948600798807B000200B20799C97B44
:101FD0000843009007F016FFA249019007F01AFD90
:101FE000A2498860A0480068A14900E073E0009021
:101FF00007F010FD019007F04AFF80B2ADF808002D
:10200000994840689A49009007F004FD019007F054
:102010003EFF80B2ADF80A00934880689449009072
:1020200007F0F8FC019007F032FF80B2ADF80C0029
:102030008E4800688E49009007F0ECFC019007F094
:1020400026FF80B2ADF80E008848406888490090AD
:1020500007F0E0FC019007F01AFF80B2ADF8100025
:10206000824880688249009007F0D4FC019007F014
:102070000EFF80B2ADF812007C4800687C490090E9
:1020800007F0C8FC019007F002FF80B2ADF8140021
:10209000764840687649009007F0BCFC019007F054
:1020A000F6FE80B2ADF81600704880687049009066
:1020B00007F0B0FC019007F0EAFE80B2ADF818001E
:1020C000092202A96B4800F058FF01206A49C87331
:1020D0006A490898887009B000BD817803291BD12E
:1020E0004179027941EA022109B2654A1180C17938
:1020F000827941EA022109B2614A5180417A027A29
:1021000041EA022109B25E4A9180C17A827A41EAAB
:10211000022109B25A4AD1807047817802290BD135
:102120000179012907D10421564A11700121524A2F
:1021300011715171917100BF704701468878012873
:1021400039D15048007818B14E480078012821D183
:102150000879012804D14C4A10700020907019E0D1
:102160000879022805D10120474A50700020D0701C
:1021700010E00879032805D10120444A107000209E
:10218000507007E00879042804D10120404A1070FB
:10219000002050700879A02803D10020394A10701F
:1021A00009E00879A12806D136480078012802D133
:1021B0000220344A1070087970472DE9F041044636
:1021C0000D460026002704E0E05D3044C6B2781CCE
:1021D000C7B2681EB842F7DC2E4806710079611953
:1021E00011F8011C884202D00020BDE8F08160781F
:1021F000217840EA012027490880084600884AF6ED
:10220000AF21884201D0FF20EFE7A07821498870F4
:1022100008468078012803D12046FFF78EFF1FE093
:102220001C488078022803D12046FFF776FF17E08C
:1022300018488078032803D12046FFF74EFF0FE0AF
:1022400014488078102807D012488078112803D0CD
:1022500010488078122803D131462046FFF7E8FB6A
:102260000120C2E76F12833A3C0900201C090020BC
:1022700000007A4424A40108580400201C00002017
:10228000300400200C000020F8060020B8060020D2
:102290008C0300202000002010B50246012000E041
:1022A00050430B1EA1F10104E1B2F9D110BD2DE99B
:1022B000F34F81B007463C4600200090834681469C
:1022C0000026804628E020782D2802D148F0020818
:1022D000641C20782C2802D020782A2800D11CE009
:1022E00020782E2803D148F00108641C09E02078EA
:1022F000392802DC2078302803DA4FF00009002664
:102300000BE008F0010010B1701CC6B203E009F147
:10231000010000F0FF09641CD5E700BF08F00200CF
:1023200000B17F1C00250EE0A9F10100401BC1B2E5
:102330000A20FFF7B1FF795D3039009A00FB0120D8
:102340000090681CC5B24D45EEDB052E00DD05266C
:102350000298067000250EE0701E401BC1B20A20D4
:10236000FFF79AFF09F101012944795C303900FB3C
:1023700001BB681CC5B2B542EEDB31460A20FFF74F
:102380008BFF009901FB00BA08F0020008B1CAF106
:10239000000A5046BDE8FE8F0246134610E0107852
:1023A0002A2805D01078202802DB10787A2801DD51
:1023B000FF20704710782C2801D1481EC1B2521C52
:1023C0000029ECD1D01AC0B2F3E72DE9F84F04464A
:1023D0000F46FEA1384607F0B3FA06460121304603
:1023E000FFF7DAFF0546FF2D17D070196946FFF792
:1023F0005EFF804607F006FD44F8770F9DF8001059
:102400000A20FFF749FF814607F005FD8046206856
:10241000414607F031FB44F8770907213046FFF7C2
:10242000BBFF0546FF2D22D070196946FFF73FFF1D
:10243000804607F0E7FCC4F87F009DF80000032801
:1024400015DA9DF80000C0F10300C1B20A20FFF7C1
:1024500023FF824607F0DFFC8146DD4907F00CFBD5
:102460008046D4F87F1007F0D5FAC4F87F00BDE8A5
:10247000F88F2DE9F04F87B004468A46D5A1504623
:1024800007F05EFA814601214846FFF785FF0546C1
:10249000FF2D24D009EB050006A9FFF708FF07462A
:1024A0009DF818100A20FFF7F7FEB7FBF0F642F28E
:1024B0001070B6FBF0F0C1B2412001556420B6FBAC
:1024C000F0F06421B0FBF1F201FB12014220015552
:1024D0006420B6FBF0F100FB11614320015503219C
:1024E0004846FFF759FF0546FF2D5ED009EB050072
:1024F00006A9FFF7DCFE06469DF81800801CC1B255
:102500000A20FFF7C9FEB6FBF0F7384607F099FC42
:102510006064A1649DF81800801CC1B20A20FFF716
:10252000BBFEB6FBF0F100FB1167384607F073FC09
:1025300083469DF81800C0F10500C1B20A20FFF7DC
:10254000ABFE009007F067FC8046594607F062FA40
:102550000746A14907F090FA019007F0E4FCCDE9A5
:10256000040105210A20FFF797FE019007F069FC9E
:1025700007468846616CA06C0A460346CDE9001008
:102580003846414607F05DFBCDE90201DDE9042351
:1025900007F0B0FA6064A164676CA16C00228F4BF5
:1025A000384607F0C0FB6064A16404214846FFF789
:1025B000F3FE0546FF2D03D019F8050084F84C0002
:1025C00005214846FFF7E8FE0546FF2D60D009EBE0
:1025D000050006A9FFF76BFE06469DF81800801C53
:1025E000C1B20A20FFF758FEB6FBF0F7384607F0F5
:1025F00028FC44F84D0F61609DF81800801CC1B2A2
:102600000A20FFF749FEB6FBF0F100FB11673846E0
:1026100007F001FC83469DF81800C0F10500C1B227
:102620000A20FFF739FE009007F0F5FB59460190AC
:1026300007F0F0F98046684907F01EFA074607F0F0
:1026400072FCCDE9040105210A20FFF725FE019067
:1026500007F0F7FB07468846216860680A4603468C
:10266000CDE900103846414607F0EBFACDE902010A
:10267000DDE9042307F03EFA2060616027686168A5
:102680000022564B384607F04EFB206061604D3CFF
:1026900006214846FFF780FE0546FF2D03D019F8B6
:1026A000050084F8550009214846FFF775FE0546E8
:1026B000FF2D1FD009EB050006A9FFF7F8FD064620
:1026C00042F21070B6FBF0F0C1B240200155642018
:1026D000B6FBF0F06421B0FBF1F201FB12013F20E8
:1026E00001556420B6FBF0F100FB116000F5FA60C3
:1026F000A4F83D000A214846FFF74EFE0546FF2D8F
:1027000009D009EB050006A9FFF7D1FD074607F040
:1027100079FBC4F87B0007B0BDE8F08F2DE9F843E2
:10272000054688462EA1404607F00AF906460221D2
:102730003046FFF731FE0446FF2C05D030196946BC
:10274000FFF7B5FD85F86400002713E0F81CC1B25F
:102750003046FFF721FE0446FF2C08D030196946A9
:10276000FFF7A5FDC1B205F15800C15500E003E037
:10277000781CC7B20C2FE9DB00BF0F213046FFF7F2
:102780000BFE0446FF2C05D030196946FFF78FFD7C
:10279000A5F8650010213046FFF7FEFD0446FF2C2A
:1027A00005D030196946FFF782FDA5F867001121B1
:1027B0003046FFF7F1FD0446FF2C05D0301969467D
:1027C000FFF775FDA5F86900BDE8F883565447008A
:1027D00000007A44524D430000007042006AF84005
:1027E000475341002DE9F84305460F46FCA1384602
:1027F00007F0A6F8064606213046FFF7CDFD044651
:10280000FF2C05D030196946FFF751FD85F85600B9
:1028100007213046FFF7C0FD0446FF2C05D03019D4
:102820006946FFF744FD85F8570009213046FFF758
:10283000B3FD0446FF2C0CD030196946FFF737FD75
:10284000814607F0DFFA8046E64907F015F9C5F83A
:102850006B00BDE8F8832DE9FC5F07468A464FF020
:102860000008CDF804A0E0A1019807F069F8064639
:10287000F079303800F0FF0B03213046FFF78CFD74
:102880000546FF2D04D070196946FFF710FD38701A
:102890004FF000096CE0D4A1019807F051F806460A
:1028A00000245CE0042000EB8400C1B23046FFF756
:1028B00073FD0546FF2D09D070196946FFF7F7FC37
:1028C000C1B208EB8802781C815400E049E0052081
:1028D00000EB8400C1B23046FFF75EFD0546FF2DD8
:1028E0000AD070196946FFF7E2FCC1B208EB880212
:1028F000781C1044417000E033E0062000EB8400B7
:10290000C1B23046FFF748FD0546FF2D0AD07019C9
:102910006946FFF7CCFC81B208EB8802781C1044B2
:10292000418000E01DE0072000EB8400C1B230468A
:10293000FFF732FD0546FF2D0AD070196946FFF7F3
:10294000B6FCC1B208EB8802781C1044017100E0AB
:1029500007E008F1010000F0FF08601CC4B2042C7D
:10296000A0DB00BF701C019009F1010000F0FF091D
:10297000D94590DBBDE8FC9F2DE9FC5F0446894604
:1029800049462046FFF767FF49462046FFF72AFFE2
:1029900049462046FFF7C2FE49462046FFF769FD3B
:1029A00049462046FFF711FD4FF48061484606F086
:1029B000BCFF94F8560000287ED08D4890F838006F
:1029C000002859D18B480078401C8A490870656CF2
:1029D000A36C2A46884903C907F08CF8864A03C2CB
:1029E000D4F84D50D4F851302A46844903C907F031
:1029F00081F8824A03C2D4F86B108148006806F05F
:102A0000B1FF7F4908607B480078142834D17948A9
:102A1000007807F016FA05462A460B46764903C9A0
:102A200007F081F9724AC2E902017248007807F0A2
:102A300008FA05462A460B46704903C907F073F9A0
:102A40006B4A03C26B48007807F0E5F90546294652
:102A50006B48006807F010F8654908610021664A74
:102A600011605160654A116051600020644908603E
:102A700001205F4981F838005D4890F8380001284E
:102A80003FD1606CA16C5A4AC2E90801D4F84D00EC
:102A9000D4F85110C2E90601D4F86B0011468862DF
:102AA0000846D0E902532A46D0E90871384607F0B3
:102AB000C2F88246002200E023E0524B07F0C1F842
:102AC000CDE9000107F072FA494908630846D0E9E8
:102AD00000532A46D0E90671384607F0ACF8824622
:102AE0000022484B07F0ADF8CDE9000107F05EFA8F
:102AF0003F49C8620A461169906A06F085FF3C4961
:102B00004863BDE8FC9F2DE9FC413F4890F8010176
:102B1000012864D100203C4981F80101491C3B484F
:102B2000FFF72AFF394890F8560020B938A007F07F
:102B300091FCBDE8FC81354890F86400022803D17F
:102B400039A007F087FC07E0304890F864000328BC
:102B500002D13AA007F07EFC2C4890F864000128CE
:102B60003CD02A484D3002684168104607F01EFAF2
:102B70000746374906F080FF044607F0D4F90546BA
:102B80002A460B4633A007F065FC2048426C816C56
:102B9000104607F00BFA07462D4906F06DFF044674
:102BA00007F0C1F905462A460B462EA007F052FC55
:102BB0001649D1F86B000B4906F05EFF064607F098
:102BC000B2F904460B4611480078104991F85710A5
:102BD0002246CDE9001027A007F03CFC63E05FE04F
:102BE000474741000000204124475047535600000A
:102BF000F8050020300000203800002040000020B0
:102C0000480000208019FB4070040020720500205D
:102C10004C6F636174696F6E20756E636572746169
:102C2000696E20210A0000004C6F636174696F6E49
:102C3000206D6F6465203A32440A00004C6F636176
:102C400074696F6E206D6F6465203A33440A00002A
:102C50000050C3476C6F6E6769747564653A25668A
:102C60000A0000006C617469747564653A25660A2F
:102C700000000000616C7469747564653A252E3239
:102C8000666D202020706F73736C6E756D3A2564CD
:102C900020202073766E756D3D25640A00000000CB
:102CA0009EA007F0D7FB00BF43E770B504460025A0
:102CB00015701D70002009E01578265C35441570EC
:102CC0001D78167835441D70451CA8B28842F3DB88
:102CD00070BD70B50025002604E0681C85B2052093
:102CE000FDF730FB924890F80101012801D1642DD5
:102CF000F3DBFA2D1BDA8E480578002407E08C48B8
:102D0000401C005DB52800D103E0601C84B2AC42D9
:102D1000F5DB00BFAC4201D1022609E08448401C2B
:102D2000E11C405C08B9032602E0002600E0012611
:102D300000207F4981F80101304670BD70B57D4C9F
:102D400046F2B520208040F6061060800D20A0805D
:102D50000020C4F806004FF6FF70C4F80A000020F7
:102D6000C4F80E000420A07404F114035A1E1121AB
:102D7000A01CFFF79AFF00BF6F4800680028FBD136
:102D800015216C4802F02EFD002505E0FFF7A1FF9C
:102D900000B903E0681CC5B2062DF7DB00BF062DA5
:102DA00001D1012070BD0020FCE770B505460E463C
:102DB000604C46F2B52020804FF48370608008207C
:102DC000A080F020A071E571012020726672A072CF
:102DD000E0722073607304F10F035A1E0C21A01CD3
:102DE000FFF763FF00BF544800680028FBD11021A3
:102DF000504802F0F7FCFFF76CFF70BD70B5054658
:102E00004C4C46F2B5202080062060801420A08023
:102E10000120A0710020E07120814FF40D60C4F802
:102E20000A00C4F80E5007206082A0820020E082D1
:102E3000208304F11B035A1E1821A01CFFF735FF45
:102E400000BF3D488438806C0028FAD11C213948E5
:102E500002F0C8FCC820FDF775FA284602F0E4FC31
:102E6000FFF737FF70BD2DE9F04105460E461746C6
:102E7000304C46F2B520208040F20670608014206D
:102E8000A080C4F80650C4F80A60A7730020E0735D
:102E9000207460744FF44D7060820020A082C4F8EA
:102EA000160004F11B035A1E1821A01CFFF7FDFE9B
:102EB00000BF21488438806C0028FAD11C211D48AD
:102EC00002F090FCFFF705FFBDE8F08170B5054604
:102ED0000E46184CC82D01DA012070BD46F2B5200F
:102EE000208040F6060060800620A080E58001205A
:102EF0002081668104F10D035A1E0A21A01CFFF7F0
:102F0000D4FE00BF0C488438806C0028FAD10E2112
:102F1000084802F067FCFFF7DCFEDEE764617461DD
:102F2000206E6F74207265616479210A00000000D0
:102F30007004002084090020840002402DE9F04143
:102F400006460F4604F0B5FC352004F04DFF002482
:102F50000DE006EB842004F0F1FC0546042D04D0BE
:102F600004F0B3FC2846BDE8F081601CC4B2BC424A
:102F7000EFDB04F0AAFC0420F5E72DE9F04106465A
:102F80000F4615464FF0000804F093FC352004F07E
:102F90002BFF00240CE037F8141006EB440004F07B
:102FA000D0FD042802D02046BDE8F081601C84B228
:102FB000AC42F0DB04F089FC2846F5E701460888BE
:102FC000704730B503460C461546002207E003EB78
:102FD0004200FFF7F3FF24F81200501C82B2AA420D
:102FE000F5D3104630BD30B503460C4615460022D9
:102FF00007E003EB4200FFF7E1FF24F81200501C4A
:1030000082B2AA42F5DB30BDFEB504460D46174636
:1030100003226946F148FFF7D4FFBDF800004FF6E0
:10302000FF71884218D0BDF80200884214D0BDF864
:103030000400884210D0BDF8000000B2A082BDF8A4
:10304000020000B2E082BDF8040000B2208301203B
:10305000A0700020207003E00020A07001202070EC
:1030600003226946DE48FFF7ACFFBDF800004FF6CB
:10307000FF71884218D0BDF80200884214D0BDF814
:103080000400884210D0BDF8000000B26083BDF893
:10309000020000B2A083BDF8040000B2E08301206A
:1030A000E0700020607003E00020E070012060709C
:1030B00006226946CB48FFF784FFBDF800004FF6B3
:1030C000FF71884233D0BDF8020088422FD0BDF88E
:1030D000040088422BD0BDF8000000B2A886BDF8DD
:1030E000020000B2E886BDF8040000B22887BDF8EF
:1030F000060006F090FE0646BB4906F0BDFCA8623D
:10310000BDF8080006F087FE0646B74906F0B4FC95
:10311000E862BDF80A0006F07EFE0646B24906F0F7
:10312000ABFC2863012068700020287003E00020B9
:10313000687001202870FEBD30B585B0092269464F
:10314000AA48FFF73EFFC4B2092C63D1BDF80010B6
:1031500008B206F057FE0546A54906F05BFCA549F6
:103160000860BDF8021008B206F04CFE0546A04902
:1031700006F050FC9F494860BDF8041008B206F004
:1031800041FE05469A4906F045FC9A498860BDF81B
:10319000061008B206F036FE0546954906F03AFCE0
:1031A00095490860BDF8081008B206F02BFE0546E8
:1031B0008F4906F02FFC90494860BDF80A1008B20C
:1031C00006F020FE05468A4906F024FC8A498860FC
:1031D000BDF80C1008B206F015FE0546844906F04D
:1031E00019FC86490860BDF80E1008B206F00AFE08
:1031F00005467F4906F00EFC80494860BDF8101076
:1032000008B206F0FFFD0546794906F003FC7B494C
:10321000886002E0002005B030BD0922694673488D
:103220001230FFF7CEFEC4B2092C63D1BDF80010F6
:1032300008B206F0E7FD05466D4906F0EBFB704964
:103240000860BDF8021008B206F0DCFD05466849CA
:1032500006F0E0FB6A494860BDF8041008B206F0C9
:10326000D1FD0546624906F0D5FB65498860BDF889
:10327000061008B206F0C6FD05465D4906F0CAFB19
:1032800060490860BDF8081008B206F0BBFD0546AD
:10329000574906F0BFFB5B494860BDF80A1008B209
:1032A00006F0B0FD0546524906F0B4FB554988606A
:1032B000BDF80C1008B206F0A5FD05464C4906F015
:1032C000A9FB51490860BDF80E1008B206F09AFD3E
:1032D0000546474906F09EFB4B494860BDF8101073
:1032E00008B206F08FFD0546414906F093FB4649BA
:1032F000886001E000208EE7092269463B482430BF
:10330000FFF75FFEC4B2092C63D1BDF8001008B20C
:1033100006F078FD0546364906F07CFB3B4908601F
:10332000BDF8021008B206F06DFD0546304906F002
:1033300071FB36494860BDF8041008B206F062FD22
:1033400005462B4906F066FB30498860BDF806103B
:1033500008B206F057FD0546254906F05BFB2C49EF
:103360000860BDF8081008B206F04CFD054620497B
:1033700006F050FB26494860BDF80A1008B206F076
:1033800041FD05461A4906F045FB21498860BDF814
:103390000C1008B206F036FD0546154906F03AFB5A
:1033A0001B490860BDF80E1008B206F02BFD05465B
:1033B0000F4906F02FFB16494860BDF8101008B2FF
:1033C00006F020FD05460A4906F024FB10498860F6
:1033D00001E000201FE702201DE700000094010823
:1033E00000980108009C010800007A4400A401082C
:1033F0006F12833ADC080020BC080020FC08002083
:103400007C0800205C0800209C0800203C0900206B
:103410001C09002070B504460D464FF0824120681B
:1034200006F0EAFD04D30020216806F0DBFD02D19E
:103430004FF082402060207906F0EDFC06462168BE
:1034400006F0DAFD01D800202071237904F10C0286
:1034500052F82310A06806F0D7FAA060217904F191
:103460000C0040F821502379024652F82310A0683E
:1034700006F078FAA0602079401C20712168A068CD
:1034800006F0FAFA70BD000010B50446FE49204669
:1034900006F0B2FD01D2FC4C05E0FC49204606F0E6
:1034A000A1FD00D2F94CFA49204606F0A5FD04D250
:1034B000F549204606F0A8FA10BDF649204606F068
:1034C00091FD04D2F049204606F04CFAF4E720467C
:1034D000F2E72DE9F04704464FF07C51204606F014
:1034E00099FA814625462E46EB48A0EB66063546FE
:1034F0002946484606F08EFA8246294606F08AFAA0
:1035000080464FF07F5106F082FA0746294606F0C2
:1035100081FA05462846BDE8F08770B506460D4697
:1035200014462146304606F067FD01D2264605E0E6
:103530002946304606F056FD00D22E46304670BD74
:103540000FB400B597B0D548B0F90600089006F062
:1035500059FC0C90D148B0F90800089006F052FCD4
:103560000B90CE48B0F90A00089006F04BFC0A9088
:103570002398CB49089006F04DFA0F902498C8493B
:10358000089006F047FA0E902598C549089006F075
:1035900041FA0D90C3480078012806D0C148007850
:1035A00018B1C048007802280BD14FF08040BE49C6
:1035B0000863BE4848634FF07F508862BB48C862CA
:1035C00019E0B8480078032815D1B748406B4FF090
:1035D0008041089006F006FD04D10020B249C86180
:1035E00008624862B248B0490863B2484863B248CA
:1035F00088620020C862AC48806906900A9906F08B
:1036000009FA0890A848406904900B9906F002FA5C
:103610000690A548006904900C9906F0FBF9059006
:10362000069906F09FF90790089906F09BF9169005
:103630004FF08C41169806F0E7F99B4948640A99C7
:10364000084606F0E7F907900B99084606F0E2F9FC
:1036500005900C99084606F0DDF90490059906F0EE
:1036600081F90690079906F07DF90890FFF731FF80
:1036700016900C99169806F0CDF90C900B991698A7
:1036800006F0C8F90B900A99169806F0C3F90A904B
:1036900085484069014606900A9806F0BBF90890F3
:1036A00081488069014606900B9806F0B3F90790AF
:1036B000089906F0A9F915907B48806901460690A3
:1036C0000C9806F0A7F90890774800690146069023
:1036D0000A9806F09FF90790089906F095F914905A
:1036E0007148406B01460790159806F093F90890D1
:1036F0006D48C06901460790089806F033F96A4999
:10370000C8610846406B01460790149806F082F99C
:1037100008906548006A01460790089806F022F96B
:10372000614908622798012840D10846006C01468B
:103730000790269806F068F90890FFF7A5FE169006
:103740005948806A5C49089006F04CFC22D15548E3
:10375000007803281BD0169806F0E5FB21F0004105
:103760004FF08042554BCDE9040106F06AFACDE9ED
:10377000060106F01BFC4C4988620846806A504AE4
:103780004D490890FFF7C9FE4749886202E04A4860
:10379000454988624448806A0790169906F03AF9CC
:1037A0003F49089006F036F9099001E000200990A1
:1037B0003D48006B0590159906F02CF907903A48A2
:1037C00000690490099906F025F905900F9906F013
:1037D000C9F80690079906F0C5F808903248C06904
:1037E00001460790089806F0BDF80F902E48006B30
:1037F0000590149906F00EF907902B484069049043
:10380000099906F007F905900E9906F0ABF80690B5
:10381000079906F0A7F808902348006A0146079028
:10382000089806F09FF80E901F4880690790099944
:1038300006F0F0F808900D9906F094F80D901A48EB
:1038400000681090184840681190174880681290DE
:103850001548C0681390139804900D9906F0DAF893
:103860000690129802900E9906F0D4F804901198E0
:1038700080F0004002900F9906F0CCF80390049974
:1038800006F0C2F805901DE00000B4430000B4C388
:1038900000003443000034C3DF59375FF8060020CE
:1038A00039FA8E3C0C0000204C0000200AD7A33CC3
:1038B000CDCC4C3E0AD7233B0AD7233CE17AA43F28
:1038C000CDCCCC3E069906F09FF8D549079006F07E
:1038D000A1F80890109801460790089806F042F861
:1038E000D0490860139804900E9906F093F806905A
:1038F000129802900D9906F08DF80490109802909D
:103900000F9906F087F80390049906F02BF80590BC
:10391000069906F079F8C249079006F07BF80890FE
:10392000119801460790089806F01CF8BD494860B8
:10393000139804900F9906F06DF806901198029074
:103940000D9906F067F80490109802900E9906F011
:1039500061F80390049906F057F80590069906F06F
:1039600001F8AF49079006F055F808901298014603
:103970000790089805F0F6FFAA498860129804900D
:103980000F9906F047F80690119802900E9906F0EC
:1039900041F80490109802900D9906F03BF80390BE
:1039A000049905F0DFFF0590069906F02DF89C4973
:1039B000079006F02FF80890139801460790089892
:1039C00005F0D0FF9749C8600846C06805900846D2
:1039D000C0680490059906F01DF80790914880682A
:1039E0000390904880680290039906F013F80590C0
:1039F0008C48406801908B4840680090019906F01F
:103A000009F8039087480068019086480068009094
:103A1000019905F0FFFF0290039905F0A3FF0490C0
:103A2000059905F09FFF0690079905F09BFF089008
:103A3000FFF74FFD16907B4800680890169905F037
:103A4000E9FF78490860084640680890169905F033
:103A5000E1FF74494860084680680890169905F0AF
:103A6000D9FF704988600846C0680890169905F02B
:103A7000D1FF6C49C8600846806805900846006818
:103A80000490059905F0C6FF07906648C068059048
:103A9000644840680490059905F0BCFF06900799BA
:103AA00005F0B2FF4FF08041089005F0B3FF5D498B
:103AB00008610846C068059008468068049005992A
:103AC00005F0A8FF079057484068059055480068E2
:103AD0000490059905F09EFF0690079905F042FFB6
:103AE0004FF08041089005F095FF4E494861084627
:103AF00080680490084680680390049905F08AFF66
:103B000006904848406804904648406803900499ED
:103B100005F080FF0590069905F024FF4FF08041E5
:103B2000079005F077FF4FF07E51089005F06FFF8A
:103B30003C498861084680690790084640690690BC
:103B4000079907F0A3FF3849089005F063FF35494E
:103B5000886308460069079007F036FD80F0004052
:103B60003149089005F056FF2E49C8630846C068E1
:103B700001900846C0680090019905F04BFF039042
:103B8000284880680190274880680090019905F0D6
:103B900041FF0290039905F0E5FE4FF0804104904B
:103BA00005F038FF4FF07E51059005F030FF07908B
:103BB0001C48C06802901B4800680190029905F0FB
:103BC00029FF0490174880680290164840680190C9
:103BD000029905F01FFF0390049905F0C3FE4FF012
:103BE0008041059005F016FF0690079907F04EFFFB
:103BF0000D49089005F00EFF0A4908640846806BDD
:103C00000890FFF741FC074988630846C06B08909D
:103C1000FFF73AFC0349C86317B05DF814FB0000D6
:103C20000AD7A33A4C000020E12E65422DE9FF5F40
:103C300004468A46BAF1000F04D05E48216AFFF7B5
:103C4000E9FB2062D4E9080105F0DEFEA0625A49D2
:103C5000206A05F011FF834606F065F94FF04042F7
:103C6000564BCDE9000108F055F90022544BCDE93F
:103C7000020105F0E3FF07460022524B05F0E1FF89
:103C8000054606F093F981464F48C0F80090C4F805
:103C90002C90616BE06A05F0B7FE2063BDE8FF9FE2
:103CA0002DE9FE4F49480078032802D000204849FA
:103CB00008604849B1F90010A1F2DC5006F0B0F8F4
:103CC00080460022444B05F0BCFF06464FF0804280
:103CD000424B05F0B6FF04460D463D48006806F02D
:103CE00022F9824622462B4605F004FFCDE9000169
:103CF00006F05CF9364908604FF07E5200213448E6
:103D00000068FFF70AFC324908603548416C3548C5
:103D1000FFF780FB324948643348016B3348FFF7B3
:103D200079FB314908632E49486C314905F072FE30
:103D300004462D4902AB2F4A086B214602F072F867
:103D40002D4801682B48006805F05EFE04462B49AB
:103D500005F060FE2A4908602A48029905F05AFEDB
:103D6000044627480168284805F054FE05462146C8
:103D700005F0F8FD22490860084602F042FD1D48A2
:103D800000681D4908604FF07E50204B0090194894
:103D900002680F4801681E4801F0D0FA1D480090E3
:103DA0001B481A4BC169164802681B4801F0C6FA45
:103DB000BDE8FE8F9400002080E6C547955BC83FB4
:103DC0000000F03F40A5E540480100200C00002025
:103DD00024010020300400200000E03FE17A943FFD
:103DE0004C000020C00000208C030020EC000020CC
:103DF0002BCD9C3A3C0100204001002000004842AD
:103E000044010020CDCC4C3ECDCC4C3F0000C842FC
:103E10001C090020000096433C0900204FF07E5012
:103E2000AC4908600020486088604FF07E50AA4985
:103E300008600020486088604FF07E50A749086005
:103E40000020486088604FF07E50A549086000203F
:103E50004860886070470246002A04DD501A002836
:103E600005DA002003E05018002800DD002070472C
:103E70002DE9F84F9B49086C9B4905F0CBFD0446A2
:103E800007F080FF994908609649086C964905F04B
:103E9000C1FD044608F02AFD954908609548007860
:103EA00003281AD09448066841680022934B304694
:103EB00005F0C7FE044605F0FEFF914908608E49F3
:103EC0004D394E6C896C00228C4B304605F0B9FEA2
:103ED000044605F0F0FF8B49086087484D38466C72
:103EE000816C0022854B304605F0ABFE804689464A
:103EF0008448006805F094FF824642464B4605F030
:103F00009AFE044605F0D7FF7F4908607A480668A4
:103F100041680022794B304605F093FE8046894681
:103F20007748006805F07CFF044642464B4605F0A2
:103F300082FE824605F0BFFF744908606E484D3826
:103F4000476C816C4FF00052714B384605F079FE9A
:103F5000054606F02BF8814607F014FF04466B482F
:103F6000006805F04FFF8246214605F053FD5A498F
:103F7000C8606548006805F045FF5649C8605E495D
:103F80004D39D1F86F0005F069FF05460521FFF7AF
:103F900062FF044605F036FF5E49086056494D3918
:103FA000D1F8730005F05AFF05460521FFF753FFCE
:103FB000044605F027FF584908604F494D394E6CBB
:103FC000896C00224D4B304605F03BFE80464FF099
:103FD0000052524B05F035FE044605F0E7FF8246DD
:103FE0004748006805F00EFF83464FF07E504C4B6B
:103FF000524659460090384801F0A0F93E484D38E5
:10400000476C816C00223D4B384605F01AFE054690
:1040100005F0CCFF04463B48006805F0F3FE8146FE
:104020004FF07E503E4B224649460090294801F011
:1040300085F93C483A4B0090364802683A48016896
:10404000264801F07BF93748354B0090324802682A
:1040500036480168224801F071F9BDE8F88F70B563
:104060001F49C8692249096805F0D4FC04461B4968
:10407000C8691E49096805F0CDFC0546214605F0D2
:1040800071FC80F000402A4908601449C869184949
:10409000096805F0BFFC04461149C869134909685D
:1040A00005F0B8FC0546214605F0AEFC2149086044
:1040B00070BD10B520480078401C1F4908700846A4
:1040C0000078642804D1FFF7D3FE00201A49087055
:1040D00010BD000038060020580600207806002099
:1040E000980600204C00002039FA8E3C4C0100203C
:1040F000500100200C000020BF050020D0126341B9
:104100005C010020600100206801002064010020A3
:1041100047DF913F70010020740100208E75ED3F54
:10412000000020410000A040780100207C01002018
:10413000580100205401002088010020B0B5044639
:104140000D4635703346012221461A2002F01AFD31
:1041500007463846B0BD70B504460D462B460122D1
:1041600021461A2002F041FD0646304670BD08B5D2
:1041700069460D20FFF7EFFF9DF80000FF2801D0F2
:10418000002008BD80210A20FFF7D8FF6420FCF73B
:10419000D9F849210920FFF7D1FF41210A20FFF773
:1041A000CDFF01210B20FFF7C9FF0120E9E7FEB594
:1041B0000446207801286DD1FE480088401CFD4946
:1041C0000880084600880A2190FBF1F201FB1200EA
:1041D000012803D10103F84802F069FEF548008880
:1041E000142190FBF1F201FB1200022803D1C1025D
:1041F000F14802F05AFE00206070EE480088B0F5E9
:10420000FA6F48DAB4F90400B4F91C10884202DAF3
:10421000B4F9040001E0B4F91C00A083B4F906006D
:10422000B4F92010884202DAB4F9060001E0B4F9CA
:1042300020002084B4F90800B4F92410884202DA7E
:10424000B4F9080001E0B4F92400A084B4F9040032
:10425000B4F91E10884202DDB4F9040001E0B4F99B
:104260001E00E083B4F90600B4F92210884202DD92
:10427000B4F9060001E0B4F922006084B4F9080042
:10428000B4F92610884202DDB4F9080001E0B4F95F
:104290002600E084A6E00020C64908804FF4805143
:1042A000C54802F004FEB4F91C10B4F91E208818A9
:1042B00005F0A8FD06464FF0804105F0DDFB054600
:1042C00005F0CCFD00B2A086B4F92010B4F922208C
:1042D000881805F097FD06464FF0804105F0CCFBAD
:1042E000054605F0BBFD00B2E086B4F92410B4F930
:1042F0002620881805F086FD06464FF0804105F01F
:10430000BBFB054605F0AAFD00B220874FF07E50AA
:10431000A062B4F92210B4F92020881A05F072FDC9
:104320000546B4F91E10B4F91C20881A05F06AFD80
:104330000646294605F0A0FBE062B4F92610B4F960
:104340002420881A05F05EFD0546B4F91E10B4F964
:104350001C20881A05F056FD0646294605F08CFB00
:104360002063A08E80B2ADF80000E08E80B2ADF880
:104370000200208F80B2ADF804009049A06A05F0D9
:1043800049FB054605F083FD80B2ADF806008B4978
:10439000E06A05F03FFB054605F079FD80B2ADF817
:1043A00008008649206B05F035FB054605F06FFDDA
:1043B00080B2ADF80A0001218148FEF7BFFD062258
:1043C00069467F48FEF7D9FD01207E4988740020A8
:1043D000A083E08320846084A084E0840120607056
:1043E00000202070FEBD2DE9F04104460D46164622
:1043F00033462A4621461A2002F0F7FB0746384684
:10440000BDE8F0812DE9F04F93B000200F900E90A1
:1044100081466D490620FFF79EFE6B48801E80781E
:1044200000F0010000287DD010AA06210020FFF72F
:10443000DAFF6548801E807800F00200E8B99DF838
:1044400041009DF8401001EB002000B25E49891E3A
:1044500088809DF843009DF8421001EB002000B2D7
:104460005949891EC8809DF845009DF8441001EB0C
:10447000002000B25449891E08815348801E0078EC
:10448000012806D15048801EFFF791FE13B0BDE809
:10449000F08F4D48801E407801284ED14A49891E30
:1044A000B1F90410484A921EB2F93420881A05F076
:1044B000A9FC0D904448801E806A80F00048404668
:1044C0000D9905F0A7FA074605F0C8FC00B23E4971
:1044D000891E8880B1F906103B4A921EB2F9362037
:1044E000881A05F08FFC0D903748801EC06A80F056
:1044F000004840460D9905F08DFA074605F0AEFCE0
:1045000000B23149891EC880B1F908102E4A921EA6
:10451000B2F93820881A05F075FC80462A48801EBA
:10452000016B00E012E1404605F074FA074605F021
:1045300095FC00B22449891E08812349891EB1F9DE
:10454000040005F05FFC0746204905F095FA1E4976
:10455000891EC860B1F9060005F054FC07461B49E6
:1045600005F08AFA1849891E0861B1F9080005F0BA
:1045700049FC0746154905F07FFA1349891E486131
:10458000B1F904104943104A921EB2F906200E4BAD
:104590009B1EB3F9063002FB03120B49891EB1F9C9
:1045A0000810094B9B1EB3F9083001FB032005F0EE
:1045B00029FC0DE0BA0100200008014000007A4407
:1045C000009C010858040020BA06002000803B46E9
:1045D0000746FEF77EFF06468349B1F9040005F061
:1045E00011FC0746314605F015FA0F907E49B1F9E6
:1045F000060005F007FC0746314605F00BFA0E9061
:104600007949B1F9080005F0FDFB0746314605F090
:1046100001FA81467549886B754905F0FBF9074633
:10462000744905F029FA82467049C86B704905F053
:10463000F1F907466F4905F01FFA8346584608F01E
:1046400055F9074605F06FFCCDE90601504605F027
:104650006AFCCDE9000107F047FB0746884648465B
:1046600005F061FC3A464346CDE9020105F0E9FA5E
:10467000CDE90401DDE9062305F0E3FACDE90A01FD
:10468000584608F033F90590504608F02FF9049089
:104690000E9905F0BFF98046059905F0BBF9069023
:1046A000584607F06FFB80460F9905F0B3F90746AF
:1046B000069905F057F9079005F035FCCDE908019A
:1046C000DDE90A2305F016FACDE90C0105F06EFCD0
:1046D0000446504608F00AF949460D9005F09AF94B
:1046E0000746504607F04EFB0D900E9905F092F9E3
:1046F0008046394605F088F90546284605F013FC42
:1047000007468846204605F00EFC3A464346CDE96A
:10471000060107F0FBF80022374BCDE9080105F050
:1047200090FA4FF0C042354BCDE90A0105F0FBFA93
:10473000CDE90C0105F03AFC2B49C8630846C16B72
:104740002F48FEF767FE2849C86300E09EE600BFD9
:104750009CE62DE9F041244A5169506905F05AF967
:104760000646214A1169106905F054F907461E4AA8
:10477000D168D06805F04EF98046394605F0F2F868
:104780000546314605F0EEF80446204608F098F953
:104790001549886188691B4905F024FC05D3124935
:1047A0008869194905F028FC09D21848008864284E
:1047B0000DDA16480088401C1449088007E01348A9
:1047C000008820B111480088401E104908800F4819
:1047D0000088322803DD01200349C87002E0002070
:1047E0000149C870BDE8F081B80600204C000020E7
:1047F000DB0F49400000344300806640FB21094044
:104800008C010020C3F5A83E6666663FB801002013
:10481000B0B504460D463570334601222146D020FE
:1048200002F0B0F907463846B0BD70B504460D46F3
:104830002B4601222146D02002F0D7F90646304609
:1048400070BD08B569467520FFF7EFFF9DF80000C1
:10485000682804D0FEA000F07FFA002008BD802167
:104860006B20FFF7D5FF6420FBF76CFD0B216B205D
:10487000FFF7CEFF6420FBF765FD01211920FFF74C
:10488000C7FF02211A20FFF7C3FF10211B20FFF7EB
:10489000BFFF08211C20FFF7BBFFF8491C20FFF7D2
:1048A000C4FF00212320FFF7B3FF00213820FFF7CA
:1048B000AFFF00213820FFF7ABFFF1A000F04CFA6A
:1048C0000120CBE77CB504466078012861D1002047
:1048D000E070F1480088C8283FDD0120E07000202A
:1048E0006070EE480068EC49098890FBF1F000B276
:1048F0006083EA484068E849098890FBF1F000B21B
:10490000A083E6488068E449098890FBF1F000B292
:10491000E083608B80B2ADF80000A08B80B2ADF870
:104920000200E08B80B2ADF804000121DC48FEF704
:1049300005FB03226946DA48FEF71FFBC5B2032DCB
:1049400002D10120D74948740020D3490880D349B7
:1049500008604860886001207CBDD0480068B4F9D8
:104960000E100844CD49086008464068B4F910109C
:104970000844CA49486008468068B4F912100844DF
:10498000C6498860C4480088401CC349088000208C
:10499000E2E70020E0E77CB504462078012863D1F7
:1049A0000020A070C0480088C8283FDB0120A0700C
:1049B00000202070BD480068BB49098890FBF1F0D9
:1049C00000B2A082B9484068B749098890FBF1F06D
:1049D00000B2E082B5488068B349098890FBF1F0E5
:1049E00000B22083A08A80B2ADF80000E08A80B2D5
:1049F000ADF80200208B80B2ADF804000121AC4874
:104A0000FEF79CFA03226946A948FEF7B6FAC5B23A
:104A1000032D02D10120A34908740020A349086096
:104A200048608860A049088001207CBD9F480068DC
:104A3000B4F9061008449D49086008464068B4F976
:104A4000081008449949486008468168B4F90A008A
:104A5000A0F5005008449549886093480088401CA0
:104A6000914908800020E0E70020DEE72DE9F041D1
:104A700004460D46164633462A462146D02002F00B
:104A8000B4F807463846BDE8F0811FB504466A46CB
:104A90000E213B20FFF7EAFF9DF801009DF8001072
:104AA00040EA012000B2E0809DF803009DF802106A
:104AB00040EA012000B220819DF805009DF8041015
:104AC00040EA012000B260819DF807009DF80610C1
:104AD00040EA012000B2A0819DF809009DF808106D
:104AE00040EA012000B2E0819DF80B009DF80A1019
:104AF00040EA012000B220829DF80D009DF80C10C4
:104B000040EA012000B260821FBD30B58DB0694817
:104B1000FFF7BBFF6748007801280ED16548FFF713
:104B20003AFF012807D14FF07E506349086000200A
:104B300048608860C8600DB030BD5E48407801288C
:104B40000DD15C48FFF7BEFE012807D14FF07E5023
:104B500059490860002048608860C860EBE7554804
:104B6000C0885449898A401A00B25249C880084610
:104B70000089C98A401A00B24E4908810846408916
:104B8000098B401A00B24B4948810846C089498BBD
:104B9000401A00B24749C8810846008A898B401AEA
:104BA00000B2444908820846408AC98B401A00B2C4
:104BB00040494882B1F9060005F024F90546294626
:104BC0003E48FEF727FC044605F048F900B2394993
:104BD000C880B1F9080005F015F90546294638489E
:104BE000FEF718FC044605F039F900B23149088196
:104BF000B1F90A0005F006F9054629463148FEF7E5
:104C000009FC044605F02AF900B22A494881B1F9A5
:104C10000E0005F0F7F8054629462B48FEF7FAFB8B
:104C2000044605F01BF900B22249C881B1F9100011
:104C300005F0E8F8054629462448FEF7EBFB044654
:104C400005F00CF900B21B490882B1F912003FE0EF
:104C50005B4552524F525D4D5055363035302049EC
:104C60006E6974204661696C3A44657669636520B3
:104C7000494420213D20307836380A00D0020020F7
:104C80005B4F4B5D4D50553630353020496E697461
:104C9000204F4B7E0A000000D40200203C07002079
:104CA0000098010858040020D2020020300700209C
:104CB00000940108F80600204C000020BC010020F0
:104CC000E801002014020020400200206C020020B5
:104CD00005F098F8054629461B48FEF79BFB04465D
:104CE00005F0BCF800B219494882B1F90E0005F090
:104CF00089F80446164904F08DFE1449C862B1F9DA
:104D0000100005F07FF80446114904F083FE0F49B6
:104D10000863B1F9120005F075F804460C4904F077
:104D200079FE0A49486301210A48C06B2822CDE96F
:104D30000A0106491031684604F0DEFD03480FC839
:104D4000FEF7FEFB00BFF6E698020020F806002002
:104D50008FC2F53CB80600200FB438B505A8009006
:104D600081210748009B049A05F084FB84B200204F
:104D700000908021024800F004FE38BC5DF814FB6E
:104D8000480700202DE9F04704460D46052D5AD16D
:104D90004FF47A762088001F20806088001F608092
:104DA000A088001FA080E088001FE080304605F04A
:104DB00032F88046208805F02EF88146944A414614
:104DC000FEF7ABFB074605F062F82080304605F0A1
:104DD00022F88046608805F01EF881468C4A4146DC
:104DE000FEF79BFB074605F052F86080304605F061
:104DF00012F88046A08805F00EF88146844A4146A4
:104E0000FEF78BFB074605F042F8A080304605F020
:104E100002F88046E08804F0FEFF81467C4A414665
:104E2000FEF77BFB074605F032F8E08020887949E1
:104E300008806088091D0880A088091D0880E08816
:104E4000091D088067E0032D49D140F22B4630460A
:104E500004F0E1FF8046208804F0DDFF81466C4AC3
:104E60004146FEF75AFB074605F011F869490880EC
:104E7000304604F0D0FF8046608804F0CCFF8146C5
:104E8000634A4146FEF749FB074605F000F86149D1
:104E9000091D0880304604F0BEFF8046A08804F05B
:104EA000BAFF81465A4A4146FEF737FB074604F0EF
:104EB000EEFF584908310880304604F0ACFF8046C8
:104EC000E08804F0A8FF8146514A4146FEF725FBE1
:104ED000074604F0DCFF4F490C3108801BE0022D2F
:104EE0000AD140F22B404B490880091D0880091D5A
:104EF0000880091D08800EE01DB1012D01D0042D90
:104F000009D14FF47A7043490880091D0880091DB2
:104F10000880091D0880BDE8F08700B589B001212F
:104F2000042002F0D1F90121082002F0CDF901217D
:104F3000022002F0D6F90121084602F0C5F9182036
:104F40008DF80700C020ADF8040003208DF806009E
:104F500001A9314801F0FCFE0320ADF8040001A9CD
:104F60002E4801F0F5FE40F6C310ADF81C000020FD
:104F7000ADF81A00ADF81E004720ADF8180006A9DC
:104F80002448343803F028F801212248343803F04B
:104F90007FFB6020ADF808000120ADF80A0000207A
:104FA000ADF8100002A91B48343803F052F802A9EA
:104FB0001848343803F08FF802A91648343803F043
:104FC000D7F802A91348343803F01DF90821114815
:104FD000343803F08DFC08210E48343803F091FC7E
:104FE00008210C48343803F099FC0821094834386A
:104FF00003F09DFC4FF47A7009490880488088804E
:10500000C88000210648FFF7BDFE09B000BD0000C2
:105010000000E1443404004000080140000C01405D
:10502000D60200201FB50121084602F05AF90121DD
:10503000880703F007FE40F6C410ADF80400002016
:10504000ADF80200ADF806004720ADF80000694653
:105050004FF0804002F0C0FF01221146900703F09C
:1050600032FB0121880703F013FB1C208DF80C0094
:1050700001208DF80D008DF80E008DF80F0003A8AB
:1050800002F08FFB1FBD1FB50121042002F029F99A
:1050900001217A4803F0D6FD42F21070ADF8040009
:1050A0000020ADF80200ADF806004720ADF8000082
:1050B0006946724802F090FF012211466F4803F0E2
:1050C00002FB01216D4803F0E3FA1E208DF80C006D
:1050D00001208DF80D0002208DF80E0001208DF8C2
:1050E0000F0003A802F05DFB1FBD10B5012188076A
:1050F00003F097FD00284CD061480088401C6049AF
:105100000880FFF702FD00F062F95D490888C117C9
:1051100000EB91718910A0EB810109B9FFF772F9D9
:1051200057490888C11700EB5171C910A0EBC101A4
:1051300009B9FFF70EFB52490888C11700EB9171BE
:105140008910A0EB8101012901D1FBF778FB4C49C3
:10515000088800EBD0714910A0EB410109B9FBF7B9
:10516000B9FB47490888C11700EB5171C910A0EB82
:10517000C101012909D143488078012805D142485D
:105180004078012801D1FEF78BFD0121880703F04B
:1051900059FD10BD70B50121384803F042FD0028CB
:1051A00069D000F001FE39488078012806D100203E
:1051B0003649887036493748FDF7DEFB36480078B7
:1051C000401C35490870084600780A2801D10020A3
:1051D00008703248407801282AD100202F494870B1
:1051E0002F4908802D4881782430FCF7E6FF0546DA
:1051F0002846FCF77AFA2948B0F846000A2190FBC5
:10520000F1F201FB1200042803D18102254801F0CC
:105210004EFE2248B0F846000A2190FBF1F201FB55
:105220001200082803D141021E4801F03EFE70BD65
:105230001B480088401C1A49088008460088B0F5C1
:105240007A7F14DB002008804FF40061154801F0DC
:105250002EFEFBF7E6FD0446FBF7A5FD21462720C1
:10526000FBF711FD4FF400610E4801F01EFE012115
:10527000024803F0E7FC00BFD9E700000008004047
:10528000DE020020F80600208C03002078090020B0
:10529000840E002072050020E2020020C4030020DA
:1052A000E0020020000801402DE9F84F04460E46B8
:1052B00017461D46DDF828803946304604F0A4FB29
:1052C000E060E068FEF7E0F8E060B149E06804F013
:1052D000A1FB8146616904F045FB606185F00049EE
:1052E0002A464946E069FEF718F96061D4E90301EE
:1052F00004F08AFBA061A169A06804F08BFB009018
:105300006169606804F086FB8246E168206804F009
:1053100081FB8346514604F025FB8146009904F049
:1053200021FBE06188F0004942464946E069FEF70A
:10533000F4F8E061E0682061BDE8F88F2DE9F84FEE
:1053400004460E4617461D46DDF82880394630468D
:1053500004F05AFBE0608E49E06804F05BFB814694
:10536000616904F0FFFA606185F000492A46494608
:10537000E069FEF7D2F86061D4E9030104F044FB70
:10538000A061A169A06804F045FB009061696068B4
:1053900004F040FB8246E168206804F03BFB834652
:1053A000514604F0DFFA8146009904F0DBFAE0612F
:1053B00088F0004942464946E069FEF7AEF8E061F0
:1053C000E0682061BDE8F88F002141617047F8B5C1
:1053D00070480078032804D06F48006C6F4908605B
:1053E000F8BD6F49B1F9040004F00CFD07466D49A2
:1053F00004F00AFB044604F096FD21F00041054646
:105400000022694B04F0A2FD05D26848FFF7DCFFDB
:105410006748FFF7D9FF6249B1F9060004F0F2FCD2
:105420000746604904F0F0FA044604F07CFD21F0E0
:105430000041054600225C4B04F088FD05D25D4822
:10544000FFF7C2FF5C48FFF7BFFF5C48009052487F
:105450005B4BC26B5B4801685448FFF76FFF5748CE
:1054600000904D48564B826B574801685248FFF7F1
:1054700065FF564800905648026B4C48554BC16931
:105480004B48FFF75BFF514800905148C26A4A48B9
:10549000504BC1694748FFF751FF4149B1F902003C
:1054A00004F0B0FC05463F4904F0AEFA04464A4910
:1054B00004F0B0FA3A49C861B1F9020004F0A2FC64
:1054C0000746384904F0A0FA044604F02CFD21F008
:1054D000004105460022414B04F038FD0AD2404805
:1054E0000078E8B92C48006C2C49086001203C4940
:1054F000087015E000203A4908702949C869244914
:1055000004F088FA044625480168204604F02AFA87
:105510002249086008460068FDF7B6FF1F49086089
:10552000304800901C48264B026C1C4801682E48ED
:10553000FFF7BAFE224800902548426B2A482B4BC1
:10554000C1692B48FFF7B0FE00BF49E70021C160E9
:1055500001614161C1618161704700B51348FFF786
:10556000F5FF1548FFF7F2FF1F48FFF7EFFF21484F
:10557000FFF7ECFF0E48FFF7E9FF0E48FFF7E6FFE5
:105580001B48FFF7E3FF1C48FFF7E0FF00BD0000EA
:105590000AD7233B0C0000204C000020E80200202A
:1055A000300400200080BB44000034407C08002010
:1055B000DC080020BC0800205C0800200000B44289
:1055C0000000C8425401002058010020000034436C
:1055D000F8060020000048428FC2753D00002440BC
:1055E000E60200200000F0419C080020000020415D
:1055F000FC0800201C0900203C09002000B587B0F1
:105600000121084601F060FE0121880301F069FED6
:105610000121082001F058FE4FF46040ADF8180059
:1056200018208DF81B0003208DF81A0006A93048B9
:1056300001F08EFB0020ADF804004FF48270ADF84D
:1056400006000020ADF80800ADF80A00ADF80C0027
:105650004FF40070ADF80E001020ADF810000020DF
:10566000ADF812000720ADF8140001A9214803F09D
:1056700013FB01211F4803F0B4FB07B000BD70B558
:10568000054605E0601CC4B2C82C01DB002070BDDB
:105690000221184803F029FC0028F3D029461548B8
:1056A00003F0D0FB002405E0601CC4B2C82C01DB71
:1056B0000020ECE701210F4803F017FC0028F3D08D
:1056C0000C4803F0C1FBC6B23046E0E710B5044613
:1056D000084800884FF6C771084006490880084608
:1056E0000088204308800121024803F07AFB10BDA6
:1056F000000C0140003800401FB50121082001F0D6
:10570000E3FD0121084601F0DFFD04208DF80700CC
:105710008002ADF8040003208DF8060001A92E4890
:1057200001F016FB0C21012001F028FC4FF4805001
:10573000029000208DF80C000C208DF80D00012047
:105740008DF80E0002A803F015FC28208DF800004B
:1057500000208DF8010002208DF8020001208DF854
:105760000300684602F01DF81FBD10B54FF48050CD
:1057700003F066FC78B34FF40061184801F097FB22
:10578000FBF74FFB044604F04000B8B11448B0F8F2
:105790004600401C1249A1F8460001204870084606
:1057A000FBF766FB04F0200040B101200C490870B3
:1057B0000846B0F84400401CA1F8440021462720C8
:1057C000FBF761FA4FF40061044801F06EFB4FF4FF
:1057D000805003F046FC10BD000C01400008014061
:1057E000C403002070B504460D46002603E0701C7B
:1057F00086B2002070BDB6F5FA7F03DAC84880791A
:105800000128F4D02A462146C64804F075F82946F6
:10581000C54803F011FD0121C34803F0F8FC012045
:10582000BF49887100BFE5E710B586B00446012185
:10583000042001F049FD0121084601F045FD012148
:10584000880301F041FD18208DF817004FF4007017
:10585000ADF8140003208DF8160005A9B34801F037
:1058600077FA04208DF817000002ADF8140005A99E
:10587000AE4801F06DFA01940020ADF80A00ADF8D1
:105880000C00ADF810000C20ADF80E000020ADF8B3
:10589000080001A9A64801F0BEFD0121A44801F0BD
:1058A00046FE012240F22441A14801F04CFE0122B3
:1058B00040F226619E4801F046FE25208DF800004A
:1058C00001208DF8010003208DF8020001208DF8E1
:1058D0000300684601F065FF0122C021944801F0F1
:1058E00057FE00F02DF906B010BD10B540219048CC
:1058F00001F0F8FE90B140218D4801F000FF88488A
:105900000078012803D100208549887108700120A2
:105910008349487008460089401C088140F22441B0
:10592000834801F0F5FE58B3814801F071FE7C48D0
:105930004089401C7A4948814FF4003003F096FCBE
:1059400000217948143003F062FC0120744988700A
:105950007548143003F072FC0446C4F180007049AD
:10596000888080217048143003F066FC01216E4865
:10597000143003F04CFC40F224416D4801F0F2FE7B
:1059800010BD70B504460D46002609E0701C86B2B5
:105990006420FAF7F3FCB6F5007F01DD002070BD4E
:1059A000644880790128F1D02A462146624803F0F4
:1059B000A3FF29465C483C3003F03EFC01215A48D5
:1059C0003C3003F024FC01205A49887100BFE6E70F
:1059D00010B586B004460121042001F075FC0121B8
:1059E000084601F071FC0121480401F07AFC1820FE
:1059F0008DF817000420ADF8140003208DF8160070
:105A000005A94A4801F0A4F904208DF817000820E0
:105A1000ADF8140005A9454801F09AF90194002059
:105A2000ADF80A00ADF80C00ADF810000C20ADF890
:105A30000E000020ADF8080001A9404801F0EBFC81
:105A400001213E4801F073FD012240F224413B4810
:105A500001F079FD012240F22661384801F073FD22
:105A600026208DF8000000208DF8010003208DF81D
:105A7000020001208DF80300684601F092FE012229
:105A8000C0212E4801F084FD00F0C6F806B010BD1C
:105A900010B54021294801F025FE68B14021274872
:105AA00001F02DFE23480078012805D1002021496E
:105AB000887108700120487040F224411F4801F0AD
:105AC00027FE60B31D4801F0A3FD1A484089401C21
:105AD000184948814FF4001003F0C8FB0021124818
