:020000040800F2
:10000000381600203D670008210100082301000880
:10001000270100082B0100082F0100080000000044
:100020000000000000000000000000003301000894
:100030003501000800000000370100083901000800
:100040005767000857670008576700085767000898
:100050005767000857670008576700085767000888
:100060005767000857670008576700085767000878
:100070005767000857670008BB5600085767000815
:10008000576700088F570008576700085767000830
:100090005767000857670008576700085767000848
:1000A0005767000857670008576700085767000838
:1000B000BB4B000857670008654C000857670008ED
:1000C0005767000857670008576700085767000818
:1000D00057670008BB5300086155000857670008C0
:1000E0003B5200085767000857670008DFF80CD03C
:1000F00009F0DAFE00480047010100083816002028
:1001000000BF00BF00BF002400F04EF84FF4A06015
:1001100007F0AAF803E0C82000F00FF8641CFAE723
:10012000704700BFFEE700BFFEE700BFFEE700BF6D
:10013000FEE77047704770477047014601224FF055
:10014000E0231A6142F228324A435A6100229A613E
:1001500000BF4FF0E022106900F001021AB100F474
:100160008032002AF5D000224FF0E0239A611A6114
:100170007047014601224FF0E0231A6101EBC102F2
:100180005A6100229A6100BF4FF0E022106900F02E
:1001900001021AB100F48032002AF5D000224FF09B
:1001A000E0239A611A61704710B506F087FC4FF49E
:1001B000803006F0A3FC00BF06F0DFFC0128FBD175
:1001C000022007F0BFF8102007F0D0F84FF4E0113C
:1001D0004FF4803006F0FAFC012006F003FD00BF6A
:1001E000392006F0AEFC0028FAD0002006F00BFD06
:1001F000002006F01AFD4FF4806006F00DFD4FF46C
:10020000004006F02DFD022007F09CF8002007F0CA
:10021000A2F8102007F0AAF8022006F0E6FC10BDB4
:1002200010B55821EE2006F003FA10BD70B5014656
:1002300000230126887B00F00F05C88900F47F4069
:10024000C881002204E031F8120000B10026521CDF
:10025000082AF8DB0EB1012070BD002218E002F080
:10026000010020B1501011F81000434004E050107C
:1002700031F8100083EA2023082406E003F400404C
:1002800008B183F4C0535B00641E002CF6DC521CE2
:10029000102AE4DBC8892843C881C3F303308542B0
:1002A00001D10020D8E70120D6E738B50446002068
:1002B0000090A02000EB4400C1B26B460222EE2069
:1002C00006F0FBF99DF801009DF8001040EA0120BE
:1002D00038BD10B51E21EE2006F0AAF90A20FFF75E
:1002E0002CFF10BD38B50A20FFF727FF6B4601220F
:1002F000A021EE2006F0E1F90020E7494870012036
:100300000870FFF7E6FF6420FFF717FF002408E0FE
:1003100060B2FFF7CAFFE0490C3121F81400601CFD
:10032000C4B2082CF4DBDC480C30FFF77FFF08B1C7
:10033000002038BDFFF774FF0120FAE708B56B46CF
:1003400003220021EE2006F0B8F99DF80000000419
:100350009DF8011040EA01209DF80210084308BDF5
:1003600010B54821EE2006F063F910BD2DE9F04FDD
:1003700085B00446E18A4FF48072A1FB02126068E6
:10038000B0EB0109218A4FF000004FEA004040EA3B
:1003900011404FEA0142A18A4FF000034FEAE97C85
:1003A000A1FB09AB03FB09B301FB0C334FEADA11E4
:1003B00041EA4361511840EBE310CDE90210E189B5
:1003C0004FF000004FEAC03040EA51404FEAC132DE
:1003D000618A4FF000034FEAE97CA1FB09AB03FB04
:1003E00009B301FB0C334FEA1A2141EA03615118AA
:1003F00040EB2320CDE90010208B4FF000024FEAA4
:10040000E973A0FB091C02FB09C200FB03224FEAAF
:10041000D15040EA42214FEAE2504FF4FA63CD183E
:1004200040F100061946691A76F100005FDA1946B4
:100430006F1A66F1000805210022A7FB010308FBE3
:10044000013107FB021201463846A1FB003A02FBCC
:1004500007A008FB01081F465FEA68024FEA37035E
:10046000DDE90201C01A61EB0201CDE90201B80821
:1004700040EA8870DDE90012081A62EBA802CDE9B3
:1004800000028649691A76F1FF3030DA40F2DC5119
:100490006F1846F100083846A0FB002308FB003324
:1004A00008FB0738174607210020A7FB012308FB9C
:1004B000013107FB0013DDE90210891A60EB03002C
:1004C000CDE902100B2200213B46A3FB02CA08FB28
:1004D00002A007FB010160465FEA610C4FEA3003AE
:1004E000DDE90020D11A60EB0C00CDE900100023FB
:1004F000A068DDE90012A0FB01CA03FB01A100FB1B
:1005000002104FEA5C5141EAC0234115DDE90202C5
:10051000181A61EB0201C00B40EA414004900498B4
:1005200009F0E1F92062E56105B0BDE8F08F38B56A
:100530000446207801287AD159480088502190FB40
:10054000F1F201FB120020B94FF40041554806F0CA
:1005500016FA53480088502190FBF1F201FB12007B
:10056000282804D14FF400414E4806F006FA4C48C2
:100570000088C82805DA4A480088401C4849088095
:1005800038BD49480078092844DD4748007809F01B
:10059000AAF9054629464548006808F0D5FF60627B
:1005A0000120607000202070606A20620020A0623C
:1005B0000021204603F032FAE06A606300202063E5
:1005C0003B4908603B4908603B490860394908607D
:1005D000334908803449087034490860012037499C
:1005E000C874206A09F0A2F94FF6FF7101EA2040B1
:1005F000ADF80000206A09F099F980B2ADF8020068
:1006000001212F4802F092FB022269462C4802F099
:10061000ACFB0CE024480078401C234908702348B8
:10062000216A006808F006FF20490860A8E700BFBB
:10063000A6E710B52349088800EBD0714910A0EB5C
:10064000410131B9FFF77AFE13494860FFF788FE90
:100650001CE01C49088800EBD0714910A0EB410157
:10066000012913D1FFF76AFE0B4988600846FFF79E
:100670007DFE0121084803F0D1F9074800780128E0
:1006800002D10548FFF753FFFFF7CAFD0D48008868
:10069000401C0C49088010BD8C03002024FAFFFF89
:1006A000000000200008014002000020040000209B
:1006B0003C010020440100202401002058040020B7
:1006C00000A001080800002070B58C48007818B11F
:1006D0008A480078012827D18948807801281BD1D1
:1006E0008748C078012817D186484078012813D15F
:1006F0008548407801280FD18448007802280BD122
:10070000834890F85600012806D17C48007830B91B
:1007100001207A49087002E0002078490870002121
:100720007C4804F097F870BD74480078022831D1F5
:100730000221784804F08EF804F077FC7649886B43
:1007400009F059F921F0004104460022734B09F0E9
:1007500065F91BD87049C86B09F04DF921F00041CB
:10076000044600226D4B09F059F90FD86C480088F7
:10077000401C6B49088008460088B0F5487F08D9BE
:100780000020088003205D49087002E000206449D1
:100790000880C8E759480078052806D104F045FCD0
:1007A00005215C4804F056F8BDE75448007803285A
:1007B0007ED15949886B09F01EF921F000410446A9
:1007C0000022584B09F042F90BD35349C86B09F08A
:1007D00012F921F0004104460022524B09F036F98B
:1007E0000ED251480088401C4F49088008460088B6
:1007F000C82808D90020088005204049087002E078
:1008000000204949088049480088494908804948EA
:10081000C069494908604948C06948604848C0699A
:1008200088604348008809F05EF804464548C1697D
:10083000204608F0FFFD4049C8600A461168D068AC
:1008400008F0F8FD06463C484168304608F0F2FDE5
:10085000054639488168284608F03EFE044609F0FE
:100860007EF82C490880344A1168D06808F034FEBC
:10087000064631484168304608F0DCFD05462E4802
:100880008168284608F0D6FD044609F068F8214939
:100890004880294A1168D06808F01EFE064626489E
:1008A0004168304608F018FE05462348816800E09C
:1008B00021E0284608F010FE044609F050F81549DA
:1008C00088801D4A1168D06808F0B4FD06461A48B1
:1008D0004168304608F000FE054617488168284602
:1008E00008F0A8FD044609F03AF80A49C880032137
:1008F000084803F0AFFF00BF15E770470C00002069
:1009000078060020380600208C030020E502002035
:1009100072050020D60200204C0000200000244078
:100920001A00002000003940100000203004002090
:10093000180000203C080020DC0800205C08002093
:100940007C080020BC080020704708B50121042065
:1009500006F022FA4FF40060ADF8000010208DF888
:10096000030003208DF802006946C74805F058FFD0
:100970004FF40061C44806F002F84FF48070ADF8FF
:10098000000010208DF8030003208DF80200694656
:10099000BD4805F045FF4FF48071BB4805F0EDFF01
:1009A0004FF48071B84805F0E8FF08BD2DE9F0412B
:1009B00007460C4615464FF48071B34805F0DFFF3B
:1009C000384604F0C4FB8046002606E0002004F010
:1009D000BEFB2070641C701CC6B2AE42F6DB4FF446
:1009E0008071A94805F0C9FF4046BDE8F0812DE9B6
:1009F000F04107460C4615464FF48071A24805F0B9
:100A0000BEFF384604F0A3FB8046002605E02078B0
:100A100004F09DFB641C701CC6B2AE42F7DB4FF4C1
:100A20008071994805F0A9FF4046BDE8F0811FB5E7
:100A300096A103C9CDE90201052202A93020FFF7E2
:100A4000D6FF052269461020FFF7B0FF002408E01A
:100A50001DF8040002A9095D884200D003E0601C73
:100A6000C4B2052CF4DB00BF052C02D0002004B07A
:100A700010BD0120FBE770B505460C464FF48071B0
:100A8000814805F07CFF284604F061FB06462046BD
:100A900004F05DFB4FF480717B4805F06EFF30463B
:100AA00070BD70B504464FF48071774805F067FF5C
:100AB000204604F04CFB002004F049FB05464FF4AF
:100AC0008071714805F059FF284670BD10B54FF48C
:100AD00000616D4805F053FF0A20FFF72EFB01214E
:100AE0002120FFF7C8FF01212220FFF7C4FF0321C7
:100AF0002320FFF7C0FF052266492A20FFF777FF72
:100B000001212520FFF7B7FF26210846FFF7B3FF95
:100B100001213C20FFF7AFFF06213D20FFF7ABFF8F
:100B20000F212020FFF7A7FF4FF40061564805F082
:100B300024FF10BD10B54FF40061534805F01FFFAE
:100B400001212220FFF797FF03212320FFF793FFC6
:100B5000052251493020FFF74AFF05224D492A203E
:100B6000FFF745FF5A212420FFF785FF01212520AB
:100B7000FFF781FF26210846FFF77DFF01213C207A
:100B8000FFF779FF06213D20FFF775FF0E2120209A
:100B9000FFF771FF10BD10B54FF400613A4805F042
:100BA000EEFE0021E120FFF766FF10BD10B54FF407
:100BB0000061354805F0E3FE1720FFF772FF044699
:100BC000204610BD70B504460D464FF400612E4816
:100BD00005F0D5FEFFF7EAFF064606F0200008B153
:100BE000FFF7D9FF2A462146A020FFF700FF4FF468
:100BF0000061254805F0C1FE002070BD10B54FF41E
:100C00000061214805F0BBFE0021E220FFF733FF21
:100C100010BD10B54FF400611B4805F0B0FE072071
:100C2000FFF73FFF04464FF40061174805F0A5FEAB
:100C3000204610BD70B505460C461646052C01DD54
:100C4000FF2070BD04F1A801C8B232462946FFF763
:100C5000CEFE0120F5E710B56020FFF722FF10BDA2
:100C600010B50446FFF7F7FFA070A078202803DD39
:100C7000FFF7C4FF002010BDA27804F12401612019
:100C8000FFF794FE0120F6E700080140AABBCCDD87
:100C9000FF000000C1C50008BCC5000870B50546CE
:100CA0000C46224600212846FFF7C4FF70BD2DE9FF
:100CB000F84380460E460024AA222146641CF748C9
:100CC00042542146641C425405222146641C42546D
:100CD00000222146641C4254F149404608F002FCBF
:100CE000814608F03CFE80B200909DF8012021462C
:100CF000641CEA4842549DF800202146641C42547A
:100D0000E749304608F0EEFB814608F028FE80B245
:100D100000909DF801202146641CE04842549DF853
:100D200000202046611CCCB2DC490A54201FC87048
:100D30000027002505E0D948405D3844C7B2681C4B
:100D4000C5B2A542F7DB2046611CCCB2D3490F5493
:100D50002146D248FFF7A2FFBDE8F8830FB42DE982
:100D6000FE4F0024AA222146641CCC48425421464E
:100D7000641C425404222146641C42540022214631
:100D8000641C42549DF8860002909DF8082021467C
:100D9000641CC24842549DF8300002909DF808201F
:100DA0002146641CBD4842549DF8870002909DF87E
:100DB00008202146641CB94842540022B94BDDE9A1
:100DC0001D71384608F0A5FC824608F0FBFD009036
:100DD0009DF803202046611CCCB2B0490A549DF80E
:100DE00002202046611CCCB2AC490A549DF8012077
:100DF0002046611CCCB2A9490A549DF80020214626
:100E0000601CC4B2A54842549DF87C902046611CE9
:100E1000CCB2A24901F80090DDF87D70DDF88110B8
:100E20000022A04B384608F074FC824608F0CAFD48
:100E300000909DF803202046611CCCB297490A54CB
:100E40009DF802202046611CCCB294490A549DF8BA
:100E500001202046611CCCB290490A549DF8002024
:100E60002046611CCCB28D490A549DF885902046DD
:100E7000611CCCB2894901F80090DDF89B008A49D9
:100E800008F030FB074608F051FD00B201909DF8D4
:100E900005202046611CCCB280490A549DF80420EC
:100EA0002046611CCCB27D490A54DDF8AF007C4974
:100EB00008F018FB074608F039FD00B201909DF8D4
:100EC00005202146601CC4B2744842549DF8042099
:100ED0002046611CCCB271490A549DF8710008305B
:100EE000C0B202909DF808202046611CCCB26B492C
:100EF0000A549DF8720002909DF808202046611C5B
:100F0000CCB266490A549DF8730002909DF80820FF
:100F10002046611CCCB261490A54201FC8700026CB
:100F2000002505E05D48405D3044C6B2681CC5B28E
:100F3000A542F7DB2046611CCCB258490E5421462D
:100F40005648FFF7ABFEBDE8FE0F5DF814FB2DE938
:100F5000F84F06460F4690469946DDF828B0002423
:100F6000AA222146641C4D4842542146641C425426
:100F700002222146641C425400222146641C425431
:100F800000969DF801202146641C42549DF80020E3
:100F90002146641C425400979DF801202146641CA0
:100FA00042549DF800202046611CCCB23B490A54B3
:100FB000CDF800809DF801202046611CCCB2374955
:100FC0000A549DF800202046611CCCB233490A54D3
:100FD000CDF800909DF801202046611CCCB22F492D
:100FE0000A549DF800202046611CCCB22B490A54BB
:100FF000CDF800B09DF801202046611CCCB22749F5
:101000000A549DF800202046611CCCB223490A54A2
:101010000B9800909DF801202046611CCCB21F491E
:101020000A549DF800202046611CCCB21B490A548A
:101030000C9800909DF801202046611CCCB2174905
:101040000A549DF800202046611CCCB213490A5472
:101050000D9800909DF801202046611CCCB20F49EC
:101060000A549DF800202046611CCCB20B490A545A
:101070000E9800909DF801202046611CCCB20749D3
:101080000A549DF800202046611CCCB203490A5442
:10109000201FC8704FF0000A00250EE01004002049
:1010A0000000C84280842E4100002041F748405D86
:1010B000504400F0FF0A681CC5B2A542F6DB20468A
:1010C000611CCCB2F14901F800A02146EF48FFF7BE
:1010D000E5FDBDE8F88F2DE9FE4F82460E46174626
:1010E0009846DDF830B00024A146AA222146641CAF
:1010F000E64842542146641C425401222146641CA5
:10110000425400222146641C4254E149504608F0F2
:10111000E9F9009008F00AFC00B202909DF809205D
:101120002146641CD94842549DF808202146641C7D
:101130004254D749304608F0D5F9009008F0F6FB44
:1011400000B202909DF809202146641CCF48425409
:101150009DF808202046611CCCB2CC490A54CC49E9
:10116000384608F0BFF9009008F0E0FB00B20290AA
:101170009DF809202046611CCCB2C4490A549DF850
:1011800008202046611CCCB2C0490A54C0494046E0
:1011900008F0A8F9009008F0C9FB01909DF807201D
:1011A0002046611CCCB2B9490A549DF8062021465C
:1011B000601CC4B2B54842549DF805202046611C0D
:1011C000CCB2B2490A549DF804202046611CCCB22E
:1011D000AE490A54AE49584608F084F9009008F028
:1011E000A5FB00B202909DF809202046611CCCB2FC
:1011F000A6490A549DF808202046611CCCB2A34998
:101200000A542146621CD4B2A04A0D98505421467B
:10121000621CD4B29D4A0E985054201F1146C870CB
:10122000002506E09948405D484400F0FF09681C2D
:10123000C5B2A542F6DB2046611CCCB2934901F849
:10124000009021469148FFF729FDBDE8FE8F2DE96A
:10125000F04105460E460027AA208C4908704870C8
:10126000EF2088700220C87008460571467100247E
:1012700005E08648005D3844C7B2601CC4B2062C45
:10128000F7DB824887710721FFF708FDBDE8F08191
:101290000FB42DE9F843064600240027AA22214670
:1012A000641C7A4842542146641C425406F10F00E3
:1012B000C2B22146641C7548425400222146641C77
:1012C00042547449099808F00DF9804608F02EFB45
:1012D00000B200909DF801202146641C6B484254E6
:1012E0009DF800202146641C42546A490A9808F07F
:1012F000F9F8804608F01AFB00B200909DF8012032
:101300002146641C614842549DF800202146601C1F
:10131000C4B25E4842545F490B9808F0E3F8804637
:1013200008F004FB00B200909DF801202146601CEB
:10133000C4B2564842549DF800202046611CCCB2ED
:1013400052490A545349119808F0CCF8804608F0E5
:10135000EDFA00B200909DF801202046611CCCB24D
:101360004A490A549DF800202046611CCCB24749E6
:101370000A544849129808F0B5F8804608F0D6FAA1
:1013800000B200909DF801202046611CCCB23F497C
:101390000A549DF800202046611CCCB23B490A54F7
:1013A0003C49139808F09EF8804608F0BFFA00B256
:1013B00000909DF801202146601CC4B2334842547D
:1013C0009DF800202046611CCCB230490A543149B6
:1013D000199808F087F8804608F0A8FA00B2009043
:1013E0009DF801202046611CCCB228490A549DF882
:1013F00000202046611CCCB224490A5425491A9881
:1014000008F070F8804608F091FA00B200909DF85C
:1014100001202046611CCCB21C490A549DF80020D2
:101420002046611CCCB219490A541A491B9808F08D
:1014300059F8804608F07AFA00B200909DF8012031
:101440002046611CCCB211490A549DF80020204668
:10145000611CCCB20D490A54201FC870002505E05C
:101460000A48405D3844C7B2681CC5B2A542F7DBE4
:101470002046611CCCB205490F5421460348FFF7B2
:101480000DFCBDE8F8035DF814FB0000100400201B
:101490000000C84200007A442DE9F04105460E469E
:1014A0000027AA20FE4908704870EE2088700220AC
:1014B000C870084605714671002405E0F848005DD3
:1014C0003844C7B2601CC4B2062CF7DBF4488771FD
:1014D0000721FFF7E3FBBDE8F08130B5BFB004465C
:1014E0000CB9FF2C7ED0EF48007C48B9ED48407C19
:1014F00030B9EC48807C18B9EA48C07C002859D043
:10150000E848007CE0B1E848807838B10020E5493F
:10151000087401210846FFF7BFFF49E0E34800785F
:10152000E3490978E34A1268E34BCDE900210290D0
:101530001A6C996BD86BE14B1B68FFF7CCFD37E059
:10154000D848407C78B1D848C07838B10020D54917
:10155000487401210220FFF79FFF29E0E1210220CA
:10156000FFF79AFF24E0CF48807C78B1D4484078D8
:1015700038B10020CB49887401210320FFF78CFF8C
:1015800016E0E1210320FFF787FF11E0C548C07C8A
:1015900070B1CC48407838B10020C249C8740121EC
:1015A0000420FFF779FF03E0E1210420FFF774FF37
:1015B0003FB030BDBB48007930B9BA48407918B95E
:1015C000B8488079002855D0B6480079D0B10020BD
:1015D000B44908712022BC490DA807F0F5FE20226D
:1015E000BA4900E01AE105A807F0EEFE1422B84956
:1015F000684607F0E9FEB6480C380EC80120FFF730
:1016000047FE36E0A7484079C0B10020A54948719F
:101610002022B0490DA807F0D7FE2022AE4905A828
:1016200007F0D2FE1422AD49684607F0CDFEAB4864
:101630000C380EC80220FFF72BFE1AE0994880797B
:10164000B8B10020974988712022A5490DA807F05C
:10165000BBFE2022A24905A807F0B6FE1422A1492C
:10166000684607F0B1FE9F480C380EC80320FFF70C
:101670000FFE9DE78B48407B28B98A48807B10B9D4
:101680008848C07B18B38748407B40B1002085491B
:101690004873954801781020FFF7D9FD16E081487E
:1016A000807B40B100207F4988738F4841781120AA
:1016B000FFF7CDFD0AE07B48C07B38B100207949B7
:1016C000C873894881781220FFF7C1FD70E7874809
:1016D00000788749097890FBF1F201FB12018548F7
:1016E0000078401E814203D101206E49487031E0EC
:1016F0007E4800787E49097890FBF1F201FB1201E7
:101700007D480078401E814203D1012065498870E0
:1017100020E0764800787649097890FBF1F201FBE9
:10172000120176480078401E814203D101205D49B4
:10173000C8700FE06D4800786D49097890FBF1F2B0
:1017400001FB12016E480078401E814202D1012047
:101750005449087365480078401C64490870514832
:101760004078A0B100204F49487050480078504957
:101770000978504A1268504BCDE9002102901A6C4A
:10178000996BD86B4D4B1B68FFF7A5FC46E04548AD
:10179000807810B30020434988704948B0F90800A8
:1017A0004749B1F90610464AB2F904203E4BB3F955
:1017B0001230CDE90132CDE903103B48B0F91000F9
:1017C000394D0090B5F90E30B5F90A20B5F9081079
:1017D000B5F90600FFF7BBFB20E03248C07890B1B6
:1017E00000203049C87073224649684607F0ECFD76
:1017F0008322444910391EA807F0E6FD1EA80FC831
:10180000FFF7ACFA0AE02748007B38B100202549F1
:1018100008733D4A91685068FFF749FA00BFC7E670
:1018200003B587B007988078102871D107980079A0
:10183000000200B2079949790843009008F04AF87D
:101840003249019007F04EFE21490C390860079893
:101850008079000200B20799C9790843009008F026
:1018600039F82A49019007F03DFE19490C394860C2
:101870000798007A000200B20799497A084300905D
:1018800008F028F82149019007F02CFE10490C3986
:1018900088600798807A000200B20799C97A38E018
:1018A0001004002058040020780600200C000020BE
:1018B0000D000020440100204C0000203C010020CD
:1018C000380600208C0300207C0800203C08002003
:1018D000680800201C080020DC0700200808002001
:1018E0009C080020C80800201C00002027000020C1
:1018F00028000020290000202A0000202B000020C2
:101900002C00002082050020041200206F12833A70
:10191000D4E00843009007F0DDFFFE49019007F096
:10192000E1FDFD4908600798007B000200B20799BD
:10193000497B0843009007F0CDFFF649019007F07E
:10194000D1FDF54948600798807B000200B20799F5
:10195000C97B0843009007F0BDFFEE49019007F0F6
:10196000C1FDED4988600798007C000200B207992C
:10197000497C0843009007F0ADFFE649019007F06D
:10198000B1FDE64908600798807C000200B2079923
:10199000C97C0843009007F09DFFDE49019007F0E5
:1019A000A1FDDE4948600798007D000200B207995A
:1019B000497D0843009007F08DFFD649019007F05C
:1019C00091FDD6498860D6480068D649009007F056
:1019D00089FD019007F0C3FF80B2ADF80800D04840
:1019E0004068D049009007F07DFD019007F0B7FFF7
:1019F00080B2ADF80A00CA488068CA49009007F072
:101A000071FD019007F0ABFF80B2ADF80C00C24849
:101A10000068C449009007F065FD019007F09FFF42
:101A200080B2ADF80E00BC484068BE49009007F097
:101A300059FD019007F093FF80B2ADF81000B64851
:101A40008068B849009007F04DFD019007F087FFCE
:101A500080B2ADF81200B1480068B249009007F0BA
:101A600041FD019007F07BFF80B2ADF81400AB4858
:101A70004068AC49009007F035FD019007F06FFF1A
:101A800080B2ADF81600A5488068A649009007F01E
:101A900029FD019007F063FF80B2ADF81800012125
:101AA000A14801F043F9092202A99F4801F05DF91C
:101AB00001209E4948739E490898087007988078CD
:101AC00011287CD107980079000200B20799497962
:101AD0000843009007F0FEFE8E49019007F002FDDA
:101AE0009449086007988079000200B20799C97983
:101AF0000843009007F0EEFE8649019007F0F2FCE3
:101B00008C4948600798007A000200B20799497A28
:101B10000843009007F0DEFE7E49019007F0E2FCEA
:101B2000844988600798807A000200B20799C97AD0
:101B30000843009007F0CEFE7649019007F0D2FCF2
:101B40007D4908600798007B000200B20799497B35
:101B50000843009007F0BEFE6E49019007F0C2FCFA
:101B6000754948600798807B000200B20799C97BDD
:101B70000843009007F0AEFE6649019007F0B2FC02
:101B80006D4988600798007C000200B20799497C83
:101B90000843009007F09EFE5E49019007F0A2FC0A
:101BA000664908600798807C000200B20799C97CEA
:101BB0000843009007F08EFE5649019000E08BE04C
:101BC00007F090FC5D4948600798007D000200B274
:101BD0000799497D0843009007F07CFE4D4901902C
:101BE00007F080FC55498860524800684D490090D4
:101BF00007F078FC019007F0B2FE80B2ADF8080063
:101C00004C4840684749009007F06CFC019007F091
:101C1000A6FE80B2ADF80A004648806841490090AF
:101C200007F060FC019007F09AFE80B2ADF80C005E
:101C3000414800683B49009007F054FC019007F0D0
:101C40008EFE80B2ADF80E003B48406835490090EA
:101C500007F048FC019007F082FE80B2ADF810005A
:101C6000354880682F49009007F03CFC019007F050
:101C700076FE80B2ADF81200304800682949009025
:101C800007F030FC019007F06AFE80B2ADF8140056
:101C90002A4840682349009007F024FC019007F08F
:101CA0005EFE80B2ADF81600244880681D490090A1
:101CB00007F018FC019007F052FE80B2ADF8180052
:101CC000092202A91848123001F04FF801201749E3
:101CD00088731749089848700798807812287DD132
:101CE00007980079000200B20799497908430090EB
:101CF00007F0F0FD0749019007F0F4FB1049086078
:101D000007988079000200B20799C97908430090CA
:101D100018E000006F12833A3C0800207C08002085
:101D20005C08002000007A4400A401085804002048
:101D30001C000020FC070020DC0700201C080020FD
:101D4000BC08002007F0C6FDC249019007F0CAFB9D
:101D5000C14948600798007A000200B20799497AA1
:101D60000843009007F0B6FDBA49019007F0BAFBAE
:101D7000B94988600798807A000200B20799C97A49
:101D80000843009007F0A6FDB249019007F0AAFBB6
:101D9000B24908600798007B000200B20799497BAE
:101DA0000843009007F096FDAA49019007F09AFBBE
:101DB000AA4948600798807B000200B20799C97B56
:101DC0000843009007F086FDA249019007F08AFBC6
:101DD000A2498860A0480068A14900E073E0009033
:101DE00007F080FB019007F0BAFD80B2ADF8080063
:101DF000994840689A49009007F074FB019007F0F9
:101E0000AEFD80B2ADF80A00934880689449009016
:101E100007F068FB019007F0A2FD80B2ADF80C005E
:101E20008E4800688E49009007F05CFB019007F037
:101E300096FD80B2ADF80E00884840688849009051
:101E400007F050FB019007F08AFD80B2ADF810005A
:101E5000824880688249009007F044FB019007F0B7
:101E60007EFD80B2ADF812007C4800687C4900908D
:101E700007F038FB019007F072FD80B2ADF8140056
:101E8000764840687649009007F02CFB019007F0F7
:101E900066FD80B2ADF81600704880687049009009
:101EA00007F020FB019007F05AFD80B2ADF8180052
:101EB000092202A96B4800F058FF01206A49C87343
:101EC0006A490898887009B000BD817803291BD140
:101ED0004179027941EA022109B2654A1180C1794A
:101EE000827941EA022109B2614A5180417A027A3B
:101EF00041EA022109B25E4A9180C17A827A41EABE
:101F0000022109B25A4AD1807047817802290BD147
:101F10000179012907D10421564A11700121524A41
:101F200011715171917100BF704701468878012885
:101F300039D15048007818B14E480078012821D195
:101F40000879012804D14C4A10700020907019E0E3
:101F50000879022805D10120474A50700020D0702E
:101F600010E00879032805D10120444A10700020B0
:101F7000507007E00879042804D10120404A10700D
:101F8000002050700879A02803D10020394A107031
:101F900009E00879A12806D136480078012802D145
:101FA0000220344A1070087970472DE9F041044648
:101FB0000D460026002704E0E05D3044C6B2781CE0
:101FC000C7B2681EB842F7DC2E4806710079611965
:101FD00011F8011C884202D00020BDE8F081607831
:101FE000217840EA012027490880084600884AF6FF
:101FF000AF21884201D0FF20EFE7A0782149887007
:1020000008468078012803D12046FFF78EFF1FE0A5
:102010001C488078022803D12046FFF776FF17E09E
:1020200018488078032803D12046FFF74EFF0FE0C1
:1020300014488078102807D012488078112803D0DF
:1020400010488078122803D131462046FFF7E8FB7C
:102050000120C2E76F12833ABC0800209C080020D0
:1020600000007A4424A40108580400201C00002029
:10207000300400200C0000207806002038060020E4
:102080008C0300202000002010B50246012000E053
:1020900050430B1EA1F10104E1B2F9D110BD2DE9AD
:1020A000F34F81B007463C460020009083468146AE
:1020B0000026804628E020782D2802D148F002082A
:1020C000641C20782C2802D020782A2800D11CE01B
:1020D00020782E2803D148F00108641C09E02078FC
:1020E000392802DC2078302803DA4FF00009002676
:1020F0000BE008F0010010B1701CC6B203E009F15A
:10210000010000F0FF09641CD5E700BF08F00200E1
:1021100000B17F1C00250EE0A9F10100401BC1B2F7
:102120000A20FFF7B1FF795D3039009A00FB0120EA
:102130000090681CC5B24D45EEDB052E00DD05267E
:102140000298067000250EE0701E401BC1B20A20E6
:10215000FFF79AFF09F101012944795C303900FB4E
:1021600001BB681CC5B2B542EEDB31460A20FFF761
:102170008BFF009901FB00BA08F0020008B1CAF118
:10218000000A5046BDE8FE8F0246134610E0107864
:102190002A2805D01078202802DB10787A2801DD63
:1021A000FF20704710782C2801D1481EC1B2521C64
:1021B0000029ECD1D01AC0B2F3E72DE9F84F04465C
:1021C0000F46FEA1384607F023F9064601213046A6
:1021D000FFF7DAFF0546FF2D17D070196946FFF7A4
:1021E0005EFF804607F076FB44F8770F9DF80010FD
:1021F0000A20FFF749FF814607F075FB80462068FB
:10220000414607F0A1F944F8770907213046FFF766
:10221000BBFF0546FF2D22D070196946FFF73FFF2F
:10222000804607F057FBC4F87F009DF800000328A4
:1022300015DA9DF80000C0F10300C1B20A20FFF7D3
:1022400023FF824607F04FFB8146DD4907F07CF90A
:102250008046D4F87F1007F045F9C4F87F00BDE848
:10226000F88F2DE9F04F87B004468A46D5A1504635
:1022700007F0CEF8814601214846FFF785FF054665
:10228000FF2D24D009EB050006A9FFF708FF07463C
:102290009DF818100A20FFF7F7FEB7FBF0F642F2A0
:1022A0001070B6FBF0F0C1B2412001556420B6FBBE
:1022B000F0F06421B0FBF1F201FB12014220015564
:1022C0006420B6FBF0F100FB1161432001550321AE
:1022D0004846FFF759FF0546FF2D5ED009EB050084
:1022E00006A9FFF7DCFE06469DF81800801CC1B267
:1022F0000A20FFF7C9FEB6FBF0F7384607F009FBE6
:102300006064A1649DF81800801CC1B20A20FFF728
:10231000BBFEB6FBF0F100FB1167384607F0E3FAAD
:1023200083469DF81800C0F10500C1B20A20FFF7EE
:10233000ABFE009007F0D7FA8046594607F0D2F876
:102340000746A14907F000F9019007F054FBCDE9D9
:10235000040105210A20FFF797FE019007F0D9FA42
:1023600007468846616CA06C0A460346CDE900101A
:102370003846414607F0CDF9CDE90201DDE90423F5
:1023800007F020F96064A164676CA16C00228F4B98
:10239000384607F030FA6064A16404214846FFF72C
:1023A000F3FE0546FF2D03D019F8050084F84C0014
:1023B00005214846FFF7E8FE0546FF2D60D009EBF2
:1023C000050006A9FFF76BFE06469DF81800801C65
:1023D000C1B20A20FFF758FEB6FBF0F7384607F007
:1023E00098FA44F84D0F61609DF81800801CC1B246
:1023F0000A20FFF749FEB6FBF0F100FB11673846F3
:1024000007F071FA83469DF81800C0F10500C1B2CB
:102410000A20FFF739FE009007F065FA594601904F
:1024200007F060F88046684907F08EF8074607F025
:10243000E2FACDE9040105210A20FFF725FE01900B
:1024400007F067FA07468846216860680A4603462F
:10245000CDE900103846414607F05BF9CDE90201AD
:10246000DDE9042307F0AEF8206061602768616849
:102470000022564B384607F0BEF9206061604D3CA3
:1024800006214846FFF780FE0546FF2D03D019F8C8
:10249000050084F8550009214846FFF775FE0546FA
:1024A000FF2D1FD009EB050006A9FFF7F8FD064632
:1024B00042F21070B6FBF0F0C1B24020015564202A
:1024C000B6FBF0F06421B0FBF1F201FB12013F20FA
:1024D00001556420B6FBF0F100FB116000F5FA60D5
:1024E000A4F83D000A214846FFF74EFE0546FF2DA1
:1024F00009D009EB050006A9FFF7D1FD074607F053
:10250000E9F9C4F87B0007B0BDE8F08F2DE9F84386
:10251000054688462EA1404606F07AFF064602216F
:102520003046FFF731FE0446FF2C05D030196946CE
:10253000FFF7B5FD85F86400002713E0F81CC1B271
:102540003046FFF721FE0446FF2C08D030196946BB
:10255000FFF7A5FDC1B205F15800C15500E003E049
:10256000781CC7B20C2FE9DB00BF0F213046FFF704
:102570000BFE0446FF2C05D030196946FFF78FFD8E
:10258000A5F8650010213046FFF7FEFD0446FF2C3C
:1025900005D030196946FFF782FDA5F867001121C3
:1025A0003046FFF7F1FD0446FF2C05D0301969468F
:1025B000FFF775FDA5F86900BDE8F883565447009C
:1025C00000007A44524D430000007042006AF84017
:1025D000475341002DE9F84305460F46FCA1384614
:1025E00006F016FF064606213046FFF7CDFD0446ED
:1025F000FF2C05D030196946FFF751FD85F85600CC
:1026000007213046FFF7C0FD0446FF2C05D03019E6
:102610006946FFF744FD85F8570009213046FFF76A
:10262000B3FD0446FF2C0CD030196946FFF737FD87
:10263000814607F04FF98046E64906F085FFC5F868
:102640006B00BDE8F8832DE9FC5F07468A464FF032
:102650000008CDF804A0E0A1019806F0D9FE0646D6
:10266000F079303800F0FF0B03213046FFF78CFD86
:102670000546FF2D04D070196946FFF710FD38702C
:102680004FF000096CE0D4A1019806F0C1FE0646A7
:1026900000245CE0042000EB8400C1B23046FFF768
:1026A00073FD0546FF2D09D070196946FFF7F7FC49
:1026B000C1B208EB8802781C815400E049E0052093
:1026C00000EB8400C1B23046FFF75EFD0546FF2DEA
:1026D0000AD070196946FFF7E2FCC1B208EB880224
:1026E000781C1044417000E033E0062000EB8400C9
:1026F000C1B23046FFF748FD0546FF2D0AD07019DC
:102700006946FFF7CCFC81B208EB8802781C1044C4
:10271000418000E01DE0072000EB8400C1B230469C
:10272000FFF732FD0546FF2D0AD070196946FFF705
:10273000B6FCC1B208EB8802781C1044017100E0BD
:1027400007E008F1010000F0FF08601CC4B2042C8F
:10275000A0DB00BF701C019009F1010000F0FF092F
:10276000D94590DBBDE8FC9F2DE9FC5F0446894616
:1027700049462046FFF767FF49462046FFF72AFFF4
:1027800049462046FFF7C2FE49462046FFF769FD4D
:1027900049462046FFF711FD4FF48061484606F098
:1027A0002CFE94F8560000287ED08D4890F8380012
:1027B000002859D18B480078401C8A490870656C04
:1027C000A36C2A46884903C906F0FCFE864A03C268
:1027D000D4F84D50D4F851302A46844903C906F044
:1027E000F1FE824A03C2D4F86B108148006806F0FB
:1027F00021FE7F4908607B480078142834D179484D
:10280000007807F086F805462A460B46764903C944
:1028100006F0F1FF724AC2E902017248007807F03F
:1028200078F805462A460B46704903C906F0E3FFCF
:102830006B4A03C26B48007807F055F805462946F5
:102840006B48006806F080FE654908610021664A11
:1028500011605160654A1160516000206449086050
:1028600001205F4981F838005D4890F83800012860
:102870003FD1606CA16C5A4AC2E90801D4F84D00FE
:10288000D4F85110C2E90601D4F86B0011468862F1
:102890000846D0E902532A46D0E90871384606F0C6
:1028A00032FF8246002200E023E0524B06F031FF67
:1028B000CDE9000107F0E2F8494908630846D0E98C
:1028C00000532A46D0E90671384606F01CFF8246BE
:1028D0000022484B06F01DFFCDE9000107F0CEF8BD
:1028E0003F49C8620A461169906A06F0F5FD3C4905
:1028F0004863BDE8FC9F2DE9FC413F4890F8010189
:10290000012864D100203C4981F80101491C3B4861
:10291000FFF72AFF394890F8560020B938A007F091
:1029200001FBBDE8FC81354890F86400022803D122
:1029300039A007F0F7FA07E0304890F86400032860
:1029400002D13AA007F0EEFA2C4890F86400012872
:102950003CD02A484D3002684168104607F08EF896
:102960000746374906F0F0FD044607F044F80546EF
:102970002A460B4633A007F0D5FA2048426C816CFA
:10298000104607F07BF807462D4906F0DDFD0446AA
:1029900007F031F805462A460B462EA007F0C2FA8A
:1029A0001649D1F86B000B4906F0CEFD064607F03C
:1029B00022F804460B4611480078104991F8571048
:1029C0002246CDE9001027A007F0ACFA63E05FE0F3
:1029D000474741000000204124475047535600001C
:1029E000F8050020300000203800002040000020C2
:1029F000480000208019FB40700400207205002070
:102A00004C6F636174696F6E20756E63657274617B
:102A1000696E20210A0000004C6F636174696F6E5B
:102A2000206D6F6465203A32440A00004C6F636188
:102A300074696F6E206D6F6465203A33440A00003C
:102A40000050C3476C6F6E6769747564653A25669C
:102A50000A0000006C617469747564653A25660A41
:102A600000000000616C7469747564653A252E324B
:102A7000666D202020706F73736C6E756D3A2564DF
:102A800020202073766E756D3D25640A00000000DD
:102A90009EA007F047FA00BF43E770B50446002543
:102AA00015701D70002009E01578265C35441570FE
:102AB0001D78167835441D70451CA8B28842F3DB9A
:102AC00070BD70B50025002604E0681C85B20520A5
:102AD000FDF733FB924890F80101012801D1642DE4
:102AE000F3DBFA2D1BDA8E480578002407E08C48CA
:102AF000401C005DB52800D103E0601C84B2AC42EC
:102B0000F5DB00BFAC4201D1022609E08448401C3D
:102B1000E11C405C08B9032602E0002600E0012623
:102B200000207F4981F80101304670BD70B57D4CB1
:102B300046F2B520208040F6061060800D20A0806F
:102B40000020C4F806004FF6FF70C4F80A00002009
:102B5000C4F80E000420A07404F114035A1E1121BD
:102B6000A01CFFF79AFF00BF6F4800680028FBD148
:102B700015216C4802F09EFB002505E0FFF7A1FF40
:102B800000B903E0681CC5B2062DF7DB00BF062DB7
:102B900001D1012070BD0020FCE770B505460E464E
:102BA000604C46F2B52020804FF48370608008208E
:102BB000A080F020A071E571012020726672A072E1
:102BC000E0722073607304F10F035A1E0C21A01CE5
:102BD000FFF763FF00BF544800680028FBD11021B5
:102BE000504802F067FBFFF76CFF70BD70B50546FB
:102BF0004C4C46F2B5202080062060801420A08036
:102C00000120A0710020E07120814FF40D60C4F814
:102C10000A00C4F80E5007206082A0820020E082E3
:102C2000208304F11B035A1E1821A01CFFF735FF57
:102C300000BF3D488438806C0028FAD11C213948F7
:102C400002F038FBC820FDF778FA284602F054FB62
:102C5000FFF737FF70BD2DE9F04105460E461746D8
:102C6000304C46F2B520208040F20670608014207F
:102C7000A080C4F80650C4F80A60A7730020E0736F
:102C8000207460744FF44D7060820020A082C4F8FC
:102C9000160004F11B035A1E1821A01CFFF7FDFEAD
:102CA00000BF21488438806C0028FAD11C211D48BF
:102CB00002F000FBFFF705FFBDE8F08170B50546A7
:102CC0000E46184CC82D01DA012070BD46F2B52021
:102CD000208040F6060060800620A080E58001206C
:102CE0002081668104F10D035A1E0A21A01CFFF702
:102CF000D4FE00BF0C488438806C0028FAD10E2125
:102D0000084802F0D7FAFFF7DCFEDEE76461746181
:102D1000206E6F74207265616479210A00000000E2
:102D20007004002004090020840002402DE9F041D5
:102D300006460F4604F025FB352004F0BDFD0024B7
:102D40000DE006EB842004F061FB0546042D04D061
:102D500004F023FB2846BDE8F081601CC4B2BC42ED
:102D6000EFDB04F01AFB0420F5E72DE9F0410646FD
:102D70000F4615464FF0000804F003FB352004F021
:102D80009BFD00240CE037F8141006EB440004F01F
:102D900040FC042802D02046BDE8F081601C84B2CB
:102DA000AC42F0DB04F0F9FA2846F5E70146088862
:102DB000704730B503460C461546002207E003EB8A
:102DC0004200FFF7F3FF24F81200501C82B2AA421F
:102DD000F5D3104630BD30B503460C4615460022EB
:102DE00007E003EB4200FFF7E1FF24F81200501C5C
:102DF00082B2AA42F5DB30BDFEB504460D46174649
:102E000003226946F148FFF7D4FFBDF800004FF6F2
:102E1000FF71884218D0BDF80200884214D0BDF876
:102E20000400884210D0BDF8000000B2A082BDF8B6
:102E3000020000B2E082BDF8040000B2208301204D
:102E4000A0700020207003E00020A07001202070FE
:102E500003226946DE48FFF7ACFFBDF800004FF6DD
:102E6000FF71884218D0BDF80200884214D0BDF826
:102E70000400884210D0BDF8000000B26083BDF8A5
:102E8000020000B2A083BDF8040000B2E08301207C
:102E9000E0700020607003E00020E07001206070AE
:102EA00006226946CB48FFF784FFBDF800004FF6C5
:102EB000FF71884233D0BDF8020088422FD0BDF8A0
:102EC000040088422BD0BDF8000000B2A886BDF8EF
:102ED000020000B2E886BDF8040000B22887BDF801
:102EE000060006F000FD0646BB4906F02DFBA86271
:102EF000BDF8080006F0F7FC0646B74906F024FBCB
:102F0000E862BDF80A0006F0EEFC0646B24906F09B
:102F10001BFB2863012068700020287003E000205C
:102F2000687001202870FEBD30B585B00922694661
:102F3000AA48FFF73EFFC4B2092C63D1BDF80010C8
:102F400008B206F0C7FC0546A54906F0CBFAA5492C
:102F50000860BDF8021008B206F0BCFC0546A049A6
:102F600006F0C0FA9F494860BDF8041008B206F0A8
:102F7000B1FC05469A4906F0B5FA9A498860BDF851
:102F8000061008B206F0A6FC0546954906F0AAFA16
:102F900095490860BDF8081008B206F09BFC05468C
:102FA0008F4906F09FFA90494860BDF80A1008B2B0
:102FB00006F090FC05468A4906F094FA8A49886032
:102FC000BDF80C1008B206F085FC0546844906F0F1
:102FD00089FA86490860BDF80E1008B206F07AFC3E
:102FE00005467F4906F07EFA80494860BDF810101A
:102FF00008B206F06FFC0546794906F073FA7B4982
:10300000886002E0002005B030BD0922694673489F
:103010001230FFF7CEFEC4B2092C63D1BDF8001008
:1030200008B206F057FC05466D4906F05BFA704998
:103030000860BDF8021008B206F04CFC054668496D
:1030400006F050FA6A494860BDF8041008B206F06C
:1030500041FC0546624906F045FA65498860BDF8BD
:10306000061008B206F036FC05465D4906F03AFA4D
:1030700060490860BDF8081008B206F02BFC054650
:10308000574906F02FFA5B494860BDF80A1008B2AC
:1030900006F020FC0546524906F024FA554988609E
:1030A000BDF80C1008B206F015FC05464C4906F0B8
:1030B00019FA51490860BDF80E1008B206F00AFC72
:1030C0000546474906F00EFA4B494860BDF8101016
:1030D00008B206F0FFFB0546414906F003FA4649EF
:1030E000886001E000208EE7092269463B482430D1
:1030F000FFF75FFEC4B2092C63D1BDF8001008B21F
:1031000006F0E8FB0546364906F0ECF93B49086055
:10311000BDF8021008B206F0DDFB0546304906F0A6
:10312000E1F936494860BDF8041008B206F0D2FB58
:1031300005462B4906F0D6F930498860BDF80610DF
:1031400008B206F0C7FB0546254906F0CBF92C4925
:103150000860BDF8081008B206F0BCFB054620491F
:1031600006F0C0F926494860BDF80A1008B206F01A
:10317000B1FB05461A4906F0B5F921498860BDF84A
:103180000C1008B206F0A6FB0546154906F0AAF990
:103190001B490860BDF80E1008B206F09BFB0546FF
:1031A0000F4906F09FF916494860BDF8101008B2A3
:1031B00006F090FB05460A4906F094F9104988602C
:1031C00001E000201FE702201DE700000094010835
:1031D00000980108009C010800007A4400A401083E
:1031E0006F12833A5C0800203C0800207C08002015
:1031F000FC070020DC0700201C080020BC08002081
:103200009C08002070B504460D464FF082412068AE
:1032100006F05AFC04D30020216806F04BFC02D1D2
:103220004FF082402060207906F05DFB0646216861
:1032300006F04AFC01D800202071237904F10C0229
:1032400052F82310A06806F047F9A060217904F134
:103250000C0040F821502379024652F82310A06850
:1032600006F0E8F8A0602079401C20712168A06871
:1032700006F06AF970BD000010B50446FE4920460C
:1032800006F022FC01D2FC4C05E0FC49204606F089
:1032900011FC00D2F94CFA49204606F015FC04D284
:1032A000F549204606F018F910BDF649204606F00B
:1032B00001FC04D2F049204606F0BCF8F4E72046B1
:1032C000F2E72DE9F04704464FF07C51204606F026
:1032D00009F9814625462E46EB48A0EB66063546A1
:1032E0002946484606F0FEF88246294606F0FAF8D6
:1032F00080464FF07F5106F0F2F80746294606F067
:10330000F1F805462846BDE8F08770B506460D463B
:1033100014462146304606F0D7FB01D2264605E08A
:103320002946304606F0C6FB00D22E46304670BD18
:103330000FB400B597B0D548B0F90600089006F074
:10334000C9FA0C90D148B0F90800089006F0C2FA0A
:103350000B90CE48B0F90A00089006F0BBFA0A902C
:103360002398CB49089006F0BDF80F902498C849DF
:10337000089006F0B7F80E902598C549089006F019
:10338000B1F80D90C3480078012806D0C1480078F4
:1033900018B1C048007802280BD14FF08040BE49D8
:1033A0000863BE4848634FF07F508862BB48C862DC
:1033B00019E0B8480078032815D1B748406B4FF0A2
:1033C0008041089006F076FB04D10020B249C86124
:1033D00008624862B248B0490863B2484863B248DC
:1033E00088620020C862AC48806906900A9906F09D
:1033F00079F80890A848406904900B9906F072F893
:103400000690A548006904900C9906F06BF80590A9
:10341000069906F00FF80790089906F00BF8169039
:103420004FF08C41169806F057F89B4948640A996A
:10343000084606F057F807900B99084606F052F830
:1034400005900C99084606F04DF80490059905F092
:10345000F1FF0690079905F0EDFF0890FFF731FFA7
:1034600016900C99169806F03DF80C900B9916984A
:1034700006F038F80B900A99169806F033F80A907F
:1034800085484069014606900A9806F02BF8089096
:1034900081488069014606900B9806F023F8079052
:1034A000089906F019F815907B4880690146069046
:1034B0000C9806F017F808907748006901460690C6
:1034C0000A9806F00FF80790089906F005F814908E
:1034D0007148406B01460790159806F003F8089074
:1034E0006D48C06901460790089805F0A3FF6A4936
:1034F000C8610846406B01460790149805F0F2FF3A
:1035000008906548006A01460790089805F092FF08
:10351000614908622798012840D10846006C01469D
:103520000790269805F0D8FF0890FFF7A5FE1690A3
:103530005948806A5C49089006F0BCFA22D1554887
:10354000007803281BD0169806F055FA21F00041A8
:103550004FF08042554BCDE9040106F0DAF8CDE991
:10356000060106F08BFA4C4988620846806A504A88
:103570004D490890FFF7C9FE4749886202E04A4872
:10358000454988624448806A0790169905F0AAFF69
:103590003F49089005F0A6FF099001E0002009903E
:1035A0003D48006B0590159905F09CFF07903A483F
:1035B00000690490099905F095FF05900F9905F0B1
:1035C00039FF0690079905F035FF08903248C06929
:1035D00001460790089805F02DFF0F902E48006BCC
:1035E0000590149905F07EFF07902B4840690490E0
:1035F000099905F077FF05900E9905F01BFF0690DD
:10360000079905F017FF08902348006A01460790C4
:10361000089805F00FFF0E901F48806907900999E0
:1036200005F060FF08900D9905F004FF0D901A4811
:1036300000681090184840681190174880681290F0
:103640001548C0681390139804900D9905F04AFF2F
:103650000690129802900E9905F044FF049011987C
:1036600080F0004002900F9905F03CFF0390049910
:1036700005F032FF05901DE00000B4430000B4C324
:1036800000003443000034C3DF59375F7806002060
:1036900039FA8E3C0C0000204C0000200AD7A33CD5
:1036A000CDCC4C3E0AD7233B0AD7233CE17AA43F3A
:1036B000CDCCCC3E069905F00FFFD549079005F01B
:1036C00011FF0890109801460790089805F0B2FE87
:1036D000D0490860139804900E9905F003FF0690F6
:1036E000129802900D9905F0FDFE0490109802903A
:1036F0000F9905F0F7FE0390049905F09BFE0590E5
:10370000069905F0E9FEC249079005F0EBFE089026
:10371000119801460790089805F08CFEBD49486055
:10372000139804900F9905F0DDFE06901198029011
:103730000D9905F0D7FE0490109802900E9905F0AF
:10374000D1FE0390049905F0C7FE0590069905F097
:1037500071FEAF49079005F0C5FE0890129801462A
:103760000790089805F066FEAA49886012980490B0
:103770000F9905F0B7FE0690119802900E9905F08A
:10378000B1FE0490109802900D9905F0ABFE0390E5
:10379000049905F04FFE0590069905F09DFE9C49A1
:1037A000079005F09FFE089013980146079008982F
:1037B00005F040FE9749C8600846C0680590084675
:1037C000C0680490059905F08DFE079091488068C7
:1037D0000390904880680290039905F083FE05905D
:1037E0008C48406801908B4840680090019905F032
:1037F00079FE039087480068019086480068009031
:10380000019905F06FFE0290039905F013FE0490F4
:10381000059905F00FFE0690079905F00BFE08903C
:10382000FFF74FFD16907B4800680890169905F049
:1038300059FE78490860084640680890169905F0D6
:1038400051FE74494860084680680890169905F052
:1038500049FE704988600846C0680890169905F0CE
:1038600041FE6C49C86008468068059008460068BB
:103870000490059905F036FE07906648C0680590EB
:10388000644840680490059905F02CFE069007995D
:1038900005F022FE4FF08041089005F023FE5D49BF
:1038A00008610846C068059008468068049005993C
:1038B00005F018FE07905748406805905548006885
:1038C0000490059905F00EFE0690079905F0B2FDEB
:1038D0004FF08041089005F005FE4E4948610846CA
:1038E00080680490084680680390049905F0FAFD0A
:1038F0000690484840680490464840680390049900
:1039000005F0F0FD0590069905F094FD4FF080411B
:10391000079005F0E7FD4FF07E51089005F0DFFDC0
:103920003C498861084680690790084640690690CE
:10393000079907F013FE3849089005F0D3FD354983
:10394000886308460069079007F0A6FB80F00040F6
:103950003149089005F0C6FD2E49C8630846C06885
:1039600001900846C0680090019905F0BBFD0390E6
:10397000284880680190274880680090019905F0E8
:10398000B1FD0290039905F055FD4FF08041049080
:1039900005F0A8FD4FF07E51059005F0A0FD0790C1
:1039A0001C48C06802901B4800680190029905F00D
:1039B00099FD04901748806802901648406801906D
:1039C000029905F08FFD0390049905F033FD4FF047
:1039D0008041059005F086FD0690079907F0BEFD31
:1039E0000D49089005F07EFD0A4908640846806B81
:1039F0000890FFF741FC074988630846C06B0890B0
:103A0000FFF73AFC0349C86317B05DF814FB0000E8
:103A10000AD7A33A4C000020E12E65422DE9FF5F52
:103A200004468A46BAF1000F04D05E48216AFFF7C7
:103A3000E9FB2062D4E9080105F04EFDA0625A4975
:103A4000206A05F081FD834605F0D5FF4FF0404226
:103A5000564BCDE9000107F0C5FF0022544BCDE9DC
:103A6000020105F053FE07460022524B05F051FEBD
:103A7000054606F003F881464F48C0F80090C4F8A8
:103A80002C90616BE06A05F027FD2063BDE8FF9F85
:103A90002DE9FE4F49480078032802D0002048490C
:103AA00008604849B1F90010A1F2DC5005F020FF90
:103AB00080460022444B05F02CFE06464FF0804223
:103AC000424B05F026FE04460D463D48006805F0D1
:103AD00092FF824622462B4605F074FDCDE9000197
:103AE00005F0CCFF364908604FF07E520021344883
:103AF0000068FFF70AFC324908603548416C3548D8
:103B0000FFF780FB324948643348016B3348FFF7C5
:103B100079FB314908632E49486C314905F0E2FCD4
:103B200004462D4902AB2F4A086B214601F0E2FE04
:103B30002D4801682B48006805F0CEFC04462B494F
:103B400005F0D0FC2A4908602A48029905F0CAFC11
:103B5000044627480168284805F0C4FC054621466C
:103B600005F068FC22490860084602F0B2FB1D48D7
:103B700000681D4908604FF07E50204B00901948A6
:103B800002680F4801681E4801F040F91D48009086
:103B90001B481A4BC169164802681B4801F036F9E8
:103BA000BDE8FE8F9400002080E6C547955BC83FC6
:103BB0000000F03F40A5E540480100200C00002037
:103BC00024010020300400200000E03FE17A943F0F
:103BD0004C000020C00000208C030020EC000020DE
:103BE0002BCD9C3A3C0100204001002000004842BF
:103BF00044010020CDCC4C3ECDCC4C3F0000C8420F
:103C00009C08002000009643BC080020B0B5044684
:103C10000D4635703346012221461A2002F01AFD66
:103C200007463846B0BD70B504460D462B46012206
:103C300021461A2002F041FD0646304670BD08B507
:103C400069460D20FFF7EFFF9DF80000FF2801D027
:103C5000002008BD80210A20FFF7D8FF6420FCF770
:103C60006CFA49210920FFF7D1FF41210A20FFF713
:103C7000CDFF01210B20FFF7C9FF0120E9E7FEB5C9
:103C80000446207801286DD1FE480088401CFD497B
:103C90000880084600880A2190FBF1F201FB12001F
:103CA000012803D10103F84802F069FEF5480088B5
:103CB000142190FBF1F201FB1200022803D1C10292
:103CC000F14802F05AFE00206070EE480088B0F51E
:103CD000FA6F48DAB4F90400B4F91C10884202DA29
:103CE000B4F9040001E0B4F91C00A083B4F90600A3
:103CF000B4F92010884202DAB4F9060001E0B4F900
:103D000020002084B4F90800B4F92410884202DAB3
:103D1000B4F9080001E0B4F92400A084B4F9040067
:103D2000B4F91E10884202DDB4F9040001E0B4F9D0
:103D30001E00E083B4F90600B4F92210884202DDC7
:103D4000B4F9060001E0B4F922006084B4F9080077
:103D5000B4F92610884202DDB4F9080001E0B4F994
:103D60002600E084A6E00020C64908804FF4805178
:103D7000C54802F004FEB4F91C10B4F91E208818DE
:103D800005F0A8FD06464FF0804105F0DDFB054635
:103D900005F0CCFD00B2A086B4F92010B4F92220C1
:103DA000881805F097FD06464FF0804105F0CCFBE2
:103DB000054605F0BBFD00B2E086B4F92410B4F965
:103DC0002620881805F086FD06464FF0804105F054
:103DD000BBFB054605F0AAFD00B220874FF07E50E0
:103DE000A062B4F92210B4F92020881A05F072FDFF
:103DF0000546B4F91E10B4F91C20881A05F06AFDB6
:103E00000646294605F0A0FBE062B4F92610B4F995
:103E10002420881A05F05EFD0546B4F91E10B4F999
:103E20001C20881A05F056FD0646294605F08CFB35
:103E30002063A08E80B2ADF80000E08E80B2ADF8B5
:103E40000200208F80B2ADF804009049A06A05F00E
:103E500049FB054605F083FD80B2ADF806008B49AD
:103E6000E06A05F03FFB054605F079FD80B2ADF84C
:103E700008008649206B05F035FB054605F06FFD0F
:103E800080B2ADF80A0001218148FEF74FFF0622FB
:103E900069467F48FEF769FF01207E49887400204B
:103EA000A083E08320846084A084E084012060708B
:103EB00000202070FEBD2DE9F04104460D46164657
:103EC00033462A4621461A2002F0F7FB07463846B9
:103ED000BDE8F0812DE9F04F93B000200F900E90D7
:103EE00081466D490620FFF79EFE6B48801E807854
:103EF00000F0010000287DD010AA06210020FFF765
:103F0000DAFF6548801E807800F00200E8B99DF86D
:103F100041009DF8401001EB002000B25E49891E6F
:103F200088809DF843009DF8421001EB002000B20C
:103F30005949891EC8809DF845009DF8441001EB41
:103F4000002000B25449891E08815348801E007821
:103F5000012806D15048801EFFF791FE13B0BDE83E
:103F6000F08F4D48801E407801284ED14A49891E65
:103F7000B1F90410484A921EB2F93420881A05F0AB
:103F8000A9FC0D904448801E806A80F0004840469D
:103F90000D9905F0A7FA074605F0C8FC00B23E49A6
:103FA000891E8880B1F906103B4A921EB2F936206C
:103FB000881A05F08FFC0D903748801EC06A80F08B
:103FC000004840460D9905F08DFA074605F0AEFC15
:103FD00000B23149891EC880B1F908102E4A921EDC
:103FE000B2F93820881A05F075FC80462A48801EF0
:103FF000016B00E012E1404605F074FA074605F057
:1040000095FC00B22449891E08812349891EB1F913
:10401000040005F05FFC0746204905F095FA1E49AB
:10402000891EC860B1F9060005F054FC07461B491B
:1040300005F08AFA1849891E0861B1F9080005F0EF
:1040400049FC0746154905F07FFA1349891E486166
:10405000B1F904104943104A921EB2F906200E4BE2
:104060009B1EB3F9063002FB03120B49891EB1F9FE
:104070000810094B9B1EB3F9083001FB032005F023
:1040800029FC0DE0BA0100200008014000007A443C
:10409000009C0108580400203A06002000803B469E
:1040A0000746FFF70EF906468349B1F9040005F00B
:1040B00011FC0746314605F015FA0F907E49B1F91B
:1040C000060005F007FC0746314605F00BFA0E9096
:1040D0007949B1F9080005F0FDFB0746314605F0C6
:1040E00001FA81467549886B754905F0FBF9074669
:1040F000744905F029FA82467049C86B704905F089
:10410000F1F907466F4905F01FFA8346584608F053
:1041100055F9074605F06FFCCDE90601504605F05C
:104120006AFCCDE9000107F047FB07468846484690
:1041300005F061FC3A464346CDE9020105F0E9FA93
:10414000CDE90401DDE9062305F0E3FACDE90A0132
:10415000584608F033F90590504608F02FF90490BE
:104160000E9905F0BFF98046059905F0BBF9069058
:10417000584607F06FFB80460F9905F0B3F90746E4
:10418000069905F057F9079005F035FCCDE90801CF
:10419000DDE90A2305F016FACDE90C0105F06EFC05
:1041A0000446504608F00AF949460D9005F09AF980
:1041B0000746504607F04EFB0D900E9905F092F918
:1041C0008046394605F088F90546284605F013FC77
:1041D00007468846204605F00EFC3A464346CDE9A0
:1041E000060107F0FBF80022374BCDE9080105F086
:1041F00090FA4FF0C042354BCDE90A0105F0FBFAC9
:10420000CDE90C0105F03AFC2B49C8630846C16BA7
:104210002F48FEF7F7FF2849C86300E09EE600BF7D
:104220009CE62DE9F041244A5169506905F05AF99C
:104230000646214A1169106905F054F907461E4ADD
:10424000D168D06805F04EF98046394605F0F2F89D
:104250000546314605F0EEF80446204608F098F988
:104260001549886188691B4905F024FC05D312496A
:104270008869194905F028FC09D218480088642883
:104280000DDA16480088401C1449088007E01348DE
:10429000008820B111480088401E104908800F484E
:1042A0000088322803DD01200349C87002E00020A5
:1042B0000149C870BDE8F081380600204C0000209C
:1042C000DB0F49400000344300806640FB21094079
:1042D0008C010020C3F5A83E6666663FB801002049
:1042E000B0B504460D463570334601222146D02034
:1042F00002F0B0F907463846B0BD70B504460D4629
:104300002B4601222146D02002F0D7F9064630463E
:1043100070BD08B569467520FFF7EFFF9DF80000F6
:10432000682804D0FEA000F07FFA002008BD80219C
:104330006B20FFF7D5FF6420FBF7FFFE0B216B20FE
:10434000FFF7CEFF6420FBF7F8FE01211920FFF7ED
:10435000C7FF02211A20FFF7C3FF10211B20FFF720
:10436000BFFF08211C20FFF7BBFFF8491C20FFF707
:10437000C4FF00212320FFF7B3FF00213820FFF7FF
:10438000AFFF00213820FFF7ABFFF1A000F04CFA9F
:104390000120CBE77CB504466078012861D100207C
:1043A000E070F1480088C8283FDD0120E07000205F
:1043B0006070EE480068EC49098890FBF1F000B2AB
:1043C0006083EA484068E849098890FBF1F000B250
:1043D000A083E6488068E449098890FBF1F000B2C8
:1043E000E083608B80B2ADF80000A08B80B2ADF8A6
:1043F0000200E08B80B2ADF804000121DC48FEF73A
:1044000095FC03226946DA48FEF7AFFCC5B2032DDE
:1044100002D10120D74948740020D3490880D349EC
:1044200008604860886001207CBDD0480068B4F90D
:104430000E100844CD49086008464068B4F91010D1
:104440000844CA49486008468068B4F91210084414
:10445000C6498860C4480088401CC34908800020C1
:10446000E2E70020E0E77CB504462078012863D12C
:104470000020A070C0480088C8283FDB0120A07041
:1044800000202070BD480068BB49098890FBF1F00E
:1044900000B2A082B9484068B749098890FBF1F0A2
:1044A00000B2E082B5488068B349098890FBF1F01A
:1044B00000B22083A08A80B2ADF80000E08A80B20A
:1044C000ADF80200208B80B2ADF804000121AC48A9
:1044D000FEF72CFC03226946A948FEF746FCC5B24C
:1044E000032D02D10120A34908740020A3490860CC
:1044F00048608860A049088001207CBD9F48006812
:10450000B4F9061008449D49086008464068B4F9AB
:10451000081008449949486008468168B4F90A00BF
:10452000A0F5005008449549886093480088401CD5
:10453000914908800020E0E70020DEE72DE9F04106
:1045400004460D46164633462A462146D02002F040
:10455000B4F807463846BDE8F0811FB504466A4600
:104560000E213B20FFF7EAFF9DF801009DF80010A7
:1045700040EA012000B2E0809DF803009DF802109F
:1045800040EA012000B220819DF805009DF804104A
:1045900040EA012000B260819DF807009DF80610F6
:1045A00040EA012000B2A0819DF809009DF80810A2
:1045B00040EA012000B2E0819DF80B009DF80A104E
:1045C00040EA012000B220829DF80D009DF80C10F9
:1045D00040EA012000B260821FBD30B58DB069484D
:1045E000FFF7BBFF6748007801280ED16548FFF749
:1045F0003AFF012807D14FF07E5063490860002040
:1046000048608860C8600DB030BD5E4840780128C1
:104610000DD15C48FFF7BEFE012807D14FF07E5058
:1046200059490860002048608860C860EBE7554839
:10463000C0885449898A401A00B25249C880084645
:104640000089C98A401A00B24E490881084640894B
:10465000098B401A00B24B4948810846C089498BF2
:10466000401A00B24749C8810846008A898B401A1F
:1046700000B2444908820846408AC98B401A00B2F9
:1046800040494882B1F9060005F024F9054629465B
:104690003E48FEF7B7FD044605F048F900B2394937
:1046A000C880B1F9080005F015F9054629463848D3
:1046B000FEF7A8FD044605F039F900B2314908813A
:1046C000B1F90A0005F006F9054629463148FEF71A
:1046D00099FD044605F02AF900B22A494881B1F94A
:1046E0000E0005F0F7F8054629462B48FEF78AFD2F
:1046F000044605F01BF900B22249C881B1F9100047
:1047000005F0E8F8054629462448FEF77BFD0446F7
:1047100005F00CF900B21B490882B1F912003FE024
:104720005B4552524F525D4D505536303530204921
:104730006E6974204661696C3A44657669636520E8
:10474000494420213D20307836380A00D00200202C
:104750005B4F4B5D4D50553630353020496E697496
:10476000204F4B7E0A000000D4020020BC0600202F
:104770000098010858040020D2020020B006002052
:1047800000940108780600204C000020BC010020A5
:10479000E801002014020020400200206C020020EA
:1047A00005F098F8054629461B48FEF72BFD044600
:1047B00005F0BCF800B219494882B1F90E0005F0C5
:1047C00089F80446164904F08DFE1449C862B1F90F
:1047D000100005F07FF80446114904F083FE0F49EC
:1047E0000863B1F9120005F075F804460C4904F0AD
:1047F00079FE0A49486301210A48C06B2822CDE9A5
:104800000A0106491031684604F0DEFD03480FC86E
:10481000FEF78EFD00BFF6E6980200207806002025
:104820008FC2F53C380600200FB438B505A80090BB
:1048300081210748009B049A05F084FB84B2002084
:1048400000908021024800F004FE38BC5DF814FBA3
:10485000C80600202DE9F04704460D46052D5AD123
:104860004FF47A762088001F20806088001F6080C7
:10487000A088001FA080E088001FE080304605F07F
:1048800032F88046208805F02EF88146944A414649
:10489000FEF73BFD074605F062F82080304605F044
:1048A00022F88046608805F01EF881468C4A414611
:1048B000FEF72BFD074605F052F86080304605F004
:1048C00012F88046A08805F00EF88146844A4146D9
:1048D000FEF71BFD074605F042F8A080304605F0C4
:1048E00002F88046E08804F0FEFF81467C4A41469B
:1048F000FEF70BFD074605F032F8E0802088794985
:1049000008806088091D0880A088091D0880E0884B
:10491000091D088067E0032D49D140F22B4630463F
:1049200004F0E1FF8046208804F0DDFF81466C4AF8
:104930004146FEF7EAFC074605F011F86949088090
:10494000304604F0D0FF8046608804F0CCFF8146FA
:10495000634A4146FEF7D9FC074605F000F8614975
:10496000091D0880304604F0BEFF8046A08804F090
:10497000BAFF81465A4A4146FEF7C7FC074604F093
:10498000EEFF584908310880304604F0ACFF8046FD
:10499000E08804F0A8FF8146514A4146FEF7B5FC85
:1049A000074604F0DCFF4F490C3108801BE0022D64
:1049B0000AD140F22B404B490880091D0880091D8F
:1049C0000880091D08800EE01DB1012D01D0042DC5
:1049D00009D14FF47A7043490880091D0880091DE8
:1049E0000880091D0880BDE8F08700B589B0012165
:1049F000042002F0D1F90121082002F0CDF90121B3
:104A0000022002F0D6F90121084602F0C5F918206B
:104A10008DF80700C020ADF8040003208DF80600D3
:104A200001A9314801F0FCFE0320ADF8040001A902
:104A30002E4801F0F5FE40F6C310ADF81C00002032
:104A4000ADF81A00ADF81E004720ADF8180006A911
:104A50002448343803F028F801212248343803F080
:104A60007FFB6020ADF808000120ADF80A000020AF
:104A7000ADF8100002A91B48343803F052F802A91F
:104A80001848343803F08FF802A91648343803F078
:104A9000D7F802A91348343803F01DF9082111484A
:104AA000343803F08DFC08210E48343803F091FCB3
:104AB00008210C48343803F099FC0821094834389F
:104AC00003F09DFC4FF47A70094908804880888083
:104AD000C88000210648FFF7BDFE09B000BD0000F8
:104AE0000000E1443404004000080140000C014093
:104AF000D60200201FB50121084602F05AF9012113
:104B0000880703F007FE40F6C410ADF8040000204B
:104B1000ADF80200ADF806004720ADF80000694688
:104B20004FF0804002F0C0FF01221146900703F0D1
:104B300032FB0121880703F013FB1C208DF80C00C9
:104B400001208DF80D008DF80E008DF80F0003A8E0
:104B500002F08FFB1FBD1FB50121042002F029F9CF
:104B600001217A4803F0D6FD42F21070ADF804003E
:104B70000020ADF80200ADF806004720ADF80000B7
:104B80006946724802F090FF012211466F4803F017
:104B900002FB01216D4803F0E3FA1E208DF80C00A2
:104BA00001208DF80D0002208DF80E0001208DF8F7
:104BB0000F0003A802F05DFB1FBD10B5012188079F
:104BC00003F097FD00284CD061480088401C6049E4
:104BD0000880FFF702FD00F062F95D490888C117FF
:104BE00000EB91718910A0EB810109B9FFF772F90F
:104BF00057490888C11700EB5171C910A0EBC101DA
:104C000009B9FFF70EFB52490888C11700EB9171F3
:104C10008910A0EB8101012901D1FBF70AFD4C4964
:104C2000088800EBD0714910A0EB410109B9FBF7EE
:104C30004BFD47490888C11700EB5171C910A0EB23
:104C4000C101012909D143488078012805D1424892
:104C50004078012801D1FEF71BFF0121880703F0EE
:104C600059FD10BD70B50121384803F042FD002800
:104C700069D000F001FE39488078012806D1002073
:104C80003649887036493748FDF76EFD364800785A
:104C9000401C35490870084600780A2801D10020D8
:104CA00008703248407801282AD100202F494870E6
:104CB0002F4908802D4881782430FDF776F9054684
:104CC0002846FCF70AFC2948B0F846000A2190FB68
:104CD000F1F201FB1200042803D18102254801F002
:104CE0004EFE2248B0F846000A2190FBF1F201FB8B
:104CF0001200082803D141021E4801F03EFE70BD9B
:104D00001B480088401C1A49088008460088B0F5F6
:104D10007A7F14DB002008804FF40061154801F011
:104D20002EFEFBF776FF0446FBF735FF21462720D2
:104D3000FBF7A1FE4FF400610E4801F01EFE0121B9
:104D4000024803F0E7FC00BFD9E70000000800407C
:104D5000DE020020780600208C030020F8080020E6
:104D6000040E002072050020E2020020C40300208F
:104D7000E0020020000801402DE9F84F04460E46ED
:104D800017461D46DDF828803946304604F0A4FB5E
:104D9000E060E068FEF770FAE060B149E06804F0B6
:104DA000A1FB8146616904F045FB606185F0004923
:104DB0002A464946E069FEF7A8FA6061D4E9030192
:104DC00004F08AFBA061A169A06804F08BFB00904D
:104DD0006169606804F086FB8246E168206804F03F
:104DE00081FB8346514604F025FB8146009904F07F
:104DF00021FBE06188F0004942464946E069FEF740
:104E000084FAE061E0682061BDE8F88F2DE9F84F91
:104E100004460E4617461D46DDF8288039463046C2
:104E200004F05AFBE0608E49E06804F05BFB8146C9
:104E3000616904F0FFFA606185F000492A4649463D
:104E4000E069FEF762FA6061D4E9030104F044FB13
:104E5000A061A169A06804F045FB009061696068E9
:104E600004F040FB8246E168206804F03BFB834687
:104E7000514604F0DFFA8146009904F0DBFAE06164
:104E800088F0004942464946E069FEF73EFAE06193
:104E9000E0682061BDE8F88F002141617047F8B5F6
:104EA00070480078032804D06F48006C6F49086090
:104EB000F8BD6F49B1F9040004F00CFD07466D49D7
:104EC00004F00AFB044604F096FD21F0004105467B
:104ED0000022694B04F0A2FD05D26848FFF7DCFF11
:104EE0006748FFF7D9FF6249B1F9060004F0F2FC08
:104EF0000746604904F0F0FA044604F07CFD21F016
:104F00000041054600225C4B04F088FD05D25D4857
:104F1000FFF7C2FF5C48FFF7BFFF5C4800905248B4
:104F20005B4BC26B5B4801685448FFF76FFF574803
:104F300000904D48564B826B574801685248FFF726
:104F400065FF564800905648026B4C48554BC16966
:104F50004B48FFF75BFF514800905148C26A4A48EE
:104F6000504BC1694748FFF751FF4149B1F9020071
:104F700004F0B0FC05463F4904F0AEFA04464A4945
:104F800004F0B0FA3A49C861B1F9020004F0A2FC99
:104F90000746384904F0A0FA044604F02CFD21F03D
:104FA000004105460022414B04F038FD0AD240483A
:104FB0000078E8B92C48006C2C49086001203C4975
:104FC000087015E000203A4908702949C869244949
:104FD00004F088FA044625480168204604F02AFABD
:104FE0002249086008460068FEF746F91F49086034
:104FF000304800901C48264B026C1C4801682E4823
:10500000FFF7BAFE224800902548426B2A482B4BF6
:10501000C1692B48FFF7B0FE00BF49E70021C1601E
:1050200001614161C1618161704700B51348FFF7BB
:10503000F5FF1548FFF7F2FF1F48FFF7EFFF214884
:10504000FFF7ECFF0E48FFF7E9FF0E48FFF7E6FF1A
:105050001B48FFF7E3FF1C48FFF7E0FF00BD00001F
:105060000AD7233B0C0000204C000020E80200205F
:10507000300400200080BB4400003440FC070020C6
:105080005C0800203C080020DC0700200000B4423F
:105090000000C842540100205801002000003443A1
:1050A00078060020000048428FC2753D0000244071
:1050B000E60200200000F0411C0800200000204112
:1050C0007C0800209C080020BC08002000B587B0A8
:1050D0000121084601F060FE0121880301F069FE0C
:1050E0000121082001F058FE4FF46040ADF818008F
:1050F00018208DF81B0003208DF81A0006A93048EF
:1051000001F08EFB0020ADF804004FF48270ADF882
:1051100006000020ADF80800ADF80A00ADF80C005C
:105120004FF40070ADF80E001020ADF81000002014
:10513000ADF812000720ADF8140001A9214803F0D2
:1051400013FB01211F4803F0B4FB07B000BD70B58D
:10515000054605E0601CC4B2C82C01DB002070BD10
:105160000221184803F029FC0028F3D029461548ED
:1051700003F0D0FB002405E0601CC4B2C82C01DBA6
:105180000020ECE701210F4803F017FC0028F3D0C2
:105190000C4803F0C1FBC6B23046E0E710B5044648
:1051A000084800884FF6C77108400649088008463D
:1051B0000088204308800121024803F07AFB10BDDB
:1051C000000C0140003800401FB50121082001F00B
:1051D000E3FD0121084601F0DFFD04208DF8070002
:1051E0008002ADF8040003208DF8060001A92E48C6
:1051F00001F016FB0C21012001F028FC4FF4805037
:10520000029000208DF80C000C208DF80D0001207C
:105210008DF80E0002A803F015FC28208DF8000080
:1052200000208DF8010002208DF8020001208DF889
:105230000300684602F01DF81FBD10B54FF4805002
:1052400003F066FC78B34FF40061184801F097FB57
:10525000FBF7DFFC044604F04000B8B11448B0F896
:105260004600401C1249A1F846000120487008463B
:10527000FBF7F6FC04F0200040B101200C49087057
:105280000846B0F84400401CA1F8440021462720FD
:10529000FBF7F1FB4FF40061044801F06EFB4FF4A3
:1052A000805003F046FC10BD000C01400008014096
:1052B000C403002070B504460D46002603E0701CB0
:1052C00086B2002070BDB6F5FA7F03DAC84880794F
:1052D0000128F4D02A462146C64804F075F829462C
:1052E000C54803F011FD0121C34803F0F8FC01207B
:1052F000BF49887100BFE5E710B586B004460121BB
:10530000042001F049FD0121084601F045FD01217D
:10531000880301F041FD18208DF817004FF400704C
:10532000ADF8140003208DF8160005A9B34801F06C
:1053300077FA04208DF817000002ADF8140005A9D3
:10534000AE4801F06DFA01940020ADF80A00ADF806
:105350000C00ADF810000C20ADF80E000020ADF8E8
:10536000080001A9A64801F0BEFD0121A44801F0F2
:1053700046FE012240F22441A14801F04CFE0122E8
:1053800040F226619E4801F046FE25208DF800007F
:1053900001208DF8010003208DF8020001208DF816
:1053A0000300684601F065FF0122C021944801F026
:1053B00057FE00F02DF906B010BD10B54021904801
:1053C00001F0F8FE90B140218D4801F000FF8848BF
:1053D0000078012803D100208549887108700120D8
:1053E0008349487008460089401C088140F22441E6
:1053F000834801F0F5FE58B3814801F071FE7C4806
:105400004089401C7A4948814FF4003003F096FCF3
:1054100000217948143003F062FC0120744988703F
:105420007548143003F072FC0446C4F180007049E2
:10543000888080217048143003F066FC01216E489A
:10544000143003F04CFC40F224416D4801F0F2FEB0
:1054500010BD70B504460D46002609E0701C86B2EA
:105460006420FAF786FEB6F5007F01DD002070BDEE
:10547000644880790128F1D02A462146624803F029
:10548000A3FF29465C483C3003F03EFC01215A480A
:105490003C3003F024FC01205A49887100BFE6E744
:1054A00010B586B004460121042001F075FC0121ED
:1054B000084601F071FC0121480401F07AFC182033
:1054C0008DF817000420ADF8140003208DF81600A5
:1054D00005A94A4801F0A4F904208DF81700082016
:1054E000ADF8140005A9454801F09AF9019400208F
:1054F000ADF80A00ADF80C00ADF810000C20ADF8C6
:105500000E000020ADF8080001A9404801F0EBFCB6
:1055100001213E4801F073FD012240F224413B4845
:1055200001F079FD012240F22661384801F073FD57
:1055300026208DF8000000208DF8010003208DF852
:10554000020001208DF80300684601F092FE01225E
:10555000C0212E4801F084FD00F0C6F806B010BD51
:1055600010B54021294801F025FE68B140212748A7
:1055700001F02DFE23480078012805D100202149A3
:10558000887108700120487040F224411F4801F0E2
:1055900027FE60B31D4801F0A3FD1A484089401C56
:1055A000184948814FF4001003F0C8FB002112484D
:1055B000283003F094FB0120124988700E482830EF
:1055C00003F0A4FB0446C4F580600E4988804FF4C4
:1055D00080610948283003F097FB012106482830F4
:1055E00003F07DFB40F22441084801F023FE10BD8A
:1055F000EC0800200409002044000240000801409B
:1056000000380140F8080020040A0020004400404F
:1056100000B58DB00121084601F0B1FB674803F0E9
:1056200091FA674802906748039000200490802018
:105630000590002006908020079000200890099097
:105640000A904FF480500B9000200C9002A95B4808
:10565000143803F019FB01215848143803F03FFBBC
:105660005648283803F06EFA554802905648039081
:10567000102004900020059002A95048283803F01B
:1056800003FB00214D48283803F029FB01220221A9
:105690004A48283803F02FFB0E208DF80400012023
:1056A0008DF8050003208DF8060001208DF8070015
:1056B00001A801F0DEFD0DB000BD10B54FF40050A3
:1056C00003F028FB78B14FF4005003F037FB0021C2
:1056D0003A48283803F003FB01203C49087008468B
:1056E0000089401C088110BD00B58DB0012108461D
:1056F00001F045FB314803F025FA35480290354862
:105700000390002004904FF48060059000200690E4
:10571000802007900020089009900A904FF4405094
:105720000B9000200C9002A9244803F0ADFA01214F
:10573000224803F0D4FA2148143003F003FA244835
:10574000029025480390102004900020059002A9A3
:105750001A48143003F098FA00211848143003F066
:10576000BEFA012202211548143003F0C4FA1120B8
:105770008DF8040000208DF8050001208DF806004A
:105780008DF8070001A801F074FD0DB000BD10B543
:105790004FF0007003F0BEFA78B14FF0007003F0E4
:1057A000CDFA00210548143003F099FA01200B4985
:1057B000087008460089401C088110BD6C0002403A
:1057C000043801408409002004090020EC0800206E
:1057D00004440040040E0020040A0020F8080020C1
:1057E00000B587B0012140F2052001F0D5FA4FF451
:1057F000004001F035FA0120ADF8180000208DF8C6
:105800001B0003208DF81A0006A9344801F008F89F
:10581000002001908DF808008DF809004FF46020F9
:1058200003900020049001208DF8140001A92C4859
:1058300003F0D9FA072301220021294803F06BFB6A
:105840000121274803F0FBFA254803F01AFB00BFAB
:10585000234803F01BFB0028FAD1214803F020FB6A
:1058600000BF1F4803F021FB0028FAD101211C488A
:1058700003F025FB07B000BD70B50121184803F007
:105880001EFB00BF0221164803F08AFC0028F9D055
:10589000134803F0A7FB13490880088804F023F895
:1058A000054629461048FDF7ADFC044604F057F8BC
:1058B0000C490880088804F016F806460B4903F0E6
:1058C00011FE05464FF08B4103F03EFE04460849A9
:1058D00003F008FE0349486070BD00000008014065
:1058E0000024014004120020EC0200203333534016
:1058F000000030410FB5ADB0FE488068139004F051
:105900007AF8FD4AFD4BCDE9140103F002FFCDE921
:105910001801F848406801461390F94803F0E2FD89
:105920001490F448006801461390149803F082FD27
:10593000159004F060F8CDE91601DDE9182303F0B5
:1059400041FECDE91A0104F099F82090E9488068F9
:1059500001461A90EA4803F0C5FD1B90E5484068EF
:1059600001461A901B9803F065FD2190E14880687C
:105970002290E448006A139004F03DF8E24AE34BB9
:10598000CDE9140103F0C5FECDE91801DD484069F9
:105990000E90DC48C0690D900E9903F04BFD0F90FE
:1059A00004F029F8D84AD94BCDE9100103F0B1FE33
:1059B000CDE91401D3480069079004F01CF8CDE943
:1059C0000A01D0488069019004F015F80022D04BFC
:1059D000CDE9020103F09DFECDE90601C9488068CA
:1059E000019004F008F80022C94BCDE9020103F050
:1059F00090FECDE90401DDE9062303F0E3FDCDE9E6
:105A00000801DDE90A2303F0DDFD4FF06042C14BE0
:105A1000CDE90C0103F07DFECDE91001B948C06865
:105A20000990B84840680890099903F003FDB4490B
:105A30000A9003F057FD0C90B74800680A90B148EF
:105A4000006809900A9903F0F5FC0B900C9903F09B
:105A5000F1FC0D9003F0CFFFCDE90E01DDE910233D
:105A600003F0B0FDCDE91201DDE9142303F0AAFD36
:105A7000CDE91601DDE9182303F0A4FDCDE91A01F3
:105A800003F0FCFF23909F48006A139003F0B3FFDC
:105A90004FF020429D4BCDE9140103F03AFECDE9D1
:105AA0001801984840690B9003F0A5FFCDE90E015D
:105AB0009448C069099003F09EFF0022944BCDE901
:105AC0000A0103F026FECDE90C01DDE90E2303F007
:105AD00079FD4FF060428F4BCDE9100103F019FEC4
